:020000040800F2
:10000000080C0020B10400088502000887020008DF
:100010008B0200088F020008930200080000000015
:10002000000000000000000000000000970200082F
:1000300099020008000000009B0200089D020008D1
:10004000CB040008CB040008CB040008CB04000854
:10005000CB040008CB040008CB040008CB04000844
:10006000CB040008CB040008CB040008CB04000834
:10007000CB040008CB040008CB040008CB04000824
:10008000CB040008CB040008CB040008CB04000814
:10009000CB040008CB040008CB040008CB04000804
:1000A000CB040008CB040008CB040008CB040008F4
:1000B00053260008CB0400083B260008CB040008A8
:1000C000CB040008CB040008CB040008CB040008D4
:1000D000CB04000883240008CB040008CB040008EC
:1000E0005D340008CB040008CB040008CB040008F2
:1000F000CB040008CB040008CB040008CB040008A4
:10010000CB040008CB040008CB040008CB04000893
:10011000CB040008CB040008CB040008CB04000883
:10012000CB040008CB040008CB040008CB04000873
:10013000CB040008CB040008CB040008CB04000863
:10014000CB040008CB040008CB040008CB04000853
:10015000CB040008CB040008CB040008CB04000843
:10016000CB040008CB040008CB040008CB04000833
:10017000CB040008CB040008CB040008CB04000823
:10018000CB040008CB04000800F002F800F041F8AE
:100190000AA090E8000C82448344AAF10107DA45E2
:1001A00001D100F036F8AFF2090EBAE80F0013F0F3
:1001B000010F18BFFB1A43F0010318478C9C000085
:1001C000AC9C0000103A24BF78C878C1FAD8520716
:1001D00024BF30C830C144BF04680C6070470000C1
:1001E0000023002400250026103A28BF78C1FBD840
:1001F000520728BF30C148BF0B607047642906F022
:100200006385002070471FB508F01DFA1FBD10B5AB
:1002100010BD06F027FF1146FFF7F5FF00F008F8C4
:1002200006F045FF03B4FFF7F2FF03BC02F0CEF87F
:10023000A82002F049F84FF4FA3002F0E4F84FF445
:10024000A06000F055F902F057FA02F09EFC02F0AF
:1002500021F902F077F94FF4FA7002F097F802F002
:100260003FFD03F02DFC03F03FFC02F081FA012179
:1002700042F2D00002F0B0FA02F000FA01E003F01E
:100280008DF9FCE7704700BFFEE700BFFEE700BF47
:10029000FEE700BFFEE770477047704770470000F9
:1002A0000CB50020019000907648006840F4803042
:1002B0007449086000BF7348006800F40030009083
:1002C0000198401C0190009818B90198B0F5A04F12
:1002D000F1D16C48006800F4003010B101200090AA
:1002E00001E0002000900098012846D16548403088
:1002F000006840F0805063494031086062480068FF
:1003000040F44040604908605E48083000685D493C
:10031000083108600846006840F40040086008465C
:10032000006840F4A05008605848091F0860081F82
:10033000006840F08070091F086000BF51480068E5
:1003400000F000700028F9D040F2057050490860B4
:100350004C480830006820F003004A490831086022
:100360000846006840F00200086000BF45480830B9
:10037000006800F00C000828F8D10CBD10B5454805
:10038000006840F47000434908603E48006840F04F
:1003900001003C49086000203A49083108603948AA
:1003A00000683D490840374908603C48091D08601D
:1003B000081F006820F48020091F086000203149D0
:1003C0000C310860FFF76CFF4FF000603149803955
:1003D000086010BD70B50020002202230024022115
:1003E000284D08352D6805F00C0020B1042806D0F2
:1003F000082834D107E02A4D2A4E356033E02A4DD3
:10040000284E35602FE01F4D2D1D2D68C5F38054FB
:100410001C4D2D1D2D6805F03F0154B1224DB5FB3B
:10042000F1F5184E361D3668C6F3881605FB06F240
:1004300009E01B4DB5FBF1F5124E361D3668C6F3CB
:10044000881605FB06F20F4D2D1D2D68C5F30145DD
:100450006D1C6B00B2FBF3F5124E356003E0104DDE
:10046000104E356000BF00BF064D08352D68C5F33E
:1004700003150E4E705D0B4D2D68C540094E35605D
:1004800070BD000000380240007000400854400772
:10049000003C024088ED00E0FFFFF6FE1030002433
:1004A0000024F4003C00002000127A0040000020EC
:1004B0000948804709480047FEE7FEE7FEE7FEE7F8
:1004C000FEE7FEE7FEE7FEE7FEE7FEE70448054934
:1004D000054A064B704700007D03000889010008AB
:1004E00008060020080C002008080020080800204A
:1004F00032490143324A1160704770B50021002330
:100500000F22C4781CB32E4C246804F4E064C4F5B4
:10051000E064C4F30721C1F10404E3B20A41447862
:100520009C40E1B28478144021430C07210E254CF5
:1005300005786155047804F01F050124AC40057866
:100540006D11AD0005F1E025C5F8004109E0047822
:1005500004F01F050124AC401B4D0678761145F8C8
:10056000264070BD194A0A400243154B1B1F1A60F2
:10057000704739B1124A121D12680243104B1B1DFD
:100580001A6006E00E4A121D126882430C4B1B1DB6
:100590001A607047042808D14FF0E021096941F042
:1005A00004014FF0E022116107E04FF0E0210969FA
:1005B00021F004014FF0E022116170470000FA05BC
:1005C0000CED00E000E400E080E100E080FFFF1FB0
:1005D000002041490860091D0860091D0860091DC7
:1005E00008603E483C4914310860704700213A4990
:1005F0008279002A3AD00A46126803689A430B4669
:100600001A600A1D126803689A430B1D1A6002796A
:1006100011440A6803681A430A602F4A08321268B4
:1006200003689A432C4B08331A601A1D126803683A
:100630009A43294B0C331A604279102A0ED11A1FA3
:10064000126803681A43244B08331A601A1D126893
:1006500003681A43204B0C331A600DE01E4942799F
:1006600011440A6803681A430A6005E002791144DC
:100670000A6803689A430A607047002101600171AB
:100680000C214171002181717047134910310968B3
:100690000143114A103211607047014600200E4A92
:1006A000143212680A400AB1012000E000207047AD
:1006B000094914310860704701460020064A143287
:1006C00012680A400AB1012000E000207047024988
:1006D0001431086070470000003C0140FFFF7F00BC
:1006E00010B504469848844208D10121084600F01C
:1006F0003CFC0021012000F038FC76E09348844265
:1007000008D10121022000F030FC0021022000F07D
:100710002CFC6AE08E48844208D10121042000F0BC
:1007200024FC0021042000F020FC5EE08948844283
:1007300008D10121082000F018FC0021082000F059
:1007400014FC52E08448844208D10121102000F0BA
:100750000CFC0021102000F008FC46E07F48844299
:1007600008D10121202000F000FC0021202000F011
:10077000FCFB3AE07A48844208D10121402000F095
:10078000F4FB0021402000F0F0FB2EE0754884428D
:1007900008D10121802000F0E8FB0021802000F03A
:1007A000E4FB22E07048844208D10121801500F06A
:1007B000DCFB0021A01500F0D8FB16E06B4884425A
:1007C00008D10121401500F0D0FB0021601500F098
:1007D000CCFB0AE06648844207D10121001500F0F5
:1007E000C4FB0021201500F0C0FB10BDF0B50A4687
:1007F00000210023002400BF3DE0012505FA01F39C
:10080000156805EA03049C4234D105684F000326AD
:10081000BE40B543056015794E00B54006683543C6
:1008200005601579012D02D01579022D16D1856844
:100830004F000326BE40B543856055794E00B54054
:10084000866835438560456801268E40B54345601E
:10085000456896798E40B6B235434560C5684F000D
:100860000326BE40B543C560D5794E00B540C66885
:100870003543C560491C1029BFD3F0BD4FF6FF7149
:1008800001600021017141718171C171704708B52A
:100890004FF480320092009A0A430092009AC2619B
:1008A000C161009AC261C2690092C269009208BD2A
:1008B0000246002013690B400BB1012000E000202C
:1008C00070470146086980B27047024600205369AC
:1008D0000B400BB1012000E0002070470146486941
:1008E00080B2704701837047418370470AB101832A
:1008F00000E0418370474161704742694A4042616C
:100900007047F0B5002300244D07ED0E02FA05F301
:10091000CE1000F1200555F826504E07F70E0F2691
:10092000BE40B543CF1000F1200646F82750CE1048
:1009300000F1200555F8265045EA0304CE1000F1D9
:10094000200545F82640F0BD0000024000040240AA
:1009500000080240000C0240001002400014024057
:1009600000180240001C0240002002400024024007
:100970000028024010B50121080700F029FB0021E2
:100980004FF0805000F024FB10BD524908627047C0
:1009900001460020504A106820F0E0000843106033
:1009A00070474C49086170474A49A0310860704758
:1009B0004849A4310860704701460020464A106843
:1009C00020F4404008431060704742490864704773
:1009D00040494864704730B13F49096841F44021BB
:1009E0003D4A116005E03C49096821F440213A4A3A
:1009F0001160704718B10121364AD16202E000212E
:100A0000344AD162704718B10121324A916202E042
:100A10000021304A916270472E494862704710B5F4
:100A2000024600202C4B186840F6034398431043BD
:100A3000294B1860294B1B6843F00403274C2360A3
:100A4000012901D130BF00E020BF244B1B6823F0F7
:100A50000403224C236010BD10B5024600201E4B3B
:100A6000186840F60343984310431B4B18601B4B18
:100A70001B6843F00403194C2360012901D130BFE6
:100A800000E020BF154B1B6823F00403134C2360C8
:100A900010BD1148006840F002000F4908600F487F
:100AA000006840F004000D49086000BF00BF30BF7F
:100AB000704701460020084A52680A400AB10120E6
:100AC00000E0002070470449096841EA8001024AB9
:100AD0001160704700000E420070004010ED00E011
:100AE000F948006840F00100F74908600020F64925
:100AF00008310860F4480068F4490840F249086089
:100B0000F348091D0860F348EF4984310860F04854
:100B10001038091D0860EC48006820F48020EA497C
:100B200008600020E8490C310860E7498C31086012
:100B300070470021E44A921C1170114608707047FA
:100B400010B501460022002300204A11012A02D1DB
:100B5000DD4C236808E0022A03D1DB4C70342368A3
:100B600002E0D94C7434236801F01F020124944040
:100B70001C400CB1012000E0002010BD38B5002061
:100B800000900024002500BF3120FFF7D9FF054663
:100B90000098401C00900098B0F5A04F01D0002DA7
:100BA000F2D03120FFF7CCFF08B1012400E000248F
:100BB000204638BD01460020C34A106820F0F800E6
:100BC00040EAC10010607047C349086070470021C7
:100BD000BD4A703211701170012802D004280AD168
:100BE00004E00121B84A7032117005E00521B64ACF
:100BF0007032117000E000BF00BF7047B749086055
:100C0000704770B5049C41EA82150126C6EB530675
:100C100045EA0645054345EA0465AB4E361D356099
:100C200070BDAD4908667047820142EA0172A64B69
:100C300084331A607047A8498866704710B58301ED
:100C400043EA016343EA02739F4C8834236010BD7A
:100C5000A14908677047A049C86470470246002050
:100C6000994B0833186820F0EC6042EA01031843FE
:100C7000954B08331860704702460020924B0833AA
:100C8000186820F0784042EA010318438E4B08337D
:100C900018607047014600208B4A0832106820F027
:100CA000030008431060704787480830006800F070
:100CB0000C00704701460020834A0832106820F07B
:100CC000F000084310607047014600207E4A083259
:100CD000106820F4E050084310607047014600207F
:100CE000794A0832106820F4604040EAC100106080
:100CF0007047F0B5002100220024022500260223BF
:100D0000714F08373F6807F00C0121B1042905D065
:100D1000082937D105E0724F076036E0714F076050
:100D200033E0694F3F1D3F68C7F38056664F3F1D54
:100D30003F6807F03F036EB16A4FB7FBF3F7DFF888
:100D400088C10CF1040CDCF800C0CCF3881C07FB54
:100D50000CF40CE0624FB7FBF3F7DFF86CC10CF159
:100D6000040CDCF800C0CCF3881C07FB0CF4564FD5
:100D70003F1D3F68C7F301477F1C7D00B4FBF5F7BB
:100D8000076002E0564F076000BF00BF4E4F0837B4
:100D90003F6807F0F0010909534F7A5C0768D740B4
:100DA0004760494F08373F6807F4E051890A4E4FC2
:100DB0007A5C4768D7408760434F08373F6807F43D
:100DC0006041490B484F7A5C4768D740C760F0BD27
:100DD000002100F44072B2F5407F0AD13A4A08324D
:100DE000116821F4F811414A02401143364A083291
:100DF0001160354A70321268C0F30B031A43324B4C
:100E000070331A6070473549443908607047334978
:100E10004039086070473649086070470146002035
:100E2000294A8C32106820F01F004A1E1043264ABF
:100E30008C321060704701460020234A8C321068C3
:100E400020F4F8504A1E40EA02201F4A8C321060FB
:100E50007047014600201C4A8C32106820F4401074
:100E600008431060704701460020174A8C32106812
:100E700020F4400008431060704701460020124AE9
:100E80008C32106820F440300843106070471949D4
:100E90000860704739B10C4A3032126802430A4B7D
:100EA00030331A6006E0084A303212688243064B3B
:100EB00030331A607047F9B1034A34321268024382
:100EC000014B34331A601CE000380240FFFFF6EAA1
:100ED000103000240030002000004742800E4742BE
:100EE0000024F40000127A0050000020FFFCFF0FE5
:100EF0005C014742E01147428F4A126882438E4BA1
:100F00001A60704739B18C4A121D126802438A4B2D
:100F10001B1D1A6006E0884A121D12688243864B28
:100F20001B1D1A60704739B1834A0C3212680243A4
:100F3000814B0C331A6006E07F4A0C321268824300
:100F40007D4B0C331A60704739B17B4A10321268FE
:100F50000243794B10331A6006E0774A1032126868
:100F60008243754B10331A60704739B1724A243A84
:100F700012680243704B243B1A6006E06E4A243A22
:100F8000126882436C4B243B1A60704739B16A4A3D
:100F9000203A12680243684B203B1A6006E0664A1A
:100FA000203A12688243644B203B1A60704739B183
:100FB000614A1C3A126802435F4B1C3B1A6006E010
:100FC0005D4A1C3A126882435B4B1C3B1A607047B7
:100FD00039B1594A143A12680243574B143B1A600C
:100FE00006E0554A143A12688243534B143B1A6088
:100FF000704739B1504A103A126802434E4B103BC9
:101000001A6006E04C4A103A126882434A4B103B81
:101010001A60704739B1484A1C3212680243464B85
:101020001C331A6006E0444A1C3212688243424B69
:101030001C331A60704739B13F4A203212680243AC
:101040003D4B20331A6006E03B4A2032126882434F
:10105000394B20331A60704739B1374A243212684D
:101060000243354B24331A6006E0334A24321268B7
:101070008243314B24331A60704739B12E4A2C32E7
:10108000126802432C4B2C331A6006E02A4A2C3299
:1010900012688243284B2C331A60704739B1264AB4
:1010A000303212680243244B30331A6006E0224A81
:1010B000303212688243204B30331A607047012867
:1010C00008D11D493C31096841F008011A4A3C32F7
:1010D000116007E018493C31096821F00801164AFF
:1010E0003C321160704739B1134A273A12780243F3
:1010F000114B273B1A7006E00F4A273A12788243B9
:101100000D4B273B1A7070470B484030006840F089
:101110008070094940310860704701460020064A46
:10112000283A12680A400AB1012000E00020704706
:1011300001492639087070473438024010B5012142
:101140008803FFF756FF00214FF48040FFF751FF5F
:1011500010BD1C49086070471B490862704730B5D4
:1011600000228B071C0F0F2303FA04F2154B0833E0
:101170008C1053F824309343124C08348D1044F8EB
:10118000253023468C1053F824308C07240F00FAA6
:1011900004F423430B4C08348D1044F8253030BD43
:1011A0000949DC3108607047084908607047002031
:1011B00004492031096801F4807109B1012000E07F
:1011C00000207047003801400000274200042742F9
:1011D00010B50446FE48844208D101210846FFF7B5
:1011E00008FF00210120FFF704FF9DE0B4F1804FCC
:1011F00008D101210846FFF7EBFE00210120FFF78F
:10120000E7FE91E0F348844208D101210220FFF774
:10121000DFFE00210220FFF7DBFE85E0EE4884427E
:1012200008D101210420FFF7D3FE00210420FFF79D
:10123000CFFE79E0E948844208D101210820FFF778
:10124000C7FE00210820FFF7C3FE6DE0E44884429A
:1012500008D101211020FFF7BBFE00211020FFF76D
:10126000B7FE61E0DF48844208D101212020FFF76A
:10127000AFFE00212020FFF7ABFE55E0DA488442A4
:1012800008D101210220FFF7B4FE00210220FFF760
:10129000B0FE49E0D548844209D101210804FFF796
:1012A000A8FE00214FF48030FFF7A3FE3CE0D048B9
:1012B000844209D101214804FFF79BFE00214FF42D
:1012C0000030FFF796FE2FE0CA48844209D1012181
:1012D0008804FFF78EFE00214FF48020FFF789FE7F
:1012E00022E0C548844208D101214020FFF770FE6A
:1012F00000214020FFF76CFE16E0C048844208D170
:1013000001218020FFF764FE00218020FFF760FEAE
:101310000AE0BB48844207D101218015FFF758FE3F
:101320000021A015FFF754FE10BD00220288A84B33
:1013300098420ED0AC4B98420BD0B0F1804F08D001
:10134000A44B984205D0A44B984202D0A34B98429C
:1013500004D14FF68F731A404B881A43A04B984222
:1013600007D0A04B984204D04FF6FF431A400B8998
:101370001A4302804B68C3620B880385944B9842E2
:1013800002D0994B984201D18B7A03860123838244
:1013900070474FF0FF3141600021018001814180A1
:1013A000817270470185828270470A460021018858
:1013B0004FF68F73194011430180704741627047A7
:1013C000C16270470146486A70470146088D704700
:1013D00021B1028842F00202028004E002884FF646
:1013E000FD731A400280704721B1028842F0040266
:1013F000028004E002884FF6FB731A4002807047B7
:1014000021B1028842F08002028004E002884FF697
:101410007F731A400280704702884FF6F7731A40B4
:10142000028002880A430280704702884FF6FF4319
:101430001A40028002880A430280704721B1028864
:1014400042F00102028004E002884FF6FE731A4067
:101450000280704770B5002400220023058C4FF6EF
:10146000FE7635400584028C8388048B4FF68F7599
:101470002C40B51E2C400D882C43751E2A408D89AA
:101480002A434D882A43524DA84202D0564DA842C5
:1014900013D14FF6F7752A40CD892A434FF6FB75D5
:1014A0002A408D882A434FF6FF652B404FF6FF55A3
:1014B0002B400D8A2B434D8A2B43838004838D68F8
:1014C0004563028470BD70B5002400220023058CA2
:1014D0004FF6EF7635400584028C8388048B48F6FE
:1014E000FF752C404FF6FF452C400D884FF6FF76D8
:1014F00006EA05252C434FF6DF752A408D8906EA5A
:1015000005152A434D8806EA05152A43304DA842A1
:1015100002D0354DA8421DD14FF67F752A40CD89A6
:101520004FF6FF7606EA05152A434FF6BF752A40A7
:101530008D8806EA05152A434FF6FF352B404FF2FA
:10154000FF752B400D8A06EA85052B434D8A06EA76
:1015500085052B43838004838D688563028470BD79
:1015600070B5002400220023058C4FF6FF6635403D
:101570000584028C8388848B4FF68F752C404FF640
:10158000FC752C400D882C434FF6FF552A408D8961
:101590004FF6FF7606EA05252A434D8806EA05251B
:1015A0002A430B4DA84202D00F4DA84238D14FF22A
:1015B000FF752A40CD894FF6FF7606EA05252A43B6
:1015C0004FF6FF352A408D8806EA05252A4319E0A3
:1015D000000001400004004000080040000C0040F2
:1015E0000010004000140040000401400040014091
:1015F000004401400048014000180040001C004029
:10160000002000404EF6FF752B404DF6FF752B4035
:101610000D8A06EA05152B434D8A06EA05152B436C
:10162000838084838D68C563028470BD70B5002299
:1016300000230024058C4EF6FF7635400584038C8C
:101640008488828B48F6FF752A404FF6FF452A4072
:101650000D884FF6FF7606EA05252A434DF6FF75FD
:101660002B408D8906EA05352B434D8806EA053562
:101670002B43FE4DA84202D0FD4DA84208D14BF6A7
:10168000FF752C400D8A4FF6FF7606EA85152C4330
:10169000848082838D680564038470BD002101808D
:1016A0004180818081608181C18101824182704756
:1016B00070B50346002000241846183001258D40DF
:1016C000ACB21D8CA5431D8409B108290AD100EBD9
:1016D000610005684FF68F76354005600568154353
:1016E00005600FE00D1FC5F34E052844056848F658
:1016F000FF763540056005684FF6FF7606EA02265C
:101700003543056070BD4163704781637047C163B5
:101710007047016470470A460021018B4FF68F73B2
:1017200019401143018370470A460021018B48F696
:10173000FF7319404FF6FF7303EA02231943018335
:1017400070470A460021818B4FF68F731940114371
:10175000818370470A460021818B48F6FF73194048
:101760004FF6FF7303EA02231943818370470A4649
:101770000021018B4FF6F773194011430183704725
:101780000A460021018B4FF2FF7319404FF6FF7399
:1017900003EA02231943018370470A460021818B23
:1017A0004FF6F77319401143818370470A460021B1
:1017B000818B4FF2FF7319404FF6FF7303EA022348
:1017C0001943818370470A460021018B4FF6FB7352
:1017D00019401143018370470A460021018B4FF6DF
:1017E000FF3319404FF6FF7303EA022319430183C5
:1017F00070470A460021818B4FF6FB731940114355
:10180000818370470A460021818B4FF6FF331940D0
:101810004FF6FF7303EA02231943818370470A4698
:101820000021018B4FF67F731940114301837047EC
:101830000A460021018BC1F30E014FF6FF7303EA44
:1018400002231943018370470A460021818B4FF61A
:101850007F7319401143818370470A460021818BB1
:10186000C1F30E014FF6FF7303EA0223194381838C
:1018700070470A460021018C4FF6FD731940114351
:10188000018470470A460021018C4FF6F773194016
:101890001143018470470A460021018C4FF6DF7323
:1018A00019404FF6FF7303EA02131943018470478E
:1018B0000A460021018C4FF67F7319404FF6FF73E3
:1018C00003EA02131943018470470A460021018C80
:1018D0004FF6FF5319404FF6FF7303EA02231943F3
:1018E000018470470A460021018C4FF2FF731940B2
:1018F0004FF6FF7303EA02231943018470470A4637
:101900000021018C4DF6FF7319404FF6FF7303EA77
:10191000023319430184704730B5002301248C4001
:10192000A3B2048C9C430484048C02FA01F5ADB28A
:101930002C43048430BD30B5002304248C40A3B272
:10194000048C9C430484048C02FA01F5ADB22C4350
:10195000048430BD828B4FF2FF331A408283828B26
:101960004FF6FF7303EA01231A4382837047F0B5F1
:101970000C461546002100220026078C4EF6FF7CFF
:1019800007EA0C070784818B028C4FF6FF7707EA82
:10199000043640F6FF4739404FF6FF7707EA052740
:1019A00039434FF6FF7707EA0337394345F6FF77A8
:1019B0003A4046F480573A4381830284F0BD828BDB
:1019C0004FF6F3731A408283828B0A4382837047F7
:1019D000F0B50C461546002100220026078C4FF674
:1019E000FF6C07EA0C070784818B028C4FF6FF77A8
:1019F00007EA04264FF60C7739404FF6FF7707EADF
:101A000003172F4339434FF2FF573A4046F480778C
:101A10003A4381830284F0BD028B4FF2FF331A40B8
:101A20000283028B4FF6FF7303EA01231A430283FA
:101A30007047F0B50C461546002100220026078CA1
:101A40004FF6EF7C07EA0C070784018B028C4FF6F8
:101A5000FF7707EA041640F6FF4739404FF6FF7755
:101A600007EA033739434FF6FF7703E000000140F0
:101A70000004014007EA052739434FF65F773A40F3
:101A800046F010073A4301830284F0BD028B4FF603
:101A9000F3731A400283028B0A4302837047F0B546
:101AA0000C46154600210022068C4FF6FE773E407C
:101AB0000684018B028C4FF60C7631407E1C06EAC0
:101AC00003162E4331434FF6F576324044F00106BB
:101AD000324301830284F0BD70B505460C46208870
:101AE00050B92389A28861882846FFF7D8FFE1888A
:101AF0002846FFF7CBFF25E0208804280AD1238958
:101B0000A28861882846FFF794FFE1882846FFF7FE
:101B100083FF17E0208808280AD12389A2886188DA
:101B20002846FFF755FFE1882846FFF748FF09E000
:101B30002389A28861882846FFF719FFE188284693
:101B4000FFF708FF70BD00210180418001218180E5
:101B50000021C180018170472DE9F04105460C4606
:101B600000260127608808B9022600E00026A08828
:101B7000012801D1022700E001272088A0B923898C
:101B8000A28861882846FFF78AFFE1882846FFF788
:101B90007DFF23893A4631462846FFF74AFFE18810
:101BA0002846FFF739FF13E02389A2886188284679
:101BB000FFF73FFFE1882846FFF72EFF23893A46CB
:101BC00031462846FFF76BFFE1882846FFF75EFFA6
:101BD000BDE8F0810146486B70470146886B70474D
:101BE0000146C86B70470146086C70470A884B88ED
:101BF0001A438B881A43CB881A430B891A434B89A3
:101C00001A438B891A43A0F84420704700210180B1
:101C100041808180C180018141818181704731B1E2
:101C2000B0F8442042F40042A0F8442005E0B0F8A7
:101C30004420C2F30E02A0F84420704721B18288EC
:101C400042F00402828004E082884FF6FB731A405F
:101C50008280704721B1828842F00102828004E0D4
:101C600082884FF6FE731A40828070471AB18389CA
:101C70000B43838102E083898B4383817047818298
:101C8000704702460020138A0B400BB1012000E090
:101C900000207047CA430282704730B502460020D8
:101CA00000230024158A05EA0103958905EA010449
:101CB00013B10CB1012000E0002030BDCA43028204
:101CC000704741EA0203A0F8483070471AB183898F
:101CD0000B43838102E083898B438381704721B169
:101CE000828842F00802828004E082884FF6F7730F
:101CF0001A408280704701894FF6F87211400181C5
:101D000070470A46002101894FF68F73194011432D
:101D10000181704730B504460D4629462046FFF73D
:101D2000F0FF208940F00700208130BD2DE9F0410F
:101D300004460D4616461F46602D06D13B4601223D
:101D400031462046FFF775FE05E03B46012231464D
:101D50002046FFF7A4FE29462046FFF7D2FF208940
:101D600040F007002081BDE8F08130B50C4600212D
:101D70000189C9B24FF6FF7505EA032515432543CE
:101D80002943018130BD2DE9F04105460E46174635
:101D90009846002443463A4631462846FFF7E5FF79
:101DA0002C894FF6F870044044F007044FF68F700A
:101DB000044044F070042C81BDE8F081F0B5044685
:101DC0000D4616461F463B46324629462046FFF73B
:101DD000CCFF208940F480402081F0BD82884FF6FE
:101DE0008F731A40828082880A43828070470289FA
:101DF0004FF6F8731A40028102890A430281704744
:101E000002894FF67F731A40028102890A430281D8
:101E10007047F0B50C4615461E46002100220023EF
:101E20000189028B038C4FF6F877394021434FF636
:101E3000FC473A4040F201173A434FF6DD773B400A
:101E40004FF6FF7707EA06172F433B4301810283D2
:101E50000384F0BD21B1828842F08002828004E0D8
:101E600082884FF67F731A4082807047A0F8501026
:101E70007047000010B50446FA48844208D1012199
:101E80001020FFF7B6F800211020FFF7B2F857E056
:101E9000F548844209D101214804FFF799F800214F
:101EA0004FF40030FFF794F84AE0F048844209D13B
:101EB00001218804FFF78CF800214FF48020FFF700
:101EC00087F83DE0EA48844209D10121C804FFF7C0
:101ED0007FF800214FF40020FFF77AF830E0E54862
:101EE000844209D101210805FFF772F800214FF45F
:101EF0008010FFF76DF823E0DF48844208D101210C
:101F00002020FFF776F800212020FFF772F817E075
:101F1000DA48844209D101218807FFF759F80021E6
:101F20004FF08040FFF754F80AE0D548844207D1CB
:101F300001214005FFF74CF800216005FFF748F844
:101F400010BD2DE9FF4705460E460024A14600BFFF
:101F5000A046B08900B100BF2C8A24F44054F08818
:101F600004432C82AC8941F20C608443B0883189EF
:101F70000843718908430443AC81AC8A24F440745B
:101F8000B0890443AC826846FEF7B3FEB54885428B
:101F900002D0B948854202D1DDF80C9001E0DDF8AD
:101FA0000890A88900F4004040B109EBC90000EB9B
:101FB000091031684900B0FBF1F707E009EBC900EF
:101FC00000EB091031688900B0FBF1F76420B7FB22
:101FD000F0F004012009642101FB1078A88900F4C5
:101FE000004040B1322000EBC800B0FBF1F000F03F
:101FF0000700044308E0322000EB08106421B0FB26
:10200000F1F000F00F0004432C81BDE8FF874FF48E
:102010001651016000218180C18001810C21418124
:1020200000218181704710B502460020108A20F4FB
:1020300070600B884C8823438C882343CC882343CF
:102040001843108210BD0021018041808180C18031
:10205000704721B1828942F40052828104E0828972
:102060004DF6FF731A4082817047028B02F47F4263
:102070000283028B0A430283704721B1828942F4B2
:102080000042828103E08289C2F30E02828170479E
:1020900021B1828A42F40062828204E0828A4FF295
:1020A000FF731A4082827047C1F308028280704732
:1020B00001468888C0F308007047028A4FF6F07323
:1020C0001A400282028A0A430282704721B1828941
:1020D00042F00202828104E082894FF6FD731A40C9
:1020E0008281704782894FF2FF731A408281828910
:1020F0000A4382817047028A4FF6DF731A400282D8
:10210000028A0A430282704721B1028A42F4804265
:10211000028204E0028A4BF6FF731A400282704783
:10212000818941F001018181704721B1828A42F0A9
:102130000802828204E0828A4FF6F7731A40828294
:102140007047028BD2B20283028B42EA01220283E1
:10215000704721B1828A42F02002828204E0828AA2
:102160004FF6DF731A408282704721B1828A42F0B3
:102170001002828204E0828A4FF6EF731A40828254
:102180007047828A4FF6FB731A408282828A0A4322
:102190008282704721B1828A42F00202828204E088
:1021A000828A4FF6FD731A40828270471AB1838A81
:1021B0000B43838202E0838A8B4383827047F0B5AE
:1021C0000346002400260025002040F66A17B94285
:1021D00000D100BF1846C1F3421401F01F060127C9
:1021E00007FA06F5012C01D10C3004E0022C01D1D4
:1021F000103000E014301AB107682F43076002E086
:102200000768AF430760F0BD02460020B1F5007FCC
:1022100000D100BF13880B400BB1012000E000206B
:10222000704701F40072B2F5007F00D100BFCA43CD
:102230000280704770B5024600240023002500206C
:1022400040F66A16B14200D100BFC1F3421501F059
:102250001F03012606FA03F3012D13D1968933409B
:1022600017E000000010014000440040004800401A
:10227000004C004000500040001401400078004035
:10228000007C0040022D02D1168A334001E0968A7C
:1022900033400C12012606FA04F41688344013B1B8
:1022A0000CB1012000E0002070BD10B50022002319
:1022B00040F66A14A14200D100BF0A1201249440E2
:1022C000A3B2DC43048010BD10B504466FF00400D7
:1022D000FEF760F9E11704EB5171C1F3C701394A08
:1022E00011701046007800EB4001C1EBC0104FF6B2
:1022F000FF7101EAC0003449088010BD0146314A2F
:1023000012784A434FF0E0235A6100229A611A463C
:10231000126942F001021A6100BF4FF0E022106919
:1023200000F001021AB100F48032002AF5D04FF01B
:10233000E022126922F001024FF0E0231A6100222C
:102340009A6170470146204A12884A434FF0E023C1
:102350005A6100229A611A46126942F001021A611A
:1023600000BF4FF0E022106900F001021AB100F442
:102370008032002AF5D04FF0E022126922F00102EB
:102380004FF0E0231A6100229A61704770B504464D
:102390004FF4077094FBF0F0C6B24FF4077094FB53
:1023A000F0F100FB114085B205E04FF40770FFF734
:1023B000C9FF701EC6B2002EF7D115B12846FFF72F
:1023C000C1FF70BD6000002062000020014600BF18
:1023D00070472C4A12785AB900BF2B4A128802F073
:1023E0004002002AF9D0C2B2274B1B1D1A8009E017
:1023F00000BF264A128802F04002002AF9D0C2B279
:10240000224B9A80704710B586B0044601210846D9
:10241000FEF740FD01211020FEF796FD072209215D
:102420001B48FEF76EFA07220A211948FEF769FADF
:102430004FF4C060049002208DF814008DF8150050
:1024400000208DF8160001208DF8170004A910480F
:10245000FEF7CCF900940020ADF80400ADF80600BA
:10246000ADF80800ADF80C000C20ADF80A00694684
:102470000648FFF766FD01210448FFF7EAFD06B0B4
:1024800010BD7047070000200044004000100140CC
:102490000000024000B589B001210846FEF743FD67
:1024A00001210846FEF7F6FC032001908DF8090093
:1024B00002208DF8080001208DF80A008DF80B002D
:1024C00001A96A48FEF792F9012200216748FEF748
:1024D00018FA012211466548FEF713FA06A8FEF71E
:1024E00058FF0020ADF818004FF6FF70079000204D
:1024F000ADF82000ADF81A0006A94FF08040FEF7B5
:1025000014FF00231A4603214FF08040FFF781FC9F
:1025100003A8FFF718FB0020ADF8140003A94FF043
:102520008040FFF7D9FA01218807FFF7B3FB0122AA
:1025300011469007FFF79AFB01218807FEF77EFFFF
:1025400009B000BD00B589B001210420FEF7EBFC05
:1025500001210220FEF79EFCC020019003208DF88F
:10256000090002208DF8080001208DF80A008DF87E
:102570000B0001A93E48FEF739F9022206213C482A
:10258000FEF7BFF9022207213948FEF7BAF906A87B
:10259000FEF7FFFE0020ADF818004FF6FF70079021
:1025A0000020ADF82000ADF81A0006A93148FEF76A
:1025B000BCFE00231A4603212E48FFF72AFC03A87D
:1025C000FFF7C1FA0020ADF8140003A92948FFF76E
:1025D00083FA01212748FFF75DFB012211462548B8
:1025E000FFF744FB01212348FEF728FF09B000BD97
:1025F0000146022904D003290BD0042919D10FE088
:102600004FF08042526A10B200224FF080435A626B
:1026100011E0194A126810B20022174B1A600AE042
:10262000144A2432126810B20022124B24331A606A
:1026300001E0002000BF00BF70470E481030008846
:102640000C481030008820F001000A491031088041
:1026500070474FF08040008A4FF08040008A20F0A1
:1026600001004FF0804108827047000000000240E6
:1026700000040240000800402404004000B585B07A
:1026800001210220FEF706FC4FF4004000900020DC
:102690008DF8040003208DF8050001208DF8070057
:1026A00069461448FEF7A2F801218803FEF74CFCA6
:1026B0000F210120FEF753FD4FF40040029000204F
:1026C0008DF80C000C208DF80D0001208DF80E0007
:1026D00002A8FDF78BFF28208DF8100001208DF84F
:1026E00011008DF812008DF8130004A8FDF705FF06
:1026F00005B000BD000402401CB501210220FEF718
:10270000C9FB4FF40050009001208DF80400002018
:102710008DF8060003208DF8050001208DF80700D4
:1027200069460F48FEF762F84FF400510C48FEF777
:10273000D9F81CBD18B900210A4A11600FE00A49F6
:102740000968491C084A1160814208D10549096895
:10275000C943064AC2F8B4120021034A1160704707
:1027600000040240B48240426800002000804042E1
:102770001CB501210320FEF78DFB302000900120C5
:102780008DF8040000208DF8060003208DF8050068
:1027900001208DF8070069463E48FEF727F83021F2
:1027A0003C48FEF79FF84FF41040009001208DF850
:1027B000040000208DF8060003208DF8050001209C
:1027C0008DF8070069463448FEF710F84FF41041C1
:1027D0003148FEF787F81CBD30B58BB004460D4676
:1027E00001210846FEF7B0FB01210846FEF752FB27
:1027F000012208212848FEF784F801220B212648EF
:10280000FEF77FF84FF41060099002208DF8280041
:1028100003208DF8290000208DF82A0001208DF872
:102820002B0009A91C48FDF7E1FFADF81850002066
:10283000ADF81A000794ADF8200006A91748FEF776
:1028400074FD7020ADF804000120ADF806000220F0
:10285000ADF8100001A91148FEF7FCFD01A90F48D1
:10286000FEF7E4FE01210D48FFF7D9F908210B48D6
:10287000FEF77DFF08210948FEF798FF0121074870
:10288000FEF7BEFD01210548FEF7D8FDFFF770FFFA
:102890000BB030BD000402400000024000000140C7
:1028A00010B50A461AB10123FE4C236002E0002352
:1028B000FC4C2360002116E00023FA4C34342360E2
:1028C00000F080031BB10123241D236003E00023DB
:1028D000F44C383423600123F24C34342360430633
:1028E000180E4B1CD9B20829E6DB0123ED4C2360FE
:1028F00010BD30B500241CE004F1B001C8B20021C5
:10290000FFF7CEFF00210846FFF7CAFF0021102085
:10291000FFF7C6FF002508E0E34901EBC501085DAC
:102920000121FFF7BDFF681CC5B2802DF4DB601CE0
:10293000C4B2082CE0DB30BD00B500218D20FFF7CC
:10294000AFFF00211420FFF7ABFF0021AF20FFF7FE
:10295000A7FF00BD00B500218D20FFF7A1FF0021DA
:102960001020FFF79DFF0021AE20FFF799FF00BD6B
:1029700030B500240CE0002506E00020CA4901EB38
:10298000C5010855681CC5B2802DF6DB601CC4B2B9
:10299000082CF0DBFFF7ADFF30BDF0B51446002684
:1029A0007F2801DC3F2900DDF0BD0B46CF1701EB8E
:1029B0005777FF10C7F10707FAB2CF1701EB577728
:1029C000FF10A1EBC707FDB2C5F107070123BB400C
:1029D000DEB24CB1B44B03EBC0039B5C3343B24F4C
:1029E00007EBC007BB5408E0AF4B03EBC0039B5C95
:1029F000B343AD4F07EBC007BB5400BFD4E72DE98D
:102A0000F04F80460C4615461E46A346A5F1200011
:102A1000C5B200273EE00C2E07D105EB4500A349C7
:102A200001EB800010F8079004E0A14800EB0510CE
:102A300010F807904FF0000A26E009F0800028B156
:102A400021464046099AFFF7A8FF09E0099808B90E
:102A5000012000E00020024621464046FFF79DFF8E
:102A60004FEA49604FEA1069601CC4B2A4EB0B0046
:102A7000B04205D15C4608F1010000F0FF0806E015
:102A80000AF1010000F0FF0ABAF1080FD5DB00BF20
:102A9000781CC7B2B742BEDBBDE8F08F10B5024666
:102AA000012000E050430B00A1F10104E1B2F9D193
:102AB00010BD2DE9FF4F81B0074691461E460E9D81
:102AC0004FF0000A002439E0301B401EC1B20A203A
:102AD000FFF7E4FFB9FBF0F00A21B0FBF1F201FBD4
:102AE0001208BAF1000F16D1701EA04213DDB8F122
:102AF000000F0ED10120AB4605EBDB71491001FB45
:102B000004710090C8B22B4620220299FFF777FF8C
:102B100012E04FF0010A0120AB4605EBDB714910D2
:102B200001FB04710090C8B208F13001CAB22B4613
:102B30000299FFF764FF00BF601CC4B2B442C3DB5C
:102B400005B0BDE8F08F78B505460E46144618E08E
:102B50007A2D03DD002506F11000C6B23A2E04DD01
:102B6000002005460646FFF703FF0120009022786B
:102B70000C2331462846FFF742FF05F10800C5B295
:102B8000641C20780028E3D178BD1CB50121042005
:102B9000FEF780F901210807FEF7C5F90120FDF7CE
:102BA000F4FE0020FEF713F84EF201000090012021
:102BB0008DF8040000208DF806008DF805008DF8D2
:102BC000070069463B48FDF711FE012039491A31DB
:102BD00008804003088040000880400008800020F2
:102BE00030493C3108606420FFF7D0FB01203249B6
:102BF000C1F8BC020021AE20FFF752FE0021D52013
:102C0000FFF74EFE00215020FFF74AFE0021A820CA
:102C1000FFF746FE00213F20FFF742FE0021D320B0
:102C2000FFF73EFE00210846FFF73AFE0021402054
:102C3000FFF736FE00218D20FFF732FE0021142021
:102C4000FFF72EFE00212020FFF72AFE00210220A0
:102C5000FFF726FE0021A120FFF722FE0021C02061
:102C6000FFF71EFE0021DA20FFF71AFE00211220D6
:102C7000FFF716FE00218120FFF712FE0021EF2052
:102C8000FFF70EFE0021D920FFF70AFE0021F120F8
:102C9000FFF706FE0021DB20FFF702FE00213020B7
:102CA0000CE0000080024142040100205A86000826
:102CB000CE8A00080008024000004142FFF7F0FD04
:102CC0000021A420FFF7ECFD0021A620FFF7E8FD7E
:102CD0000021AF20FFF7E4FDFFF74AFE1CBD000016
:102CE0001CB501210220FEF7D5F84FF4406000909A
:102CF00001208DF8040000208DF8060003208DF8D7
:102D0000050001208DF807006946F848FDF76EFDC3
:102D10000120F7490860F749C1F8AC021CBD10B5A5
:102D2000F248006820F44000F04908600846006856
:102D300040F4800008600120ED49091D0860ED485D
:102D4000D0F82C0208B9002010BD0120E849086025
:102D5000FFF7D4FA0020E749C1F8AC02E4487C3818
:102D6000006808B10020EFE70120FFF7C7FA002054
:102D7000DF4908600120E7E710B5DC48006820F46F
:102D80004000DA4908600846006840F480000860A6
:102D90000020D7490860D749C1F8AC020120FFF7ED
:102DA000ADFA0120D2490860D249C1F8AC02FFF760
:102DB000A5FA10BD10B50024CC48006820F44000EE
:102DC000CA4908600846006808600120C849091D12
:102DD0000860FFF793FA0120C649C1F8A802FFF77F
:102DE0008DFA0AE0601CC4B2322C03DDFFF7C4FF89
:102DF000002010BD0120FFF781FABD487C38006833
:102E00000028EFD1BA4908600120F2E710B5002090
:102E1000B7490860B548006820F44000B34908602D
:102E20000846006840F4800008600020B149C1F8FD
:102E3000AC020120FFF762FA0120AD490860FFF7FC
:102E40005DFA0020AB49C1F8A80210BD10B5002002
:102E5000A7490860A548006820F44000A34908601D
:102E60000846006840F4800008600120A149C1F8CC
:102E7000AC02FFF743FA01209D490860FFF73EFAD4
:102E800000209C49C1F8A80210BD70B504469748BF
:102E9000006820F44000954908600846006840F446
:102EA00080000860002092490860002516E0E009D3
:102EB0008F49091D08606006040E0120FFF71EFA05
:102EC00001208C49C1F8A802FFF718FA00208849B0
:102ED00008600120FFF712FA681CC5B2082DE6DB76
:102EE00070BD2DE9F04105460E4617469846FFF79E
:102EF00016FF10B90120BDE8F0816906080EFFF742
:102F0000C4FFFFF757FF18B9FFF736FF0120F2E7BC
:102F10003046FFF7BAFFFFF74DFF00240BE018F82B
:102F20000400FFF7B2FFFFF745FF18B9FFF724FFD2
:102F30000020E0E7641CBC42F1DBFFF71DFF00202E
:102F4000D9E770B5054600246848006820F44000C1
:102F500066490860084600680860002616E0002000
:102F6000634908600220FFF7C9F901206149C1F8EF
:102F7000A8026006040E5E487C38006808B1601C38
:102F8000C4B20220FFF7BAF9701CC6B2082EE6DB05
:102F900015B1FFF73BFF01E0FFF758FF204670BD7A
:102FA0002DE9F04106460F4614461D46FFF7B7FED1
:102FB00010B90120BDE8F0817106080EFFF765FF2A
:102FC000FFF7F8FE18B9FFF7D7FE0120F2E7384601
:102FD000FFF75BFFFFF7EEFEFFF7A1FE012101EB1C
:102FE0004601C8B2FFF751FFFFF7E4FE0DE0012CE8
:102FF00004D10020FFF7A5FF287003E00120FFF7B0
:10300000A0FF28706D1C601EC4B2002CEFD1FFF72A
:10301000B3FE0020CEE770B505460E460024FFF74C
:103020007EFE2846FFF731FF641CFFF7C3FE3046E3
:10303000FFF72BFF641CFFF7BDFEFFF770FE691C56
:10304000C8B2FFF722FF641CFFF7B4FE0020FFF7B1
:1030500078FF0446FFF790FE204670BD2DE9F04151
:103060000746884615461E460024FFF758FE384698
:10307000FFF70BFFFFF79EFE4046FFF706FFFFF747
:1030800099FEFFF74CFE791CC8B2FFF7FEFEFFF772
:1030900091FE00BF0DE0681EA04204D00120FFF7A2
:1030A00050FF305503E00020FFF74BFF3055601C08
:1030B000C4B2AC42EFDBFFF75FFE2046BDE8F08113
:1030C0002DE9F04180460D4616461F460024FFF7C5
:1030D00026FE4046FFF7D9FEFFF76CFE2846FFF7B5
:1030E000D4FEFFF767FE00BF0DE0000000040240C1
:1030F000A882404200804042385DFFF7C6FEFFF7DD
:1031000059FE601CC4B2B442F6DBFFF735FE012065
:10311000BDE8F08170B505460E4614463146284696
:10312000FFF779FF2070012070BD37B504460D46CA
:1031300002AB012229462046FFF7C2FF3EBD2DE922
:10314000F8430746884614461D46089E6A4641468F
:103150003846FFF7DFFF28B3601CFF2101FA00F0BB
:10316000C4F108012944491EFF220A41104300F01E
:10317000FF09C5F1080006FA00F0C6B2C4F1070065
:1031800006419DF8000000EA090000909DF800004B
:10319000304300909DF8002041463846FFF7C5FFB8
:1031A000BDE8F8830020FBE7F8B506460F46144655
:1031B0001D466A4639463046FFF7ACFF2DB1012067
:1031C000A0409DF80010084305E00120A0409DF8B4
:1031D000001021EA0000C0B200909DF8002039469E
:1031E0003046FFF7A2FFF8BD0146002901DA484248
:1031F00000E00846704770B52DED048B05460C467F
:10320000002D07DD0020C04908600120BF49C1F83A
:10321000940206E00120BC4908600020BB49C1F8C7
:1032200094022846FFF7E0FF064604F0C4FE41EC96
:10323000190B9FEDB70B53EC102B04F0D3FE41ECB0
:10324000180B04F08BFEB4490864002C07DD002045
:10325000B24908600120B249C1F8B00206E001207D
:10326000AE4908600020AE49C1F8B0022046FFF721
:10327000BBFF064604F09FFE41EC190B9FEDA40B2B
:1032800053EC102B04F0AEFE41EC180B04F066FE7C
:10329000A1494863BDEC048B70BD42F20800A1490E
:1032A00009684242914202DA41429E4A11609D49B8
:1032B0000968814201DD9B4908609B4909684242D7
:1032C000914202DA4142984A116097490968814265
:1032D00001DD95490860704770B52DED088B0446F7
:1032E0000D46601900EE100AB8EEC00A8F4880ED56
:1032F000000A8F48006805F035F941EC190B9FED85
:103300008D0B53EC102B04F06DFE41EC180B04F008
:10331000F3FB874908608548006805F023F941EC14
:103320001B0B9FED860B53EC102B04F05BFE41EC66
:10333000190B7F48006805F015F941EC1A0B53ECA6
:10334000192B04F00BFC41EC180B04F0D5FB784969
:1033500008607C4890ED000A0846D0ED000A30EE87
:10336000200A784880ED000A90ED000A7648D0EDFA
:10337000000A30EE600A734880ED000A90ED000A02
:10338000DFED720AB4EEE00AF1EE10FA03DD9FED14
:103390006F0A80ED000A6B4890ED000ADFED6C0AC1
:1033A000B4EEE00AF1EE10FA03D29FED690A80ED67
:1033B000000A5F4890ED000A6648D0ED000A20EE52
:1033C000200A6048D0ED000A634890ED001A00EE34
:1033D000810A624880ED000A90ED000ABDEEC00A45
:1033E00010EE100ABDEC088B70BDDFED5D1A70EEBB
:1033F000611AB0EE611A5B49D1ED001A61EE811AD3
:10340000594991ED002A40EE821AFDEEE11A11EEC3
:10341000900A704710B50446012C1ED100F0CDFB78
:10342000524890ED000AB1EE400A514880ED000A82
:103430005048B0F90000404200EE100AB8EEC00A51
:103440004D4880ED000A4B48B0F9040000EE100A28
:10345000B8EEC00A494880ED000A10BD10B52F48EB
:103460005438006800284DD14FF4004044490860AA
:103470004448007808B9012000E000204149087064
:1034800008460078012805D13F480078FFF7C2FFC1
:10349000002010BD0220FFF7ABF83C490860042073
:1034A000FFF7A6F83A49086037480078FFF7B2FFFF
:1034B0006420FFF73FF93048D0ED000A2C4890ED2A
:1034C000000AFFF792FF33490860314801682F482E
:1034D0000068FFF701FF304908602E48006809685E
:1034E0000844104908602B4800682B4909680844C3
:1034F0000D490860FFF7D1FE0B48016809480068D4
:10350000FFF779FE0020C4E7BC0240420080404241
:10351000B81E85EB51B8F23F000001409082404256
:1035200000004042140000201800002090000020FD
:10353000940000209A9999999999E93F9A999999B3
:103540009999C93F9C0000209800002000401C462B
:1035500000401CC630000020340000208C000020F9
:1035600000000000280000202C000020B4000020F3
:103570001C000020A00000202000002024000020CB
:10358000143C014078000020000000200C000020C6
:10359000100000206C0000207000002008B54E488C
:1035A0000078012805D14DA200210846FFF7CBFA8B
:1035B00012E049480078022805D149A200210846B6
:1035C000FFF7C1FA08E044480078032804D146A276
:1035D00000210846FFF7B7FA45A214210020FFF7A3
:1035E000B2FA4648006800280FDA45A2142150209C
:1035F000FFF7A9FA0C2004230090404800684242DB
:1036000014215F20FFF755FA0DE03EA2142150204F
:10361000FFF799FA0C20042300903848142102681F
:103620005F20FFF746FA38A21E210020FFF78BFA31
:103630003848006800280FDA31A21E215020FFF719
:1036400082FA0C20042300903248006842421E2176
:103650005F20FFF72EFA0DE02AA21E215020FFF76F
:1036600072FA0C20042300902A481E2102685F2071
:10367000FFF71FFA28A232210020FFF764FA28483A
:1036800090ED000AB5EEC00AF1EE10FA12D20C204D
:103690000090234890ED000ADFED220A30EE200A68
:1036A000BCEEC00A10EE102A032332212D20FFF7B2
:1036B00000FA0DE00C2003230090194890ED000A59
:1036C000BCEEC00A10EE102A32212D20FFF7F1F9CE
:1036D000FFF70FF908BD000000000020444D500026
:1036E0004B616C6D616E00004875627500000000F2
:1036F000456E636F4C454654000000000C000020EE
:103700002D0000002B000000456E636F52494748B2
:103710005400000010000020416E676C650000003E
:103720001C0000200000B443014691F90020002A4B
:1037300001DD00201EE091F90020002A01DA0420BA
:1037400018E091F90120002A01DD012012E091F931
:103750000120002A01DA05200CE091F90220002A5C
:1037600001DD022006E091F90220002A01DA06209C
:1037700000E00720704770B505462846FFF7D4FFE4
:103780000446E81CFFF7D0FF44EAC00084B2A81D3D
:10379000FFF7CAFF44EA801084B2204670BD10B51E
:1037A00088B002A905A802F0ECF80446072C42D123
:1037B00001A801F03BFB9DED050AB8EEC00ADDED66
:1037C000010A20EE200ABDEEC00A8DED050A9DED2E
:1037D000060AB8EEC00ADDED010A20EE200ABDEEB1
:1037E000C00A8DED060A9DED070AB8EEC00ADDEDB0
:1037F000010A20EE200ABDEEC00A8DED070A05A8D9
:1038000002F0CFFB684601F036FBBDF800100298CD
:1038100048430290BDF80010039848430390BDF858
:10382000001004984843049002A802F04DFCFDA04B
:1038300003F00AFA00BF08B010BD2DE9F0430446BA
:103840000D46DDE907670021012041E0DFF8F8C3FC
:103850003CF81080A0F1010CDFF8EC9329F81C80F3
:1038600009F1160C3CF81090A0F1010CDFF8D88398
:1038700008F1160828F81C9008F1160C3CF8109076
:10388000A0F1010C08F1160828F81C9008F1160C9C
:103890003CF81090A0F1010C08F1160828F81C90D3
:1038A00008F1160C3CF81090A0F1010C08F1160874
:1038B00028F81C9008F1160C3CF81090A0F1010CAF
:1038C00008F1160828F81C9000F1010C0CF0FF001C
:1038D0000A28BBDBDFF870C3ACF81240ACF8285004
:1038E000ACF83E20ACF85430ACF86A60ACF88070AC
:1038F0000021002008E0DFF850C33CF910C061440B
:1039000000F1010C0CF0FF000A28F4DB4FF00A0C68
:1039100091FBFCFC0FFA8CFCDFF82C83A8F814C098
:10392000002100200AE0DFF820C30CF1160C3CF95E
:1039300010C0614400F1010C0CF0FF000A28F2DB1A
:103940004FF00A0C91FBFCFC0FFA8CF8DFF8F8C280
:10395000ACF82A80002100200AE0DFF8ECC20CF16C
:103960002C0C3CF910C0614400F1010C0CF0FF007C
:103970000A28F2DB4FF00A0C91FBFCFC0FFA8CF8E2
:10398000DFF8C4C2ACF84080002100200AE0DFF874
:10399000B8C20CF1420C3CF910C0614400F1010CBA
:1039A0000CF0FF000A28F2DB4FF00A0C91FBFCFC44
:1039B0000FFA8CF8DFF890C2ACF856800021002096
:1039C0000AE0DFF884C20CF1580C3CF910C06144E5
:1039D00000F1010C0CF0FF000A28F2DB4FF00A0C9A
:1039E00091FBFCFC0FFA8CF8DFF85CC2ACF86C8041
:1039F000002100200AE0DFF850C20CF16E0C3CF907
:103A000010C0614400F1010C0CF0FF000A28F2DB49
:103A10004FF00A0C91FBFCFC0FFA8CF8DFF828C27F
:103A2000ACF88280BDE8F08338B504460323022257
:103A30006B21D0200094FFF782FB38BD38B50446D7
:103A4000022304221B21D0200094FFF778FB38BD0D
:103A500038B50446022304221C21D0200094FFF72D
:103A60006EFB38BD10B50446234606226B21D020DC
:103A7000FFF79AFB10BD10B5744B01227521D020C1
:103A8000FFF7ECFA7148007810BD10B5FFF7F3FFAF
:103A9000682801D1012010BD0020FCE710B50446C4
:103AA000234605226A21D020FFF77EFB10BD10B50A
:103AB0000446234601223721D020FFF775FB10BDB5
:103AC00010B50220FFF7B0FF0320FFF7B7FF00207B
:103AD000FFF7BEFF0020FFF7C5FF0020FFF7DEFF66
:103AE0000020FFF7E4FF10BD38B5002000906B46C2
:103AF000012275216820FFF753FA0120544908700C
:103B000054A003F0A1F89DF80000682810D000BF71
:103B1000BFF34F8F5848006800F4E06057490843EE
:103B2000001D55490860BFF34F8F00BF00BFFEE77F
:103B300000F08BFE00283CD1782000F0EEFA10B99E
:103B400044A003F081F8782000F0CEFC10B94CA01E
:103B500003F07AF8C82000F0A8FD10B952A003F0D5
:103B600073F802F083F910B959A003F06DF86548B5
:103B7000FFF701FE044602F083F910B962A003F0DA
:103B800063F840F2731002F0CCFD10B968A003F0A6
:103B90005BF8C82002F02EFB10B96FA003F054F8B8
:103BA000FFF7FDFD012001F0A7FE10B973A003F09F
:103BB0004BF800202649087038BD00B52DED088B64
:103BC00089B007A8764908AB03AACDE9001075496A
:103BD000754802F005FF7248008800F480700028E4
:103BE0001FD09DED030AB8EEC00ADFED700A80EE2B
:103BF000201A6F4880ED001A9DED040AB8EEC00A45
:103C0000DFED6A0A80EE201A6A4880ED001A9DED09
:103C1000050AB8EEC00ADFED650A80EE201A664894
:103C2000CCE06BE173657474696E672062696173DF
:103C30002073756363657366756C6C79202E2E2E08
:103C40002E2E2E0D0A000000120500200405002073
:103C5000070000206D70755F7365745F73656E7328
:103C60006F7220636F6D706C657465202E2E2E2E22
:103C70002E2E0D0A000000000CED00E00000FA05F9
:103C80006D70755F636F6E6669677572655F666993
:103C9000666F20636F6D706C657465202E2E2E2EFE
:103CA0002E2E0D0A000000006D70755F7365745F45
:103CB00073616D706C655F7261746520636F6D70A8
:103CC0006C657465202E2E2E2E2E2E0D0A000000FF
:103CD000646D705F6C6F61645F6D6F74696F6E5F50
:103CE0006472697665725F6669726D77617265206C
:103CF000636F6D706C657465202E2E2E2E2E2E0D2A
:103D00000A000000C8000020646D705F7365745F76
:103D10006F7269656E746174696F6E20636F6D7028
:103D20006C657465202E2E2E2E2E2E0D0A0000009E
:103D3000646D705F656E61626C655F666561747508
:103D4000726520636F6D706C657465202E2E2E2E4B
:103D50002E2E0D0A00000000646D705F7365745FA5
:103D60006669666F5F7261746520636F6D706C6504
:103D70007465202E2E2E2E2E2E0D0A006D70755F6E
:103D80007365745F646D705F737461746520636FD5
:103D90006D706C657465202E2E2E2E2E2E0D0A0051
:103DA000AC000020A6000020A00000200000804EF3
:103DB000B8000020BC000020C000002080ED001AE8
:103DC0009DED060AB8EEC00A5FED080A80EE201AE3
:103DD000674880ED001A674890ED000AF8EE000A87
:103DE00020EE200A6248D0ED000A20EE200A624848
:103DF000D0ED000AB0EE001A60EE810A5F4890ED47
:103E0000001A00EE810A10EE101A084604F0AAFB10
:103E100041EC1A0BB0EE4A0AF0EE6A0A03F068F9B8
:103E2000B0EE409AF0EE609A9FED550B53EC102BDC
:103E300051EC190B04F0D6F841EC180B03F05CFEC2
:103E4000514908604B4890ED000AF8EE000A20EE58
:103E5000200AD0ED000A20EE200A4848D0ED000AE2
:103E6000B0EE001A60EE810A90ED001A00EEC10A71
:103E7000F7EE000A30EE200A10EE101A084604F0A1
:103E800071FB41EC1A0B3D4890ED000AF0EE000A80
:103E900020EE200A3648D0ED000A20EE200A3648EF
:103EA000D0ED000AB0EE001A60EE810A314890EDC4
:103EB000001A00EE810A10EE101A084604F052FBB8
:103EC00041EC1B0BB0EE4A1AF0EE6A1AB0EE4B0A48
:103ED000F0EE6B0A03F034FCB0EE409AF0EE609A1C
:103EE0009FED270B53EC102B51EC190B04F07AF8D3
:103EF00041EC180B03F000FE2449086009B0BDEC4A
:103F0000088B00BD10B52DED028B4221D020FFF7AC
:103F100082F804464121D020FFF77DF804EB002011
:103F200000EE100AB8EEC00AB0EE408A9FED180A03
:103F3000B4EEC08AF1EE10FA05DD9FED160A38EEF8
:103F4000400AB0EE408ADFED140A88EE200ADFED69
:103F5000130A30EE200AF2EE040A20EE200AB0EE38
:103F6000408ABDEEC80A10EE100ABDEC028B10BDEF
:103F7000C4000020BC000020B8000020C0000020C9
:103F80006666666666A64C40B0000020B40000205D
:103F900000000047000080470000AA43B81E1242FC
:103FA00038B50446FB4890F82400C0B114B1022093
:103FB000009001E000200090F64A1268D17BF54A9B
:103FC000526810786B460122FEF78BFF10B14FF05C
:103FD000FF3038BD9DF80010EE48417423E0ED48F5
:103FE000807A10B94FF0FF30F3E724B1E948407C04
:103FF00008B10020EDE714B10120009001E000209D
:104000000090E44A1268D17BE24A526810786B460D
:104010000122FEF766FF10B14FF0FF30D9E79DF89F
:104020000010DC4841740020D3E738B5002419E0C3
:10403000D8480068C07AA04204D0D6480068407DC5
:10404000A04200D10CE0D349496808786B460122B0
:104050002146FEF7A5FF10B14FF0FF3038BD00BF7D
:10406000601CC4B2CB4840680079A042E0DC00206C
:10407000F4E770B504460D46C6480068C07AA04211
:1040800004D0C4480068407DA04202D14FF0FF3008
:1040900070BDC04840680079A04202DC4FF0FF309C
:1040A000F6E7BC49496808782B4601222146FEF70D
:1040B00077FFEDE738B50446B64890F82300A042F4
:1040C00001D1002038BD14B13020009001E0002063
:1040D0000090B048807C20B19DF8000040F00200C4
:1040E0000090AC4890F8220020B19DF8000040F00C
:1040F00080000090A74A1268117DA64A5268107885
:104100006B460122FEF7EDFE10B14FF0FF30D9E70C
:10411000A04880F823400020D4E738B5044604F0D6
:10412000700010B10120009005E014B10020009053
:1041300001E040200090974A1268917C954A5268AD
:1041400010786B460122FEF7CCFE20B10021914889
:104150008172481E38BD9DF8000020F040018D4856
:1041600001730020009004F0400020B99DF8000089
:1041700040F00400009004F0200020B99DF80000F9
:1041800040F00200009004F0100020B99DF80000FB
:1041900040F00100009004F0080020B99DF80000F4
:1041A00040F0380000907B4A1268D17C794A52680E
:1041B00010786B460122FEF794FE20B1002175486D
:1041C0008172481EC6E724B1082C02D00020FFF7F8
:1041D00071FF70488472002101753220FEF7D6F815
:1041E0000020B7E738B504466A48807CA04201D178
:1041F000002038BD002C46D0664A12681179654A05
:10420000526810786B460122FEF7CAFE10B14FF0DB
:10421000FF30EEE79DF8000020F0200000905D4A9E
:10422000126811795B4A526810786B460122FEF7DA
:1042300058FE10B14FF0FF30DBE70320FEF7A6F881
:1042400002200090534890F8220020B19DF8000011
:1042500040F0800000904F4890F8230020B19DF876
:10426000000040F0300000904A4A1268117D494A2F
:10427000526810786B460122FEF733FE002851D0B9
:104280004FF0FF30B5E7434A12681179414A52684E
:1042900010786B460122FEF783FE10B14FF0FF301D
:1042A000A7E73C48807A00F0010028B19DF80000A3
:1042B00040F02000009004E09DF8000020F0200075
:1042C0000090344A12681179324A526810786B466D
:1042D0000122FEF706FE10B14FF0FF3089E7032000
:1042E000FEF754F82B4890F8220010B1802000907F
:1042F00001E000200090274890F8230020B19DF8AD
:10430000000040F030000090224A1268117D214ADE
:10431000526810786B460122FEF7E3FD10B14FF0B2
:10432000FF3066E71B488474002062E708B519482F
:10433000807A10B94FF0FF3008BD00200090154A78
:104340001268D17B134A526810786B460122FEF73F
:10435000C8FD10B14FF0FF30EEE70E4A12685179F8
:104360000C4A526810786B460122FEF7BAFD10B174
:104370004FF0FF30E0E7074A12681179054A5268AA
:1043800010786B460122FEF7ACFD28B14FF0FF30EC
:10439000D2E70000D8000020F74890F82400002859
:1043A00050D00C200090F44A12681179F24A5268F9
:1043B00010786B460122FEF794FD10B14FF0FF30EC
:1043C000BAE7C0200090EC48807A00F0010020B1EC
:1043D0009DF8000040F020000090E74A1268117933
:1043E000E54A526810786B460122FEF77AFD10B15B
:1043F0004FF0FF30A0E7E048407C10B10220009071
:1044000001E000200090DC4A1268D17BDA4A526851
:1044100010786B460122FEF764FD10B14FF0FF30BB
:104420008AE700200090D44A12685179D24A526833
:1044300010786B460122FEF754FD002852D04FF051
:10444000FF3079E704200090CB4A12681179CA4AFC
:10445000526810786B460122FEF743FD10B14FF011
:10446000FF3069E7C448807C20B9C348807A00F0F7
:10447000010010B94020009001E060200090BE4A89
:1044800012681179BC4A526810786B460122FEF717
:1044900028FD10B14FF0FF304EE7B748407C10B117
:1044A0000120009001E000200090B34A1268D17B07
:1044B000B14A526810786B460122FEF712FD10B126
:1044C0004FF0FF3038E7AC4A12685179AA4A526877
:1044D0001078A94B10330122FEF703FD10B14FF005
:1044E000FF3029E7002027E770B50446002624F0B6
:1044F0000104A14890F8240008B1002070BD9E4836
:10450000807A10B94FF0FF30F8E79B48057C807A3D
:104510002040994908740846007CA04202D04FF020
:10452000FF3600E0002614B99348007D18B1012041
:10453000FFF736FD02E00020FFF732FD3CB1FFF748
:10454000F5FE20B18C4805744FF0FF30D6E73046B9
:10455000D4E738B504468848807A10B94FF0FF3068
:1045600038BDBC2C02DB0120009015E0622C02DB80
:104570000220009010E02A2C02DB032000900BE0C8
:10458000142C02DB0420009006E00A2C02DB05203C
:10459000009001E0062000907748C07A9DF8001056
:1045A000884201D10020DBE7734A12689178724A91
:1045B000526810786B460122FEF793FC10B14FF061
:1045C000FF30CDE79DF800106B48C1720020C7E7AF
:1045D00038B50446282C02DD4FF0FF3038BDDCB979
:1045E0000020FFF767FD00208DF8000007208DF800
:1045F0000100614A1268917C5F4A526810786B46EC
:104600000222FEF76EFC10B14FF0FF30E6E700210A
:10461000594801750020E1E70120FFF74BFD2020FC
:104620008DF80000012C06D100208DF80100052036
:10463000FFF78FFF17E0052C06DC01208DF8010045
:104640000520FFF786FF0EE0142C06DC02208DF813
:1046500001000A20FFF77DFF05E003208DF801002F
:104660001420FFF776FF9DF80100072101EB801071
:10467000C0B28DF80100404A1268917C3E4A5268EF
:1046800010786B460222FEF72CFC10B14FF0FF3081
:10469000A4E70821384881720021017301210175C6
:1046A0000020FFF721FF002098E738B50446324884
:1046B000807A10B94FF0FF3038BD2F4890F82400B1
:1046C00010B14FF0FF30F7E72B48007D50B134B107
:1046D000282C04DCE0B2FFF77BFF0020ECE7002091
:1046E000FFF776FF042C01DA042404E0B4F57A7FA6
:1046F00001DD4FF47A744FF47A7090FBF4F0401EB1
:10470000C0B200901C4A126851781B4A5268107857
:104710006B460122FEF7E5FB10B14FF0FF30CBE70F
:104720009DF80000401C4FF47A7191FBF0F081B2CB
:104730001148C1810146C9894810FFF70AFF0020CE
:10474000BAE738B504460C48807A10B94FF0FF300C
:1047500038BD022C06D0042C07D0082C08D0102C11
:104760000FD10BE0002000900EE0082000900BE03D
:104770001020009008E00000D800002018200090D1
:1047800002E04FF0FF30E3E700BFF748407A9DF8C2
:104790000010B0EBE10F01D10020D9E7F24A126816
:1047A000D179F14A526810786B460122FEF799FBE5
:1047B00010B14FF0FF30CBE79DF80000C110EA4880
:1047C00041720020C4E738B50446E748807A10B942
:1047D0004FF0FF3038BDFA2C09D0B4F5FA7F09D07C
:1047E000B4F57A7F09D0B4F5FA6F0CD108E0002057
:1047F00000900BE00820009008E01020009005E0F9
:104800001820009002E04FF0FF30E3E700BFD648E9
:10481000007A9DF80010B0EBE10F01D10020D9E73C
:10482000D14A12689179D04A526810786B460122B9
:10483000FEF757FB10B14FF0FF30CBE79DF80000BB
:10484000C010C94908720020C4E71CB580208DF84B
:104850000000C54A1268917CC34A526810786B46C2
:104860000122FEF73EFB10B14FF0FF301CBD64206B
:10487000FDF78CFD00208DF80000BB4A1268917C8A
:10488000B94A526810786B460122FEF72AFB10B134
:104890004FF0FF30EAE7B44A1268917DB24A52689D
:1048A00010786B460622FEF77BFB10B14FF0FF300D
:1048B000DCE79DF80500C007400F9DF8031001F0EC
:1048C000010140EA41009DF8011001F0010140EAB8
:1048D000010494B1012C03D10121A348C17431E03A
:1048E000022C03D10021A048C1742BE021469FA0D7
:1048F00002F0AAF94FF0FF30B8E79B4A1268D1786E
:10490000994A526810786B460122FEF749FB10B1B4
:104910004FF0FF30AAE79DF8000000F00F042CB91B
:104920009C4802F091F94FF0FF309FE7042C06D12C
:1049300099A002F089F901218B48C17402E000219D
:104940008948C174FF2188488172FF208649087216
:10495000FF2185484172C1724FF6FF71C181FF216D
:10496000017481740121017380F82210002180F804
:104970002310417501751630016041608160163861
:1049800080F8241080F82510C1844FF4FA60FFF7F6
:104990001AFF10B14FF0FF3068E70220FFF7D1FE99
:1049A00010B14FF0FF3061E72A20FFF7D2FD10B1C0
:1049B0004FF0FF305AE73220FFF777FE10B14FF08B
:1049C000FF3053E70020FFF78FFD10B14FF0FF30AD
:1049D0004CE70020FFF706FC10B14FF0FF3045E731
:1049E0000020FFF79AFB002040E770477CB50446A3
:1049F0000D465D48807A00F0700010B94FF0FF302E
:104A00007CBD594A1268117B574A526810786B4630
:104A10000622FEF7C5FA10B14FF0FF30F0E79DF81F
:104A200001009DF8001040EA012000B220809DF8AE
:104A300003009DF8021040EA012000B260809DF85A
:104A400005009DF8041040EA012000B2A08015B1D5
:104A50002846FFF7CAFF0020D2E77CB504460D4682
:104A60004148807A00F0080010B94FF0FF307CBD5B
:104A70003D4A1268517B3C4A526810786B460622C8
:104A8000FEF78EFA10B14FF0FF30F0E79DF801000D
:104A90009DF8001040EA012000B220809DF803003C
:104AA0009DF8021040EA012000B260809DF80500E8
:104AB0009DF8041040EA012000B2A08015B12846FC
:104AC000FFF793FF0020D2E7F8B506460C462648CC
:104AD000807A10B94FF0FF30F8BD234A1268917BFD
:104AE000214A526810786B460222FEF759FA10B13B
:104AF0004FF0FF30F0E79DF801009DF8001040EA0C
:104B0000012005B214B12046FFF76FFF1648406838
:104B1000B0F9080000EE100AF8EEC00A00EE105AD4
:104B2000B8EEC00A70EE600A0F484068C08800EE18
:104B3000100AB8EE400A80EE801A9FED1F0A31EE8F
:104B4000000ADFED1E0A20EE200ABDEEC00A86ED47
:104B5000000A0020C0E710B588B004461CB94FF029
:104B6000FF3008B010BD2BE0D8000020556E7375E3
:104B700070706F7274656420736F667477617265AC
:104B80002070726F64756374207265762025642EC0
:104B90000A000000F89D000848616C662073656E8D
:104BA0007369746976697479207061727420666FB4
:104BB000756E642E0D0A000000000C420000804754
:104BC000206830B9606820B9A06810B9002008B02A
:104BD00010BDF9494968087806AB03221146FEF773
:104BE000DFF910B14FF0FF30F1E79DF81800082110
:104BF00001EB201000F00F00ADF800009DF8190047
:104C000001EB201000F00F00ADF802009DF81A0033
:104C100001EB201000F00F00ADF804002068410007
:104C2000BDF90000403091FBF0F000B2ADF810008B
:104C300060684100BDF90200403091FBF0F000B225
:104C4000ADF81200A0684100BDF90400403091FBAE
:104C5000F0F000B2ADF81400D7494968087806AB07
:104C600006221146FEF79CF910B14FF0FF30AEE777
:104C70009DF819009DF8181040EA012000B2ADF827
:104C800008009DF81B009DF81A1040EA012000B2B0
:104C9000ADF80A009DF81D009DF81C1040EA0120A7
:104CA00000B2ADF80C00BDF81000BDF808100844C3
:104CB00000B2ADF81000BDF81200BDF80A100844AB
:104CC00000B2ADF81200BDF81400BDF80C10084495
:104CD00000B2ADF81400BDF81000000A8DF81800FD
:104CE000BDF81000C0B28DF81900BDF81200000A1E
:104CF0008DF81A00BDF81200C0B28DF81B00BDF887
:104D00001400000A8DF81C00BDF81400C0B28DF824
:104D10001D00A9494968087806AB06221146FEF72E
:104D2000E0F810B14FF0FF3051E700204FE70146A7
:104D3000A148007A30B1012807D0022809D0032801
:104D40000FD10AE0FA2008800EE04FF4FA700880D4
:104D50000AE04FF47A70088006E04FF4FA600880A9
:104D600002E00020088000BF00BF0020704701461D
:104D70009148407A30B1012807D0022808D0032892
:104D80000CD108E0022008700BE00420087008E055
:104D90000820087005E01020087002E04FF0FF3096
:104DA000704700BF8448C07C18B108784006000EE8
:104DB00008700020F4E701467F48C07A082817D21F
:104DC000DFE800F01704070A0D101318BC20088054
:104DD00013E06220088010E02A2008800DE01420F3
:104DE00008800AE00A20088007E00520088004E027
:104DF00000BF00BF0020088000BF00BF0020704738
:104E000001466D4890F8240010B14FF0FF30704714
:104E10006948C08908800020F9E701460020088021
:104E2000401E704701464FF0FF3070470146624810
:104E3000007A30B1012809D002280CD0032814D1FF
:104E40000EE09FED5E0A81ED000A11E09FED5C0A25
:104E500081ED000A0CE09FED5B0A81ED000A07E09E
:104E60009FED590A81ED000A02E04FF0FF307047D4
:104E700000BF0020FBE701464F48407A30B10128CF
:104E800008D002280AD0032810D10BE04FF480404C
:104E900008800EE041F69C7008800AE04FF48050D4
:104EA000088006E04FF40060088002E04FF0FF3019
:104EB000704700BF4048C07C10B10888401008808F
:104EC0000020F5E701463C48007C08700020704750
:104ED00001463948807A10B10120087001E00020B5
:104EE00008700020704738B504463348807A10B9FE
:104EF0004FF0FF3038BD304A1268117C2E4A52689C
:104F000010786B460222FEF74BF810B14FF0FF30DD
:104F1000F0E79DF801009DF8001040EA012000B282
:104F200020800020E6E72DE9FE4F0746884692469E
:104F30001D46DDF830B0002600241F4890F82400FC
:104F400010B1601EBDE8FE8F002028701A48807ADC
:104F500010B94FF0FF30F5E71748007C10B94FF05B
:104F6000FF30EFE71448007C00F0400008B1B01CAF
:104F7000C6B21148007C00F0200008B1B01CC6B2D7
:104F80000D48007C00F0100008B1B01CC6B20A4801
:104F9000007C00F0080008B1B01DC6B2064A1268D5
:104FA000917A054A526810786B460222FDF7F8FFA5
:104FB00060B14FF0FF30C5E7D80000200000034388
:104FC0000000834233330342333383419DF80100B1
:104FD0009DF8001040EA0129B14501DA0020B1E74F
:104FE000FA4840684088B9EB600F17DDF74A12684D
:104FF000517CF64A526810786B460122FDF7D0FFCB
:1050000010B14FF0FF309DE79DF8000000F0100058
:1050100020B1FFF78BF96FF0010093E75046FFF7DF
:10502000E4FCEA4A1268D17AE84A526810786B4682
:105030003246FDF7B5FF10B14FF0FF3082E799FB24
:10504000F6F0401E8BF8000000202870B4422AD0F1
:10505000DE48007C00F0080028B3601C1DF800004A
:105060001DF8041040EA012000B2A8F80000E01C7E
:105070001DF80010A01C1DF8000041EA002000B23D
:10508000A8F80200601D1DF80010201D1DF800008A
:1050900041EA002000B2A8F80400287840F0080097
:1050A0002870A01D84B2B44213D0C848007C00F020
:1050B000400070B1601C1DF800001DF8041040EAAB
:1050C000012000B23880287840F040002870A01CF1
:1050D00084B2B44213D0BD48007C00F0200070B10F
:1050E000601C1DF800001DF8041040EA012000B209
:1050F0007880287840F020002870A01C84B2B44248
:1051000013D0B248007C00F0100070B1601C1DF894
:1051100000001DF8041040EA012000B2B880287891
:1051200040F010002870A01C84B200200AE7F8B5F7
:1051300004460F461646A54890F8240010B94FF0D3
:10514000FF30F8BDA148807A10B94FF0FF30F8E782
:105150009E4A1268917A9D4A526810786B460222E4
:10516000FDF71EFF10B14FF0FF30EAE79DF8010098
:105170009DF8001040EA0125A54203DA00203070B6
:10518000401EDEE7914840684088B5EB600F17DDB0
:105190008E4A1268517C8D4A526810786B46012203
:1051A000FDF7FEFE10B14FF0FF30CAE79DF800009A
:1051B00000F0100020B1FFF7B9F86FF00100C0E770
:1051C000E2B2824B1B68D97A804B5B6818783B4609
:1051D000FDF7E6FE10B14FF0FF30B2E795FBF4F0BB
:1051E000401E30700020ACE70146784880F822105D
:1051F000002070477CB5054674494968087801ABC2
:1052000004220D21FDF7CCFE08B107207CBD9DF8DE
:105210000700C0F301109DF8041001F0E00140EA1E
:10522000E1008DF800009DF80700C0F381009DF8B3
:10523000051001F0E00140EAE1008DF801009DF861
:10524000070000F003009DF8061001F0E00140EABD
:10525000E1008DF80200002427E01DF8040030B9B9
:105260009FED5B0A05EB840080ED000A1BE09FEDDB
:10527000590A05EB840080ED000A0BE005EB840081
:1052800090ED000ADFED540A20EE200A05EB8400C1
:1052900080ED000A1DF80400401EC0B20DF80400A5
:1052A0000028EBD100BF601CC4B2032CD5DB00206A
:1052B000ACE7F0B52DED028B83B006460F46002516
:1052C0006846FFF797FF002447E056F8241057F888
:1052D0002420881A002801DB014600E0414200EE4C
:1052E000101AB8EEC00ADFED3D0A80EE208A68464B
:1052F00000EB840090ED000AB5EEC00AF1EE10FA62
:1053000018D0684600EB8400D0ED000A88EE200A31
:10531000F7EE000A70EE608AB0EEE80A3048D0ED91
:10532000090AB4EEE00AF1EE10FA15DD0120A04002
:10533000054311E02A4890ED070AB4EEC80AF1EEE1
:1053400010FA06DC90ED080AB4EEC80AF1EE10FA85
:1053500002D20120A0400543641C032CB5DB284683
:1053600003B0BDEC028BF0BDF0B52DED048B81B028
:1053700006460F4600251549496808786B46032202
:105380000D21FDF70DFE20B1072001B0BDEC048B0F
:10539000F0BD9DF8000000F01F008DF800009DF8A2
:1053A000010000F01F008DF801009DF8020000F0E0
:1053B0001F008DF80200002461E056F8241057F811
:1053C0002420881A00280DDB01460CE0D8000020BC
:1053D000000000007B14AE3E1D5A843F0000804751
:1053E000E8900008414200EE101AB8EEC00A5FEDE6
:1053F000050A80EE208A1DF8040068B3FE4890ED8F
:10540000000AB8EE400ADFEDFD0A80EE801AF0EEE9
:10541000418A05E09FEDFA0A28EE800AF0EE408A04
:105420001DF80400401EC0B20DF804000028F1D1A0
:1054300088EE280AF7EE000A30EE609AB0EEC90A4C
:10544000ED48D0ED060AB4EEE00AF1EE10FA15DDF3
:105450000120A040054311E0E74890ED040AB4EEB6
:10546000C80AF1EE10FA06DC90ED050AB4EEC80A9F
:10547000F1EE10FA02D20120A0400543641C032C77
:105480009BDB284681E72DE9F04F87B005460C46A7
:10549000914601208DF8100000208DF81100D94AA6
:1054A0001268917CD74A5268107804AB0222FDF74B
:1054B00018FD20B14FF0FF3007B0BDE8F08FC820D5
:1054C000FCF764FF00208DF81000CE4A1268D17BF3
:1054D000CC4A5268107804AB0122FDF702FD10B1EE
:1054E0004FF0FF30E8E7C74A12685179C54A526861
:1054F000107804AB0122FDF7F4FC10B14FF0FF303F
:10550000DAE7C04A1268917CBE4A5268107804AB50
:105510000122FDF7E6FC10B14FF0FF30CCE7B94AAD
:105520001268D17DB74A5268107804AB0122FDF7AA
:10553000D8FC10B14FF0FF30BEE7B24A12681179C3
:10554000B04A5268107804AB0122FDF7CAFC10B1D2
:105550004FF0FF30B0E70C208DF81000A94A126818
:105560001179A84A5268107804AB0122FDF7B9FC02
:1055700010B14FF0FF309FE70F20FCF707FFA14865
:10558000806A407A8DF810009E4A126891789D4A90
:105590005268107804AB0122FDF7A3FC10B14FF064
:1055A000FF3089E79748806A007A8DF81000954AA5
:1055B00012685178934A5268107804AB0122FDF7C3
:1055C00090FC10B14FF0FF3076E7B9F1000F07D033
:1055D0008C48806A807A40F0E0008DF8100004E08A
:1055E0008848806A807A8DF81000864A126891791E
:1055F000844A5268107804AB0122FDF772FC10B1A6
:105600004FF0FF3058E7B9F1000F07D07D48806AAE
:10561000C07A40F0E0008DF8100003E07648C07AD0
:105620008DF81000774A1268D179764A526810785E
:1056300004AB0122FDF755FC10B14FF0FF303BE702
:10564000B9F1000F02D0C820FCF7A0FE40208DF871
:1056500010006C4A126811796A4A5268107804ABDB
:105660000122FDF73EFC10B14FF0FF3024E7782017
:105670008DF81000634A12685179624A52681078B6
:1056800004AB0122FDF72DFC10B14FF0FF3013E702
:1056900059498889FCF77AFE00208DF81000594A94
:1056A00012685179574A5268107804AB0122FDF70D
:1056B00018FC10B14FF0FF30FEE6524A1268917AA2
:1056C000504A5268107804AB0222FDF769FC10B111
:1056D0004FF0FF30F0E69DF811009DF8101040EA01
:1056E000012B0C209BFBF0F0C6B20020A860686084
:1056F0002860A06060602060824665E0414A1268D0
:10570000D17A404A5268107804AB0C22FDF748FC6D
:1057100010B14FF0FF30CFE69DF811009DF810104A
:1057200040EA012000B2ADF808009DF813009DF892
:10573000121040EA012000B2ADF80A009DF81500F1
:105740009DF8141040EA012000B2ADF80C00BDF93C
:105750000810206808442060BDF90A1060680844F9
:105760006060BDF90C10A0680844A0609DF81700A7
:105770009DF8161040EA012000B2ADF800009DF837
:1057800019009DF8181040EA012000B2ADF802009F
:105790009DF81B009DF81A1040EA012000B2ADF8F8
:1057A0000400BDF90010286808442860BDF9021003
:1057B000686808446860BDF90410A8680844A860D7
:1057C0000AF1010000F0FF0AB24597DB0A48D0F861
:1057D00000C02868C117090441EA10410704624665
:1057E0000023384601F00BFA32460023CDE90201CE
:1057F00001F005FA286007E0E890000800B04C4589
:1058000054E3853FD8000020F848D0F800C068680D
:10581000C117090441EA10410704624600233846D3
:1058200001F0EDF932460023CDE9020101F0E7F97C
:105830006860EE48D0F800C0A868C117090441EAC2
:105840001041070462460023384601F0D8F9324679
:105850000023CDE9020101F0D2F9A860E348D0F8B5
:1058600004C02168C817000440EA11480F046246CA
:1058700000233846414601F0C2F932460023CDE903
:10588000020101F0BCF92060D848D0F804C060687B
:10589000C117090441EA1041070462460023384653
:1058A00001F0ADF932460023CDE9020101F0A7F97C
:1058B0006060CE48D0F804C0A068C117090441EA6E
:1058C0001041070462460023384601F098F9324639
:1058D0000023CDE9020101F092F9A060A068002840
:1058E00004DDA068A0F58030A06003E0A06800F5AA
:1058F0008030A0600020DFE538B50446BC4890F851
:105900002400A04201D1002038BD24B3B84890F84B
:10591000250010B94FF0FF30F6E70020FEF740FBFE
:105920000020FEF75FFCB249C88CFEF7BEFE0020E7
:105930000090AF49496808786B4601222321FDF7A2
:10594000D0FA0121AA4880F824100120FEF728FB94
:10595000FEF7ECFC13E00020FEF722FBA448007CDD
:105960000090A349496808786B4601222321FDF77E
:10597000B8FA00219E4880F82410FEF7D7FC0020DA
:10598000C2E72DE9F04F8DB083460F4602200C9000
:10599000974890F8240020B10020FFF7ADFF0126C2
:1059A00000E0002603A8FFF7C2F905A8FFF7DFF91A
:1059B00001A8FFF700FA02A8FFF722FA8C4890F836
:1059C0000AA004A8FFF77EFA002407E00022394667
:1059D0005846FFF758FD00B902E0641C022CF5DBC5
:1059E00000BF022C01D1002528E0002407E001229D
:1059F00006A909A8FFF747FD00B902E0641C022CC4
:105A0000F5DB00BF022C01D1002517E006A93846BE
:105A1000FFF74FFC00F0FF0809A95846FFF7A4FC68
:105A200000F0FF090025B9F1000F01D145F0010593
:105A3000B8F1000F01D145F0020500BFFF206C490D
:105A40000872FF216A484172C1724FF6FF71C1812D
:105A5000FF218172017401210173BDF80C00FEF772
:105A6000B2FE9DF81400FEF76CFEBDF80400FEF7D0
:105A700070FDBDF80800FEF718FE5046FEF74DFB1E
:105A80009DF81000FEF730FD16B10120FFF734FF3E
:105A900028460DB0BDE8F08FF8B504460D46164611
:105AA00016B94FF0FF30F8BD5148807A10B94FF069
:105AB000FF30F8E720128DF80000E0B28DF8010009
:105AC0009DF8010028444A4949684989884202DD15
:105AD0004FF0FF30E7E7464A1268117E444A5268A9
