:020000040800F2
:10000000B00B002091040008670200086902000894
:100010006D0200087102000875020008000000006F
:10002000000000000000000000000000790200084D
:100030007B020008000000007D0200087F0200082B
:10004000AB040008AB040008AB040008AB040008D4
:10005000AB040008AB040008AB040008AB040008C4
:10006000AB040008AB040008AB040008AB040008B4
:10007000AB040008AB040008AB040008AB040008A4
:10008000AB040008AB040008AB040008AB04000894
:10009000AB040008AB040008AB040008AB04000884
:1000A000AB040008AB040008AB040008AB04000874
:1000B000AB040008B7310008AB040008AB0400082B
:1000C000AB040008AB040008AB040008AB04000854
:1000D000AB04000805270008AB040008AB040008C7
:1000E000AB040008AB040008AB040008AB04000834
:1000F000AB040008AB040008AB040008AB04000824
:10010000AB040008AB040008AB040008AB04000813
:10011000AB040008AB040008AB040008AB04000803
:10012000AB040008AB040008AB040008AB040008F3
:10013000AB040008AB040008AB040008AB040008E3
:10014000AB040008AB040008AB040008AB040008D3
:10015000AB040008AB040008AB040008AB040008C3
:10016000AB040008AB040008AB040008AB040008B3
:10017000AB040008AB040008AB040008AB040008A3
:10018000AB040008AB04000800F002F800F03CF8F3
:100190000AA090E8000C82448344AAF10107DA45E2
:1001A00001D100F031F8AFF2090EBAE80F0013F0F8
:1001B000010F18BFFB1A43F0010318473841000034
:1001C00058410000103A24BF78C878C1FAD85207C5
:1001D00024BF30C830C144BF04680C6070470000C1
:1001E0000023002400250026103A28BF78C1FBD840
:1001F000520728BF30C148BF0B6070471FB503F0DE
:1002000041FB1FBD10B510BD03F075F81146FFF797
:10021000F5FF00F008F803F093F803B4FFF7F2FFDE
:1002200003BC02F023FAA82002F09EF94FF4FA3042
:1002300002F02AFA4FF4A06000F04AF902F03CFC08
:1002400002F07CFB02F0E9FD4FF4FA7002F0EEF9E7
:1002500002F0B3FA42F2CF01312002F089FE01E050
:1002600003F00FF8FCE7704700BFFEE700BFFEE7B2
:1002700000BFFEE700BFFEE770477047704770475A
:100280000CB50020019000907648006840F4803062
:100290007449086000BF7348006800F400300090A3
:1002A0000198401C0190009818B90198B0F5A04F32
:1002B000F1D16C48006800F4003010B101200090CA
:1002C00001E0002000900098012846D165484030A8
:1002D000006840F08050634940310860624800681F
:1002E00040F44040604908605E48083000685D495D
:1002F000083108600846006840F40040086008467D
:10030000006840F4A05008605848091F0860081FA2
:10031000006840F08070091F086000BF5148006805
:1003200000F000700028F9D040F2057050490860D4
:100330004C480830006820F003004A490831086042
:100340000846006840F00200086000BF45480830D9
:10035000006800F00C000828F8D10CBD10B5454825
:10036000006840F47000434908603E48006840F06F
:1003700001003C49086000203A49083108603948CA
:1003800000683D490840374908603C48091D08603D
:10039000081F006820F48020091F086000203149F0
:1003A0000C310860FFF76CFF4FF000603149803975
:1003B000086010BD70B50020002202230024022135
:1003C000284D08352D6805F00C0020B1042806D012
:1003D000082834D107E02A4D2A4E356033E02A4DF3
:1003E000284E35602FE01F4D2D1D2D68C5F380541C
:1003F0001C4D2D1D2D6805F03F0154B1224DB5FB5C
:10040000F1F5184E361D3668C6F3881605FB06F260
:1004100009E01B4DB5FBF1F5124E361D3668C6F3EB
:10042000881605FB06F20F4D2D1D2D68C5F30145FD
:100430006D1C6B00B2FBF3F5124E356003E0104DFE
:10044000104E356000BF00BF064D08352D68C5F35E
:1004500003150E4E705D0B4D2D68C540094E35607D
:1004600070BD000000380240007000400854400792
:10047000003C024088ED00E0FFFFF6FE1030002453
:100480000024F4000400002000127A00080000207C
:100490000948804709480047FEE7FEE7FEE7FEE718
:1004A000FEE7FEE7FEE7FEE7FEE7FEE70448054954
:1004B000054A064B704700005D03000889010008EB
:1004C000B0050020B00B0020B0070020B0070020CE
:1004D00032490143324A1160704770B50021002350
:1004E0000F22C4781CB32E4C246804F4E064C4F5D5
:1004F000E064C4F30721C1F10404E3B20A41447883
:100500009C40E1B28478144021430C07210E254C15
:1005100005786155047804F01F050124AC40057886
:100520006D11AD0005F1E025C5F8004109E0047842
:1005300004F01F050124AC401B4D0678761145F8E8
:10054000264070BD194A0A400243154B1B1F1A6012
:10055000704739B1124A121D12680243104B1B1D1D
:100560001A6006E00E4A121D126882430C4B1B1DD6
:100570001A607047042808D14FF0E021096941F062
:1005800004014FF0E022116107E04FF0E02109691A
:1005900021F004014FF0E022116170470000FA05DC
:1005A0000CED00E000E400E080E100E080FFFF1FD0
:1005B00010B50121080200F0B6FE00214FF4807052
:1005C00000F0B1FE10BD30B5024600200023506897
:1005D000F84C20400D790C6844EA05242043506013
:1005E0009068F54C2040D1E903542C438D682C438E
:1005F0004D7944EA450420439060D06A20F47000AD
:100600000C7D641EE4B2234340EA0350D06230BD47
:1006100000210160017141718160C16001610121AE
:10062000017570470021E54A1168E54A1140D0E99B
:1006300000231A4383681A43C3681A431143E14AEB
:10064000C2F8041370470021016041608160C160FD
:10065000704721B1826842F00102826003E0826843
:1006600022F00102826070470A4600214168D64BA1
:1006700019401143416070474162826270470A46E7
:100680000021416821F01F0111434160704738B1DA
:10069000CA49096841F40001CA4AC2F8041306E0D5
:1006A000C649096821F40001C64AC2F8041370471C
:1006B00038B1C249096841F48001C24AC2F8041342
:1006C00006E0BE49096821F48001BE4AC2F804135D
:1006D0007047F0B504460D4600200021092D11DDBC
:1006E000E068A5F10A0606EB4607072606FA07F1B9
:1006F0008843A5F10A0606EB460603FA06F108430D
:10070000E0600CE0206905EB4507072606FA07F1D3
:10071000884305EB450603FA06F108432061072AE2
:100720000FDA606B561E06EB86071F2606FA07F1E6
:100730008843561E06EB860605FA06F108436063F9
:1007400022E00D2A0FDA206BD61F06EB86071F2644
:1007500006FA07F18843D61F06EB860605FA06F16E
:100760000843206310E0E06AA2F10D0606EB86075D
:100770001F2606FA07F18843A2F10D0606EB86064E
:1007800005FA06F10843E062F0BD816841F080415E
:1007900081607047014600208A6802F080420AB1F9
:1007A000012000E00020704721B1826842F480629D
:1007B000826003E0826822F480628260704721B127
:1007C000826842F00202826003E0826822F0020244
:1007D0008260704710B50A4600210023416821F469
:1007E0006041531E41EA4331416010BD21B142686E
:1007F00042F40062426003E0426822F40062426018
:1008000070470146C86C80B270476C48001D006894
:10081000704721B1826842F48072826003E082688E
:1008200022F480728260704721B1826842F40072C3
:10083000826003E0826822F400728260704738B1FF
:100840005E49096841F400515E4AC2F8041306E0AB
:100850005A49096821F400515A4AC2F804137047F2
:10086000F0B504461546002000220026092911DDB6
:10087000E068A1F10A0707EB470C072707FA0CF21B
:100880009043A1F10A0707EB470703FA07F2104369
:10089000E0600CE0206901EB410C072707FA0CF23D
:1008A000904301EB410703FA07F210432061A06B6C
:1008B000C0F30156EF1C06F1010CA7EB0C0707EB88
:1008C000870C1F2707FA0CF29043EF1C06F1010C6E
:1008D000A7EB0C0707EB870701FA07F21043A063A9
:1008E000F0BD10B50A4600210023816B21F44011B0
:1008F000531E41EA0351816310BD08B500230093E4
:100900000090009B0B440093009B1A6008BD0A46B0
:100910000021816821F470211143816070470A46EB
:100920000021816821F44011114381607047816882
:1009300041F4800181607047014600208A6802F41A
:1009400080020AB1012000E00020704721B1426816
:1009500042F48062426003E0426822F480624260B6
:10096000704721B1426842F48052426003E042681D
:1009700022F480524260704708B502460020009081
:10098000009201F12800009B184400900098006834
:1009900080B208BD10B50B460021D9B2012404FA7B
:1009A00001F11AB144680C43446002E044688C438E
:1009B000446010BDFFFEFFFCFDF7FFC004230140B3
:1009C000E030FCFF00200140FFFD3FFF0246002019
:1009D00013680B400BB1012000E000207047CA43B0
:1009E0000260704770B502460020002300240B12FD
:1009F000556801268E4005EA060415681D4015B1AC
:100A00000CB1012000E0002070BD00220A12D34387
:100A10000360704710B504469848844208D101210C
:100A2000084600F03CFC0021012000F038FC76E094
:100A30009348844208D10121022000F030FC0021BB
:100A4000022000F02CFC6AE08E48844208D101218B
:100A5000042000F024FC0021042000F020FC5EE0D3
:100A60008948844208D10121082000F018FC0021A7
:100A7000082000F014FC52E08448844208D101218F
:100A8000102000F00CFC0021102000F008FC46E0D3
:100A90007F48844208D10121202000F000FC002181
:100AA000202000F0FCFB3AE07A48844208D1012182
:100AB000402000F0F4FB0021402000F0F0FB2EE08D
:100AC0007548844208D10121802000F0E8FB002114
:100AD000802000F0E4FB22E07048844208D101212C
:100AE000801500F0DCFB0021A01500F0D8FB16E01B
:100AF0006B48844208D10121401500F0D0FB002151
:100B0000601500F0CCFB0AE06648844207D1012161
:100B1000001500F0C4FB0021201500F0C0FB10BD43
:100B2000F0B50A4600210023002400BF3DE0012566
:100B300005FA01F3156805EA03049C4234D10568FF
:100B40004F000326BE40B543056015794E00B54001
:100B50000668354305601579012D02D01579022DFF
:100B600016D185684F000326BE40B5438560557990
:100B70004E00B540866835438560456801268E4045
:100B8000B5434560456896798E40B6B235434560B9
:100B9000C5684F000326BE40B543C560D5794E00F9
:100BA000B540C6683543C560491C1029BFD3F0BDA8
:100BB0004FF6FF7101600021017141718171C171B6
:100BC000704708B54FF480320092009A0A430092B1
:100BD000009AC261C161009AC261C2690092C26991
:100BE000009208BD0246002013690B400BB10120A2
:100BF00000E0002070470146086980B27047024655
:100C0000002053690B400BB1012000E00020704729
:100C10000146486980B2704701837047418370473D
:100C20000AB1018300E04183704741617047426926
:100C30004A4042617047F0B5002300244D07ED0E95
:100C400002FA05F3CE1000F1200555F826504E07A4
:100C5000F70E0F26BE40B543CF1000F1200646F830
:100C60002750CE1000F1200555F8265045EA030420
:100C7000CE1000F1200545F82640F0BD00000240EE
:100C80000004024000080240000C02400010024034
:100C90000014024000180240001C024000200240E4
:100CA000002402400028024010B50121080700F08E
:100CB00029FB00214FF0805000F024FB10BD524969
:100CC0000862704701460020504A106820F0E0009A
:100CD0000843106070474C49086170474A49A03189
:100CE000086070474849A4310860704701460020F9
:100CF000464A106820F4404008431060704742495B
:100D00000864704740494864704730B13F490968FA
:100D100041F440213D4A116005E03C49096821F455
:100D200040213A4A1160704718B10121364AD16218
:100D300002E00021344AD162704718B10121324AE1
:100D4000916202E00021304A916270472E49486268
:100D5000704710B5024600202C4B186840F603433C
:100D600098431043294B1860294B1B6843F0040338
:100D7000274C2360012901D130BF00E020BF244B64
:100D80001B6823F00403224C236010BD10B50246FB
:100D900000201E4B186840F60343984310431B4B3A
:100DA00018601B4B1B6843F00403194C2360012996
:100DB00001D130BF00E020BF154B1B6823F00403B6
:100DC000134C236010BD1148006840F002000F4929
:100DD00008600F48006840F004000D49086000BF3B
:100DE00000BF30BF704701460020084A52680A40E1
:100DF0000AB1012000E0002070470449096841EA77
:100E00008001024A1160704700000E4200700040ED
:100E100010ED00E0F948006840F00100F749086073
:100E20000020F64908310860F4480068F449084099
:100E3000F2490860F348091D0860F348EF4984311E
:100E40000860F0481038091D0860EC48006820F47C
:100E50008020EA4908600020E8490C310860E74931
:100E60008C31086070470021E44A921C11701146D1
:100E70000870704710B501460022002300204A1177
:100E8000012A02D1DD4C236808E0022A03D1DB4CA1
:100E90007034236802E0D94C7434236801F01F02D7
:100EA000012494401C400CB1012000E0002010BD42
:100EB00038B5002000900024002500BF3120FFF746
:100EC000D9FF05460098401C00900098B0F5A04F4F
:100ED00001D0002DF2D03120FFF7CCFF08B1012462
:100EE00000E00024204638BD01460020C34A1068B7
:100EF00020F0F80040EAC10010607047C349086064
:100F000070470021BD4A703211701170012802D063
:100F100004280AD104E00121B84A7032117005E0BA
:100F20000521B64A7032117000E000BF00BF704763
:100F3000B7490860704770B5049C41EA82150126E4
:100F4000C6EB530645EA0645054345EA0465AB4E44
:100F5000361D356070BDAD4908667047820142EAB2
:100F60000172A64B84331A607047A849886670479F
:100F700010B5830143EA016343EA02739F4C88344E
:100F8000236010BDA14908677047A049C864704735
:100F900002460020994B0833186820F0EC6042EAC2
:100FA00001031843954B0833186070470246002030
:100FB000924B0833186820F0784042EA0103184346
:100FC0008E4B083318607047014600208B4A083268
:100FD000106820F00300084310607047874808300D
:100FE000006800F00C00704701460020834A083278
:100FF000106820F0F00008431060704701460020A0
:101000007E4A0832106820F4E050084310607047B0
:1010100001460020794A0832106820F4604040EA16
:10102000C10010607047F0B50021002200240225A5
:1010300000260223714F08373F6807F00C0121B1E9
:10104000042905D0082937D105E0724F076036E042
:10105000714F076033E0694F3F1D3F68C7F380560B
:10106000664F3F1D3F6807F03F036EB16A4FB7FB05
:10107000F3F7DFF888C10CF1040CDCF800C0CCF306
:10108000881C07FB0CF40CE0624FB7FBF3F7DFF8AA
:101090006CC10CF1040CDCF800C0CCF3881C07FB1D
:1010A0000CF4564F3F1D3F68C7F301477F1C7D007E
:1010B000B4FBF5F7076002E0564F076000BF00BFC2
:1010C0004E4F08373F6807F0F0010909534F7A5C2B
:1010D0000768D7404760494F08373F6807F4E05139
:1010E000890A4E4F7A5C4768D7408760434F08377C
:1010F0003F6807F46041490B484F7A5C4768D74026
:10110000C760F0BD002100F44072B2F5407F0AD103
:101110003A4A0832116821F4F811414A0240114359
:10112000364A08321160354A70321268C0F30B0338
:101130001A43324B70331A6070473549443908609E
:101140007047334940390860704736490860704736
:1011500001460020294A8C32106820F01F004A1EE8
:101160001043264A8C321060704701460020234A03
:101170008C32106820F4F8504A1E40EA02201F4AC0
:101180008C3210607047014600201C4A8C32106877
:1011900020F4401008431060704701460020174AB1
:1011A0008C32106820F440000843106070470146FC
:1011B0000020124A8C32106820F44030084310603E
:1011C000704719490860704739B10C4A30321268CB
:1011D00002430A4B30331A6006E0084A3032126884
:1011E0008243064B30331A607047F9B1034A3432F8
:1011F00012680243014B34331A601CE0003802408D
:10120000FFFFF6EA103000240030002000004742C3
:10121000800E47420024F40000127A0018000020DB
:10122000FFFCFF0F5C014742E01147428F4A126802
:1012300082438E4B1A60704739B18C4A121D126876
:1012400002438A4B1B1D1A6006E0884A121D126871
:101250008243864B1B1D1A60704739B1834A0C329A
:1012600012680243814B0C331A6006E07F4A0C324D
:10127000126882437D4B0C331A60704739B17B4A48
:10128000103212680243794B10331A6006E0774A35
:10129000103212688243754B10331A60704739B1AF
:1012A000724A243A12680243704B243B1A6006E0EB
:1012B0006E4A243A126882436C4B243B1A60704792
:1012C00039B16A4A203A12680243684B203B1A60DF
:1012D00006E0664A203A12688243644B203B1A605B
:1012E000704739B1614A1C3A126802435F4B1C3B9C
:1012F0001A6006E05D4A1C3A126882435B4B1C3B55
:101300001A60704739B1594A143A12680243574B70
:10131000143B1A6006E0554A143A12688243534B54
:10132000143B1A60704739B1504A103A12680243B0
:101330004E4B103B1A6006E04C4A103A126882434A
:101340004A4B103B1A60704739B1484A1C32126848
:101350000243464B1C331A6006E0444A1C321268B2
:101360008243424B1C331A60704739B13F4A2032E6
:10137000126802433D4B20331A6006E03B4A20329C
:1013800012688243394B20331A60704739B1374AAB
:10139000243212680243354B24331A6006E0334A84
:1013A000243212688243314B24331A60704739B1BA
:1013B0002E4A2C32126802432C4B2C331A6006E062
:1013C0002A4A2C3212688243284B2C331A60704709
:1013D00039B1264A303212680243244B30331A6046
:1013E00006E0224A303212688243204B30331A60C2
:1013F0007047012808D11D493C31096841F00801B6
:101400001A4A3C32116007E018493C31096821F062
:101410000801164A3C321160704739B1134A273A25
:1014200012780243114B273B1A7006E00F4A273A05
:10143000127882430D4B273B1A7070470B4840309F
:10144000006840F0807009494031086070470146EB
:101450000020064A283A12680A400AB1012000E03A
:10146000002070470149263908707047343802401F
:1014700010B50446FE48844208D101210846FFF712
:1014800052FF00210120FFF74EFF9DE0B4F1804F95
:1014900008D101210846FFF735FF00210120FFF7A1
:1014A00031FF91E0F348844208D101210220FFF787
:1014B00029FF00210220FFF725FF85E0EE48844246
:1014C00008D101210420FFF71DFF00210420FFF7B0
:1014D00019FF79E0E948844208D101210820FFF78B
:1014E00011FF00210820FFF70DFF6DE0E448844262
:1014F00008D101211020FFF705FF00211020FFF780
:1015000001FF61E0DF48844208D101212020FFF77C
:10151000F9FE00212020FFF7F5FE55E0DA4884426D
:1015200008D101210220FFF7FEFE00210220FFF773
:10153000FAFE49E0D548844209D101210804FFF7A9
:10154000F2FE00214FF48030FFF7EDFE3CE0D04882
:10155000844209D101214804FFF7E5FE00214FF440
:101560000030FFF7E0FE2FE0CA48844209D1012194
:101570008804FFF7D8FE00214FF48020FFF7D3FE48
:1015800022E0C548844208D101214020FFF7BAFE7D
:1015900000214020FFF7B6FE16E0C048844208D183
:1015A00001218020FFF7AEFE00218020FFF7AAFE78
:1015B0000AE0BB48844207D101218015FFF7A2FE53
:1015C0000021A015FFF79EFE10BD00220288A84B47
:1015D00098420ED0AC4B98420BD0B0F1804F08D05F
:1015E000A44B984205D0A44B984202D0A34B9842FA
:1015F00004D14FF68F731A404B881A43A04B984280
:1016000007D0A04B984204D04FF6FF431A400B89F5
:101610001A4302804B68C3620B880385944B98423F
:1016200002D0994B984201D18B7A038601238382A1
:1016300070474FF0FF3141600021018001814180FE
:10164000817270470185828270470A4600210188B5
:101650004FF68F7319401143018070474162704704
:10166000C16270470146486A70470146088D70475D
:1016700021B1028842F00202028004E002884FF6A3
:10168000FD731A400280704721B1028842F00402C3
:10169000028004E002884FF6FB731A400280704714
:1016A00021B1028842F08002028004E002884FF6F5
:1016B0007F731A400280704702884FF6F7731A4012
:1016C000028002880A430280704702884FF6FF4377
:1016D0001A40028002880A430280704721B10288C2
:1016E00042F00102028004E002884FF6FE731A40C5
:1016F0000280704770B5002400220023058C4FF64D
:10170000FE7635400584028C8388048B4FF68F75F6
:101710002C40B51E2C400D882C43751E2A408D8907
:101720002A434D882A43524DA84202D0564DA84222
:1017300013D14FF6F7752A40CD892A434FF6FB7532
:101740002A408D882A434FF6FF652B404FF6FF5500
:101750002B400D8A2B434D8A2B43838004838D6855
:101760004563028470BD70B5002400220023058CFF
:101770004FF6EF7635400584028C8388048B48F65B
:10178000FF752C404FF6FF452C400D884FF6FF7635
:1017900006EA05252C434FF6DF752A408D8906EAB7
:1017A00005152A434D8806EA05152A43304DA842FF
:1017B00002D0354DA8421DD14FF67F752A40CD8904
:1017C0004FF6FF7606EA05152A434FF6BF752A4005
:1017D0008D8806EA05152A434FF6FF352B404FF258
:1017E000FF752B400D8A06EA85052B434D8A06EAD4
:1017F00085052B43838004838D688563028470BDD7
:1018000070B5002400220023058C4FF6FF6635409A
:101810000584028C8388848B4FF68F752C404FF69D
:10182000FC752C400D882C434FF6FF552A408D89BE
:101830004FF6FF7606EA05252A434D8806EA052578
:101840002A430B4DA84202D00F4DA84238D14FF287
:10185000FF752A40CD894FF6FF7606EA05252A4313
:101860004FF6FF352A408D8806EA05252A4319E000
:10187000000001400004004000080040000C00404F
:1018800000100040001400400004014000400140EE
:10189000004401400048014000180040001C004086
:1018A000002000404EF6FF752B404DF6FF752B4093
:1018B0000D8A06EA05152B434D8A06EA05152B43CA
:1018C000838084838D68C563028470BD70B50022F7
:1018D00000230024058C4EF6FF7635400584038CEA
:1018E0008488828B48F6FF752A404FF6FF452A40D0
:1018F0000D884FF6FF7606EA05252A434DF6FF755B
:101900002B408D8906EA05352B434D8806EA0535BF
:101910002B43FE4DA84202D0FD4DA84208D14BF604
:10192000FF752C400D8A4FF6FF7606EA85152C438D
:10193000848082838D680564038470BD00210180EA
:101940004180818081608181C181018241827047B3
:1019500070B50346002000241846183001258D403C
:10196000ACB21D8CA5431D8409B108290AD100EB36
:10197000610005684FF68F763540056005681543B0
:1019800005600FE00D1FC5F34E052844056848F6B5
:10199000FF763540056005684FF6FF7606EA0226B9
:1019A0003543056070BD4163704781637047C16313
:1019B0007047016470470A460021018B4FF68F7310
:1019C00019401143018370470A460021018B48F6F4
:1019D000FF7319404FF6FF7303EA02231943018393
:1019E00070470A460021818B4FF68F7319401143CF
:1019F000818370470A460021818B48F6FF731940A6
:101A00004FF6FF7303EA02231943818370470A46A6
:101A10000021018B4FF6F773194011430183704782
:101A20000A460021018B4FF2FF7319404FF6FF73F6
:101A300003EA02231943018370470A460021818B80
:101A40004FF6F77319401143818370470A4600210E
:101A5000818B4FF2FF7319404FF6FF7303EA0223A5
:101A60001943818370470A460021018B4FF6FB73AF
:101A700019401143018370470A460021018B4FF63C
:101A8000FF3319404FF6FF7303EA02231943018322
:101A900070470A460021818B4FF6FB7319401143B2
:101AA000818370470A460021818B4FF6FF3319402E
:101AB0004FF6FF7303EA02231943818370470A46F6
:101AC0000021018B4FF67F7319401143018370474A
:101AD0000A460021018BC1F30E014FF6FF7303EAA2
:101AE00002231943018370470A460021818B4FF678
:101AF0007F7319401143818370470A460021818B0F
:101B0000C1F30E014FF6FF7303EA022319438183E9
:101B100070470A460021018C4FF6FD7319401143AE
:101B2000018470470A460021018C4FF6F773194073
:101B30001143018470470A460021018C4FF6DF7380
:101B400019404FF6FF7303EA0213194301847047EB
:101B50000A460021018C4FF67F7319404FF6FF7340
:101B600003EA02131943018470470A460021018CDD
:101B70004FF6FF5319404FF6FF7303EA0223194350
:101B8000018470470A460021018C4FF2FF7319400F
:101B90004FF6FF7303EA02231943018470470A4694
:101BA0000021018C4DF6FF7319404FF6FF7303EAD5
:101BB000023319430184704730B5002301248C405F
:101BC000A3B2048C9C430484048C02FA01F5ADB2E8
:101BD0002C43048430BD30B5002304248C40A3B2D0
:101BE000048C9C430484048C02FA01F5ADB22C43AE
:101BF000048430BD828B4FF2FF331A408283828B84
:101C00004FF6FF7303EA01231A4382837047F0B54E
:101C10000C461546002100220026078C4EF6FF7C5C
:101C200007EA0C070784818B028C4FF6FF7707EADF
:101C3000043640F6FF4739404FF6FF7707EA05279D
:101C400039434FF6FF7707EA0337394345F6FF7705
:101C50003A4046F480573A4381830284F0BD828B38
:101C60004FF6F3731A408283828B0A438283704754
:101C7000F0B50C461546002100220026078C4FF6D1
:101C8000FF6C07EA0C070784818B028C4FF6FF7705
:101C900007EA04264FF60C7739404FF6FF7707EA3C
:101CA00003172F4339434FF2FF573A4046F48077EA
:101CB0003A4381830284F0BD028B4FF2FF331A4016
:101CC0000283028B4FF6FF7303EA01231A43028358
:101CD0007047F0B50C461546002100220026078CFF
:101CE0004FF6EF7C07EA0C070784018B028C4FF656
:101CF000FF7707EA041640F6FF4739404FF6FF77B3
:101D000007EA033739434FF6FF7703E0000001404D
:101D10000004014007EA052739434FF65F773A4050
:101D200046F010073A4301830284F0BD028B4FF660
:101D3000F3731A400283028B0A4302837047F0B5A3
:101D40000C46154600210022068C4FF6FE773E40D9
:101D50000684018B028C4FF60C7631407E1C06EA1D
:101D600003162E4331434FF6F576324044F0010618
:101D7000324301830284F0BD70B505460C462088CD
:101D800050B92389A28861882846FFF7D8FFE188E7
:101D90002846FFF7CBFF25E0208804280AD12389B5
:101DA000A28861882846FFF794FFE1882846FFF75C
:101DB00083FF17E0208808280AD12389A288618838
:101DC0002846FFF755FFE1882846FFF748FF09E05E
:101DD0002389A28861882846FFF719FFE1882846F1
:101DE000FFF708FF70BD0021018041800121818043
:101DF0000021C180018170472DE9F04105460C4664
:101E000000260127608808B9022600E00026A08885
:101E1000012801D1022700E001272088A0B92389E9
:101E2000A28861882846FFF78AFFE1882846FFF7E5
:101E30007DFF23893A4631462846FFF74AFFE1886D
:101E40002846FFF739FF13E02389A28861882846D6
:101E5000FFF73FFFE1882846FFF72EFF23893A4628
:101E600031462846FFF76BFFE1882846FFF75EFF03
:101E7000BDE8F0810146486B70470146886B7047AA
:101E80000146C86B70470146086C70470A884B884A
:101E90001A438B881A43CB881A430B891A434B8900
:101EA0001A438B891A43A0F844207047002101800F
:101EB00041808180C180018141818181704731B140
:101EC000B0F8442042F40042A0F8442005E0B0F805
:101ED0004420C2F30E02A0F84420704721B182884A
:101EE00042F00402828004E082884FF6FB731A40BD
:101EF0008280704721B1828842F00102828004E032
:101F000082884FF6FE731A40828070471AB1838927
:101F10000B43838102E083898B43838170478182F5
:101F2000704702460020138A0B400BB1012000E0ED
:101F300000207047CA430282704730B50246002035
:101F400000230024158A05EA0103958905EA0104A6
:101F500013B10CB1012000E0002030BDCA43028261
:101F6000704741EA0203A0F8483070471AB18389EC
:101F70000B43838102E083898B438381704721B1C6
:101F8000828842F00802828004E082884FF6F7736C
:101F90001A408280704701894FF6F8721140018122
:101FA00070470A46002101894FF68F73194011438B
:101FB0000181704730B504460D4629462046FFF79B
:101FC000F0FF208940F00700208130BD2DE9F0416D
:101FD00004460D4616461F46602D06D13B4601229B
:101FE00031462046FFF775FE05E03B4601223146AB
:101FF0002046FFF7A4FE29462046FFF7D2FF20899E
:1020000040F007002081BDE8F08130B50C4600218A
:102010000189C9B24FF6FF7505EA0325154325432B
:102020002943018130BD2DE9F04105460E46174692
:102030009846002443463A4631462846FFF7E5FFD6
:102040002C894FF6F870044044F007044FF68F7067
:10205000044044F070042C81BDE8F081F0B50446E2
:102060000D4616461F463B46324629462046FFF798
:10207000CCFF208940F480402081F0BD82884FF65B
:102080008F731A40828082880A4382807047028957
:102090004FF6F8731A40028102890A4302817047A1
:1020A00002894FF67F731A40028102890A43028136
:1020B0007047F0B50C4615461E460021002200234D
:1020C0000189028B038C4FF6F877394021434FF694
:1020D000FC473A4040F201173A434FF6DD773B4068
:1020E0004FF6FF7707EA06172F433B430181028330
:1020F0000384F0BD21B1828842F08002828004E036
:1021000082884FF67F731A4082807047A0F8501083
:102110007047000010B50446FA48844208D10121F6
:102120001020FFF700F900211020FFF7FCF857E01E
:10213000F548844209D101214804FFF7E3F8002162
:102140004FF40030FFF7DEF84AE0F048844209D14E
:1021500001218804FFF7D6F800214FF48020FFF713
:10216000D1F83DE0EA48844209D10121C804FFF7D3
:10217000C9F800214FF40020FFF7C4F830E0E5482B
:10218000844209D101210805FFF7BCF800214FF472
:102190008010FFF7B7F823E0DF48844208D101211F
:1021A0002020FFF7C0F800212020FFF7BCF817E03F
:1021B000DA48844209D101218807FFF7A3F80021FA
:1021C0004FF08040FFF79EF80AE0D548844207D1DF
:1021D00001214005FFF796F800216005FFF792F80E
:1021E00010BD2DE9FF4705460E460024A14600BF5D
:1021F000A046B08900B100BF2C8A24F44054F08876
:1022000004432C82AC8941F20C608443B08831894C
:102210000843718908430443AC81AC8A24F44074B8
:10222000B0890443AC826846FEF7FDFEB54885429E
:1022300002D0B948854202D1DDF80C9001E0DDF80A
:102240000890A88900F4004040B109EBC90000EBF8
:10225000091031684900B0FBF1F707E009EBC9004C
:1022600000EB091031688900B0FBF1F76420B7FB7F
:10227000F0F004012009642101FB1078A88900F422
:10228000004040B1322000EBC800B0FBF1F000F09C
:102290000700044308E0322000EB08106421B0FB83
:1022A000F1F000F00F0004432C81BDE8FF874FF4EC
:1022B0001651016000218180C18001810C21418182
:1022C00000218181704710B502460020108A20F459
:1022D00070600B884C8823438C882343CC8823432D
:1022E0001843108210BD0021018041808180C1808F
:1022F000704721B1828942F40052828104E08289D0
:102300004DF6FF731A4082817047028B02F47F42C0
:102310000283028B0A430283704721B1828942F40F
:102320000042828103E08289C2F30E0282817047FB
:1023300021B1828A42F40062828204E0828A4FF2F2
:10234000FF731A4082827047C1F30802828070478F
:1023500001468888C0F308007047028A4FF6F07380
:102360001A400282028A0A430282704721B182899E
:1023700042F00202828104E082894FF6FD731A4026
:102380008281704782894FF2FF731A40828182896D
:102390000A4382817047028A4FF6DF731A40028235
:1023A000028A0A430282704721B1028A42F48042C3
:1023B000028204E0028A4BF6FF731A4002827047E1
:1023C000818941F001018181704721B1828A42F007
:1023D0000802828204E0828A4FF6F7731A408282F2
:1023E0007047028BD2B20283028B42EA012202833F
:1023F000704721B1828A42F02002828204E0828A00
:102400004FF6DF731A408282704721B1828A42F010
:102410001002828204E0828A4FF6EF731A408282B1
:102420007047828A4FF6FB731A408282828A0A437F
:102430008282704721B1828A42F00202828204E0E5
:10244000828A4FF6FD731A40828270471AB1838ADE
:102450000B43838202E0838A8B4383827047F0B50B
:102460000346002400260025002040F66A17B942E2
:1024700000D100BF1846C1F3421401F01F06012726
:1024800007FA06F5012C01D10C3004E0022C01D131
:10249000103000E014301AB107682F43076002E0E3
:1024A0000768AF430760F0BD02460020B1F5007F2A
:1024B00000D100BF13880B400BB1012000E00020C9
:1024C000704701F40072B2F5007F00D100BFCA432B
:1024D0000280704770B502460024002300250020CA
:1024E00040F66A16B14200D100BFC1F3421501F0B7
:1024F0001F03012606FA03F3012D13D196893340F9
:1025000017E0000000100140004400400048004077
:10251000004C004000500040001401400078004092
:10252000007C0040022D02D1168A334001E0968AD9
:1025300033400C12012606FA04F41688344013B115
:102540000CB1012000E0002070BD10B50022002376
:1025500040F66A14A14200D100BF0A12012494403F
:10256000A3B2DC43048010BD10B504466FF0040034
:10257000FEF700F8E11704EB5171C1F3C701394AC6
:1025800011701046007800EB4001C1EBC0104FF60F
:10259000FF7101EAC0003449088010BD0146314A8C
:1025A00012784A434FF0E0235A6100229A611A469A
:1025B000126942F001021A6100BF4FF0E022106977
:1025C00000F001021AB100F48032002AF5D04FF079
:1025D000E022126922F001024FF0E0231A6100228A
:1025E0009A6170470146204A12884A434FF0E0231F
:1025F0005A6100229A611A46126942F001021A6178
:1026000000BF4FF0E022106900F001021AB100F49F
:102610008032002AF5D04FF0E022126922F0010248
:102620004FF0E0231A6100229A61704770B50446AA
:102630004FF4077094FBF0F0C6B24FF4077094FBB0
:10264000F0F100FB114085B205E04FF40770FFF791
:10265000C9FF701EC6B2002EF7D115B12846FFF78C
:10266000C1FF70BD280000202A000020014600BFE5
:10267000704700BF244A128802F04002002AF9D0B5
:10268000C2B2214B9A80704710B586B00446012132
:102690000846FEF799FD01211020FEF7EFFD072205
:1026A00009211A48FEF7C7FA07220A211748FEF740
:1026B000C2FA4FF4C060049002208DF814008DF827
:1026C000150000208DF8160001208DF8170004A9D0
:1026D0000E48FEF725FA00940020ADF80400ADF88E
:1026E0000600ADF80800ADF80C000C20ADF80A00AB
:1026F00069460548FFF775FD01210348FFF7F9FD1D
:1027000006B010BD704700000010014000000240FC
:10271000002000E0401C1E28FCDB704710B504467A
:102720000723012221467448FDF7D3FF7248FEF7C4
:102730002CF800BF02217048FEF748F90028F9D0B4
:102740006D48FEF75EF810BD70B50024002501202D
:102750006A49086000206A49C1F88C02FFF7D8FF77
:1027600001206849086000206749C1F88C02FFF722
:10277000CFFF01206149086000206149C1F88C0247
:10278000FFF7C6FF00BF15E000205C490860FFF7B7
:10279000BFFF0420FFF7C2FF00115C4921F81500BC
:1027A000681CC5B201205849C1F88C02FFF7B0FF80
:1027B000601CC4B2802CE7DB70BD00B58DB0012178
:1027C0000720FEF701FD01210802FEF757FD10204A
:1027D0000B9003208DF8300000208DF833000BA9FA
:1027E0004B48FEF79DF908200B9001208DF8300032
:1027F00000208DF832008DF8310001208DF8330073
:102800000BA94448FEF78CF908200B9001208DF8A5
:10281000300000208DF832008DF8310001208DF855
:1028200033000BA93C48FEF77BF902200B900320F4
:102830008DF8300000208DF833000BA93548FEF7E5
:102840006FF901210802FEF76EFD00214FF4807040
:10285000FEF769FD002007900A9009904FF4803040
:10286000089007A8FDF7DEFE002001908DF8080013
:102870008DF809000390059001208DF8180001A93A
:102880001D48FDF7A0FE01211B48FDF7E2FE0DB03B
:1028900000BD70B52DED0A8B0920FFF73FFF0546FF
:1028A00000F0DFFE41EC1C0B9FED1C0B53EC102BDA
:1028B00000F0EAFE41EC1B0B9FED1A0B53EC102BC2
:1028C00000F0E2FE41EC1A0B9FED180B53EC102BBD
:1028D00000F0DAFE41EC190B9FED160B53EC102BB8
:1028E00000F038FD41EC180B00F08CFE0446204649
:1028F000BDEC0A8B70BD0000002001408C8240427C
:10290000000041428C0241420080404250000020C1
:10291000000002400004024000080240666666664D
:1029200066660A400000000000002640000000002B
:1029300000005940000000000000B0401CB501211B
:102940000220FEF741FC4FF48040009000208DF8FB
:10295000040003208DF8050001208DF8070069466A
:102960004B48FEF7DDF81CBD01464A48006828B90F
:1029700049480088401C484A108002E00020464A2E
:1029800010804448006828B94448007810B90120F4
:10299000424A107042480078B0B940480078012897
:1029A00007D140480078401C3E4A107001203C4A44
:1029B00010703C480078022806D10020394A107077
:1029C000394A10800220704732480068012804D13B
:1029D0000020324A1070324A1070324800780128C4
:1029E0001CD131480088401C2F4A108010460088B6
:1029F00088420ADD28480088884206DA0020294AF1
:102A00001070294A10800120DDE7234800888842A1
:102A100004DD0020234A1070234A10800020D2E7F2
:102A20002248007838B11B48006820B900201F49AF
:102A300008700120704717480068012801D11B4920
:102A400008700020F6E71A48008840B9114800686D
:102A500028B918480088401C1649088002E0002068
:102A60001449088013480088C82807DD0120104950
:102A7000088000200F490880012070470C4800881A
:102A8000012802D100200A4908800020F5E7000053
:102A90000004024038824042320000202C00002016
:102AA0002D0000202E0000203000002034000020E7
:102AB00038000020360000201CB501210220FEF75E
:102AC00083FB4FF40050009001208DF8040000209B
:102AD0008DF8060003208DF8050001208DF8070011
:102AE00069460F48FEF71CF84FF400510C48FEF7FA
:102AF00093F81CBD18B900210A4A11600FE00A4979
:102B00000968491C084A1160814208D105490968D1
:102B1000C943064AC2F8B4120021034A1160704743
:102B200000040240B48240423C0000200080404249
:102B300010B50A461AB10123FE4C236002E00023BF
:102B4000FC4C2360002116E00023FA4C343423604F
:102B500000F080031BB10123241D236003E0002348
:102B6000F44C383423600123F24C343423604306A0
:102B7000180E4B1CD9B20829E6DB0123ED4C23606B
:102B800010BD30B500241CE004F1B001C8B2002132
:102B9000FFF7CEFF00210846FFF7CAFF00211020F3
:102BA000FFF7C6FF002508E0E34901EBC501085D1A
:102BB0000121FFF7BDFF681CC5B2802DF4DB601C4E
:102BC000C4B2082CE0DB30BD00B500218D20FFF73A
:102BD000AFFF00211420FFF7ABFF0021AF20FFF76C
:102BE000A7FF00BD00B500218D20FFF7A1FF002148
:102BF0001020FFF79DFF0021AE20FFF799FF00BDD9
:102C000030B500240CE0002506E00020CA4901EBA5
:102C1000C5010855681CC5B2802DF6DB601CC4B226
:102C2000082CF0DBFFF7ADFF30BDF0B514460026F1
:102C30007F2801DC3F2900DDF0BD0B46CF1701EBFB
:102C40005777FF10C7F10707FAB2CF1701EB577795
:102C5000FF10A1EBC707FDB2C5F107070123BB4079
:102C6000DEB24CB1B44B03EBC0039B5C3343B24FB9
:102C700007EBC007BB5408E0AF4B03EBC0039B5C02
:102C8000B343AD4F07EBC007BB5400BFD4E72DE9FA
:102C9000F04F80460C4615461E46A346A5F120007F
:102CA000C5B200273EE00C2E07D105EB4500A34935
:102CB00001EB800010F8079004E0A14800EB05103C
:102CC00010F807904FF0000A26E009F0800028B1C4
:102CD00021464046099AFFF7A8FF09E0099808B97C
:102CE000012000E00020024621464046FFF79DFFFC
:102CF0004FEA49604FEA1069601CC4B2A4EB0B00B4
:102D0000B04205D15C4608F1010000F0FF0806E082
:102D10000AF1010000F0FF0ABAF1080FD5DB00BF8D
:102D2000781CC7B2B742BEDBBDE8F08F10B50246D3
:102D3000012000E050430B00A1F10104E1B2F9D100
:102D400010BD2DE9FF4F81B0074691461E460E9DEE
:102D50004FF0000A002439E0301B401EC1B20A20A7
:102D6000FFF7E4FFB9FBF0F00A21B0FBF1F201FB41
:102D70001208BAF1000F16D1701EA04213DDB8F18F
:102D8000000F0ED10120AB4605EBDB71491001FBB2
:102D900004710090C8B22B4620220299FFF777FFFA
:102DA00012E04FF0010A0120AB4605EBDB71491040
:102DB00001FB04710090C8B208F13001CAB22B4681
:102DC0000299FFF764FF00BF601CC4B2B442C3DBCA
:102DD00005B0BDE8F08F78B505460E46144618E0FC
:102DE0007A2D03DD002506F11000C6B23A2E04DD6F
:102DF000002005460646FFF703FF012000902278D9
:102E00000C2331462846FFF742FF05F10800C5B202
:102E1000641C20780028E3D178BD1CB50121042072
:102E2000FEF7D2F901210807FEF717FA0120FDF796
:102E300046FF0020FEF765F84EF2010000900120E9
:102E40008DF8040000208DF806008DF805008DF83F
:102E5000070069463B48FDF763FE012039491A31F6
:102E6000088040030880400008804000088000205F
:102E700030493C3108606420FFF7D8FB012032491B
:102E8000C1F8BC020021AE20FFF752FE0021D52080
:102E9000FFF74EFE00215020FFF74AFE0021A82038
:102EA000FFF746FE00213F20FFF742FE0021D3201E
:102EB000FFF73EFE00210846FFF73AFE00214020C2
:102EC000FFF736FE00218D20FFF732FE002114208F
:102ED000FFF72EFE00212020FFF72AFE002102200E
:102EE000FFF726FE0021A120FFF722FE0021C020CF
:102EF000FFF71EFE0021DA20FFF71AFE0021122044
:102F0000FFF716FE00218120FFF712FE0021EF20BF
:102F1000FFF70EFE0021D920FFF70AFE0021F12065
:102F2000FFF706FE0021DB20FFF702FE0021302024
:102F30000CE0000080024142500100208E38000861
:102F4000023D00080008024000004142FFF7F0FD8A
:102F50000021A420FFF7ECFD0021A620FFF7E8FDEB
:102F60000021AF20FFF7E4FDFFF74AFE1CBD000083
:102F70007FB505460C4601210220FEF76EF9029549
:102F8000ADF804400020ADF80600ADF80C0001A932
:102F90000D48FEF71AFB012211460B48FEF7B6FF5B
:102FA00001210948FEF79AFB1D208DF80000012041
:102FB0008DF8010000208DF8020001208DF803003B
:102FC0006846FDF78AFA7FBD000400408748008804
:102FD0008749088005208749088014E0834885498F
:102FE000098830F8110082490988884206DB7F4849
:102FF0008049098830F811007D4908807D480088A3
:10300000401C7C4908807B4800887B28E6DB7748A9
:1030100000887949088005207649088014E07348C3
:103020007449098830F8110073490988884206DC20
:103030006E487049098830F811006F4908806D4862
:103040000088401C6B4908806A4800887B28E6DBC2
:1030500067490988684A1288881800EBD071C1F363
:103060004701664A117005206249088044E05F48C4
:103070006049098830F8110060490978884236DDD6
:103080005A495C480088401C31F810005B490978B7
:1030900088422CDD554957480088801C31F81000C3
:1030A00056490978884222DD504952480088C01CA0
:1030B00031F8100051490978884218DA4B494D48D7
:1030C0000088001D31F810004C49097888420EDA5A
:1030D000464948480088401D31F8100047490978A2
:1030E000884204DA434800884549088008E041489E
:1030F0000088401C3F4908803E4800887628B6DB9F
:1031000000BF76203F49088044E038483D4909889F
:1031100030F8110039490978884236DA334939489C
:103120000088401C31F810003449097888422CDAB4
:103130002E4934480088801C31F810002F49097846
:10314000884222DA29492F480088C01C31F8100033
:103150002A490978884218DD24492A480088001D38
:1031600031F810002549097888420EDD1F492548AD
:103170000088401D31F8100020490978884204DD9C
:10318000204800882049088008E01E480088401E2A
:103190001C4908801B4800880528B6DC00BF1A4976
:1031A0000988174A1288881800EBD071C1F34701CB
:1031B000164A1170704710B501211548FEF7BDFE83
:1031C000012812D101211248FEF7C8FE11480078EB
:1031D00008B9012000E000200E4908700846007878
:1031E00008B1FFF7B1FAFFF7F1FE10BD5000002063
:1031F0004A000020420000204C0000200100002076
:10320000460000204400002048000020000000206C
:1032100000040040400000202DE9F04106460D4624
:10322000174600243A4629463046FFF7FEFC3A4648
:1032300029463046FFF7F9FC00BF07E02819C1B264
:103240003A463046FFF7F1FC601CC4B2082CF5DBAF
:10325000BDE8F08170B5002410E01B4830F8140080
:103260001A490978884201DA012500E000252A463A
:1032700000212046FFF7D0FF601CC4B2802CECDB9D
:1032800070BD08B5FFF7E6FF11A20A210020FFF785
:10329000A2FD0C2003230090104802780A215A2036
:1032A000FFF74FFD0EA214210020FFF794FD0C2024
:1032B000032300900548027814215A20FFF741FDAE
:1032C000FFF75FFC08BD0000500000200100002057
:1032D0005A484F4E47205A48493A00000000002003
:1032E0005955202020205A48493A0000704770471D
:1032F000704770477047754600F028F8AE460500E5
:103300006946534620F00700854618B020B5FDF702
:10331000CDF8BDE820404FF000064FF000074FF019
:1033200000084FF0000B21F00701AC46ACE8C009E3
:10333000ACE8C009ACE8C009ACE8C0098D467047EC
:103340000446AFF300802046FCF767FF0048704753
:10335000500500202DE9C04130B4DFF8A0C23CEA9E
:10336000111418BF3CEA131400F0EC8081EA030545
:103370001CEA111444EAD57418BF1CEA131500F0B6
:10338000C780A4EB05044FF0004545EAC12145EA9A
:10339000C32341EA505143EA525304F17F749942E6
:1033A00004F500344FEAC0204FEAC22208BF904221
:1033B00000F09C804FEA13650FF24016765D4FEAED
:1033C000134506FB05F7C7F1807706FB07F74FEAC1
:1033D000D737A7FB03687642C8F58038A7FB06CE2F
:1033E00038BFA8F1010807FB08E64FF0000EA6FB66
:1033F000028CE6FB03CEDCF1000CCEF1004E38BFB0
:10340000AEF1010EA6FB0C584FF000074FF000057F
:10341000E6FB0E87A1FB08C6A0FB07CE16EB0E0647
:1034200045F10005E1FB076515F1E04E7EBFA4F50F
:1034300080345FEA46066D4116F1800745F10005CC
:103440004FEA17274FEA066647EA0567A6F1DE4608
:10345000B6F1805F4FEA15251FD9384624F0010CDC
:1034600005EBC471BCF1FE6F01EB0C1102D8F0BC8E
:10347000BDE8008124425CBF01F5801E9EEAC47F46
:1034800002D4F0BCBDE80081244238D4F0BCA1F1E4
:10349000C041BDE8004100F0EFB94FEAD22242EA54
:1034A00043524FEAD323A7FB02864FEAD02040EADB
:1034B000415007FB03661EEA0E0F4FEAD12105FBC0
:1034C000026658BFA6EB0056B6EB00564FEA520E06
:1034D0004EEAC37E18EB0E0E56EB530EBDD518EB1D
:1034E00002085E417F1C55F10005B6E74FF48015D8
:1034F0004FF000074FF000064FF00008ADE7F0BCBA
:103500004FF0000001F1C04101F00041BDE8008131
:1035100011EA0C1F0CEA131500D00CE013EA0C1F83
:1035200000F025804FF00000F0BC81EA030101F0BB
:103530000041BDE80081F0BCBDE8004181EA030123
:1035400000F09AB9F0BCBDE8004170B500F046F952
:10355000097EFC3E00F007B881EA03014FF000004D
:1035600001F00041704781EA030100F085B9F0BC29
:10357000BDE800414FF0000021497047FFFDFBF915
:10358000F7F5F4F2F0EEEDEBE9E8E6E4E3E1E0DE96
:10359000DDDBDAD8D7D5D4D3D1D0CFCDCCCBCAC808
:1035A000C7C6C5C4C2C1C0BFBEBDBCBBBAB9B8B72F
:1035B000B6B5B4B3B2B1B0AFAEADACABAAA9A8A822
:1035C000A7A6A5A4A3A3A2A1A09F9F9E9D9C9C9BF0
:1035D0009A9999989797969595949393929191909B
:1035E0008F8F8E8E8D8C8C8B8B8A8989888887872C
:1035F0008685858484838382828181800000FF07A1
:103600000000F87F4FEA41034FEA5353A3F580636C
:10361000D3F11E03C8BFD3F1210C0CDD4FF00042E3
:1036200042EAC12242EA505232FA03FC8CEAE17CBF
:10363000ACEBE1707047102BC4BF0020704703F55E
:10364000787CBCF1FF3F04D06FF0004282EA210099
:10365000704770B500F0C2F849922480002070478E
:10366000F2E7B0FA80F310FA03F10AD0C3F11D03B8
:1036700003F580634FEA41504FEA035202EBD12138
:1036800070474FF000007047DFF848C170B51CEA82
:10369000111E1EBF1CEA13159EEA0C0F95EA0C0FB3
:1036A00000F06F8081EA030423EA4C134EEAD47ED3
:1036B00021EA4C1141F4801143F48013AE44A1FB84
:1036C000024CA0FB0365AEF17F7E361955EB0C056D
:1036D000A1FB034C4CF10003A0FB021C16EB0C06F3
:1036E000654153F10003094218BF46F0010613F487
:1036F000007F0BD14FEA03314FEA0530340341EA32
:10370000155140EA16506FF003020AE04FEAC32158
:103710004FEAC520F40241EA555140EA56506FF095
:10372000020202EB2E4201EB025585EACE710AD06D
:103730005FEA440C18BF24F0004450F1000041F14E
:10374000000120EAD47040F2FE7C624500D270BDD8
:10375000A84214BF4FF080444FF04044002E08BFF1
:103760000024BEF1806FA8BFA1F1C041BDE8704048
:1037700080F282804FF0000001F1C04101F0004171
:1037800070479EEA0C0F0CEA131518BF95EA0C0F50
:1037900006D04FF0000081EA030E0EF0004170BD2C
:1037A00000F01CF88900013E00F007B800F009B8ED
:1037B0004FEA430C5FEA5C5C08D081EA030100F049
:1037C0005BB84FEA410C5FEA5C5CF6D14FF0000059
:1037D000014970470000FF070000F87F0EF1020E5C
:1037E0002EF0030E5EF8046B364205D4012A43EB3B
:1037F000030515F5001F12D8012841EB010C1CF53B
:10380000001F0CD80ED14FEAD17C15F5001F0CEB30
:103810004C0C0CF1020C08BF4CEBD37C04E04FF0D5
:10382000080C01E04FEAD37C0CEB4C0526FA05F6B8
:1038300006F00706B6F1040C06D20EEB860CBDE8C6
:1038400070404CF0010C6047DFE80CF0090B0202FD
:103850004FF000414FF00000A1F5002170BD194666
:103860001046012851EB010418BFD4F5001484BFA1
:10387000002001F0004170BD0808A0F500114FEADA
:10388000310170474FF04070E1EE100A70470000C0
:1038900000000000000000000000000000003F40A9
:1038A0000000000000000000300040003000400038
:1038B000000009000BC03D000BC03D00090018C00E
:1038C00024407FE0224031800000180024C01B000B
:1038D0000D803240018003801C4027401C8007403F
:1038E0000040100060000000000000000000000028
:1038F000000000001F8020404020000040202040A9
:103900001F8000000000090006001F80060009005B
:103910000000040004003F800400040000000010C8
:10392000006000000000000000000400040004002B
:10393000040004000000000000400000000000003F
:103940000000002001C006003800400000001F8079
:103950002040204020401F800000000010403FC059
:1039600000400000000018C02140224024401840C0
:10397000000010802040244024401B8000000200F2
:103980000D0011003FC0014000003C802440244055
:103990002440238000001F802440244034400380C2
:1039A00000003000200027C03800200000001B80ED
:1039B0002440244024401B8000001C0022C02240E0
:1039C00022401F80000000000000084000000000AE
:1039D0000000000000000460000000000000000083
:1039E00004000A001100208040400900090009007D
:1039F00009000900000000004040208011000A007A
:103A000004001800200023402400180000001F803C
:103A10002040274029401F400000004007C03900D7
:103A20000F0001C0004020403FC0244024401B80C4
:103A300000001F80204020402040308000002040B7
:103A40003FC0204020401F80000020403FC0244055
:103A50002E4030C0000020403FC024402E003000E7
:103A600000000F00108020402240338002002040E0
:103A70003FC0040004003FC02040204020403FC021
:103A80002040204000000060202020203FC0200077
:103A9000200020403FC024400B0030C02040204088
:103AA0003FC020400040004000C03FC03C0003C079
:103AB0003C003FC0000020403FC00C4023003FC0FE
:103AC00020001F802040204020401F800000204018
:103AD0003FC024402400180000001F8021402140E6
:103AE00020E01FA0000020403FC02440260019C055
:103AF000004018C0244024402240318000003000A3
:103B000020403FC020403000000020003F800040A7
:103B100000403F80200020003E0001C00700380028
:103B20002000380007C03C0007C0380000002040DB
:103B300039C0060039C0204000002000384007C0CE
:103B4000384020000000304021C02640384020C0CE
:103B50000000000000007FE0402040200000000046
:103B600070000C0003800040000000004020402056
:103B70007FE0000000000000200040002000000066
:103B800000000010001000100010001000100000D5
:103B9000000040000000000000000000028005401E
:103BA000054003C0004020003FC0044004400380A3
:103BB00000000000038004400440064000000000B4
:103BC0000380044024403FC00040000003800540C3
:103BD000054003400000000004401FC02440244072
:103BE0002000000002E0055005500650042020404F
:103BF0003FC00440040003C000400000044027C050
:103C000000400000000000100010041027E0000039
:103C1000000020403FC00140070004C00440204095
:103C200020403FC000400040000007C0040007C023
:103C3000040003C00000044007C00440040003C0A7
:103C40000040000003800440044003800000041092
:103C500007F004500440038000000000038004408B
:103C6000045007F00010044007C0024004000400A4
:103C70000000000006400540054004C000000000B0
:103C800004001F8004400040000004000780004042
:103C9000044007C000400400070004C00180060083
:103CA0000400060001C0070001C006000000044037
:103CB00006C0010006C0044000000410071004E024
:103CC0000180060004000000044005C006400440D6
:103CD00000000000000004007BE040200000000025
:103CE00000000000FFF000000000000040207BE02A
:103CF0000400000000004000800040002000200080
:103D00004000000000000000000000000000000073
:103D100000000000000000001FCC000C00000000AC
:103D20000000000008003000600008003000600063
:103D30000000022003FC1E20022003FC1E200220A3
:103D4000000000000E1811043FFF10840C780000E2
:103D500000000F0010840F3800C007781884007826
:103D6000000000780F8410C411240E9800E4008431
:103D7000000808006800700000000000000000005B
:103D8000000000000000000007E0181820044002B6
:103D90000000000040022004181807E000000000A6
:103DA00000000240024001800FF00180024002400A
:103DB00000000080008000800FF8008000800080FC
:103DC00000000001000D000E0000000000000000D7
:103DD00000000000008000800080008000800080E3
:103DE00000800000000C000C00000000000000003B
:103DF00000000000000600180060018006001800A6
:103E00002000000007F0080810041004080807F05C
:103E100000000000080408041FFC00040004000067
:103E2000000000000E0C10141024104411840E0C1D
:103E3000000000000C1810041104110412880C700A
:103E40000000000000E00320042408241FFC0024DC
:103E5000000000001F9810841104110410881070D5
:103E60000000000007F00888110411041888007091
:103E7000000000001C00100010FC13001C001000CB
:103E8000000000000E3811441084108411440E38D4
:103E9000000000000700088C10441044088807F058
:103EA0000000000000000000030C030C00000000F4
:103EB00000000000000000010106000000000000FA
:103EC00000000000008001400220041008081004D7
:103ED00000000220022002200220022002200220F4
:103EE00000000000100408080410022001400080B7
:103EF000000000000E001200100C106C10800F006B
:103F0000000003E00C1813E4142417C4082807D099
:103F100000000004003C03C41C40074000E4001CF7
:103F2000000410041FFC1104110411040E88007019
:103F3000000003E00C1810041004100410081C10FA
:103F4000000010041FFC100410041004080807F0FF
:103F5000000010041FFC1104110417C410040818F9
:103F6000000010041FFC1104110017C0100008000D
:103F7000000003E00C181004100410441C780040EA
:103F8000000010041FFC10840080008010841FFCBF
:103F900010040000100410041FFC100410040000A2
:103FA000000000030001100110011FFE10001000AE
:103FB000000010041FFC110403801464181C10047A
:103FC000000010041FFC1004000400040004000C96
:103FD000000010041FFC1F0000FC1F001FFC100449
:103FE000000010041FFC0C04030000E010181FFC6C
:103FF000100007F00808100410041004080807F067
:10400000000010041FFC10841080108010800F002E
:10401000000007F0081810241024101C080A07F2EA
:10402000000010041FFC1104110011C011300E0C0F
:10403000000400000E1C11041084108410441C386D
:1040400000001800100010041FFC100410001800DD
:10405000000010001FF810040004000410041FF8F2
:10406000100010001E0011E0001C007013801C00E6
:1040700010001FC0103C00E01F0000E0103C1FC0FB
:1040800000001004180C163401C001C01634180CBE
:10409000100410001C00130400FC13041C0010008A
:1040A00000000804101C1064108413041C04101871
:1040B00000000000000000007FFE400240024002BD
:1040C0000000000030000C0003800060001C0003B2
:1040D000000000004002400240027FFE000000009D
:1040E00000000000000020004000400040002000D0
:1040F00000000001000100010001000100010001B9
:10410000000100004000400020000000000000000E
:10411000000000000098012401440144014400FC17
:10412000000410001FFC00880104010400880070D6
:1041300000000000007000880104010401040088F0
:1041400000000000007000880104010411081FFC39
:104150000004000000F8014401440144014400C887
:1041600000000000010401040FFC110411041100FF
:104170001800000000D601290129012901C9010602
:10418000000010041FFC008401000100010400FC79
:10419000000400000104190419FC000400040000DC
:1041A00000000000000300010101190119FE0000D8
:1041B000000010041FFC0024004001B4010C0104A5
:1041C00000000000100410041FFC000400040000A4
:1041D0000000010401FC0104010001FC01040100D4
:1041E00000FC010401FC008401000100010400FC4A
:1041F0000004000000F8010401040104010400F8B7
:104200000000010101FF0085010401040088007025
:10421000000000000070008801040104010501FF96
:1042200000010104010401FC00840104010001807B
:104230000000000000CC0124012401240124019885
:10424000000000000100010007F801040104000063
:104250000000010001F8000400040004010801FC52
:104260000004010001800170000C00100160018059
:10427000010001F0010C003001C00030010C01F020
:10428000010000000104018C00740170018C010424
:104290000000010101810171000E00180160018020
:1042A000010000000184010C013401440184010C6F
:1042B0000000000000000000000001003EFC400281
:1042C00040020000000000000000FFFF00000000AE
:1042D00000000000400240023EFC0100000000001F
:1042E00000000000600080008000400040002000CE
:1042F00020000000144300080000002050000000CF
:10430000C40100086443000850000020600B000056
:10431000E001000800000000007A030A000000002D
:104320000000000001020304060708090000000065
:10433000010203040102030406070809000000004B
:10434000000000000000000001000000000000006C
:10435000000000000000000000000000000000005D
:044360000000000059
:040000050800018965
:00000001FF
