:020000040800F2
:10000000400800203102000819070008D106000846
:1000100015070008B3050008790B00080000000070
:1000200000000000000000000000000009090008B6
:10003000B70500080000000031070008210A000889
:100040004B0200084B0200084B0200084B0200085C
:100050004B0200084B0200084B0200084B0200084C
:100060004B0200084B0200084B0200084B0200083C
:100070004B0200084B0200084B0200084B0200082C
:100080004B0200084B0200084B0200084B0200081C
:100090004B0200084B0200084B0200084B0200080C
:1000A0004B0200084B0200084B0200084B020008FC
:1000B0004B0200084B0200084B0200084B020008EC
:1000C0004B0200084B0200084B0200084B020008DC
:1000D0004B0200084B0200084B0200084B020008CC
:1000E0004B0200084B0200084B0200084B020008BC
:1000F0004B0200084B0200084B0200084B020008AC
:100100004B0200084B0200084B0200084B0200089B
:100110004B0200084B0200084B0200084B0200088B
:100120004B0200084B0200084B0200084B0200087B
:100130004B0200084B0200084B0200084B0200086B
:100140004B0200084B0200084B0200084B0200085B
:100150004B0200084B0200084B0200084B0200084B
:100160004B0200084B0200084B0200084B0200083B
:100170004B0200084B0200084B0200084B0200082B
:100180004B0200084B02000800F002F800F041F8B2
:100190000AA090E8000C82448344AAF10107DA45E2
:1001A00001D100F036F8AFF2090EBAE80F0013F0F3
:1001B000010F18BFFB1A43F001031847F40D0000AC
:1001C000140E0000103A24BF78C878C1FAD852073C
:1001D00024BF30C830C144BF04680C6070470000C1
:1001E0000023002400250026103A28BF78C1FBD840
:1001F000520728BF30C148BF0B607047632900F029
:10020000B080002070471FB500F0CCFE1FBD10B5B8
:1002100010BD00F0E1F81146FFF7F5FF00F004FE15
:1002200000F0FFF803B4FFF7F2FF03BC00F0A6FCF8
:100230000948804709480047FEE7FEE7FEE7FEE77A
:10024000FEE7FEE7FEE7FEE7FEE7FEE704480549B6
:10025000054A064B70470000250A0008890100087E
:1002600040020020400800204004002040040020FC
:10027000704700000FB4044910B503AA029800F0BB
:100280007DF810BC5DF814FB040000202DE9F0415E
:100290000E460446002020622046E168884730B3BD
:1002A000252805D0D4E901219047206A401CF2E7B7
:1002B000E168204600278847050018D0A5F14100D5
:1002C000192802D820354FF40067324629462046C7
:1002D0002760FFF793FF40B1012804D0F61D26F0F8
:1002E00007060836D8E7361DD6E72846DAE7206A3B
:1002F000BDE8F08170B50C460546012A05D0287886
:10030000800600D5EA69002302E0012305E05B1CBA
:10031000934202D2E05C0028F9D1A869E618C01A1D
:10032000A861286A184428622846AFF3008004E0D8
:10033000D5E9012114F8010B9047B442F8D32846BF
:10034000AFF3008070BD704770477047704710B5BD
:10035000436913B1AFF3008001E0FFF7CBFF012049
:1003600010BD127800F124010A7000224A700122A7
:10037000EDE711684FF0FF32E9E70000074B70B579
:100380000D467B4400F011F80446284600F020F8A2
:1003900010B14FF0FF3070BD204670BD870A0000DD
:1003A00001694A1C02610878704700B58FB0CDE939
:1003B00001310021059105497944CDE90310114629
:1003C0006846FFF763FF0FB000BD0000E5FFFFFFC9
:1003D000007B00F080007047754600F029F8AE46BB
:1003E00005006946534620F00700854618B020B541
:1003F000FFF72CFFBDE820404FF000064FF000074C
:100400004FF000084FF0000B21F00701AC46ACE8BC
:10041000C009ACE8C009ACE8C009ACE8C0098D4629
:1004200070470446AFF300802046FFF7FBFE000054
:1004300000487047E001002021B1826842F00102CB
:10044000826003E0826822F001028260704700004F
:100450000021084A1168084A1140D0E900231A43D4
:1004600083681A43C3681A431143044AC2F8041349
:100470007047000004230140E030FCFF00200140F1
:100480000146C86C80B270470246002013680B40DA
:100490000BB1012000E000207047000030B502469B
:1004A000002000235068104C20400D790C6844EA6D
:1004B00005242043506090680C4C2040D1E903543F
:1004C0002C438D682C434D7944EA450420439060C9
:1004D000D06A20F470000C7D641EE4B2234340EA2D
:1004E0000350D06230BD0000FFFEFFFCFDF7FFC0EF
:1004F000F0B504460D4600200021092D11DDE0680D
:10050000A5F10A0606EB4607072606FA07F1884317
:10051000A5F10A0606EB460603FA06F10843E06079
:100520000CE0206905EB4507072606FA07F188432A
:1005300005EB450603FA06F108432061072A0FDAA6
:10054000606B561E06EB86071F2606FA07F18843E6
:10055000561E06EB860605FA06F10843606322E0A4
:100560000D2A0FDA206BD61F06EB86071F2606FA28
:1005700007F18843D61F06EB860605FA06F1084305
:10058000206310E0E06AA2F10D0606EB86071F2645
:1005900006FA07F18843A2F10D0606EB860605FA76
:1005A00006F10843E062F0BD816841F0804181605E
:1005B000704700BFFEE77047002000E0401C0A289B
:1005C000FCDB7047F0B50A4600210023002400BF81
:1005D0003DE0012505FA01F3156805EA03049C4294
:1005E00034D105684F000326BE40B5430560157938
:1005F0004E00B5400668354305601579012D02D0DF
:100600001579022D16D185684F000326BE40B543EB
:10061000856055794E00B5408668354385604568EC
:1006200001268E40B5434560456896798E40B6B246
:1006300035434560C5684F000326BE40B543C560DD
:10064000D5794E00B540C6683543C560491C1029B0
:10065000BFD3F0BDF0B5002300244D07ED0E02FA24
:1006600005F3CE1000F1200555F826504E07F70E81
:100670000F26BE40B543CF1000F1200646F82750A4
:10068000CE1000F1200555F8265045EA0304CE109F
:1006900000F1200545F82640F0BD018370470000B9
:1006A00010B504460723012221460848FFF720FF22
:1006B0000648FFF779FF00BF02210448FFF7E4FE78
:1006C0000028F9D00148FFF7DBFE10BD00200140F3
:1006D00000BFFEE71CB50121102000F02BF84FF4FD
:1006E0008060009001208DF8040000208DF8060045
:1006F00003208DF8050001208DF8070069460448A5
:10070000FFF760FF4FF480610148FFF7C6FF1CBD93
:100710000010024000BFFEE770470000024901439D
:10072000024A1160704700000000FA050CED00E07D
:100730007047000029B1064A12680243044B1A6050
:1007400004E0034A12688243014B1A6070470000BC
:100750003038024029B1064A12680243044B1A603D
:1007600004E0034A12688243014B1A60704700009C
:100770001438024029B1064A12680243044B1A6039
:1007800004E0034A12688243014B1A60704700007C
:1007900044380240F0B50021002200240225002642
:1007A0000223324F3F6807F00C0121B1042905D024
:1007B000082937D105E02E4F076036E02D4F07603E
:1007C00033E02A4F3F1F3F68C7F38056274F3F1F34
:1007D0003F6807F03F036EB1264FB7FBF3F7DFF832
:1007E0008CC0ACF1040CDCF800C0CCF3881C07FB17
:1007F0000CF40CE01E4FB7FBF3F7DFF870C0ACF160
:10080000040CDCF800C0CCF3881C07FB0CF4174F79
:100810003F1F3F68C7F301477F1C7D00B4FBF5F71E
:10082000076002E0124F076000BF00BF0F4F3F6834
:1008300007F0F0010909104F7A5C0768D74047605C
:100840000A4F3F6807F4E051890A0B4F7A5C47680A
:10085000D7408760054F3F6807F46041490B064F5A
:100860007A5C4768D740C760F0BD00000838024096
:100870000024F40000127A000800002070B5002463
:10088000002501201B49086000201B49C1F88C028B
:10089000FFF792FE01201949086000201849C1F8AD
:1008A0008C02FFF789FE01201249086000201249DE
:1008B000C1F88C02FFF780FE00BF17E000200D4951
:1008C0000860FFF779FEFFF777FE0420FFF7E8FEE8
:1008D00000110C4921F81500681CC5B20120084917
:1008E000C1F88C02FFF768FE601CC4B2802CE5DB07
:1008F00070BD00008C824042000041428C024142A7
:100900000080404218000020704700000CB5002015
:10091000019000903448006840F48030324908600B
:1009200000BF3148006800F4003000900198401C7E
:100930000190009818B90198B0F5A04FF1D12A485C
:10094000006800F4003010B10120009001E00020A8
:1009500000900098012846D123484030006840F0BC
:1009600080502149403108602048006840F44040F0
:100970001E4908601C48083000681B49083108609F
:100980000846006840F4004008600846006840F4EB
:10099000A05008601648091F0860081F006840F052
:1009A0008070091F086000BF0F48006800F00070E9
:1009B0000028F9D040F205700E4908600A48083056
:1009C000006820F003000849083108600846006804
:1009D00040F00200086000BF03480830006800F0E3
:1009E0000C000828F8D10CBD00380240007000400F
:1009F00008544007003C0240042808D14FF0E02191
:100A0000096941F004014FF0E022116107E04FF065
:100A1000E021096921F004014FF0E02211617047E3
:100A20007047000010B51548006840F47000134985
:100A300008601348006840F0010011490860002078
:100A40000F49083108600E4800680E4908400C49FB
:100A500008600D48091D0860081F006820F4802008
:100A6000091F0860002006490C310860FFF74EFF9F
:100A70004FF0006001498039086010BD88ED00E04A
:100A800000380240FFFFF6FE1030002421B18289B9
:100A900042F40052828104E082894DF6FF731A40CD
:100AA000828170472DE9FF4705460E460024A14686
:100AB00000BFA046B08900B100BF2C8A24F4405486
:100AC000F08804432C82AC8941F20C608443B088E6
:100AD00031890843718908430443AC81AC8A24F40A
:100AE0004074B0890443AC826846FFF753FE204847
:100AF000854202D01F48854202D1DDF80C9001E00A
:100B0000DDF80890A88900F4004040B109EBC90065
:100B100000EB091031684900B0FBF1F707E009EB81
:100B2000C90000EB091031688900B0FBF1F76420BF
:100B3000B7FBF0F004012009642101FB1078A889BB
:100B400000F4004040B1322000EBC800B0FBF1F0EF
:100B500000F00700044308E0322000EB0810642195
:100B6000B0FBF1F000F00F0004432C81BDE8FF87DB
:100B7000001001400014014000BFFEE700BF7047B5
:100B800002461009014609B930207047012901D1F8
:100B90003120FAE7022901D13220F6E7032901D1F9
:100BA0003320F2E7042901D13420EEE7052901D1F1
:100BB0003520EAE7062901D13620E6E7072901D1E9
:100BC0003720E2E7082901D13820DEE7092901D1E1
:100BD0003920DAE70A2901D14120D6E70B2901D1D2
:100BE0004220D2E70C2901D14320CEE70D2901D1C3
:100BF0004420CAE70E2901D14520C6E70F2901D1BB
:100C00004620C2E700BFC0E7024602F00F000146DF
:100C100009B930207047012901D13120FAE70229B2
:100C200001D13220F6E7032901D13320F2E704296C
:100C300001D13420EEE7052901D13520EAE7062964
:100C400001D13620E6E7072901D13720E2E708295C
:100C500001D13820DEE7092901D13920DAE70A2954
:100C600001D14120D6E70B2901D14220D2E70C293E
:100C700001D14320CEE70D2901D14420CAE70E2936
:100C800001D14520C6E70F2901D14620C2E700BFA8
:100C9000C0E7000000B58DB001210720FFF74AFD35
:100CA00001210802FFF766FD10200B9003208DF84C
:100CB000300000208DF833000BA92048FFF782FC9C
:100CC00008200B9001208DF8300000208DF83200B4
:100CD0008DF8310001208DF833000BA91848FFF77B
:100CE00071FC0BA91748FFF76DFC01210802FFF703
:100CF00031FD00214FF48070FFF72CFD00200190A2
:100D0000049003904FF48030029001A8FFF7A0FBFD
:100D1000002005908DF818008DF8190007900990B3
:100D200001208DF8280005A90748FFF7B7FB01212E
:100D30000548FFF781FB0DB000BD00000000024038
:100D400000080240000402400020014010B50446A3
:100D50006FF00400FFF750FEE11704EB5171C1F38F
:100D6000C701074A11701046007800EB4001C1EB43
:100D7000C0104FF6FF7101EAC0000249088010BDA3
:100D8000000000200200002070B504464FF40770F8
:100D900094FBF0F0C6B24FF4077094FBF0F100FB47
:100DA000114085B205E04FF4077000F009F8701E9D
:100DB000C6B2002EF7D115B1284600F001F870BD7B
:100DC0000146114A12884A434FF0E0235A6100223B
:100DD0009A611A46126942F001021A6100BF4FF08F
:100DE000E022106900F001021AB100F48032002AFA
:100DF000F5D04FF0E022126922F001024FF0E0231B
:100E00001A6100229A6170470200002000BF054A63
:100E1000128802F04002002AF9D0C2B2014B9A8037
:100E2000704700000010014000F056F801E000F0AB
:100E300001F8FCE770B500F031F812A0FFF71AFADC
:100E400011A0FFF717FA022412E01049085DFFF71E
:100E500097FE054629460EA0FFF70CFA0B49085DE0
:100E6000FFF7D2FE0546294609A0FFF703FA641CE6
:100E7000862CEADB07A0FFF7FDF907A0FFF7FAF9D8
:100E800070BD00002A0000004C4400001801002042
:100E900025630000303000002300000010B5FFF78C
:100EA000EDFC00200A4908708420487000208870FA
:100EB000C87008714871002406E0064810F8141044
:100EC000A01D034A1154641C802CF6DB10BD0000E9
:100ED000180100201800002010B5A820FFF736FFE9
:100EE0004FF4A060FFF71AFCFFF7F4FB4FF4FA7021
:100EF000FFF74AFF4FF4E13000F004F8FFF7CAFEB5
:100F000010BD000010B586B0044601210846FFF769
:100F100011FC01211020FFF72DFC072209211E489A
:100F2000FFF798FB07220A211B48FFF793FB4FF4BA
:100F3000C060049002208DF814008DF81500002088
:100F40008DF8160001208DF8170004A91248FFF74C
:100F500039FB1248006840F4804010490860084698
:100F6000006820F48040086000940020ADF8040080
:100F7000ADF80600ADF80800ADF80C000C20ADF897
:100F80000A0069460648FFF78DFD01210448FFF776
:100F90007DFD06B010BD0000000002402438024074
:100FA000001001404FF04070E1EE100A7047000061
:100FB000D00F00080000002018000000C401000845
:100FC000E80F00081800002028080000E0010008D1
:100FD0000000000000000000000000000102030407
:080FE0000102030406070809E1
:040000050800018965
:00000001FF
