:020000040800F2
:10000000580E0020A1040008A5020008A70200085D
:10001000AB020008AF020008B302000800000000B5
:10002000000000000000000000000000B70200080F
:10003000B902000800000000BB020008BD02000871
:10004000BB040008BB040008BB040008BB04000894
:10005000BB040008BB040008BB040008BB04000884
:10006000BB040008BB040008BB040008BB04000874
:10007000BB040008BB040008BB040008BB04000864
:10008000BB040008BB040008BB040008BB04000854
:1000900081440008BB040008BB040008BB0400083E
:1000A000BB040008BB040008BB040008BB04000834
:1000B000B13500081D4E000899350008BB04000842
:1000C000BB040008BB040008BB040008BB04000814
:1000D000BB040008BB0400089B3B0008BB040008ED
:1000E000BB040008BB040008BB040008BB040008F4
:1000F000BB040008BB040008BB040008BB040008E4
:10010000BB040008BB040008BB040008BB040008D3
:10011000BB040008BB040008BB040008BB040008C3
:10012000BB040008BB040008BB040008BB040008B3
:1001300000F002F800F05FF80AA090E8000C82449A
:100140008344AAF10107DA4501D100F054F8AFF277
:10015000090EBAE80F0013F0010F18BFFB1A43F0A5
:100160000103184734CF000054CF00000A444FF079
:10017000000C10F8013B13F0070408BF10F8014B06
:100180001D1108BF10F8015B641E05D010F8016B4B
:10019000641E01F8016BF9D113F0080F1EBF10F8AF
:1001A000014BAD1C0C1B09D16D1E58BF01F801CBD2
:1001B000FAD505E014F8016B01F8016B6D1EF9D555
:1001C0009142D6D37047000000230024002500266A
:1001D000103A28BF78C1FBD8520728BF30C148BFAA
:1001E0000B607047642908F07F86002070471FB5B8
:1001F0001FBD10B510BD09F045F81146FFF7F7FF18
:1002000000F00EF809F063F803B4FFF7F2FF03BC47
:1002100002F0C0F930BF72B662B680F3088870474A
:1002200008B502F04DF94FF4FA3002F0DCF9022083
:1002300002F010FB012002F00DFB02F079FB02F04E
:10024000A9FB022002F01CFA002141F61F4003F036
:100250008EF84FF4165003F053FC03F0E1F803F06E
:100260002CF902F0BDFE4FF4FA7002F066F903F0CB
:10027000B3F908F010F808F022F802F03EFF02F09F
:10028000B6FD41F61F41312003F01CF80020062383
:10029000032202210090012003F09CFE01E008F0FF
:1002A00088FAFCE7704700BFFEE700BFFEE700BF2B
:1002B000FEE700BFFEE770477047704770470000D9
:1002C0000CB50020019000906C48006840F480302C
:1002D0006A49086000BF6948006800F40030009077
:1002E0000198401C0190009818B90198B0F5A06FD2
:1002F000F1D16248006800F4003010B10120009094
:1003000001E0002000900098012843D15C4800687B
:1003100040F010005A4908600846006820F00300C9
:1003200008600846006840F00200086053484068D2
:10033000524948600846406848600846406840F4B2
:10034000806048600846406820F47C104860084699
:10035000406840F4E81048600846006840F080704B
:10036000086000BF4548006800F000700028F9D020
:100370004248406820F00300404948600846406811
:1003800040F00200486000BF3C48406800F00C00AC
:100390000828F9D10CBD10B5FFF792FF10BD10B5BC
:1003A0003648006840F0010034490860084640685B
:1003B00034490840314948600846006832490840DD
:1003C0002E4908600846006820F48020086008462E
:1003D000406820F4FE0048604FF41F008860FFF77B
:1003E000DAFF4FF000602949086010BD10B5002108
:1003F00000200022214B5B6803F00C0121B104298D
:1004000006D0082928D107E0214B224C236027E0A1
:100410001F4B204C236023E0184B5B6803F47010E3
:10042000164B5B6803F48032022303EB904022B941
:10043000194B4343174C23600DE0104B5B6803F4EA
:10044000003323B1144B4343124C236003E0104BA1
:100450004343104C236003E00D4B0E4C236000BF60
:1004600000BF064B5B68C3F303130C4CE15C094B04
:100470001B68CB40074C236010BD000000100240F9
:10048000002002400000FFF8FFFFF6FE08ED00E04C
:1004900000127A006400002000093D00680000207E
:1004A0000948804709480047FEE7FEE7FEE7FEE708
:1004B000FEE7FEE7FEE7FEE7FEE7FEE70448054944
:1004C000054A064B704700009F03000831010008F1
:1004D00058080020580E0020580A0020580A002012
:1004E00031490143314A1160704770B50021002342
:1004F0000F22C47804B32D4C246804F4E064C4F5DE
:10050000E064210AC1F10403CA40447804FA03F10B
:100510008478144021430901254C0678A1550478BC
:1005200004F01F050124AC4005786D11AD0005F104
:10053000E025C5F8004109E0047804F01F05012416
:10054000AC401C4D0678761145F8264070BD1A4A1D
:100550000A400243154B1B1F1A60704739B1134AFA
:10056000121D12680243114B1B1D1A6006E00F4A50
:10057000121D126882430D4B1B1D1A607047042820
:1005800008D14FF0E021096941F004014FF0E02269
:10059000116107E04FF0E021096921F004014FF0FB
:1005A000E0221161704700000000FA050CED00E048
:1005B00000E400E080E100E080FFFF1F10B504468A
:1005C000FA48844208D10121401500F01DFE0021A7
:1005D000601500F019FE17E0F548844208D10121AA
:1005E000001500F011FE0021201500F00DFE0BE0BB
:1005F000F048844208D10121C80300F005FE002123
:100600004FF4004000F000FE10BD30B5024600205F
:1006100000235068E84C20400D790C6844EA05241A
:10062000204350609068E54C2040D1E902542C43AF
:100630004D7944EA450420439060D06A20F470006C
:100640000C7C641EE4B2234340EA0350D06230BD08
:1006500000210160017141718160C160012101745B
:10066000704721B1826842F00102826003E0826833
:1006700022F001028260704721B1826842F48072E8
:10068000826003E0826822F480728260704710B555
:100690000023CBB21AB144681C43446002E04468B2
:1006A0009C43446010BD816841F00801816070473F
:1006B000014600208A6802F008020AB1012000E029
:1006C00000207047816841F0040181607047014655
:1006D00000208A6802F004020AB1012000E0002034
:1006E000704721B1826842F4A002826003E0826810
:1006F00022F4A00282607047014600208A6802F45A
:1007000080020AB1012000E00020704710B50A46BF
:1007100000210023416821F46041531E41EA433126
:10072000416010BD21B1426842F40062426003E0C2
:10073000426822F4006242607047F0B504460D46FC
:1007400000200021092D11DDE068A5F10A0606EB65
:100750004607072606FA07F18843A5F10A0606EBC5
:10076000460603FA06F10843E0600CE0206905EB59
:100770004507072606FA07F1884305EB450603FA05
:1007800006F108432061072A0FDA606B561E06EB5C
:1007900086071F2606FA07F18843561E06EB8606D3
:1007A00005FA06F10843606322E00D2A0FDA206B98
:1007B000D61F06EB86071F2606FA07F18843D61FC9
:1007C00006EB860605FA06F10843206310E0E06AAE
:1007D000A2F10D0606EB86071F2606FA07F18843ED
:1007E000A2F10D0606EB860605FA06F10843E06263
:1007F000F0BD21B1826842F48012826003E0826819
:1008000022F48012826070470146C86C80B2704743
:1008100066484C300068704721B1426842F48062FB
:10082000426003E0426822F480624260704721B176
:10083000426842F48052426003E0426822F48052EF
:10084000426070470A460021816821F4E04111436B
:100850008160704721B1826842F40042826003E007
:10086000826822F400428260704721B1826842F4BB
:100870000212826003E0826822F4021282607047F2
:10088000014600208A6802F400120AB1012000E04B
:1008900000207047F0B504461546002000220026CF
:1008A000092911DDE068A1F10A0707EB470C0727CA
:1008B00007FA0CF29043A1F10A0707EB470703FA86
:1008C00007F21043E0600CE0206901EB410C0727C0
:1008D00007FA0CF2904301EB410703FA07F21043C9
:1008E0002061A06BC0F30156EF1C06F1010CA7EBD1
:1008F0000C0707EB870C1F2707FA0CF29043EF1C3D
:1009000006F1010CA7EB0C0707EB870701FA07F2CA
:100910001043A063F0BD10B50A4600210023816B8F
:1009200021F44011531E41EA0351816310BD08B503
:10093000002300930090009B0B440093009B1A60DF
:1009400008BD08B5024600200090009201F1280081
:10095000009B184400900098006880B208BD0A46C9
:1009600000214168164B19401143416070474162B4
:10097000826270470A460021416821F01F0111433D
:100980004160704740B109490831096841F40001EC
:10099000064A0832116007E004490831096821F469
:1009A0000001024A08321160704700000024014033
:1009B00000280140003C0140FFFEF0FFFDF7F1FF81
:1009C000FFFD3FFF0246002013680B400BB10120E2
:1009D00000E000207047CA430260704770B50246CD
:1009E0000020002300240B125568CEB205EA06044D
:1009F00015681D4015B10CB1012000E0002070BD4C
:100A000000220A12D34303607047000010B5012092
:100A100000F014FC002000F011FC10BD2A49086011
:100A200070472949091F08607047274984310860C9
:100A3000704701460020254A10884FF67F4210403B
:100A40000843224A10807047014600201F4A108840
:100A50004FF68072104008431C4A1080704708B55A
:100A600000220092194A2C3A0092009A0244009205
:100A7000009A116008BD08B5014600200090134897
:100A80002C3800900098084400900098008808BD19
:100A90000D489C300068C0B270470C480830008890
:100AA00040F0010009490831088070470648A0302D
:100AB0000068C0B2704705480830008840F0020066
:100AC000024908310880704704860D422C6C0040B2
:100AD00010B50446CC48844208D10121042000F01E
:100AE00093FB0021042000F08FFB46E0C7488442BE
:100AF00008D10121082000F087FB0021082000F028
:100B000083FB3AE0C248844208D10121102000F062
:100B10007BFB0021102000F077FB2EE0BD488442D3
:100B200008D10121202000F06FFB0021202000F0DF
:100B30006BFB22E0B848844208D10121402000F03C
:100B400063FB0021402000F05FFB16E0B3488442C5
:100B500008D10121802000F057FB0021802000F007
:100B600053FB0AE0AE48844207D10121801500F012
:100B70004BFB0021A01500F047FB10BD10B5012173
:100B8000084600F041FB0021012000F03DFB10BDB4
:100B90002DE9F04102460025002600200023002414
:100BA000002791F803C00CF00F0591F803C00CF07A
:100BB000100CBCF1000F03D091F802C04CEA0505FF
:100BC00091F800C0BCF1000F31D0146800202BE078
:100BD0004FF0010C0CFA00F3B1F800C00CEA030668
:100BE0009E4220D183004FF00F0C0CFA03F7BC4358
:100BF00005FA03FC4CEA040491F803C0BCF1280F89
:100C000006D14FF0010C0CFA00FCC2F814C00AE047
:100C100091F803C0BCF1480F05D14FF0010C0CFA5C
:100C200000FCC2F810C0401C0828D1D31460B1F8F1
:100C300000C0BCF1FF0F34DD546800202EE000F14D
:100C4000080C4FF0010808FA0CF3B1F800C00CEAE8
:100C500003069E4221D183004FF00F0C0CFA03F7DC
:100C6000BC4305FA03FC4CEA040491F803C0BCF150
:100C7000280F05D100F1080C08FA0CF8C2F814800E
:100C800091F803C0BCF1480F07D100F1080C4FF0F8
:100C9000010808FA0CF8C2F81080401C0828CED3CE
:100CA0005460BDE8F0814FF6FF7101800221817030
:100CB0000421C17070470246002093680B400BB1BD
:100CC000012000E0002070470146886880B270472C
:100CD00002460020D3680B400BB1012000E0002049
:100CE00070470146C86880B2704701617047416132
:100CF00070470AB1016100E041617047C16070470F
:100D00004FF480320A438261816182618269826923
:100D1000704702460020434B18684FF68073184016
:100D200040EA021008433F4B186070473E49C861D3
:100D30007047F0B50A46002300240021002500F08A
:100D40000046B6F1004F02D1364EF16901E0354E52
:100D50007168C0F3034583B200F44016B6F5401F36
:100D600008D121F070612F4E766826F070662D4F05
:100D70007E6012E000F48016B6F5801F06D10326CF
:100D800006FA05F4A14341F0706106E0460D360114
:100D900003FA06F6B14341F0706122B1460D360107
:100DA00003FA06F6314300F00046B6F1004F02D1D7
:100DB0001C4EF16101E01B4E7160F0BD30B50022A8
:100DC0008B071C0F0F2303FA04F2164B08338C1009
:100DD00053F824309343134C08348D1044F82530D5
:100DE00023468C1053F824308C07240F00FA04F4A7
:100DF00023430C4C08348D1044F8253030BD0A498B
:100E0000DC3108607047000000080140000C014020
:100E1000001001400014014000180140001C014076
:100E200000200140000001400000204210B50121D7
:100E3000080700F0F6F900214FF0805000F0F1F9BA
:100E400010BD2A4908627047284908617047014669
:100E50000020274A106820F0E00008431060704727
:100E60002249A0310860704710B502460020204B8F
:100E7000186820F00300104318601E4B1B6843F0F5
:100E800004031C4C2360012901D130BF00E020BFC6
:100E9000184B1B6823F00403164C236010BD144844
:100EA000006840F00400124908600846006840F0FD
:100EB000020008600F48006840F004000D49086017
:100EC00000BF00BF30BF704701460020084A52688B
:100ED0000A400AB1012000E0002070470449096877
:100EE00041EA8001024A11607047000000000E4292
:100EF0000070004010ED00E0DF48006840F00100A5
:100F0000DD49086008464068DC490840DA49486025
:100F100008460068DA490840D74908600846006872
:100F200020F4802008600846406820F4FE004860F5
:100F30004FF41F0088607047CF49096821F4803161
:100F4000CD4A11601146096821F480211160B0F585
:100F5000803F03D0B0F5802F0ED106E0C649096866
:100F600041F48031C44A116007E0C349096841F483
:100F7000A021C14A116000E000BF00BF704710B55A
:100F800001460022002300204A11012A02D1BA4C56
:100F9000236806E0022A02D1B74C236A01E0B64C6E
:100FA000636A01F01F02012494401C400CB101202F
:100FB00000E0002010BD38B500200090002400257E
:100FC00000BF3120FFF7DBFF05460098401C009072
:100FD0000098B0F5A06F01D0002DF2D03120FFF7BE
:100FE000CEFF08B1012400E00024204638BD0146B0
:100FF0000020A14A106820F0F80040EAC10010600B
:101000007047A04908607047024600209A4B586814
:1010100020F47C1042EA01031843974B5860704754
:1010200098490866704701460020934A506820F0AE
:1010300003000843506070478F48406800F00C0080
:101040007047014600208C4A506820F0F0000843A9
:101050005060704701460020874A506820F4E060E5
:1010600008435060704701460020834A506820F4CE
:10107000605040EAC1005060704729B17E4A527A00
:1010800002437D4B5A7204E07B4A527A82437A4B88
:101090005A7270477B49D83108607047014600207A
:1010A000754A506820F44040084350607047002162
:1010B000714A20321170704A82F82010012802D043
:1010C00004280AD104E001216B4A2032117005E0A6
:1010D0000521694A2032117000E000BF00BF70474F
:1010E0006949086070476449096A0143624A1162AC
:1010F0007047654944390860704730B500210022C7
:10110000002400235C4D6D6805F00C0121B1042919
:1011100005D0082923D105E05C4D056022E05B4D38
:1011200005601FE0544D6D6805F47012524D6D68F6
:1011300005F48034022505EB92421CB9544D554309
:1011400005600BE04C4D6D6805F400351DB1504D48
:101150005543056002E04D4D5543056002E04B4D9F
:10116000056000BF00BF444D6D6805F0F00109093E
:10117000484D6B5C0568DD4045603F4D6D6805F48A
:10118000E061090A434D6B5C4568DD4085603A4D7E
:101190006D6805F46051C90A3E4D6B5C4568DD40E1
:1011A000C560354D6D6805F44041890B3A4D6B5C67
:1011B000C568B5FBF3F5056130BD29B12E4A52690A
:1011C00002432D4B5A6104E02B4A526982432A4B59
:1011D0005A61704729B1284A92690243264B9A61A5
:1011E00004E0254A92698243234B9A61704729B1F2
:1011F000214AD2690243204BDA6104E01E4AD269D7
:1012000082431D4BDA61704729B11B4AD268024301
:10121000194BDA6004E0184AD2688243164BDA6050
:10122000704729B1144A12690243134B1A6104E052
:10123000114A12698243104B1A61704712494039B2
:10124000086070470F49C86470470B49C871704700
:101250000948406A40F0807007494862704701467B
:101260000020054A92680A400AB1012000E00020EF
:101270007047014988727047001002400000FFF873
:10128000FFFFF6FE000042428004424200127A0054
:1012900000093D00780000208800002010B50446B9
:1012A000FE48844208D10121C014FFF7ADFF0021A0
:1012B000E014FFF7A9FFC4E0B4F1804F08D1012189
:1012C0000846FFF7AEFF00210120FFF7AAFFB8E0B4
:1012D000F348844208D101210220FFF7A2FF002138
:1012E0000220FFF79EFFACE0EE48844208D10121C6
:1012F0000420FFF796FF00210420FFF792FFA0E0F3
:10130000E948844208D101210820FFF78AFF002123
:101310000820FFF786FF94E0E448844208D10121C9
:101320001020FFF77EFF00211020FFF77AFF88E0F2
:10133000DF48844208D101212020FFF772FF0021FD
:101340002020FFF76EFF7CE0DA48844208D10121BB
:101350004014FFF759FF00216014FFF755FF70E0BC
:10136000D548844209D10121C804FFF74DFF00216F
:101370004FF40020FFF748FF63E0D048844209D1D2
:1013800001210805FFF740FF00214FF48010FFF70F
:101390003BFF56E0CA48844209D101214805FFF7C6
:1013A00033FF00214FF40010FFF72EFF49E0C5483E
:1013B000844208D101214020FFF733FF0021402063
:1013C000FFF72FFF3DE0C048844208D10121802073
:1013D000FFF727FF00218020FFF723FF31E0BB4804
:1013E000844208D101218015FFF71BFF0021A015C1
:1013F000FFF717FF25E0B648844209D10121080410
:10140000FFF702FF00214FF48030FFF7FDFE18E0E8
:10141000B048844209D101214804FFF7F5FE0021BC
:101420004FF40030FFF7F0FE0BE0AB48844208D1E8
:1014300001218804FFF7E8FE00214FF48020FFF728
:10144000E3FE10BD00220288944B98420ED0994BC7
:1014500098420BD0B0F1804F08D0914B984205D004
:10146000904B984202D0904B984204D14FF68F7324
:101470001A404B881A438D4B984207D08C4B9842A8
:1014800004D04FF6FF431A40CB881A4302808B8862
:1014900083850B880385814B98420BD0854B9842FE
:1014A00008D08B4B984205D08A4B984202D08A4B89
:1014B000984201D10B7A038601238382704770B56D
:1014C000002400220023058C4FF6FE76354005846B
:1014D000028C8388048B4FF68F752C40B51E2C40F0
:1014E0000D882C43751E2A400D892A434D882A43B6
:1014F0006A4DA8420BD06F4DA84208D0744DA84247
:1015000005D0744DA84202D0734DA84213D14FF6B6
:10151000F7752A404D892A434FF6FB752A408D887E
:101520002A434FF6FF652B404FF6FF552B408D8920
:101530002B43CD892B4383800483CD888586028409
:1015400070BD70B5002400220023058C4FF6EF76A5
:1015500035400584028C8388048B48F6FF752C4047
:101560004FF6FF452C400D884FF6FF7606EA05251D
:101570002C434FF6DF752A400D8906EA05152A43EC
:101580004D8806EA05152A43444DA84202D0494D2C
:10159000A8421DD14FF67F752A404D894FF6FF7640
:1015A00006EA05152A434FF6BF752A408D8806EADC
:1015B00005152A434FF6FF352B404FF2FF752B40A0
:1015C0008D8906EA85052B43CD8906EA85052B43DF
:1015D00083800483CD880587028470BD70B50024A4
:1015E00000220023058C4FF6FF6635400584028CEF
:1015F0008388848B4FF68F752C404FF6FC752C40FA
:101600000D882C434FF6FF552A400D894FF6FF7683
:1016100006EA05252A434D8806EA05252A431F4D7B
:10162000A84202D0234DA8421DD14FF2FF752A4097
:101630004D894FF6FF7606EA05252A434FF6FF351A
:101640002A408D8806EA05252A434EF6FF752B4071
:101650004DF6FF752B408D8906EA05152B43CD8984
:1016600006EA05152B4383808483CD888587028411
:1016700070BD70B5002200230024058C4EF6FF7665
:1016800035400584038C8488828B48F6FF752A4098
:101690004FF6FF452A400D8820E00000002C014055
:1016A0000004004000080040000C00400010004012
:1016B0000014004000340140004C01400050014043
:1016C0000054014000180040001C00400020004071
:1016D0000040014000440140004801404FF6FF76C1
:1016E00006EA05252A434DF6FF752B400D8906EACB
:1016F00005352B434D8806EA05352B43FA4DA842A4
:1017000002D0FA4DA84208D14BF6FF752C408D89C6
:101710004FF6FF7606EA85152C4384808283CD88B8
:10172000A0F84050038470BD828B4FF2FF331A4003
:101730008283828B4FF6FF7303EA01231A4382836D
:101740007047F0B50C461546002200210026078C94
:101750004EF6FF7C07EA0C070784828B018C4FF65C
:10176000FF7707EA043640F6FF473A404FF6FF7727
:1017700007EA05273A434FF6FF7707EA03373A436C
:10178000D94FB8420ED0D94FB8420BD0B0F1804FEC
:1017900008D0D74FB84205D0D64FB84202D0D64F66
:1017A000B84206D14DF6FF77394046F480573943A9
:1017B00005E047F6FF57394044F4805739438283A8
:1017C0000184F0BD828B4FF6F3731A408283828BC3
:1017D0000A4382837047F0B50C461546002200216B
:1017E0000026078C4FF6FF6C07EA0C070784828BF4
:1017F000018C4FF6FF7707EA04264FF60C773A4044
:101800004FF6FF7707EA03172F433A43B64FB84224
:101810000ED0B64FB8420BD0B0F1804F08D0B44FC5
:10182000B84205D0B34FB84202D0B34FB84206D148
:101830004FF6FF57394046F48077394305E04FF2C1
:10184000FF57394044F48077394382830184F0BDE7
:10185000028B4FF2FF331A400283028B4FF6FF7365
:1018600003EA01231A4302837047F0B50C4615467C
:10187000002200210026078C4FF6EF7C07EA0C07B8
:101880000784028B018C4FF6FF7707EA041640F6B7
:10189000FF473A404FF6FF7707EA03373A434FF6E0
:1018A000FF7707EA05273A438F4FB8420ED08F4F94
:1018B000B8420BD0B0F1804F08D08D4FB84205D060
:1018C0008C4FB84202D08C4FB84206D14FF6DF772A
:1018D000394046F01007394305E04FF65F7739404D
:1018E00044F01007394302830184F0BD028B4FF6A8
:1018F000F3731A400283028B0A4302837047F0B5E8
:101900000C46154600220021068C4FF6FE773E401D
:101910000684028B018C4FF60C7632407E1C06EA60
:1019200003162E433243704EB0420ED06F4EB0427B
:101930000BD0B0F1804F08D06D4EB04205D06D4E47
:10194000B04202D06C4EB04206D14FF6FD76314027
:1019500044F00106314305E04FF6F576314044F09E
:101960000106314302830184F0BD70B505460C4683
:101970005D4885420ED05D4885420BD0B5F1804F61
:1019800008D05B48854205D05A48854202D05A4863
:10199000854200D100E000BF208850B92389A28889
:1019A00061882846FFF7ABFFE1882846FFF79EFFD6
:1019B00025E0208804280AD12389A2886188284646
:1019C000FFF753FFE1882846FFF742FF17E0208822
:1019D00008280AD12389A28861882846FFF7FBFEE0
:1019E000E1882846FFF7EEFE09E02389A288618896
:1019F0002846FFF7A6FEE1882846FFF795FE70BD52
:101A00002DE9F04105460C4600260127608808B9FB
:101A1000022600E00026A088012801D1022700E06C
:101A200001272088A0B92389A28861882846FFF76A
:101A300066FFE1882846FFF759FF23893A46314679
:101A40002846FFF712FFE1882846FFF701FF13E061
:101A50002389A28861882846FFF707FFE188284686
:101A6000FFF7F6FE23893A4631462846FFF747FF3F
:101A7000E1882846FFF73AFFBDE8F0810A884B88E5
:101A80001A438B881A43CB881A430B891A434B8914
:101A90001A438B891A43A0F8442070474FF6FF7110
:101AA000818000210180C180418001727047002146
:101AB000018041808180C180018141818181C1811A
:101AC0007047002101804180012181800021C18077
:101AD000018170470021018041808180C1800181A6
:101AE0004181818170470000002C01400034014099
:101AF0000004004000080040000C004021B10288B2
:101B000042F00102028004E002884FF6FE731A40A0
:101B10000280704731B1B0F8442042F40042A0F88E
:101B2000442005E0B0F84420C2F30E02A0F844209F
:101B300070471AB183890B43838102E083898B4309
:101B4000838170478182704741EA0203A0F84830E0
:101B500070471AB183890B43838102E083898B43E9
:101B60008381704701894FF6F872114001817047F7
:101B70000A46002101894FF68F73194011430181F4
:101B8000704730B504460D4629462046FFF7F0FF62
:101B9000208940F00700208130BD2DE9F041044646
:101BA0000D4616461F46602D06D13B4601223146A2
:101BB0002046FFF75AFE05E03B460122314620460B
:101BC000FFF79DFE29462046FFF7D2FF208940F00F
:101BD00007002081BDE8F08130B50C460021018965
:101BE000C9B24FF6FF7505EA03251543254329437E
:101BF000018130BD2DE9F04105460E461746984655
:101C0000002443463A4631462846FFF7E5FF2C8933
:101C10004FF6F870044044F007044FF68F7004400C
:101C200044F070042C81BDE8F081F0B504460D4607
:101C300016461F463B46324629462046FFF7CCFF54
:101C4000208940F480402081F0BD01858282704768
:101C50000A46002101884FF68F7319401143018015
:101C60007047F0B50C4615461E46002100220023A1
:101C70000189028B038C4FF6F877394021434FF6E8
:101C8000FC473A4040F201173A434FF6DD773B40BC
:101C90004FF6FF7707EA06172F433B430181028384
:101CA0000384F0BD0A460021018B4FF68F73194063
:101CB0001143018370470A460021018B48F6FF73E8
:101CC00019404FF6FF7303EA02231943018370475B
:101CD0000A460021818B4FF68F731940114381838F
:101CE00070470A460021818B48F6FF7319404FF672
:101CF000FF7303EA022319438183704721B10288ED
:101D000042F08002028004E002884FF67F731A409E
:101D10000280704721B1828842F00402828004E090
:101D200082884FF6FB731A408280704721B1828807
:101D300042F00802828004E082884FF6F7731A406E
:101D40008280704721B1828842F00102828004E0E3
:101D500082884FF6FE731A40828070470A4600213F
:101D6000018B4FF6F77319401143018370470A4600
:101D70000021018B4FF2FF7319404FF6FF7303EA06
:101D800002231943018370470A460021818B4FF6D5
:101D9000F77319401143818370470A460021818BF4
:101DA0004FF2FF7319404FF6FF7303EA0223194302
:101DB000818370470A460021018B4FF6FB7319405F
:101DC0001143018370470A460021018B4FF6FF3310
:101DD00019404FF6FF7303EA02231943018370474A
:101DE0000A460021818B4FF6FB7319401143818312
:101DF00070470A460021818B4FF6FF3319404FF69A
:101E0000FF7303EA02231943818370470A460021C6
:101E1000018B4FF67F7319401143018370470A46C7
:101E20000021018BC1F30E014FF6FF7303EA022379
:101E30001943018370470A460021818B4FF67F7357
:101E400019401143818370470A460021818BC1F3F9
:101E50000E014FF6FF7303EA022319438183704793
:101E60000A460021018C4FF6FD731940114301848D
:101E700070470A460021018C4FF6F7731940114351
:101E8000018470470A460021018C4FF6DF73194028
:101E90004FF6FF7303EA02131943018470470A46A1
:101EA0000021018C4FF67F7319404FF6FF7303EA50
:101EB00002131943018470470A460021018C4FF632
:101EC000FF5319404FF6FF7303EA022319430184BD
:101ED00070470A460021018C4FF2FF7319404FF6FC
:101EE000FF7303EA02231943018470470A46002165
:101EF000018C4DF6FF7319404FF6FF7303EA02336E
:101F000019430184704730B5002301248C40A3B2EB
:101F1000048C9C430484048C02FA01F5ADB22C437A
:101F2000048430BD30B5002304248C40A3B2048C5B
:101F30009C430484048C02FA01F5ADB22C43048462
:101F400030BD70B503460020002418461830012526
:101F50008D40ACB21D8CA5431D8409B1082909D15F
:101F600000EB6100056825F0700505600568154304
:101F700005600EE00D1FC5F34E052844056825F4E5
:101F8000E045056005684FF6FF7606EA0226354310
:101F9000056070BD21B1028842F00202028004E0B7
:101FA00002884FF6FD731A400280704721B1028803
:101FB00042F00402028004E002884FF6FB731A40EC
:101FC0000280704721B1828842F08002828004E062
:101FD00082884FF67F731A408280704702884FF6DE
:101FE000F7731A40028002880A4302807047828891
:101FF0004FF68F731A40828082880A43828070472E
:1020000002894FF6F8731A40028102890A4302815D
:10201000704702894FF67F731A40028102890A4392
:10202000028170478184704781857047818670473F
:102030000187704781877047A0F840107047028879
:102040004FF6FF431A40028002880A43028070471D
:102050000146888E70470146088F70470146888F79
:1020600070470146B1F8400070470146888C7047C0
:102070000146088D704702460020138A0B400BB1C1
:10208000012000E000207047CA430282704730B54B
:102090000246002000230024158A05EA01039589E1
:1020A00005EA010413B10CB1012000E0002030BDAD
:1020B000CA4302827047000010B50446FB488442C0
:1020C00009D101218803FFF79FF800214FF48040D8
:1020D000FFF79AF832E0F648844209D1012148041A
:1020E000FFF79FF800214FF40030FFF79AF825E042
:1020F000F048844209D101218804FFF792F80021B9
:102100004FF48020FFF78DF818E0EB48844209D1A6
:102110000121C804FFF785F800214FF40020FFF7E4
:1021200080F80BE0E548844208D101210805FFF75B
:1021300078F800214FF48010FFF773F810BD2DE9F7
:10214000F04786B005460E460024A24600BFA146D1
:102150000027B08900B100BF2F462C8A4CF6FF70D3
:102160000440F08804432C82AC894EF6F3100440FE
:10217000B08831890843718908430443AC81AC8A33
:102180004FF6FF400440B0890443AC8201A8FEF73B
:10219000B4FFC648874202D1DDF810A001E0DDF8A7
:1021A0000CA0A88900F4004040B10AEBCA0000EB83
:1021B0000A1031684900B0FBF1F807E00AEBCA00E9
:1021C00000EB0A1031688900B0FBF1F86420B8FB1D
:1021D000F0F004012009642101FB1089A88900F4B2
:1021E000004040B1322000EBC900B0FBF1F000F03C
:1021F0000700044308E0322000EB09106421B0FB23
:10220000F1F000F00F0004432C8106B0BDE8F08728
:102210004FF41651016000218180C18001810C21A1
:10222000418100218181704710B502460020108A4B
:102230004FF2FF0318400B884C8823438C882343BC
:10224000CC8823431843108210BD002101804180B7
:102250008180C180704721B1828942F4005282811D
:1022600004E082894DF6FF731A4082817047F0B511
:102270000346002400260025002040F66A17B942D4
:1022800000D100BF1846C1F3421401F01F06012718
:1022900007FA06F5012C01D10C3004E0022C01D123
:1022A000103000E014301AB107682F43076002E0D5
:1022B0000768AF430760F0BD1AB1838A0B4383827E
:1022C00002E0838A8B4383827047028A4FF6F07361
:1022D0001A400282028A0A430282704782894FF2C0
:1022E000FF731A40828182890A438281704721B13B
:1022F000828942F00202828104E082894FF6FD73F6
:102300001A4082817047028A4FF6DF731A400282B8
:10231000028A0A430282704721B1028A42F4804253
:10232000028204E0028A4BF6FF731A400282704771
:10233000C1F308028280704701468888C0F3080014
:102340007047818941F0010181817047028BD2B2CF
:102350000283028B42EA012202837047028B02F45D
:102360007F420283028B0A430283704721B1828A33
:1023700042F02002828204E0828A4FF6DF731A4024
:102380008282704721B1828A42F01002828204E088
:10239000828A4FF6EF731A408282704721B1828A97
:1023A00042F00802828204E0828A4FF6F7731A40F4
:1023B0008282704721B1828942F40042828103E027
:1023C0008289C2F30E028281704721B1828A42F46F
:1023D0000062828204E0828A4FF2FF731A40828296
:1023E0007047828A4FF6FB731A408282828A0A43C0
:1023F0008282704721B1828A42F00202828204E026
:10240000828A4FF6FD731A4082827047024600208E
:10241000B1F5007F00D100BF13880B400BB1012044
:1024200000E00020704701F40072B2F5007F00D197
:1024300000BFCA430280704770B5024600240023E3
:102440000025002040F66A16B14200D100BFC1F35A
:10245000421501F01F03012606FA03F3012D02D1F4
:102460009689334006E0022D02D1168A334001E0FE
:10247000968A33400C12012606FA04F4168834407A
:1024800013B10CB1012000E0002070BD10B5002296
:10249000002340F66A14A14200D100BF0A120124B1
:1024A0009440A3B2DC43048010BD0000003801401A
:1024B0000044004000480040004C004000500040F4
:1024C00010B56FF00400FEF75AF82E4800682E4948
:1024D000B0FBF1F02D4908700846007800EB400190
:1024E000C1EBC0104FF6FF7101EAC0002849088017
:1024F00010BD0146254A12784A434FF0E0235A6145
:1025000000229A611A46126942F001021A6100BF64
:102510004FF0E022106900F001021AB100F480329D
:10252000002AF5D04FF0E022126922F001024FF0AC
:10253000E0231A6100229A6170470146144A12880A
:102540004A434FF0E0235A6100229A611A46126909
:1025500042F001021A6100BF4FF0E022106900F062
:1025600001021AB100F48032002AF5D04FF0E022C7
:10257000126922F001024FF0E0231A6100229A61F1
:10258000704700006400002000127A008C000020D8
:102590008E000020014600BF7047324A12785AB9B7
:1025A00000BF314A128802F04002002AF9D0C2B2BC
:1025B0002D4B1B1D1A800AE000BF2C4A128802F026
:1025C0004002002AF9D0C2B2284B1B1D1A80704766
:1025D0002649091D088000BF2449098801F04001EF
:1025E0000029F9D0704710B586B00446012144F2A5
:1025F0000400FEF7EFFD4FF40070ADF81400032067
:102600008DF8160018208DF8170005A91848FEF758
:10261000BFFA4FF48060ADF8140004208DF8170065
:1026200005A91348FEF7B4FA01940020ADF808009C
:10263000ADF80A00ADF80C00ADF810000C20ADF8B4
:102640000E0001A90948FFF77AFD002240F225514A
:102650000648FFF70CFE01210448FFF7FCFD06B019
:1026600010BD000007000020004400400038014079
:1026700000080140A34A0A400243A34B1A60704776
:102680000146072323EA010212029F4B1B1D186813
:102690004FF6FF0318409D4B184310439A4B1B1DE8
:1026A000186070472DE9F0410746884614461D46DC
:1026B0002846FFF7E5FFC5F1040007FA00F60F20F2
:1026C000284100EA0800064306F00F06E21704EB73
:1026D000D2625211920002F1E022D2F8002121468A
:1026E000E31704EBD3635B11A4EB431C012303FA50
:1026F0000CF31A432046E31704EBD3635B119B00F2
:1027000003F1E023C3F800218148005D40EA061090
:102710007F490855BDE8F08170B504460B46CE17D9
:1027200001EB9676C6F38700CE1701EB9676B610CE
:10273000A1EB8606B606350E764B9B6943F0010386
:10274000744EB3614FEAB63353F820300F26AE40D3
:10275000B343714E46F82030334653F8203004FA24
:1027600005F61E436C4B43F820606C4B1B6801263A
:102770008E403343694E336002F0010343B1674B2F
:102780000C331B6801268E403343644E0C36336095
:1027900002F0020343B1614B08331E6801238B40F2
:1027A0001E435E4B08331E6070BD00B500205949C2
:1027B0000861C8601420486100208861C86108462B
:1027C000006840F00100086008464068544908402D
:1027D0005049486008460068524908404D49086021
:1027E0000846006820F4802008600846406820F40D
:1027F000FE0048600020886000214FF00060FFF775
:1028000039FF00BD10B540480830006840F00400B2
:102810003D49083108603F48C06940F080503D495B
:10282000C8614148406840F480703F4948600846AC
:10283000006840F0040008600846006840F00200AC
:102840000860FDF7E7FC10BD3048001D2E49091D4A
:1028500008607047014649062E4A926942F001021B
:102860002C4B9A612C4A083A526822F0E0622A4BBB
:10287000083B5A601A4652680A435A60704730B59E
:1028800004460025FFF791FF2248006840F480309D
:102890002049086000BF1F480068400C0028FAD09B
:1028A0004FF480601B494860A01EC4B208464068CF
:1028B00040EA844048600846406840F48030486000
:1028C0001A48006840F03200184908601148006852
:1028D00040F080700F49086000BF0E480068400E4D
:1028E0000028FAD00B48406840F0020009494860CF
:1028F00005E008484068C0F3870505F00305022D90
:10290000F7D130BD80FFFF1F08ED00E00000FA05A1
:1029100000E400E000100240080001400004014013
:102920000000FFF8FFFFF6FE0070004000200240AC
:1029300008B501210820FEF74DFC4FF40050ADF81A
:10294000000010208DF8030003208DF80200694676
:102950000C48FEF71DF908BD18B900210A4A11609C
:102960000FE00A490968491C084A1160814208D1F0
:1029700005490968C943064AC2F8B4110021034A4F
:1029800011607047000C0140B48121429400002086
:102990000080214208B501210820FEF71BFC4FF4FE
:1029A0008040ADF8000048208DF8030069464B4890
:1029B000FEF7EEF808BD01464948006828B94948C5
:1029C0000088401C474A108002E00020454A1080E1
:1029D0004348006828B94448007810B90120424AA9
:1029E000107042480078B0B93F480078012807D1FC
:1029F0003F480078401C3E4A107001203B4A10704E
:102A00003B480078022806D10020394A1070394A24
:102A100010800220704732480068012804D100204D
:102A2000314A1070314A10703148007801281CD1A9
:102A300030480088401C2F4A108010460088884289
:102A40000ADD28480088884206DA0020284A1070EB
:102A5000284A10800120DDE722480088884204DDF2
:102A60000020234A1070234A10800020D2E7224819
:102A7000007838B11A48006820B900201E49087053
:102A80000120704716480068012801D11A490870D2
:102A90000020F6E71948008840B91148006828B9B5
:102AA00017480088401C1649088002E0002014499D
:102AB000088013480088C82807DD01200F490880D6
:102AC00000200F490880012070470C480088012829
:102AD00002D10020094908800020F5E7000C0140E0
:102AE000388121429E00002098000020990000209B
:102AF0009A0000209C000020A0000020A4000020DC
:102B0000A200002010B50A461AB10123FE4C236032
:102B100002E00023FC4C2360002116E00023FA4C65
:102B20003434236000F080031BB10123241D236093
:102B300003E00023F44C383423600123F24C343496
:102B400023604306180E4B1CD9B20829E6DB01238B
:102B5000ED4C236010BD30B500241CE004F1B00141
:102B6000C8B20021FFF7CEFF00210846FFF7CAFFD9
:102B700000211020FFF7C6FF002508E0E34901EB24
:102B8000C501085D0121FFF7BDFF681CC5B2802D9E
:102B9000F4DB601CC4B2082CE0DB30BD00B50021C2
:102BA0008D20FFF7AFFF00211420FFF7ABFF0021BE
:102BB000AF20FFF7A7FF00BD00B500218D20FFF774
:102BC000A1FF00211020FFF79DFF0021AE20FFF79D
:102BD00099FF00BD30B500240CE0002506E0002080
:102BE000CA4901EBC5010855681CC5B2802DF6DB4A
:102BF000601CC4B2082CF0DBFFF7ADFF30BDF0B5B0
:102C0000144600267F2801DC3F2900DDF0BD0B467D
:102C1000CF1701EB5777FF10C7F10707FAB2CF17AD
:102C200001EB5777FF10A1EBC707FDB2C5F107070E
:102C30000123BB40DEB24CB1B44B03EBC0039B5C41
:102C40003343B24F07EBC007BB5408E0AF4B03EB75
:102C5000C0039B5CB343AD4F07EBC007BB5400BF41
:102C6000D4E72DE9F04F80460C4615461E46A34694
:102C7000A5F12000C5B200273EE00C2E07D105EBE0
:102C80004500A34901EB800010F8079004E0A1483B
:102C900000EB051010F807904FF0000A26E009F04D
:102CA000800028B121464046099AFFF7A8FF09E0B5
:102CB000099808B9012000E000200246214640465C
:102CC000FFF79DFF4FEA49604FEA1069601CC4B2EC
:102CD000A4EB0B00B04205D15C4608F1010000F006
:102CE000FF0806E00AF1010000F0FF0ABAF1080F40
:102CF000D5DB00BF781CC7B2B742BEDBBDE8F08FA2
:102D000010B50246012000E050430B00A1F1010480
:102D1000E1B2F9D110BD2DE9FF4F81B007469146D0
:102D20001E460E9D4FF0000A002439E0301B401E65
:102D3000C1B20A20FFF7E4FFB9FBF0F00A21B0FBB3
:102D4000F1F201FB1208BAF1000F16D1701EA04279
:102D500013DDB8F1000F0ED10120AB4605EBDB719E
:102D6000491001FB04710090C8B22B462022029941
:102D7000FFF777FF12E04FF0010A0120AB4605EBA9
:102D8000DB71491001FB04710090C8B208F13001F9
:102D9000CAB22B460299FFF764FF00BF601CC4B2A1
:102DA000B442C3DB05B0BDE8F08F78B505460E46EA
:102DB000144618E07A2D03DD002506F11000C6B296
:102DC0003A2E04DD002005460646FFF703FF0120EA
:102DD000009022780C2331462846FFF742FF05F188
:102DE0000800C5B2641C20780028E3D178BD08B57E
:102DF00001211020FEF7EEF901210846FEF7EAF95D
:102E00004EF20100ADF8000010208DF80300022002
:102E10008DF8020069464048FDF7BAFE0120FEF732
:102E200010F80020FEF743F90020FDF7FAFD00201E
:102E3000FEF707F8002034493C3108606420FFF7B2
:102E40007CFB01203549C1F8BC010021AE20FFF711
:102E500059FE0021D520FFF755FE00215020FFF735
:102E600051FE0021A820FFF74DFE00213F20FFF773
:102E700049FE0021D320FFF745FE00210846FFF759
:102E800041FE00214020FFF73DFE00218D20FFF78D
:102E900039FE00211420FFF735FE00212020FFF726
:102EA00031FE00210220FFF72DFE0021A120FFF7B7
:102EB00029FE0021C020FFF725FE0021DA20FFF7C0
:102EC00021FE00211220FFF71DFE00218120FFF7C7
:102ED00019FE0021EF20FFF715FE0021D920FFF792
:102EE00011FE0021F120FFF70DFE0021DB20FFF78E
:102EF00009FE00213020FFF705FE0021A420FFF786
:102F000001FE0021A6200BE080012242E402002005
:102F100022B8000896BC00080010014000002242C0
:102F2000FFF7F0FD0021AF20FFF7ECFDFFF752FEA9
:102F300008BD0000002000E0401C0A28FCDB7047B0
:102F400010B50446072301222146CD48FDF7F5FBC5
:102F50000121CB48FDF7C5FB00BF0221C848FDF7A2
:102F600031FD0028F9D0C648FDF74EFC10BD70B504
:102F7000002400250120C34908600020C249C1F88F
:102F80008C01FFF7D7FF0120C04908600020C0492D
:102F9000C1F88C01FFF7CEFF0120BA49086000207C
:102FA000B949C1F88C01FFF7C5FF00BF15E000204B
:102FB000B4490860FFF7BEFF0420FFF7C1FF00110E
:102FC000B44921F81500681CC5B20120B049C1F808
:102FD0008C01FFF7AFFF601CC4B2802CE7DB70BD33
:102FE00000B587B001214FF40770FEF7F3F84FF4F6
:102FF0000040FEF753F81020ADF8040000208DF8D3
:10300000070001A9A448FDF7C3FD0220ADF80400A4
:1030100000208DF8070001A9A048FDF7B9FD0820A0
:10302000ADF8040010208DF8070002208DF806008E
:1030300001A99A48FDF7ACFD0820ADF80400102066
:103040008DF8070002208DF8060001A99448FDF7CD
:103050009FFD8B48FDF7B2FA002002908DF80C001E
:103060008DF80D004FF460200490002005900120A1
:103070008DF8180002A98248FDF7C7FA012180489F
:10308000FDF7EFFA7E48FDF70EFB00BF7C48FDF729
:103090000FFB0028FAD17A48FDF714FB00BF7848EF
:1030A000FDF715FB0028FAD107B000BD2DE9F04F60
:1030B00085B00920FFF744FF019007F031FC4FF085
:1030C0006632784BCDE9020107F07AFC8046002297
:1030D000754B07F075FC06460022744B07F070FC38
:1030E00004460022724B07F07DFA824607F0D2FBBD
:1030F0000490049805B0BDE8F08F10B56D48806964
:1031000040F004006B4988616348006820F4704017
:103110006149086008460068674908405E490860E0
:1031200008460068654908435B4908606148806952
:1031300040F400705F4988610846C06840F4007040
:10314000C8600846C06820F40070C860084640683F
:1031500020F4404048600846406840F40040486021
:103160004748001D0068564908404549091D086048
:103170000846006808600846006820F4807008600F
:10318000081D006820F00200091D0860084600685C
:1031900020F4602008600846006840F46020086061
:1031A0000846006840F4801008600846006820F473
:1031B0000060086032482C30006820F4700030490C
:1031C0002C31086008460068002008602C48103048
:1031D000006820F470402A491031086008460068F1
:1031E00040F46060086026480830006840F0010044
:1031F0002349083108600846006840F0080008606C
:1032000000BF1F480830006800F008000028F8D10F
:103210001B480830006840F0040019490831086074
:1032200000BF17480830006800F004000028F8D1FB
:103230000120FFF782F910BD70B5FF20FFF7C8F934
:10324000002519E0FFF793FE002400BF11E01148AC
:1032500030F81400FF2806D10E4830F81400401E44
:103260000C4921F814000B4931F81400FFF7B0F9AC
:10327000641C802CEBDB6D1C642DE3DB70BD000057
:10328000002401408C812142000022428C01224214
:1032900000802142E401002000080140000C0140B0
:1032A0000010014066660A400000264000005940B8
:1032B0000000B04000100240FFF0FF0F00020020AD
:1032C000FFFFF0007FB505460C4601210220FDF707
:1032D0008EFFADF80850ADF804400020ADF80A00AC
:1032E000ADF8060001A90E48FEF7ACF80122114620
:1032F0000B48FEF71EFC1D208DF8000000208DF805
:10330000010003208DF8020001208DF803006846BB
:10331000FDF7EBF801210248FEF7F0FB7FBD00004E
:103320000004004008B501210820FDF753FF3020BC
:10333000ADF8000010208DF8030003208DF8020086
:1033400069463448FDF724FC01210820FDF742FFBF
:103350004FF41040ADF8000010208DF8030003205A
:103360008DF8020069462C48FDF712FC08BD30B507
:1033700089B005460C46FFF7D5FF0121C802FDF7CD
:1033800029FF01210420FDF725FF4FF41060ADF85F
:10339000200018208DF8230003208DF8220008A9B2
:1033A0001D48FDF7F5FBADF81850ADF814400020AE
:1033B000ADF81A00ADF8160005A91848FEF742F856
:1033C0006020ADF804000120ADF806000020ADF843
:1033D0000A00ADF80C0001A91048FEF770F801A929
:1033E0000E48FEF746F901210C48FEF793FB082131
:1033F0000A48FEF7B3FC08210848FEF7CEFC01217D
:103400000648FEF77BFC01210448FEF777FB09B074
:1034100030BD0000000C014000080140002C0140BC
:1034200000B587B001210846FDF7E1FE0121042027
:10343000FDF7D0FE0320ADF8000004208DF8030056
:1034400069466148FDF7A4FB04A8FEF727FB0020AE
:10345000ADF810004FF6FF70ADF814000020ADF885
:103460001600ADF8120004A94FF08040FDF7EAFF06
:1034700000231A4603214FF08040FEF7F2FB01A81B
:10348000FEF71FFB0A20ADF80C0001A94007FEF76C
:103490006CFA01218807FEF7F7FD0122114690071B
:1034A000FEF747FB00214FF08040FEF7BBFD0121F6
:1034B0008807FEF723FB07B000BD00B587B00121E8
:1034C0000420FDF794FE01210820FDF783FEC020B3
:1034D000ADF8000004208DF8030069463B48FDF775
:1034E00057FB04A8FEF7DAFA0020ADF810004FF6FB
:1034F000FF70ADF814000020ADF81600ADF8120012
:1035000004A93348FDF79EFF00231A4603213048E3
:10351000FEF7A7FB01A8FEF7D4FA0A20ADF80C00CD
:1035200001A92B48FEF721FA01212948FEF7ACFD3D
:10353000012211462648FEF7FCFA00212448FEF736
:1035400071FD01212248FEF7D9FA07B000BD0146FE
:10355000022904D003290BD0042919D10FE04FF020
:103560008042928C10B200224FF080439A8411E086
:10357000184A128810B20022164B1A800AE0144A28
:103580002432128810B20022114B24331A8001E039
:10359000002000BF00BF70470D48103000880C4865
:1035A0001030008820F00100094910310880704770
:1035B0004FF08040008A4FF08040008A20F00100E8
:1035C0004FF080410882704700080140000C014024
:1035D000000800402404004008B501210820FDF740
:1035E000F9FD4FF44060ADF8000010208DF80300A5
:1035F00003208DF802006946F748FDF7C9FA08BDB7
:1036000010B5F548001D006820F47040F249091D0E
:1036100008600846006840F4405008600120EF4907
:103620000860EF48D0F82C0108B9002010BD012037
:10363000EA49091F0860FEF75CFF0020E849C1F86D
:10364000AC01E6488038006808B10020EEE70120B0
:10365000FEF74FFF0020E149091F08600120E5E760
:1036600010B5DD48001D006820F47040DA49091DDE
:1036700008600846006840F4405008600020D749C0
:10368000091F0860D649C1F8AC010120FEF731FFDF
:103690000120D249091F0860D149C1F8AC01FEF7E9
:1036A00028FF10BD10B50024CB48001D006820F491
:1036B0007040C949091D08600846006840F4004090
:1036C00008600120C5490860FEF713FF0120C449C6
:1036D000C1F8A801FEF70DFF0AE0601CC4B2322C4D
:1036E00003DDFFF7BDFF002010BD0120FEF701FF45
:1036F000BA48803800680028EFD1B849091F08602F
:103700000120F1E710B50020B449091F0860B24854
:10371000001D006820F47040AF49091D086008468C
:10372000006840F4405008600020AD49C1F8AC0189
:103730000120FEF7DEFE0120A849091F0860FEF700
:10374000D8FE0020A649C1F8A80110BD10B5002080
:10375000A249091F0860A048001D006820F47040BD
:103760009D49091D08600846006840F44050086003
:1037700001209B49C1F8AC01FEF7BBFE012097492F
:10378000091F0860FEF7B5FE00209549C1F8A801A1
:1037900010BD70B504469048001D006820F47040CC
:1037A0008D49091D08600846006840F440500860D3
:1037B00000208A49091F0860002516E0E0098749B2
:1037C00008606006040E0120FEF793FE0120844984
:1037D000C1F8A801FEF78DFE00208049091F08608E
:1037E0000120FEF786FE681CC5B2082DE6DB70BD21
:1037F0002DE9F04105460E4617469846FFF700FFB3
:1038000010B90120BDE8F0816906080EFFF7C1FF7D
:10381000FFF748FF18B9FFF723FF0120F2E7304612
:10382000FFF7B7FFFFF73EFF00240BE018F8040096
:10383000FFF7AFFFFFF736FF18B9FFF711FF0020C2
:10384000E0E7641CBC42F1DBFFF70AFF0020D9E788
:1038500070B5054600246048001D006820F47040E3
:103860005D49091D08600846006840F40040086092
:10387000002617E000205949091F08600220FEF7C2
:1038800038FE01205649C1F8A8016006040E5348CD
:103890008038006808B1601CC4B20220FEF729FE1F
:1038A000701CC6B2082EE5DB15B1FFF72BFF01E057
:1038B000FFF74CFF204670BD2DE9F04106460F464C
:1038C00014461D46FFF79CFE10B90120BDE8F081AB
:1038D0007106080EFFF75DFFFFF7E4FE18B9FFF76A
:1038E000BFFE0120F2E73846FFF753FFFFF7DAFE8D
:1038F000FFF786FE012101EB4601C8B2FFF749FF41
:10390000FFF7D0FE0DE0012C04D10020FFF7A0FF4F
:10391000287003E00120FFF79BFF28706D1C601EDC
:10392000C4B2002CEFD1FFF79BFE0020CEE770B5AC
:1039300005460E460024FFF763FE2846FFF729FFE1
:10394000641CFFF7AFFE3046FFF723FF641CFFF750
:10395000A9FEFFF755FE691CC8B2FFF71AFF641CE9
:10396000FFF7A0FE0020FFF773FF0446FFF778FE85
:10397000204670BD2DE9F0410746884615461E4693
:103980000024FFF73DFE3846FFF703FFFFF78AFEEE
:103990004046FFF7FEFEFFF785FEFFF731FE791C7C
:1039A000C8B2FFF7F6FEFFF77DFE00BF0DE0681E10
:1039B000A04204D00120FFF74BFF305503E0002068
:1039C000FFF746FF3055601CC4B2AC42EFDBFFF797
:1039D00047FE2046BDE8F081000C0140AC81214249
:1039E000008021422DE9F04180460D4616461F46D3
:1039F0000024FFF705FE4046FFF7CBFEFFF752FE1F
:103A00002846FFF7C6FEFFF74DFE00BF06E0385D13
:103A1000FFF7BFFEFFF746FE601CC4B2B442F6DB00
:103A2000FFF71EFE0120BDE8F08170B505460E4689
:103A3000144631462846FFF77AFF2070012070BDFA
:103A400037B504460D4602AB012229462046FFF752
:103A5000C9FF3EBD2DE9F8430746884614461D467A
:103A6000089E6A4641463846FFF7DFFF28B3601CD0
:103A7000FF2101FA00F0C4F108012944491EFF2288
:103A80000A41104300F0FF09C5F1080006FA00F0F2
:103A9000C6B2C4F1070006419DF8000000EA090023
:103AA00000909DF80000304300909DF800204146B2
:103AB0003846FFF7C5FFBDE8F8830020FBE7F8B5FF
:103AC00006460F4614461D466A4639463046FFF7FD
:103AD000ACFF2DB10120A0409DF80010084305E087
:103AE0000120A0409DF8001021EA0000C0B2009023
:103AF0009DF8002039463046FFF7A2FFF8BD0000D0
:103B000010B586B0044601210420FDF763FB0121B6
:103B10004804FDF76CFB0420ADF8140003208DF879
:103B2000160018208DF8170005A9F548FDF730F8A4
:103B30000820ADF8140004208DF8170005A9F048FE
:103B4000FDF726F826208DF8000000208DF80100F2
:103B500001208DF802008DF803006846FCF7C5FCD3
:103B600001940020ADF80800ADF80A00ADF80C0093
:103B7000ADF810000C20ADF80E0001A9E148FEF7E9
:103B8000DEFA012240F22551DE48FEF770FB0121EA
:103B9000DC48FEF760FB06B010BD2DE9FF5F40F288
:103BA0002551D848FEF748FC00287DD0D548FEF7BF
:103BB000C3FBD549086008460078D4490870D2484C
:103BC0000068592802D10220D1490870CE48006807
:103BD000582802D10120CE490870CB4800686228DD
:103BE00007D1CC48007808B9012000E00020C9497D
:103BF0000870C5480068612807D1C748007808B92F
:103C0000012000E00020C4490870C448007820B1B9
:103C1000C1480078401CC1490870BB4800680A28A8
:103C20006BDD0020BE490860BE490860B6480068E8
:103C30005A2809D10020BC490870BC490870BC4909
:103C40000870BC49087058E0AF48006841280AD1A4
:103C50000120B54908700020B4490870B4490870C3
:103C6000B449087049E0A848006845280BD10020F5
:103C7000AD4908700120AD4908700020AC490870BA
:103C8000AC49087039E0A0480068422807D09E4837
:103C90000068432803D09C48006844280CD10020C9
:103CA000A1490870A14900E028E10870A049087006
:103CB0000120A049087020E093480068462807D0FA
:103CC00091480068472803D08F48006848280BD1E6
:103CD00000209549087095490870012094490870A2
:103CE00000209449087008E000208F4908708F492F
:103CF00008708F4908708F490870834800680A2847
:103D000067DA002086490860864908607E480068B6
:103D100048B90020844908708449087084490870B3
:103D20008449087055E078480068012809D17E4927
:103D3000087000207D4908707D4908707D49087031
:103D400047E07148006805280BD1002076490870CB
:103D5000012076490870002075490870754908707F
:103D600037E069480068022807D0674800680328E0
:103D700003D06548006804280AD100206A49087009
:103D80006A4908706A49087001206A49087020E091
:103D90005D480068062807D05B480068072803D004
:103DA0005948006808280BD100205F4908705F4916
:103DB000087001205E49087000205E49087008E024
:103DC00000205949087059490870594908705949E3
:103DD00008704E4800787B2802D1012056490870AF
:103DE0004A4800787D2802D1022053490870524881
:103DF000007801280AD1454800785049504A127885
:103E000088544F480078401C4D4908704A48007853
:103E1000022873D14A48007807F0C6FA4949086079
:103E20004648C078502803D1012047490870B1E0C6
:103E30004248C078572803D1012044490870A9E0BE
:103E40003E48407823285AD03D48007840490870C1
:103E500034E03B4909783E4A1278881A06F049FD59
:103E6000804642460B4600203A4905F0B7FD04461D
:103E70000D4637490978491E304A515CA1F130009E
:103E800006F037FD064622462B4606F099FD82468F
:103E90008B463148006807F0A3F852465B46CDE9EF
:103EA000000106F0E3FACDE9020106F0ADFA2A4975
:103EB000086027480078401E25490870244800788B
:103EC0000428C6DA1D4840783038092861D2DFE876
:103ED00000F0050D4B535B5C5D5E5F001F491E48A3
:103EE000006807F017F91E49086052E01B491A489C
:103EF000006807F00FF91B4908604AE057E049E005
:103F00000008014000440040AC000020A800002050
:103F10000500002008000020B30000203A00002027
:103F2000580000205C00002001000020020000205A
:103F30000300002004000020B0000020E406002060
:103F4000B1000020300000203B0000203C00002099
:103F5000B200002000002440B40000200000C8424D
:103F6000440000204800002012491348006807F070
:103F7000D1F8124908600CE00E490F48006807F0BC
:103F8000C9F80F49086004E003E002E001E000E046
:103F900000BF00BF00200B4908700B4908700B4997
:103FA0000870054908603221094805F00BF8BDE8A2
:103FB000FF9F00000000C842B40000204C00002019
:103FC00050000020B0000020B1000020B20000200E
:103FD000E40600202DE9F84304460D4616461F4628
:103FE000DDF820904FF0000814B10DB106B117B9FB
:103FF0000120BDE8F883601EC4B2681EC5B2701E01
:10400000C6B2781E87B201210846FDF7E3F8012108
:104010000820FDF7DFF801214806FDF7E8F8012147
:104020004FF4EA10FCF785FE4FF40070ADF8000085
:1040300003208DF8020018208DF803006946FE4821
:10404000FCF7A6FD4FF48070ADF8000048208DF815
:1040500003006946F848FCF79BFD0020F74908601B
:104060000846006840F00100086008E008F101001F
:104070001FFA80F8B8F1640F01DD0220B9E7EF48BC
:10408000001D006800F001000028EFD0EB48006838
:10409000EA49086008460068086008460068086049
:1040A0000846006840F01000086008460068086094
:1040B0000846006808600020E0491C310860084696
:1040C000006840EA897008600846006840EA0460B9
:1040D00008600846006840EA055008600846006825
:1040E00040EA064008600846006838430860D34844
:1040F000006820F00100D149086009E008F10100E2
:104100001FFA80F84FF6F070804501DD032070E75C
:10411000CA48001D006800F001000028EED1C84820
:10412000006840F00100C6490860C5481C300068BE
:1041300020F00100C2491C310860C1480C30006801
:1041400040F00100BE490C310860BD48001D006808
:10415000BB49091D0860BA4814300068B8491431D9
:1041600008600020B649403108600021B44844305E
:104170000160B3481C30006840F00100B0491C31B8
:104180000860AF4800680020AD490860AB481430B3
:10419000006840F00200A94914310860022314228B
:1041A00000210120FEF77EFA002022E7F0B5054647
:1041B0000E46059CA1480830006800F0806008B1F8
:1041C000002111E09D480830006800F0006008B14F
:1041D000012109E099480830006800F0805008B1DA
:1041E000022101E0FF20F0BD00279548803800EB58
:1041F000011007601EB9C5F30A056D0502E025F040
:104200006045ED008E48803800EB011000682843BF
:104210008B4F803F07EB011738608948803800EBEF
:104220000110006840EA86078548803800EB0110DD
:1042300007608348803800EB0110006840EA4207BD
:104240007F48803800EB0110076003F00F037C48C3
:10425000803800EB0110406820F00F077848803864
:1042600000EB011047607648803800EB0110406891
:104270001843734F803F07EB01177860E079000621
:10428000A77940EA0740677940EA07272079074382
:104290006B48803800EB0110C760E0780006A77813
:1042A00040EA0740677840EA072027783843644FA0
:1042B000803F07EB0117B8606148803800EB0110C0
:1042C000006840F001075E48803800EB011007608D
:1042D000084688E70146002021B1012916D00229AD
:1042E0003CD127E0554A0832126802F0010210431F
:1042F000524A0832126802F0020210434F4A083252
:10430000126802F0806240EA126029E04B4A0832EB
:10431000126802F001021043484A0832126802F0A3
:1043200002021043454A0832126802F0006240EA75
:10433000526015E0414A0832126802F0010210434F
:104340003E4A0832126802F0020210433B4A083229
:10435000126802F0805240EA926001E0052000BF3E
:1043600000BF7047014629B934480C30006800F09E
:1043700003007047012905D130481030006800F073
:104380000300F6E70020F4E7F0B5DDE905542C4E14
:10439000503E06EB0016366806F0040616701678D6
:1043A0003EB9274E503E06EB00163668760D0E607D
:1043B00006E0234E503E06EB00163668F6080E6007
:1043C0001F4E503E06EB0016366806F002061E70C1
:1043D0001B4E503E06EB0016766806F00F062E7058
:1043E000174E503E06EB0016B6682670144E503E2F
:1043F00006EB0016B668360A6670114E503E06EBA4
:104400000016B668360CA6700D4E503E06EB001630
:10441000B668360EE6700A4E503E06EB0016F66899
:104420002671074E503E06EB0016F668360A667196
:10443000034E503E06E00000000C014000640040C6
:104440000066004006EB0016F668360CA671894E31
:1044500006EB0016F668360EE67130B9864E366801
:1044600046F02006844F3E6009E0012807D1824EC5
:10447000361D366846F020067F4F3F1D3E60F0BD7A
:1044800010B588B002A804A905AB06AACDE90010B2
:1044900007A90020FFF778FF40F221110798884212
:1044A00061D19DF808400020744908607449086093
:1044B0005A2C08D173490870734908707349087001
:1044C0007349087045E0412C0AD101206D490870FC
:1044D00000206D4908706D4908706D49087038E01A
:1044E000452C0BD1002067490870012066490870EF
:1044F000002066490870664908702AE0422C03D003
:10450000432C01D0442C0AD100205E4908705E493A
:1045100008705E49087001205D49087019E0462C5A
:1045200003D0472C01D0482C0BD1002055490870EE
:1045300055490870012055490870002054490870F9
:1045400007E0002400205049087050490870504985
:104550000870592C02D102204E490870582C02D103
:1045600001204C49087008B010BDF8B505460E464C
:10457000002433460022114640F201600095FFF707
:1045800015FE074601E0601C84B23846FFF7A2FE24
:10459000072803D040F6FF708442F4DB40F6FF703A
:1045A000844201DB0120F8BD0020FCE710B586B095
:1045B00004460020FFF7D6FE10B9002006B010BD5B
:1045C00002A803AB04AA05A9CDE900040020FFF767
:1045D000DBFE0598122805D19DF8100010B99DF852
:1045E0000C0008B1002002909DF80800E6E7F8B53D
:1045F00005460E46002433460022114640F2017063
:104600000095FFF7D3FD074601E0601C84B23846F1
:10461000FFF760FE072803D040F6FF708442F4DB0A
:1046200040F6FF70844201DB0120F8BD0020FCE76A
:10463000F8B506460D4600240823002211463046F0
:104640000095FFF7B3FD074601E0601C84B23846D1
:10465000FFF740FE072803D040F6FF708442F4DBEA
:1046600040F6FF70844201DB0120F8BD0020FCE72A
:1046700070470000B06500400C6400405800002006
:104680005C00002001000020020000200300002048
:1046900004000020050000200146002901DA4842FC
:1046A00000E00846704700B503460A46002B07DDC8
:1046B0000020FE4908600120FD49C1F8940106E090
:1046C0000120FA4908600020F949C1F89401184610
:1046D000FFF7E2FFF7490880002A07DD0020F649CE
:1046E00008600120F549C1F8B00106E00120F24957
:1046F00008600020F149C1F8B0011046FFF7CCFF77
:10470000EC490C39088000BD2DE9F04105460E4604
:10471000EB480168EB4806F08FFC0746294606F097
:1047200057FF11D3E6480168E74806F085FC0746C5
:10473000294606F04DFE07D3E4480078012803D04F
:1047400040F2564086420DDA01240020DA49091D64
:104750000860DA49C1F8BC01D7490860D749C1F8F7
:10476000B00100E000242046BDE8F08141F6F420CD
:10477000D7490978012904D1D64909686431D54A55
:104780001160D5490978012904D1D44909686439EF
:10479000D24A1160CF4909684242914202DA41424D
:1047A000CC4A1160CB490968814201DDC9490860E2
:1047B000CA4909684242914202DA4142C74A11603D
:1047C000C6490968814201DDC449086070472DE986
:1047D000F84F04460D46DFF80883DFF80893A4F18C
:1047E000400006F0C9FD07464946284606F024FE6B
:1047F00087F0004B41460090584606F01DFE824669
:10480000009906F021FF0646304606F079FDBDE826
:10481000F88F2DE9FC5FB4480190B4480090B4488B
:10482000B4490860B4490968B44A1268114408469A
:1048300006F0A2FDB2490860B248006806F0D0FB5D
:104840000646B14AB14B06F0BBF8044605F0DCFD64
:10485000AC490860AA48006806F0C2FB8046AA4A34
:10486000AB4B06F0ADF804460D46A648006806F0CE
:10487000B7FB064622462B4605F0F8FD824605F0BA
:10488000C3FDA049086008460168A248006806F018
:10489000D3FBA0490860974801689E48006806F06D
:1048A000D3FE9C4908609C499A48006806F090FE37
:1048B00002D299489749086098499648006806F0DE
:1048C00087FD02D295489349086092480099006894
:1048D00006F0B2FD04468B480199006806F0ACFD75
:1048E0000546214606F0A8FB8D4908608D48016801
:1048F0008D480068FFF708FF012803D0734800784F
:10490000012802D10020834908608548006806F02C
:10491000F7FCBDE8FC9F2DE9F04705460C466848CA
:104920000168284606F090FE8046804801682046CF
:1049300006F082FD814641467D48006806F07CFD18
:104940008246494606F078FB074606F0D9FC064643
:104950003046BDE8F08770B53220FEF72CF80546EA
:10496000012D07D15948007808B9012000E0002046
:1049700056490870022D07D16E48007808B9012009
:1049800000E000206B490870FEF784F80446012C13
:1049900007D16948007808B9012000E00020664985
:1049A000087070BD00B5654800886549088005201D
:1049B0006449087014E061486249097830F81100D0
:1049C0005F490988884206DB5C485E49097830F80F
:1049D00011005B4908805B480078401C5949087009
:1049E000584800787B28E6DB544800885649088000
:1049F00005205449087014E050485249097830F8AD
:104A0000110051490988884206DC4C484D49097813
:104A100030F811004C4908804A480078401C494948
:104A20000870484800787B28E6DB45490988464AF3
:104A30001288881800EBD071C1F34701434A117006
:104A400005204049087098E03C483E49097830F814
:104A500011003E49097888427ADD384939480078A2
:104A6000401C31F8100039490978884270DD33491B
:104A700034480078801C31F81000344909788842A5
:104A800076DD2E492F480078C01C31F810002F49E0
:104A9000097888426CDA29492A480078001D31F8E3
:104AA00010002A490978884262DA52E0BC012142AA
:104AB00000802142402C014090812142000021428F
:104AC00054000020000020C2000020420600002008
:104AD0000100002014000020020000201800002027
:104AE0000000F0418FC2F53D0000A042CDCCCC3E8D
:104AF0000000B4C2E40000200C00002010000020E0
:104B0000DC000020E00000209A9999999999E93FEA
:104B10009999C93FE800002000E02B4600E02BC631
:104B2000D8000020200000202400002048000020A1
:104B300044000020070000203A000020E40100208B
:104B4000F2000020EC000020F400002061000020B2
:104B50000EE0FE49FE480078401D31F81000FD4986
:104B60000978884204DAFA480078FB49087009E0BD
:104B7000F7480078401CF6490870F5480078762818
:104B8000FFF662AF00BF7620F449087044E0EF48BA
:104B9000F249097830F81100EE490978884236DA8E
:104BA000EA49EE480078401C31F81000E9490978DC
:104BB00088422CDAE549E9480078801C31F8100079
:104BC000E4490978884222DAE049E4480078C01CC8
:104BD00031F81000DF490978884218DDDB49DF48E9
:104BE0000078001D31F81000DA49097888420EDD9E
:104BF000D649DA480078401D31F81000D5490978C7
:104C0000884204DDD5480078D549087008E0D348CB
:104C10000078401ED1490870D04800780528B6DCDD
:104C200000BFCF490978CC4A1278881800EBD071C0
:104C3000C1F34701CB4A117011460978CA4A12786C
:104C4000881AFFF729FD462803DDC7480078C549C3
:104C50000870C4480078C449087000BD2DE9F04FC1
:104C600089B0814603F023FDC0490860B9F1010F06
:104C70001ED103F08BFBBE48006880F00040BD49A8
:104C80000860BD49B1F90010484206F075FBBB4908
:104C90000860B949B1F9040006F06EFBB849086034
:104CA000B849B1F9040006F067FBB7490860B2E003
:104CB0004421D020FEF73BFE80464321D020FEF762
:104CC00036FE08EB0027384606F056FB044648211E
:104CD000D020FEF72CFE80464721D020FEF727FE8D
:104CE00008EB0027384606F047FB06463E21D02059
:104CF000FEF71DFE80463D21D020FEF718FE08EB92
:104D00000027384606F038FB82464021D020FEF7C7
:104D10000EFE80463F21D020FEF709FE08EB00275B
:104D2000384606F029FB05464FF08E41204606F036
:104D30004FFC05D24FF08F41204606F085FC04461B
:104D40004FF08E41304606F043FC05D24FF08F41C4
:104D5000304606F079FC06464FF08E41504606F08C
:104D600037FC05D24FF08F41504606F06DFC82466D
:104D70004FF08E41284606F02BFC05D24FF08F41B4
:104D8000284606F061FC05467C480460284606F08B
:104D900027F9CDE90001504606F022F90746DDE982
:104DA000002304F05BFD0022784BCDE9020105F001
:104DB00007FE774A774BCDE9040105F013FCCDE9F6
:104DC000060105F021FB8346204606F009F94FF065
:104DD0006632714BCDE9060105F004FC074605F08B
:104DE00013FB04466D480078022804D1214658463A
:104DF00002F004FF07E069480078032803D1214648
:104E0000584603F012F8664800685A4908605C4842
:104E100006605D48056009B0BDE8F08F10B501215E
:104E20006048FDF734F900287ED001215D48FDF788
:104E30003FF95D48007808B9012000E000205A4998
:104E400008705A48007801280BD159480078401C56
:104E5000C0B2574908700A2803D10020087053498E
:104E6000087051480078012821D1FEF780F8FEF73C
:104E70001DF95049086050480068401C4E490860C0
:104E80004E4800684B49096808444C4908604A4844
:104E9000006864280BD108460068642190FBF1F09B
:104EA00047490860002045490860434908603E487A
:104EB0000078002838D10220FEF749FB41490860FC
:104EC0000420FEF744FB4049086034480078FFF7AF
:104ED000C5FE6420FDF740FDFFF764FDFFF73BFDD5
:104EE0002648016823480068FFF715FD3749086028
:104EF0003548016833480068FFF78BFC3449086087
:104F00001F48016817480078FFF761FC31490860C5
:104F10002E4800682E49096808442E490968401A3D
:104F20002D490860294800E063E0006828490968C5
:104F3000084428490968084428490860FFF716FC16
:104F40001F4801680B4800684AE00000E4010020A7
:104F5000EC00002061000020EE000020ED000020A9
:104F6000EF00002060000020F00000201C00002066
:104F70008C0100202400002078010020280000205F
:104F80002C0000207E0100204000002000806640B0
:104F9000F1D4C853FB210940666630400000002070
:104FA0002801002000040040C40000203900002037
:104FB00038000020CC000020D0000020D4000020C9
:104FC000200000200C00002010000020B80000206D
:104FD000BC000020C00000201400002018000020A9
:104FE000FFF792FB28B90348016803480068FFF700
:104FF0005AFB10BD180000201400002038B50446EC
:10500000FB4890F82400C0B114B10220009001E0E8
:1050100000200090F64A1268D17BF54A5268107859
:105020006B460122FEF7E4FB10B14FF0FF3038BDB4
:105030009DF80010EE48417423E0ED48807A10B9E5
:105040004FF0FF30F3E724B1E948407C08B100207D
:10505000EDE714B10120009001E000200090E44A47
:105060001268D17BE24A526810786B460122FEF743
:10507000BFFB10B14FF0FF30D9E79DF80010DC48BE
:1050800041740020D3E738B5002419E0D8480068FF
:10509000C07AA04204D0D6480068407DA04200D12A
:1050A0000CE0D349496808786B4601222146FEF797
:1050B00003FC10B14FF0FF3038BD00BF601CC4B21C
:1050C000CB4840680079A042E0DC0020F4E770B5EE
:1050D00004460D46C6480068C07AA04204D0C448C1
:1050E0000068407DA04202D14FF0FF3070BDC04843
:1050F00040680079A04202DC4FF0FF30F6E7BC497F
:10510000496808782B4601222146FEF7D5FBEDE7DA
:1051100038B50446B64890F82300A04201D10020DB
:1051200038BD14B13020009001E000200090B0485C
:10513000807C20B19DF8000040F002000090AC4857
:1051400090F8220020B19DF8000040F0800000900F
:10515000A74A1268117DA64A526810786B46012250
:10516000FEF746FB10B14FF0FF30D9E7A04880F8BA
:1051700023400020D4E738B5044604F0700010B195
:105180000120009005E014B10020009001E04020D3
:105190000090974A1268917C954A526810786B4645
:1051A0000122FEF725FB20B1002191488172481EA3
:1051B00038BD9DF8000020F040018D4801730020AB
:1051C000009004F0400020B99DF8000040F0040079
:1051D000009004F0200020B99DF8000040F002008B
:1051E000009004F0100020B99DF8000040F001008C
:1051F000009004F0080020B99DF8000040F038004D
:1052000000907B4A1268D17C794A526810786B46CC
:105210000122FEF7EDFA20B1002175488172481E87
:10522000C6E724B1082C02D00020FFF771FF7048B8
:105230008472002101753220FDF77FF90020B7E765
:1052400038B504466A48807CA04201D1002038BDB0
:10525000002C46D0664A12681179654A5268107867
:105260006B460122FEF728FB10B14FF0FF30EEE74E
:105270009DF8000020F0200000905D4A126811792E
:105280005B4A526810786B460122FEF7B1FA10B102
:105290004FF0FF30DBE70320FDF74FF902200090CD
:1052A000534890F8220020B19DF8000040F08000A3
:1052B00000904F4890F8230020B19DF8000040F086
:1052C000300000904A4A1268117D494A52681078AD
:1052D0006B460122FEF78CFA002851D04FF0FF30C8
:1052E000B5E7434A12681179414A526810786B4613
:1052F0000122FEF7E1FA10B14FF0FF30A7E73C487A
:10530000807A00F0010028B19DF8000040F02000F4
:10531000009004E09DF8000020F020000090344A46
:1053200012681179324A526810786B460122FEF7F2
:105330005FFA10B14FF0FF3089E70320FDF7FDF869
:105340002B4890F8220010B18020009001E000204E
:105350000090274890F8230020B19DF8000040F00D
:1053600030000090224A1268117D214A526810785C
:105370006B460122FEF73CFA10B14FF0FF3066E7B2
:105380001B488474002062E708B51948807A10B978
:105390004FF0FF3008BD00200090154A1268D17B05
:1053A000134A526810786B460122FEF721FA10B1B9
:1053B0004FF0FF30EEE70E4A126851790C4A5268FE
:1053C00010786B460122FEF713FA10B14FF0FF3050
:1053D000E0E7074A12681179054A526810786B466F
:1053E0000122FEF705FA28B14FF0FF30D2E70000A6
:1053F000F8000020F74890F82400002850D00C2036
:105400000090F44A12681179F24A526810786B469B
:105410000122FEF7EDF910B14FF0FF30BAE7C020DE
:105420000090EC48807A00F0010020B19DF8000067
:1054300040F020000090E74A12681179E54A52686E
:1054400010786B460122FEF7D3F910B14FF0FF3010
:10545000A0E7E048407C10B10220009001E000206D
:105460000090DC4A1268D17BDA4A526810786B46A9
:105470000122FEF7BDF910B14FF0FF308AE700209E
:105480000090D44A12685179D24A526810786B461B
:105490000122FEF7ADF9002852D04FF0FF3079E736
:1054A00004200090CB4A12681179CA4A52681078D9
:1054B0006B460122FEF79CF910B14FF0FF3069E70F
:1054C000C448807C20B9C348807A00F0010010B93C
:1054D0004020009001E060200090BE4A12681179DF
:1054E000BC4A526810786B460122FEF781F910B170
:1054F0004FF0FF304EE7B748407C10B101200090DC
:1055000001E000200090B34A1268D17BB14A526892
:1055100010786B460122FEF76BF910B14FF0FF30A7
:1055200038E7AC4A12685179AA4A52681078A94BF8
:1055300010330122FEF75CF910B14FF0FF3029E77C
:10554000002027E770B50446002624F00104A14896
:1055500090F8240008B1002070BD9E48807A10B9F0
:105560004FF0FF30F8E79B48057C807A204099494E
:1055700008740846007CA04202D04FF0FF3600E0DD
:10558000002614B99348007D18B10120FFF736FDBD
:1055900002E00020FFF732FD3CB1FFF7F5FE20B13D
:1055A0008C4805744FF0FF30D6E73046D4E738B565
:1055B00004468848807A10B94FF0FF3038BDBC2CC3
:1055C00002DB0120009015E0622C02DB022000903B
:1055D00010E02A2C02DB032000900BE0142C02DBED
:1055E0000420009006E00A2C02DB0520009001E078
:1055F000062000907748C07A9DF80010884201D1BB
:105600000020DBE7734A12689178724A526810787A
:105610006B460122FEF7ECF810B14FF0FF30CDE7FA
:105620009DF800106B48C1720020C7E738B50446EA
:10563000282C02DD4FF0FF3038BDDCB90020FFF729
:1056400067FD00208DF8000007208DF80100614AF9
:105650001268917C5F4A526810786B460222FEF70E
:10566000C7F810B14FF0FF30E6E700215948017547
:105670000020E1E70120FFF74BFD20208DF800001E
:10568000012C06D100208DF801000520FFF78FFFC7
:1056900017E0052C06DC01208DF801000520FFF73E
:1056A00086FF0EE0142C06DC02208DF801000A2093
:1056B000FFF77DFF05E003208DF801001420FFF7C0
:1056C00076FF9DF80100072101EB8010C0B28DF834
:1056D0000100404A1268917C3E4A526810786B463D
:1056E0000222FEF785F810B14FF0FF30A4E7082141
:1056F0003848817200210173012101750020FFF7F4
:1057000021FF002098E738B504463248807A10B966
:105710004FF0FF3038BD2F4890F8240010B14FF003
:10572000FF30F7E72B48007D50B134B1282C04DC62
:10573000E0B2FFF77BFF0020ECE70020FFF776FFE9
:10574000042C01DA042404E0B4F57A7F01DD4FF47F
:105750007A744FF47A7090FBF4F0401EC0B200905F
:105760001C4A126851781B4A526810786B46012215
:10577000FEF73EF810B14FF0FF30CBE79DF8000088
:10578000401C4FF47A7191FBF0F081B21148C18155
:105790000146C9894810FFF70AFF0020BAE738B56B
:1057A00004460C48807A10B94FF0FF3038BD022C07
:1057B00006D0042C07D0082C08D0102C0FD10BE0F9
:1057C000002000900EE0082000900BE010200090D8
:1057D00008E00000F80000201820009002E04FF0E0
:1057E000FF30E3E700BFF948407A9DF80010B0EBC6
:1057F000E10F01D10020D9E7F44A1268D179F34AC8
:10580000526810786B460122FDF7F2FF10B14FF09D
:10581000FF30CBE79DF80000C110EC48417200203A
:10582000C4E738B50446E948807A10B94FF0FF3034
:1058300038BDFA2C09D0B4F5FA7F09D0B4F57A7FD7
:1058400009D0B4F5FA6F0CD108E0002000900BE00D
:105850000820009008E01020009005E0182000903B
:1058600002E04FF0FF30E3E700BFD848007A9DF830
:105870000010B0EBE10F01D10020D9E7D34A126844
:105880009179D24A526810786B460122FDF7B0FF39
:1058900010B14FF0FF30CBE79DF80000C010CB49AE
:1058A00008720020C4E71CB580208DF80000C74AAC
:1058B0001268917CC54A526810786B460122FDF748
:1058C00097FF10B14FF0FF301CBD6420FCF735FE90
:1058D00000208DF80000BD4A1268917CBB4A5268D6
:1058E00010786B460122FDF783FF10B14FF0FF30B7
:1058F000EAE7B64A1268917DB44A526810786B465E
:105900000622FDF7D9FF10B14FF0FF30DCE79DF81C
:105910000500C007400F9DF8031001F0010140EAA7
:1059200041009DF8011001F0010140EA010494B129
:10593000012C03D10121A548C17431E0022C03D10F
:105940000021A248C1742BE02146A1A003F08CFAEB
:105950004FF0FF30B8E79D4A1268D1789B4A5268F1
:1059600010786B460122FDF7A7FF10B14FF0FF3012
:10597000AAE79DF8000000F00F042CB99E4803F040
:1059800073FA4FF0FF309FE7042C06D19BA003F081
:105990006BFA01218D48C17402E000218B48C1746B
:1059A000FF218A488172FF2088490872FF218748B9
:1059B0004172C1724FF6FF71C181FF210174817480
:1059C0000121017380F82210002180F82310417515
:1059D00001751630016041608160163880F824102E
:1059E00080F82510C1844FF4FA60FFF71AFF10B158
:1059F0004FF0FF3068E70220FFF7D1FE10B14FF003
:105A0000FF3061E72A20FFF7D2FD10B14FF0FF30E1
:105A10005AE73220FFF777FE10B14FF0FF3053E71F
:105A20000020FFF78FFD10B14FF0FF304CE7002052
:105A3000FFF706FC10B14FF0FF3045E70020FFF7FD
:105A40009AFB002040E770477CB504460D465F484E
:105A5000807A00F0700010B94FF0FF307CBD5B4AD7
:105A60001268117B594A526810786B460622FDF77E
:105A700023FF10B14FF0FF30F0E79DF801009DF8D3
:105A8000001040EA012000B220809DF803009DF83C
:105A9000021040EA012000B260809DF805009DF8E8
:105AA000041040EA012000B2A08015B12846FFF79B
:105AB000CAFF0020D2E77CB504460D464348807AF1
:105AC00000F0080010B94FF0FF307CBD3F4A12686B
:105AD000517B3E4A526810786B460622FDF7ECFE79
