:020000040800F2
:10000000780C0020810500085503000857030008FC
:100010005B0300085F0300086303000800000000A2
:10002000000000000000000000000000670300085E
:1000300069030008000000006B0300086D0300085E
:100040009B0500089B0500089B0500089B05000810
:100050009B0500089B0500089B0500089B05000800
:100060009B0500089B0500089B0500089B050008F0
:100070009B0500089B0500089B0500089B050008E0
:100080009B0500089B0500089B0500089B050008D0
:100090009B0500089B0500089B0500089B050008C0
:1000A0009B0500089B0500089B0500089B050008B0
:1000B000FF2C00089B050008E72C00089B050008A2
:1000C0009B0500089B0500089B0500089B05000890
:1000D0009B050008992900089B0500089B0500085E
:1000E0003D3F00089B0500089B0500089B05000894
:1000F0009B0500089B0500089B0500089B05000860
:100100009B0500089B0500089B0500089B0500084F
:100110009B0500089B0500089B0500089B0500083F
:100120009B0500089B0500089B0500089B0500082F
:100130009B0500089B0500089B0500089B0500081F
:100140009B0500089B0500089B0500089B0500080F
:100150009B0500089B0500089B0500089B050008FF
:100160009B0500089B0500089B0500089B050008EF
:100170009B0500089B0500089B0500089B050008DF
:100180009B0500089B05000800F002F800F061F8EC
:100190000AA090E8000C82448344AAF10107DA45E2
:1001A00001D100F056F8AFF2090EBAE80F0013F0D3
:1001B000010F18BFFB1A43F0010318479CAF000062
:1001C000BCAF00000A444FF0000C10F8013B13F0E4
:1001D000070408BF10F8014B1D1108BF10F8015BA0
:1001E000641E05D010F8016B641E01F8016BF9D193
:1001F00013F0080F1EBF10F8014BAD1C0C1B09D1EA
:100200006D1E58BF01F801CBFAD505E014F8016B5B
:1002100001F8016B6D1EF9D59142D6D370470000ED
:100220000023002400250026103A28BF78C1FBD8FF
:10023000520728BF30C148BF0B607047642907F0E0
:10024000CB86002070471FB509F083FB1FBD10B59A
:1002500010BD08F08FF81146FFF7F5FF00F008F821
:1002600008F0ADF803B4FFF7F2FF03BC02F048FB5F
:10027000A82002F0C3FA4FF4FA3002F04FFB4FF41B
:10028000A06000F09DF902F04DFE02F08DFD03F03C
:1002900092F802F08EFC4FF4FA7002F011FB03F0BA
:1002A00035F904F09DFD04F0AFFD02F07BFB012168
:1002B00042F2D00002F0A6FE2BE004F012FB204830
:1002C000006842F60411884204D99FED1E0A1E48B8
:1002D00080ED000A1A48006842F21C51884204D29C
:1002E000B7EE000A184880ED000A1548006842F68B
:1002F0000411884205D81248006842F21C51884215
:1003000007D200201149087002F048FF00200C4974
:1003100008600E4800780028CFD102F0DDFB02F023
:1003200005FD0BE001200A49087003F0A1FF04F06D
:1003300003FB00BF064800780028FBD1F2E700006D
:100340002408004000000000480000205400002065
:1003500002000020704700BFFEE700BFFEE700BFBD
:10036000FEE700BFFEE77047704770477047000028
:100370000CB50020019000907648006840F4803071
:100380007449086000BF7348006800F400300090B2
:100390000198401C0190009818B90198B0F5A04F41
:1003A000F1D16C48006800F4003010B101200090D9
:1003B00001E0002000900098012846D165484030B7
:1003C000006840F08050634940310860624800682E
:1003D00040F44040604908605E48083000685D496C
:1003E000083108600846006840F40040086008468C
:1003F000006840F4A05008605848091F0860081FB2
:10040000006840F08070091F086000BF5148006814
:1004100000F000700028F9D040F2057050490860E3
:100420004C480830006820F003004A490831086051
:100430000846006840F00200086000BF45480830E8
:10044000006800F00C000828F8D10CBD10B5454834
:10045000006840F47000434908603E48006840F07E
:1004600001003C49086000203A49083108603948D9
:1004700000683D490840374908603C48091D08604C
:10048000081F006820F48020091F086000203149FF
:100490000C310860FFF76CFF4FF000603149803984
:1004A000086010BD70B50020002202230024022144
:1004B000284D08352D6805F00C0020B1042806D021
:1004C000082834D107E02A4D2A4E356033E02A4D02
:1004D000284E35602FE01F4D2D1D2D68C5F380542B
:1004E0001C4D2D1D2D6805F03F0154B1224DB5FB6B
:1004F000F1F5184E361D3668C6F3881605FB06F270
:1005000009E01B4DB5FBF1F5124E361D3668C6F3FA
:10051000881605FB06F20F4D2D1D2D68C5F301450C
:100520006D1C6B00B2FBF3F5124E356003E0104D0D
:10053000104E356000BF00BF064D08352D68C5F36D
:1005400003150E4E705D0B4D2D68C540094E35608C
:1005500070BD0000003802400070004008544007A1
:10056000003C024088ED00E0FFFFF6FE1030002462
:100570000024F4005800002000127A005C000020E3
:100580000948804709480047FEE7FEE7FEE7FEE727
:10059000FEE7FEE7FEE7FEE7FEE7FEE70448054963
:1005A000054A064B704700004D0400088901000809
:1005B00078060020780C00207808002078080020B9
:1005C00032490143324A1160704770B5002100235F
:1005D0000F22C4781CB32E4C246804F4E064C4F5E4
:1005E000E064C4F30721C1F10404E3B20A41447892
:1005F0009C40E1B28478144021430C07210E254C25
:1006000005786155047804F01F050124AC40057895
:100610006D11AD0005F1E025C5F8004109E0047851
:1006200004F01F050124AC401B4D0678761145F8F7
:10063000264070BD194A0A400243154B1B1F1A6021
:10064000704739B1124A121D12680243104B1B1D2C
:100650001A6006E00E4A121D126882430C4B1B1DE5
:100660001A607047042808D14FF0E021096941F071
:1006700004014FF0E022116107E04FF0E021096929
:1006800021F004014FF0E022116170470000FA05EB
:100690000CED00E000E400E080E100E080FFFF1FDF
:1006A00010B50121080200F03EFF00214FF48070D8
:1006B00000F039FF10BD30B502460020002350681D
:1006C000F84C20400D790C6844EA05242043506022
:1006D0009068F54C2040D1E903542C438D682C439D
:1006E0004D7944EA450420439060D06A20F47000BC
:1006F0000C7D641EE4B2234340EA0350D06230BD57
:1007000000210160017141718160C16001610121BD
:10071000017570470021E54A1168E54A1140D0E9AA
:1007200000231A4383681A43C3681A431143E14AFA
:10073000C2F8041370470021016041608160C1600C
:10074000704721B1826842F00102826003E0826852
:1007500022F00102826070470A4600214168D64BB0
:1007600019401143416070474162826270470A46F6
:100770000021416821F01F0111434160704738B1E9
:10078000CA49096841F40001CA4AC2F8041306E0E4
:10079000C649096821F40001C64AC2F8041370472B
:1007A00038B1C249096841F48001C24AC2F8041351
:1007B00006E0BE49096821F48001BE4AC2F804136C
:1007C0007047F0B504460D4600200021092D11DDCB
:1007D000E068A5F10A0606EB4607072606FA07F1C8
:1007E0008843A5F10A0606EB460603FA06F108431C
:1007F000E0600CE0206905EB4507072606FA07F1E3
:10080000884305EB450603FA06F108432061072AF1
:100810000FDA606B561E06EB86071F2606FA07F1F5
:100820008843561E06EB860605FA06F10843606308
:1008300022E00D2A0FDA206BD61F06EB86071F2653
:1008400006FA07F18843D61F06EB860605FA06F17D
:100850000843206310E0E06AA2F10D0606EB86076C
:100860001F2606FA07F18843A2F10D0606EB86065D
:1008700005FA06F10843E062F0BD816841F080416D
:1008800081607047014600208A6802F080420AB108
:10089000012000E00020704721B1826842F48062AC
:1008A000826003E0826822F480628260704721B136
:1008B000826842F00202826003E0826822F0020253
:1008C0008260704710B50A4600210023416821F478
:1008D0006041531E41EA4331416010BD21B142687D
:1008E00042F40062426003E0426822F40062426027
:1008F00070470146C86C80B270476C48001D0068A4
:10090000704721B1826842F48072826003E082689D
:1009100022F480728260704721B1826842F40072D2
:10092000826003E0826822F400728260704738B10E
:100930005E49096841F400515E4AC2F8041306E0BA
:100940005A49096821F400515A4AC2F80413704701
:10095000F0B504461546002000220026092911DDC5
:10096000E068A1F10A0707EB470C072707FA0CF22A
:100970009043A1F10A0707EB470703FA07F2104378
:10098000E0600CE0206901EB410C072707FA0CF24C
:10099000904301EB410703FA07F210432061A06B7B
:1009A000C0F30156EF1C06F1010CA7EB0C0707EB97
:1009B000870C1F2707FA0CF29043EF1C06F1010C7D
:1009C000A7EB0C0707EB870701FA07F21043A063B8
:1009D000F0BD10B50A4600210023816B21F44011BF
:1009E000531E41EA0351816310BD08B500230093F3
:1009F0000090009B0B440093009B1A6008BD0A46C0
:100A00000021816821F470211143816070470A46FA
:100A10000021816821F44011114381607047816891
:100A200041F4800181607047014600208A6802F429
:100A300080020AB1012000E00020704721B1426825
:100A400042F48062426003E0426822F480624260C5
:100A5000704721B1426842F48052426003E042682C
:100A600022F480524260704708B502460020009090
:100A7000009201F12800009B184400900098006843
:100A800080B208BD10B50B460021D9B2012404FA8A
:100A900001F11AB144680C43446002E044688C439D
:100AA000446010BDFFFEFFFCFDF7FFC004230140C2
:100AB000E030FCFF00200140FFFD3FFF0246002028
:100AC00013680B400BB1012000E000207047CA43BF
:100AD0000260704770B502460020002300240B120C
:100AE000556801268E4005EA060415681D4015B1BB
:100AF0000CB1012000E0002070BD00220A12D34397
:100B000003607047002041490860091D0860091D05
:100B10000860091D08603E483C4914310860704770
:100B200000213A498279002A3AD00A4612680368BD
:100B30009A430B461A600A1D126803689A430B1DFC
:100B40001A60027911440A6803681A430A602F4A3E
:100B50000832126803689A432C4B08331A601A1D36
:100B6000126803689A43294B0C331A604279102AA1
:100B70000ED11A1F126803681A43244B08331A60F7
:100B80001A1D126803681A43204B0C331A600DE0DB
:100B90001E49427911440A6803681A430A6005E055
:100BA000027911440A6803689A430A607047002179
:100BB000016001710C21417100218171704713495D
:100BC000103109680143114A103211607047014623
:100BD00000200E4A143212680A400AB1012000E0D7
:100BE0000020704709491431086070470146002011
:100BF000064A143212680A400AB1012000E00020BF
:100C0000704702491431086070470000003C014001
:100C1000FFFF7F0010B504469848844208D10121A7
:100C2000084600F03CFC0021012000F038FC76E092
:100C30009348844208D10121022000F030FC0021B9
:100C4000022000F02CFC6AE08E48844208D1012189
:100C5000042000F024FC0021042000F020FC5EE0D1
:100C60008948844208D10121082000F018FC0021A5
:100C7000082000F014FC52E08448844208D101218D
:100C8000102000F00CFC0021102000F008FC46E0D1
:100C90007F48844208D10121202000F000FC00217F
:100CA000202000F0FCFB3AE07A48844208D1012180
:100CB000402000F0F4FB0021402000F0F0FB2EE08B
:100CC0007548844208D10121802000F0E8FB002112
:100CD000802000F0E4FB22E07048844208D101212A
:100CE000801500F0DCFB0021A01500F0D8FB16E019
:100CF0006B48844208D10121401500F0D0FB00214F
:100D0000601500F0CCFB0AE06648844207D101215F
:100D1000001500F0C4FB0021201500F0C0FB10BD41
:100D2000F0B50A4600210023002400BF3DE0012564
:100D300005FA01F3156805EA03049C4234D10568FD
:100D40004F000326BE40B543056015794E00B540FF
:100D50000668354305601579012D02D01579022DFD
:100D600016D185684F000326BE40B543856055798E
:100D70004E00B540866835438560456801268E4043
:100D8000B5434560456896798E40B6B235434560B7
:100D9000C5684F000326BE40B543C560D5794E00F7
:100DA000B540C6683543C560491C1029BFD3F0BDA6
:100DB0004FF6FF7101600021017141718171C171B4
:100DC000704708B54FF480320092009A0A430092AF
:100DD000009AC261C161009AC261C2690092C2698F
:100DE000009208BD0246002013690B400BB10120A0
:100DF00000E0002070470146086980B27047024653
:100E0000002053690B400BB1012000E00020704727
:100E10000146486980B2704701837047418370473B
:100E20000AB1018300E04183704741617047426924
:100E30004A4042617047F0B5002300244D07ED0E93
:100E400002FA05F3CE1000F1200555F826504E07A2
:100E5000F70E0F26BE40B543CF1000F1200646F82E
:100E60002750CE1000F1200555F8265045EA03041E
:100E7000CE1000F1200545F82640F0BD00000240EC
:100E80000004024000080240000C02400010024032
:100E90000014024000180240001C024000200240E2
:100EA000002402400028024010B50121080700F08C
:100EB00029FB00214FF0805000F024FB10BD524967
:100EC0000862704701460020504A106820F0E00098
:100ED0000843106070474C49086170474A49A03187
:100EE000086070474849A4310860704701460020F7
:100EF000464A106820F44040084310607047424959
:100F00000864704740494864704730B13F490968F8
:100F100041F440213D4A116005E03C49096821F453
:100F200040213A4A1160704718B10121364AD16216
:100F300002E00021344AD162704718B10121324ADF
:100F4000916202E00021304A916270472E49486266
:100F5000704710B5024600202C4B186840F603433A
:100F600098431043294B1860294B1B6843F0040336
:100F7000274C2360012901D130BF00E020BF244B62
:100F80001B6823F00403224C236010BD10B50246F9
:100F900000201E4B186840F60343984310431B4B38
:100FA00018601B4B1B6843F00403194C2360012994
:100FB00001D130BF00E020BF154B1B6823F00403B4
:100FC000134C236010BD1148006840F002000F4927
:100FD00008600F48006840F004000D49086000BF39
:100FE00000BF30BF704701460020084A52680A40DF
:100FF0000AB1012000E0002070470449096841EA75
:101000008001024A1160704700000E4200700040EB
:1010100010ED00E0F948006840F00100F749086071
:101020000020F64908310860F4480068F449084097
:10103000F2490860F348091D0860F348EF4984311C
:101040000860F0481038091D0860EC48006820F47A
:101050008020EA4908600020E8490C310860E7492F
:101060008C31086070470021E44A921C11701146CF
:101070000870704710B501460022002300204A1175
:10108000012A02D1DD4C236808E0022A03D1DB4C9F
:101090007034236802E0D94C7434236801F01F02D5
:1010A000012494401C400CB1012000E0002010BD40
:1010B00038B5002000900024002500BF3120FFF744
:1010C000D9FF05460098401C00900098B0F5A04F4D
:1010D00001D0002DF2D03120FFF7CCFF08B1012460
:1010E00000E00024204638BD01460020C34A1068B5
:1010F00020F0F80040EAC10010607047C349086062
:1011000070470021BD4A703211701170012802D061
:1011100004280AD104E00121B84A7032117005E0B8
:101120000521B64A7032117000E000BF00BF704761
:10113000B7490860704770B5049C41EA82150126E2
:10114000C6EB530645EA0645054345EA0465AB4E42
:10115000361D356070BDAD4908667047820142EAB0
:101160000172A64B84331A607047A849886670479D
:1011700010B5830143EA016343EA02739F4C88344C
:10118000236010BDA14908677047A049C864704733
:1011900002460020994B0833186820F0EC6042EAC0
:1011A00001031843954B083318607047024600202E
:1011B000924B0833186820F0784042EA0103184344
:1011C0008E4B083318607047014600208B4A083266
:1011D000106820F00300084310607047874808300B
:1011E000006800F00C00704701460020834A083276
:1011F000106820F0F000084310607047014600209E
:101200007E4A0832106820F4E050084310607047AE
:1012100001460020794A0832106820F4604040EA14
:10122000C10010607047F0B50021002200240225A3
:1012300000260223714F08373F6807F00C0121B1E7
:10124000042905D0082937D105E0724F076036E040
:10125000714F076033E0694F3F1D3F68C7F3805609
:10126000664F3F1D3F6807F03F036EB16A4FB7FB03
:10127000F3F7DFF888C10CF1040CDCF800C0CCF304
:10128000881C07FB0CF40CE0624FB7FBF3F7DFF8A8
:101290006CC10CF1040CDCF800C0CCF3881C07FB1B
:1012A0000CF4564F3F1D3F68C7F301477F1C7D007C
:1012B000B4FBF5F7076002E0564F076000BF00BFC0
:1012C0004E4F08373F6807F0F0010909534F7A5C29
:1012D0000768D7404760494F08373F6807F4E05137
:1012E000890A4E4F7A5C4768D7408760434F08377A
:1012F0003F6807F46041490B484F7A5C4768D74024
:10130000C760F0BD002100F44072B2F5407F0AD101
:101310003A4A0832116821F4F811414A0240114357
:10132000364A08321160354A70321268C0F30B0336
:101330001A43324B70331A6070473549443908609C
:101340007047334940390860704736490860704734
:1013500001460020294A8C32106820F01F004A1EE6
:101360001043264A8C321060704701460020234A01
:101370008C32106820F4F8504A1E40EA02201F4ABE
:101380008C3210607047014600201C4A8C32106875
:1013900020F4401008431060704701460020174AAF
:1013A0008C32106820F440000843106070470146FA
:1013B0000020124A8C32106820F44030084310603C
:1013C000704719490860704739B10C4A30321268C9
:1013D00002430A4B30331A6006E0084A3032126882
:1013E0008243064B30331A607047F9B1034A3432F6
:1013F00012680243014B34331A601CE0003802408B
:10140000FFFFF6EA103000240030002000004742C1
:10141000800E47420024F40000127A006C00002085
:10142000FFFCFF0F5C014742E01147428F4A126800
:1014300082438E4B1A60704739B18C4A121D126874
:1014400002438A4B1B1D1A6006E0884A121D12686F
:101450008243864B1B1D1A60704739B1834A0C3298
:1014600012680243814B0C331A6006E07F4A0C324B
:10147000126882437D4B0C331A60704739B17B4A46
:10148000103212680243794B10331A6006E0774A33
:10149000103212688243754B10331A60704739B1AD
:1014A000724A243A12680243704B243B1A6006E0E9
:1014B0006E4A243A126882436C4B243B1A60704790
:1014C00039B16A4A203A12680243684B203B1A60DD
:1014D00006E0664A203A12688243644B203B1A6059
:1014E000704739B1614A1C3A126802435F4B1C3B9A
:1014F0001A6006E05D4A1C3A126882435B4B1C3B53
:101500001A60704739B1594A143A12680243574B6E
:10151000143B1A6006E0554A143A12688243534B52
:10152000143B1A60704739B1504A103A12680243AE
:101530004E4B103B1A6006E04C4A103A1268824348
:101540004A4B103B1A60704739B1484A1C32126846
:101550000243464B1C331A6006E0444A1C321268B0
:101560008243424B1C331A60704739B13F4A2032E4
:10157000126802433D4B20331A6006E03B4A20329A
:1015800012688243394B20331A60704739B1374AA9
:10159000243212680243354B24331A6006E0334A82
:1015A000243212688243314B24331A60704739B1B8
:1015B0002E4A2C32126802432C4B2C331A6006E060
:1015C0002A4A2C3212688243284B2C331A60704707
:1015D00039B1264A303212680243244B30331A6044
:1015E00006E0224A303212688243204B30331A60C0
:1015F0007047012808D11D493C31096841F00801B4
:101600001A4A3C32116007E018493C31096821F060
:101610000801164A3C321160704739B1134A273A23
:1016200012780243114B273B1A7006E00F4A273A03
:10163000127882430D4B273B1A7070470B4840309D
:10164000006840F0807009494031086070470146E9
:101650000020064A283A12680A400AB1012000E038
:10166000002070470149263908707047343802401D
:1016700010B501218803FFF756FF00214FF4804089
:10168000FFF751FF10BD1C49086070471B490862F5
:10169000704730B500228B071C0F0F2303FA04F2AA
:1016A000154B08338C1053F824309343124C0834F4
:1016B0008D1044F8253023468C1053F824308C07C5
:1016C000240F00FA04F423430B4C08348D1044F823
:1016D000253030BD0949DC31086070470849086091
:1016E0007047002004492031096801F4807109B174
:1016F000012000E000207047003801400000274230
:101700000004274210B50446FE48844208D1012156
:101710000846FFF708FF00210120FFF704FF9DE0C6
:10172000B4F1804F08D101210846FFF7EBFE0021FC
:101730000120FFF7E7FE91E0F348844208D1012140
:101740000220FFF7DFFE00210220FFF7DBFE85E02D
:10175000EE48844208D101210420FFF7D3FE002186
:101760000420FFF7CFFE79E0E948844208D1012147
:101770000820FFF7C7FE00210820FFF7C3FE6DE039
:10178000E448844208D101211020FFF7BBFE00216C
:101790001020FFF7B7FE61E0DF48844208D1012145
:1017A0002020FFF7AFFE00212020FFF7ABFE55E021
:1017B000DA48844208D101210220FFF7B4FE00215B
:1017C0000220FFF7B0FE49E0D548844209D101214B
:1017D0000804FFF7A8FE00214FF48030FFF7A3FEB6
:1017E0003CE0D048844209D101214804FFF79BFE28
:1017F00000214FF40030FFF796FE2FE0CA488442E4
:1018000009D101218804FFF78EFE00214FF48020CA
:10181000FFF789FE22E0C548844208D1012140201B
:10182000FFF770FE00214020FFF76CFE16E0C04875
:10183000844208D101218020FFF764FE002180202E
:10184000FFF760FE0AE0BB48844207D10121801502
:10185000FFF758FE0021A015FFF754FE10BD00222F
:101860000288A84B98420ED0AC4B98420BD0B0F1F6
:10187000804F08D0A44B984205D0A44B984202D088
:10188000A34B984204D14FF68F731A404B881A43EA
:10189000A04B984207D0A04B984204D04FF6FF438C
:1018A0001A400B891A4302804B68C3620B88038578
:1018B000944B984202D0994B984201D18B7A03867F
:1018C0000123838270474FF0FF3141600021018086
:1018D00001814180817270470185828270470A468A
:1018E000002101884FF68F73194011430180704722
:1018F00041627047C16270470146486A70470146BD
:10190000088D704721B1028842F00202028004E093
:1019100002884FF6FD731A400280704721B1028899
:1019200042F00402028004E002884FF6FB731A4082
:101930000280704721B1028842F08002028004E0F8
:1019400002884FF67F731A400280704702884FF674
:10195000F7731A40028002880A43028070470288A7
:101960004FF6FF431A40028002880A430280704704
:1019700021B1028842F00102028004E002884FF6A1
:10198000FE731A400280704770B5002400220023C5
:10199000058C4FF6FE7635400584028C8388048BD7
:1019A0004FF68F752C40B51E2C400D882C43751EAC
:1019B0002A408D892A434D882A43524DA84202D09D
:1019C000564DA84213D14FF6F7752A40CD892A43C8
:1019D0004FF6FB752A408D882A434FF6FF652B4052
:1019E0004FF6FF552B400D8A2B434D8A2B438380A6
:1019F00004838D684563028470BD70B500240022A5
:101A00000023058C4FF6EF7635400584028C8388E1
:101A1000048B48F6FF752C404FF6FF452C400D888F
:101A20004FF6FF7606EA05252C434FF6DF752A4070
:101A30008D8906EA05152A434D8806EA05152A43CD
:101A4000304DA84202D0354DA8421DD14FF67F75CA
:101A50002A40CD894FF6FF7606EA05152A434FF650
:101A6000BF752A408D8806EA05152A434FF6FF35D3
:101A70002B404FF2FF752B400D8A06EA85052B435C
:101A80004D8A06EA85052B43838004838D68856330
:101A9000028470BD70B5002400220023058C4FF62F
:101AA000FF6635400584028C8388848B4FF68F75E2
:101AB0002C404FF6FC752C400D882C434FF6FF55FB
:101AC0002A408D894FF6FF7606EA05252A434D8880
:101AD00006EA05252A430B4DA84202D00F4DA84225
:101AE00038D14FF2FF752A40CD894FF6FF7606EACE
:101AF00005252A434FF6FF352A408D8806EA05253D
:101B00002A4319E0000001400004004000080040A2
:101B1000000C004000100040001400400004014090
:101B200000400140004401400048014000180040CE
:101B3000001C0040002000404EF6FF752B404DF683
:101B4000FF752B400D8A06EA05152B434D8A06EAE0
:101B500005152B43838084838D68C563028470BD23
:101B600070B5002200230024058C4EF6FF76354028
:101B70000584038C8488828B48F6FF752A404FF6D3
:101B8000FF452A400D884FF6FF7606EA05252A43D1
:101B90004DF6FF752B408D8906EA05352B434D88A0
:101BA00006EA05352B43FE4DA84202D0FD4DA84262
:101BB00008D14BF6FF752C400D8A4FF6FF7606EAEA
:101BC00085152C43848082838D680564038470BDF1
:101BD000002101804180818081608181C1810182F9
:101BE0004182704770B50346002000241846183023
:101BF00001258D40ACB21D8CA5431D8409B1082977
:101C00000AD100EB610005684FF68F76354005601C
:101C10000568154305600FE00D1FC5F34E05284408
:101C2000056848F6FF763540056005684FF6FF7693
:101C300006EA02263543056070BD41637047816343
:101C40007047C1637047016470470A460021018BE9
:101C50004FF68F7319401143018370470A460021E4
:101C6000018B48F6FF7319404FF6FF7303EA022316
:101C70001943018370470A460021818B4FF68F7309
:101C800019401143818370470A460021818B48F631
:101C9000FF7319404FF6FF7303EA02231943818350
:101CA00070470A460021018B4FF6F7731940114324
:101CB000018370470A460021018B4FF2FF731940E0
:101CC0004FF6FF7303EA02231943018370470A4664
:101CD0000021818B4FF6F7731940114381837047C0
:101CE0000A460021818B4FF2FF7319404FF6FF73B4
:101CF00003EA02231943818370470A460021018BBE
:101D00004FF6FB7319401143018370470A460021C7
:101D1000018B4FF6FF3319404FF6FF7303EA02239E
:101D20001943018370470A460021818B4FF6FB73EC
:101D300019401143818370470A460021818B4FF679
:101D4000FF3319404FF6FF7303EA022319438183DF
:101D500070470A460021018B4FF67F7319401143EB
:101D6000018370470A460021018BC1F30E014FF633
:101D7000FF7303EA02231943018370470A460021D7
:101D8000818B4FF67F7319401143818370470A4658
:101D90000021818BC1F30E014FF6FF7303EA02238A
:101DA0001943818370470A460021018C4FF6FD7369
:101DB00019401143018470470A460021018C4FF6F7
:101DC000F77319401143018470470A460021018CC2
:101DD0004FF6DF7319404FF6FF7303EA02131943FE
:101DE000018470470A460021018C4FF67F73194029
:101DF0004FF6FF7303EA02131943018470470A4642
:101E00000021018C4FF6FF5319404FF6FF7303EA90
:101E100002231943018470470A460021018C4FF2C6
:101E2000FF7319404FF6FF7303EA0223194301843D
:101E300070470A460021018C4DF6FF7319404FF69A
:101E4000FF7303EA023319430184704730B500235E
:101E500001248C40A3B2048C9C430484048C02FAB9
:101E600001F5ADB22C43048430BD30B50023042409
:101E70008C40A3B2048C9C430484048C02FA01F5C8
:101E8000ADB22C43048430BD828B4FF2FF331A4035
:101E90008283828B4FF6FF7303EA01231A43828306
:101EA0007047F0B50C461546002100220026078C2D
:101EB0004EF6FF7C07EA0C070784818B028C4FF6F5
:101EC000FF7707EA043640F6FF4739404FF6FF77C1
:101ED00007EA052739434FF6FF7707EA0337394307
:101EE00045F6FF773A4046F480573A4381830284AF
:101EF000F0BD828B4FF6F3731A408283828B0A43C4
:101F000082837047F0B50C4615460021002200265A
:101F1000078C4FF6FF6C07EA0C070784818B028C55
:101F20004FF6FF7707EA04264FF60C7739404FF655
:101F3000FF7707EA03172F4339434FF2FF573A4021
:101F400046F480773A4381830284F0BD028B4FF2DE
:101F5000FF331A400283028B4FF6FF7303EA01231B
:101F60001A4302837047F0B50C4615460021002243
:101F70000026078C4FF6EF7C07EA0C070784018BDD
:101F8000028C4FF6FF7707EA041640F6FF47394008
:101F90004FF6FF7707EA033739434FF6FF7703E041
:101FA000000001400004014007EA052739434FF6CD
:101FB0005F773A4046F010073A4301830284F0BD50
:101FC000028B4FF6F3731A400283028B0A4302839B
:101FD0007047F0B50C46154600210022068C4FF6DE
:101FE000FE773E400684018B028C4FF60C76314022
:101FF0007E1C06EA03162E4331434FF6F576324037
:1020000044F00106324301830284F0BD70B50546F9
:102010000C46208850B92389A28861882846FFF79A
:10202000D8FFE1882846FFF7CBFF25E02088042869
:102030000AD12389A28861882846FFF794FFE188A6
:102040002846FFF783FF17E0208808280AD1238954
:10205000A28861882846FFF755FFE1882846FFF7E8
:1020600048FF09E02389A28861882846FFF719FF05
:10207000E1882846FFF708FF70BD002101804180FC
:10208000012181800021C180018170472DE9F0414B
:1020900005460C4600260127608808B9022600E0A4
:1020A0000026A088012801D1022700E0012720880E
:1020B000A0B92389A28861882846FFF78AFFE188B2
:1020C0002846FFF77DFF23893A4631462846FFF729
:1020D0004AFFE1882846FFF739FF13E02389A288E9
:1020E00061882846FFF73FFFE1882846FFF72EFF6B
:1020F00023893A4631462846FFF76BFFE188284698
:10210000FFF75EFFBDE8F0810146486B704701466E
:10211000886B70470146C86B70470146086C704772
:102120000A884B881A438B881A43CB881A430B8939
:102130001A434B891A438B891A43A0F844207047ED
:102140000021018041808180C180018141818181A4
:10215000704731B1B0F8442042F40042A0F8442066
:1021600005E0B0F84420C2F30E02A0F84420704706
:1021700021B1828842F00402828004E082884FF616
:10218000FB731A408280704721B1828842F00102BD
:10219000828004E082884FF6FE731A408280704786
:1021A0001AB183890B43838102E083898B43838146
:1021B00070478182704702460020138A0B400BB1A2
:1021C000012000E000207047CA430282704730B50A
:1021D0000246002000230024158A05EA01039589A0
:1021E00005EA010413B10CB1012000E0002030BD6C
:1021F000CA430282704741EA0203A0F848307047A0
:102200001AB183890B43838102E083898B438381E5
:10221000704721B1828842F00802828004E08288FF
:102220004FF6F7731A408280704701894FF6F872B3
:102230001140018170470A46002101894FF68F73D2
:10224000194011430181704730B504460D462946B7
:102250002046FFF7F0FF208940F00700208130BDC5
:102260002DE9F04104460D4616461F46602D06D165
:102270003B46012231462046FFF775FE05E03B460E
:10228000012231462046FFF7A4FE29462046FFF7EB
:10229000D2FF208940F007002081BDE8F08130B5F1
:1022A0000C4600210189C9B24FF6FF7505EA0325E6
:1022B000154325432943018130BD2DE9F0410546F1
:1022C0000E4617469846002443463A46314628466D
:1022D000FFF7E5FF2C894FF6F870044044F007043F
:1022E0004FF68F70044044F070042C81BDE8F081FB
:1022F000F0B504460D4616461F463B463246294673
:102300002046FFF7CCFF208940F480402081F0BDBB
:1023100082884FF68F731A40828082880A438280B7
:10232000704702894FF6F8731A40028102890A4306
:102330000281704702894FF67F731A400281028939
:102340000A4302817047F0B50C4615461E4600212F
:10235000002200230189028B038C4FF6F877394065
:1023600021434FF6FC473A4040F201173A434FF6FB
:10237000DD773B404FF6FF7707EA06172F433B43D5
:10238000018102830384F0BD21B1828842F0800282
:10239000828004E082884FF67F731A408280704703
:1023A000A0F850107047000010B50446FA48844267
:1023B00008D101211020FFF7B6F800211020FFF707
:1023C000B2F857E0F548844209D101214804FFF7EB
:1023D00099F800214FF40030FFF794F84AE0F048F4
:1023E000844209D101218804FFF78CF800214FF4C1
:1023F0008020FFF787F83DE0EA48844209D10121B7
:10240000C804FFF77FF800214FF40020FFF77AF8A7
:1024100030E0E548844209D101210805FFF772F850
:1024200000214FF48010FFF76DF823E0DF4884426D
:1024300008D101212020FFF776F800212020FFF7A6
:1024400072F817E0DA48844209D101218807FFF7C2
:1024500059F800214FF08040FFF754F80AE0D548C2
:10246000844207D101214005FFF74CF800216005A7
:10247000FFF748F810BD2DE9FF4705460E4600243A
:10248000A14600BFA046B08900B100BF2C8A24F449
:102490004054F08804432C82AC8941F20C608443A0
:1024A000B08831890843718908430443AC81AC8A00
:1024B00024F44074B0890443AC826846FEF7B3FE4E
:1024C000B548854202D0B948854202D1DDF80C906A
:1024D00001E0DDF80890A88900F4004040B109EB64
:1024E000C90000EB091031684900B0FBF1F707E0C3
:1024F00009EBC90000EB091031688900B0FBF1F766
:102500006420B7FBF0F004012009642101FB10787E
:10251000A88900F4004040B1322000EBC800B0FBB5
:10252000F1F000F00700044308E0322000EB08104F
:102530006421B0FBF1F000F00F0004432C81BDE8F2
:10254000FF874FF41651016000218180C180018115
:102550000C21418100218181704710B50246002085
:10256000108A20F470600B884C8823438C882343A6
:10257000CC8823431843108210BD00210180418084
:102580008180C180704721B1828942F400528281EA
:1025900004E082894DF6FF731A4082817047028BF6
:1025A00002F47F420283028B0A430283704721B107
:1025B000828942F40042828103E08289C2F30E02E2
:1025C0008281704721B1828A42F40062828204E0F3
:1025D000828A4FF2FF731A4082827047C1F3080269
:1025E0008280704701468888C0F308007047028ADD
:1025F0004FF6F0731A400282028A0A430282704741
:1026000021B1828942F00202828104E082894FF680
:10261000FD731A408281704782894FF2FF731A401E
:10262000828182890A4382817047028A4FF6DF7372
:102630001A400282028A0A430282704721B1028A4A
:1026400042F48042028204E0028A4BF6FF731A4091
:1026500002827047818941F001018181704721B177
:10266000828A42F00802828204E0828A4FF6F7737F
:102670001A4082827047028BD2B20283028B42EAF6
:1026800001220283704721B1828A42F020028282B5
:1026900004E0828A4FF6DF731A408282704721B1CC
:1026A000828A42F01002828204E0828A4FF6EF733F
:1026B0001A4082827047828A4FF6FB731A408282E8
:1026C000828A0A438282704721B1828A42F00202E2
:1026D000828204E0828A4FF6FD731A40828270473C
:1026E0001AB1838A0B43838202E0838A8B438382FD
:1026F0007047F0B50346002400260025002040F670
:102700006A17B94200D100BF1846C1F3421401F064
:102710001F06012707FA06F5012C01D10C3004E051
:10272000022C01D1103000E014301AB107682F4399
:10273000076002E00768AF430760F0BD0246002073
:10274000B1F5007F00D100BF13880B400BB1012011
:1027500000E00020704701F40072B2F5007F00D164
:1027600000BFCA430280704770B5024600240023B0
:102770000025002040F66A16B14200D100BFC1F327
:10278000421501F01F03012606FA03F3012D13D1B0
:102790009689334017E000000010014000440040DB
:1027A00000480040004C0040005000400014014030
:1027B00000780040007C0040022D02D1168A334090
:1027C00001E0968A33400C12012606FA04F41688BA
:1027D000344013B10CB1012000E0002070BD10B5F1
:1027E0000022002340F66A14A14200D100BF0A1261
:1027F00001249440A3B2DC43048010BD10B504460C
:102800006FF00400FDF72EFFE11704EB5171C1F3E7
:10281000C701394A11701046007800EB4001C1EB46
:10282000C0104FF6FF7101EAC0003449088010BDA6
:102830000146314A12784A434FF0E0235A610022A0
:102840009A611A46126942F001021A6100BF4FF004
:10285000E022106900F001021AB100F48032002A6F
:10286000F5D04FF0E022126922F001024FF0E02390
:102870001A6100229A6170470146204A12884A4331
:102880004FF0E0235A6100229A611A46126942F021
:1028900001021A6100BF4FF0E022106900F001024E
:1028A0001AB100F48032002AF5D04FF0E02212690C
:1028B00022F001024FF0E0231A6100229A61704772
:1028C00070B504464FF4077094FBF0F0C6B24FF4B5
:1028D000077094FBF0F100FB114085B205E04FF466
:1028E0000770FFF7C9FF701EC6B2002EF7D115B1F1
:1028F0002846FFF7C1FF70BD7C0000207E0000204D
:10290000014600BF704700BF244A128802F040020F
:10291000002AF9D0C2B2214B9A80704710B586B018
:10292000044601210846FEF74FFD01211020FEF765
:10293000A5FD072209211A48FEF77DFA07220A2180
:102940001748FEF778FA4FF4C060049002208DF823
:1029500014008DF8150000208DF8160001208DF868
:10296000170004A90E48FEF7DBF900940020ADF82B
:102970000400ADF80600ADF80800ADF80C000C201E
:10298000ADF80A0069460548FFF775FD01210348C7
:10299000FFF7F9FD06B010BD7047000000100140C0
:1029A0000000024000B58DB001210220FEF70CFDB1
:1029B00001210802FEF762FD02200B9003208DF832
:1029C000300000208DF833000BA93948FEF7A8F934
:1029D00001210802FEF7A7FD00214FF48070FEF7E9
:1029E000A2FD002007900A9009904FF480300890D3
:1029F00007A8FDF78FFE002001908DF808008DF8E4
:102A000009000390059001208DF8180001A92948BC
:102A1000FDF751FE01212748FDF793FE0DB000BDE3
:102A200010B504460723012221462248FDF7C9FEBE
:102A30002048FDF722FF00BF02211E48FEF73EF8A6
:102A40000028F9D01B48FDF754FF10BD70B52DEDDF
:102A50000A8B0920FFF7E4FF054606F036FC41EC3F
:102A60001C0B9FED150B53EC102B06F041FC41ECB9
:102A70001B0B9FED130B53EC102B06F039FC41ECB4
:102A80001A0B9FED110B53EC102B06F031FC41ECAF
:102A9000190B9FED0F0B53EC102B06F08FFA41EC46
:102AA000180B06F0E3FB04462046BDEC0A8B70BD14
:102AB00000040240002001406666666666660A40C1
:102AC0000000000000002640000000000000594007
:102AD000000000000000B04000B589B001210846A8
:102AE000FEF7BBFC01210846FEF76EFC03200190B7
:102AF0008DF8090002208DF8080001208DF80A00E9
:102B00008DF80B0001A98448FEF70AF90122002183
:102B10008148FEF790F9012211467F48FEF78BF9B4
:102B200006A8FEF7D0FE0020ADF818004FF6FF70A3
:102B300007900020ADF82000ADF81A0006A94FF06C
:102B40008040FEF78CFE00231A4603214FF08040A0
:102B5000FFF7F9FB03A8FFF790FA0020ADF8140087
:102B600003A94FF08040FFF751FA01218807FFF7D2
:102B70002BFB012211469007FFF712FB674890EDEF
:102B8000000AF7EE000AB4EE600AF1EE10FA05D181
:102B900042F210718806FEF7ABFE04E000214FF010
:102BA0008040FEF7A5FE01218807FEF7E1FE09B08F
:102BB00000BD00B589B001210420FEF74EFC0121C3
:102BC0000220FEF701FCC020019003208DF80900CF
:102BD00002208DF8080001208DF80A008DF80B0006
:102BE00001A94F48FEF79CF8022206214C48FEF747
:102BF00022F9022207214A48FEF71DF906A8FEF72E
:102C000062FE0020ADF818004FF6FF70079000201C
:102C1000ADF82000ADF81A0006A94248FEF71FFEE5
:102C200000231A4603213F48FFF78DFB03A8FFF757
:102C300024FA0020ADF8140003A93A48FFF7E6F99A
:102C400001213848FFF7C0FA012211463548FFF745
:102C5000A7FA42F210713348FEF74AFE01213148CB
:102C6000FEF786FE09B000BD0146022904D0032903
:102C70000BD0042919D10FE04FF08042526A10B2F4
:102C800000224FF080435A6211E0274A126810B2C6
:102C90000022254B1A600AE0224A2432126810B240
:102CA0000022204B24331A6001E0002000BF00BF47
:102CB00070470146022904D0032907D004290ED108
:102CC00008E04FF08042526A10B20AE0164A1268D9
:102CD00010B206E0134A2432126810B201E000205C
:102CE00000BF00BF70470F48103000880D481030FB
:102CF000008820F001000B491031088070474FF028
:102D00008040008A4FF08040008A20F001004FF0A0
:102D10008041088270470000000002404800002007
:102D200000040240000800402404004000B585B0C3
:102D300001210220FEF748FB4FF4004000900020E4
:102D40008DF8040003208DF8050001208DF80700A0
:102D500069461448FDF7E4FF01218803FEF78EFB66
:102D60000F210120FEF795FC4FF400400290002057
:102D70008DF80C000C208DF80D0001208DF80E0050
:102D800002A8FDF7CDFE28208DF8100001208DF857
:102D900011008DF812008DF8130004A8FDF715FC42
:102DA00005B000BD000402401CB501210220FEF761
:102DB0000BFB4FF48040009000208DF804000320AE
:102DC0008DF8050001208DF8070069464B48FDF796
:102DD000A7FF1CBD01464A48006828B94948008839
:102DE000401C484A108002E00020464A10804448B7
:102DF000006828B94448007810B90120424A107090
:102E000042480078B0B940480078012807D14048CE
:102E10000078401C3E4A107001203C4A10703C482B
:102E20000078022806D10020394A1070394A1080F3
:102E30000220704732480068012804D10020324A3D
:102E40001070324A10703248007801281CD1314885
:102E50000088401C2F4A10801046008888420ADDF6
:102E600028480088884206DA0020294A1070294A3A
:102E700010800120DDE723480088884204DD00201F
:102E8000234A1070234A10800020D2E7224800789D
:102E900038B11B48006820B900201F490870012084
:102EA000704717480068012801D11B4908700020AD
:102EB000F6E71A48008840B91148006828B9184850
:102EC0000088401C1649088002E000201449088050
:102ED00013480088C82807DD012010490880002019
:102EE0000F490880012070470C480088012802D152
:102EF00000200A4908800020F5E700000004024095
:102F0000388240428A000020840000208500002092
:102F100086000020880000208C0000209000002007
:102F20008E0000201CB501210220FEF74DFA4FF45F
:102F30000050009001208DF8040000208DF806005C
:102F400003208DF8050001208DF8070069460F4821
:102F5000FDF7E6FE4FF400510C48FDF75DFF1CBD88
:102F600018B900210A4A11600FE00A490968491C92
:102F7000084A1160814208D105490968C943064AD7
:102F8000C2F8B4120021034A1160704700040240E5
:102F9000B482404294000020008040421CB50121D0
:102FA0000320FEF711FA3020009001208DF8040074
:102FB00000208DF8060003208DF8050001208DF813
:102FC000070069463E48FDF7ABFE30213C48FDF75F
:102FD00023FF4FF41040009001208DF804000020E2
:102FE0008DF8060003208DF8050001208DF80700FC
:102FF00069463448FDF794FE4FF410413148FDF71F
:103000000BFF1CBD30B58BB004460D4601210846B0
:10301000FEF734FA01210846FEF7D6F9012208210D
:103020002848FDF708FF01220B212648FDF703FF82
:103030004FF41060099002208DF8280003208DF8CD
:10304000290000208DF82A0001208DF82B0009A905
:103050001C48FDF765FEADF818500020ADF81A00C9
:103060000794ADF8200006A91748FEF7F8FB70207A
:10307000ADF804000120ADF806000220ADF8100004
:1030800001A91148FEF780FC01A90F48FEF768FD71
:1030900001210D48FFF75DF808210B48FEF701FEFE
:1030A00008210948FEF71CFE01210748FEF742FCF3
:1030B00001210548FEF75CFCFFF770FF0BB030BD47
:1030C00000040240000002400000014010B50A4622
:1030D0001AB10123FE4C236002E00023FC4C236064
:1030E000002116E00023FA4C3434236000F0800302
:1030F0001BB10123241D236003E00023F44C38346A
:1031000023600123F24C343423604306180E4B1C19
:10311000D9B20829E6DB0123ED4C236010BD30B5A0
:1031200000241CE004F1B001C8B20021FFF7CEFF7B
:1031300000210846FFF7CAFF00211020FFF7C6FF55
:10314000002508E0E34901EBC501085D0121FFF717
:10315000BDFF681CC5B2802DF4DB601CC4B2082C16
:10316000E0DB30BD00B500218D20FFF7AFFF00216F
:103170001420FFF7ABFF0021AF20FFF7A7FF00BD32
:1031800000B500218D20FFF7A1FF00211020FFF7DF
:103190009DFF0021AE20FFF799FF00BD30B5002450
:1031A0000CE0002506E00020CA4901EBC5010855E6
:1031B000681CC5B2802DF6DB601CC4B2082CF0DBA5
:1031C000FFF7ADFF30BDF0B5144600267F2801DCC7
:1031D0003F2900DDF0BD0B46CF1701EB5777FF10FD
:1031E000C7F10707FAB2CF1701EB5777FF10A1EB32
:1031F000C707FDB2C5F107070123BB40DEB24CB1E2
:10320000B44B03EBC0039B5C3343B24F07EBC007E7
:10321000BB5408E0AF4B03EBC0039B5CB343AD4F23
:1032200007EBC007BB5400BFD4E72DE9F04F804641
:103230000C4615461E46A346A5F12000C5B2002740
:103240003EE00C2E07D105EB4500A34901EB8000C1
:1032500010F8079004E0A14800EB051010F8079063
:103260004FF0000A26E009F0800028B121464046D0
:10327000099AFFF7A8FF09E0099808B9012000E0C2
:103280000020024621464046FFF79DFF4FEA496075
:103290004FEA1069601CC4B2A4EB0B00B04205D128
:1032A0005C4608F1010000F0FF0806E00AF10100A9
:1032B00000F0FF0ABAF1080FD5DB00BF781CC7B2D7
:1032C000B742BEDBBDE8F08F10B50246012000E03A
:1032D00050430B00A1F10104E1B2F9D110BD2DE979
:1032E000FF4F81B0074691461E460E9D4FF0000AE3
:1032F000002439E0301B401EC1B20A20FFF7E4FF72
:10330000B9FBF0F00A21B0FBF1F201FB1208BAF1AF
:10331000000F16D1701EA04213DDB8F1000F0ED1C0
:103320000120AB4605EBDB71491001FB04710090F5
:10333000C8B22B4620220299FFF777FF12E04FF028
:10334000010A0120AB4605EBDB71491001FB04715A
:103350000090C8B208F13001CAB22B460299FFF7BB
:1033600064FF00BF601CC4B2B442C3DB05B0BDE85B
:10337000F08F78B505460E46144618E07A2D03DD29
:10338000002506F11000C6B23A2E04DD00200546E5
:103390000646FFF703FF0120009022780C233146F8
:1033A0002846FFF742FF05F10800C5B2641C2078EB
:1033B0000028E3D178BD1CB501210420FEF704F8F4
:1033C00001210807FEF749F80120FDF778FD0020EC
:1033D000FDF797FE4EF20100009001208DF80400E9
:1033E00000208DF806008DF805008DF8070069466D
:1033F0003B48FDF795FC012039491A31088040030C
:1034000008804000088040000880002030493C319E
:1034100008606420FFF754FA01203249C1F8BC0269
:103420000021AE20FFF752FE0021D520FFF74EFE0F
:1034300000215020FFF74AFE0021A820FFF746FE9A
:1034400000213F20FFF742FE0021D320FFF73EFE80
:1034500000210846FFF73AFE00214020FFF736FE24
:1034600000218D20FFF732FE00211420FFF72EFEF1
:1034700000212020FFF72AFE00210220FFF726FE70
:103480000021A120FFF722FE0021C020FFF71EFE31
:103490000021DA20FFF71AFE00211220FFF716FEA6
:1034A00000218120FFF712FE0021EF20FFF70EFE22
:1034B0000021D920FFF70AFE0021F120FFF706FEC8
:1034C0000021DB20FFF702FE002130200CE000008D
:1034D000800241424C01002066990008DA9D0008F4
:1034E0000008024000004142FFF7F0FD0021A42047
:1034F000FFF7ECFD0021A620FFF7E8FD0021AF203B
:10350000FFF7E4FDFFF74AFE1CBD00001CB50121DA
:103510000220FDF759FF4FF44060009001208DF824
:10352000040000208DF8060003208DF8050001201E
:103530008DF807006946F848FDF7F2FB0120F749CE
:103540000860F749C1F8AC021CBD10B5F24800682C
:1035500020F44000F04908600846006840F480000C
:1035600008600120ED49091D0860ED48D0F82C02E3
:1035700008B9002010BD0120E8490860FFF758F99C
:103580000020E749C1F8AC02E4487C38006808B183
:103590000020EFE70120FFF74BF90020DF4908602A
:1035A0000120E7E710B5DC48006820F44000DA4964
:1035B00008600846006840F4800008600020D74991
:1035C0000860D749C1F8AC020120FFF731F90120AA
:1035D000D2490860D249C1F8AC02FFF729F910BD01
:1035E00010B50024CC48006820F44000CA490860A7
:1035F0000846006808600120C849091D0860FFF7F7
:1036000017F90120C649C1F8A802FFF711F90AE02D
:10361000601CC4B2322C03DDFFF7C4FF002010BDD4
:103620000120FFF705F9BD487C3800680028EFD17C
:10363000BA4908600120F2E710B50020B7490860D8
:10364000B548006820F44000B349086008460068A7
:1036500040F4800008600020B149C1F8AC020120AC
:10366000FFF7E6F80120AD490860FFF7E1F8002018
:10367000AB49C1F8A80210BD10B50020A7490860E9
:10368000A548006820F44000A34908600846006887
:1036900040F4800008600120A149C1F8AC02FFF7A6
:1036A000C7F801209D490860FFF7C2F800209C4937
:1036B000C1F8A80210BD70B504469748006820F410
:1036C0004000954908600846006840F480000860A2
:1036D000002092490860002516E0E0098F49091D85
:1036E00008606006040E0120FFF7A2F801208C4953
:1036F000C1F8A802FFF79CF8002088490860012063
:10370000FFF796F8681CC5B2082DE6DB70BD2DE901
:10371000F04105460E4617469846FFF716FF10B9CA
:103720000120BDE8F0816906080EFFF7C4FFFFF72E
:1037300057FF18B9FFF736FF0120F2E73046FFF7D1
:10374000BAFFFFF74DFF00240BE018F80400FFF765
:10375000B2FFFFF745FF18B9FFF724FF0020E0E7AD
:10376000641CBC42F1DBFFF71DFF0020D9E770B5F8
:10377000054600246848006820F440006649086057
:10378000084600680860002616E0002063490860CB
:103790000220FFF74DF801206149C1F8A802600638
:1037A000040E5E487C38006808B1601CC4B2022078
:1037B000FFF73EF8701CC6B2082EE6DB15B1FFF726
:1037C0003BFF01E0FFF758FF204670BD2DE9F041B7
:1037D00006460F4614461D46FFF7B7FE10B90120F6
:1037E000BDE8F0817106080EFFF765FFFFF7F8FEF0
:1037F00018B9FFF7D7FE0120F2E73846FFF75BFF65
:10380000FFF7EEFEFFF7A1FE012101EB4601C8B272
:10381000FFF751FFFFF7E4FE0DE0012C04D100207B
:10382000FFF7A5FF287003E00120FFF7A0FF287035
:103830006D1C601EC4B2002CEFD1FFF7B3FE002058
:10384000CEE770B505460E460024FFF77EFE2846FB
:10385000FFF731FF641CFFF7C3FE3046FFF72BFF75
:10386000641CFFF7BDFEFFF770FE691CC8B2FFF7CE
:1038700022FF641CFFF7B4FE0020FFF778FF044628
:10388000FFF790FE204670BD2DE9F04107468846BF
:1038900015461E460024FFF758FE3846FFF70BFF7B
:1038A000FFF79EFE4046FFF706FFFFF799FEFFF782
:1038B0004CFE791CC8B2FFF7FEFEFFF791FE00BF79
:1038C0000DE0681EA04204D00120FFF750FF3055E4
:1038D00003E00020FFF74BFF3055601CC4B2AC4240
:1038E000EFDBFFF75FFE2046BDE8F0812DE9F041F8
:1038F00080460D4616461F460024FFF726FE40462A
:10390000FFF7D9FEFFF76CFE2846FFF7D4FEFFF75E
:1039100067FE00BF0DE0000000040240A8824042A4
:1039200000804042385DFFF7C6FEFFF759FE601C7D
:10393000C4B2B442F6DBFFF735FE0120BDE8F081EA
:1039400070B505460E46144631462846FFF779FF06
:103950002070012070BD37B504460D4602AB012230
:1039600029462046FFF7C2FF3EBD2DE9F843074632
:10397000884614461D46089E6A4641463846FFF76B
:10398000DFFF28B3601CFF2101FA00F0C4F1080139
:103990002944491EFF220A41104300F0FF09C5F1E6
:1039A000080006FA00F0C6B2C4F1070006419DF80F
:1039B000000000EA090000909DF8000030430090EC
:1039C0009DF8002041463846FFF7C5FFBDE8F88363
:1039D0000020FBE7F8B506460F4614461D466A462A
:1039E00039463046FFF7ACFF2DB10120A0409DF8CD
:1039F0000010084305E00120A0409DF8001021EAD6
:103A00000000C0B200909DF8002039463046FFF714
:103A1000A2FFF8BD0146002901DA484200E008464D
:103A2000704700B503460A460020FA490860FA4983
:103A3000C1F8BC02F9490864002A07DAF549091FF0
:103A400008600120F449C1F8B00207E00120F14903
:103A5000091F08600020F049C1F8B0021046FFF7C6
:103A6000D9FFEE49486300BD0146DFEDED0AB4EE33
:103A7000E00AF1EE10FA0AD3DFEDEA0AB4EEE00A4A
:103A8000F1EE10FA03DC40F2564291420DDA0120C9
:103A90000022E04B1A60E04BC3F8BC22DD4B1B1F39
:103AA0001A60DD4BC3F8B02200E00020704741F6F9
:103AB000F420DD4909684242914202DA4142DA4A81
:103AC0001160D9490968814201DDD7490860704712
:103AD0002DE9F0414FF4C3760A276420FFF77AF905
:103AE0000446D24890ED000AF7EE000AB4EE600AF0
:103AF000F1EE10FA0ED1012C04D1CD48006830440B
:103B0000CB490860022C13D1C9480068801BC84902
:103B100008600DE0012C04D1C64800683844C5494E
:103B20000860022C04D1C3480068C01BC14908606A
:103B3000C0480068462802DD4620BE490860BD48EE
:103B40000068002802DA0020BA490860B74890ED02
:103B5000000AF7EE000AB4EE600AF1EE10FA03D1A3
:103B60000320B549087002E00220B3490870FFF74E
:103B7000A0F90546012D1AD1B04890ED000AF7EEE4
:103B8000000A30EE200A80ED000AD0ED000AAA48B3
:103B9000007800EE100AB8EE400AF4EEC00AF1EE2A
:103BA00010FA04DDB7EE000AA44880ED000ABDE873
:103BB000F08110B50446012C09D101F088F9A04824
:103BC00090ED000AB1EE400A9E4880ED000A10BD5B
:103BD000964991ED000AF7EE000AB4EE600AF1EEA4
:103BE00010FA71D110F1030F40DA944991ED000AF7
:103BF000F7EE000AB4EE600AF1EE10FA0BD192492A
:103C000091ED000A9149D1ED000A30EE600A8E492B
:103C100081ED000A2AE0894991ED000AF0EE000AE0
:103C2000B4EE600AF1EE10FA0BD1894991ED000A69
:103C30008849D1ED000A30EE600A854981ED000A1D
:103C400014E07E4991ED000AF0EE080AB4EE600A35
:103C5000F1EE10FA0AD1804991ED000A7F49D1EDC9
:103C6000000A30EE600A7C4981ED000A032814DD69
:103C7000724991ED000AF7EE000AB4EE600AF1EE27
:103C800010FA0BD1704991ED000A7049D1ED000A8C
:103C900030EE200A6C4981ED000A87E0674991ED1A
:103CA000000AF0EE000AB4EE600AF1EE10FA0CD150
:103CB000674991ED000A6749D1ED000A30EE200A0C
:103CC000634981ED000A71E015E05C4991ED000A5D
:103CD000F0EE080AB4EE600AF1EE10FA66D15E4921
:103CE00091ED000A5D49D1ED000A30EE200A5A49F3
:103CF00081ED000A5AE010F1030F2ADA4F4991EDE5
:103D0000000AF7EE000AB4EE600AF1EE10FA0BD1E9
:103D1000534991ED000A5349D1ED000A30EE600A93
:103D20004F4981ED000A14E0444991ED000AF0EE9C
:103D3000000AB4EE600AF1EE10FA0AD14A4991ED98
:103D4000000A4A49D1ED000A30EE600A464981ED89
:103D5000000A03282ADD394991ED000AF7EE000A2E
:103D6000B4EE600AF1EE10FA0BD13D4991ED000A74
:103D70003C49D1ED000A30EE200A394981ED000AB4
:103D800014E02E4991ED000AF0EE000AB4EE600A4C
:103D9000F1EE10FA0AD1344991ED000A3349D1ED20
:103DA000000A30EE200A304981ED000A70470246D1
:103DB000501A00EE100AB8EEC00A2D4880ED000A35
:103DC00090ED000A2B48D0ED000A30EE600A24483E
:103DD000D0ED000A20EE200A2348D0ED000A244846
:103DE00090ED001A00EE810A2348D0ED000A30EE73
:103DF000200A80ED000A1E4890ED000A1D4880ED63
:103E0000000A1D4890ED000ABDEEC00A10EE100A2F
:103E10007047000094824042000040420000014090
:103E2000000020C2000020421800002048000020AE
:103E30001000002014000020C00000204C000020D2
:103E4000FC00002050000020200000203400002052
:103E50002400002038000020280000203C00002022
:103E60002C000020400000203000002044000020F2
:103E7000C4000020CC000020C80000200246501AD8
:103E800000EE100AB8EEC00A874880ED000A8748A5
:103E900090ED000A8448D0ED000A30EE200A8348F5
:103EA00080ED000A90ED000ADFED810AB4EEE00A31
:103EB000F1EE10FA03DD9FED7E0A80ED000A7B48EB
:103EC00090ED000ADFED7B0AB4EEE00AF1EE10FAA5
:103ED00003D29FED780A80ED000A774890ED000A42
:103EE0007248D0ED000A60EE200AB2EE041A80EEAD
:103EF000810A7248D0ED000A6B4890ED001A00EE7E
:103F0000810AD0ED000A6E4890ED001A70EEC10AE9
:103F10006C4890ED001A01EE200A6B4880ED000A13
:103F2000614890ED000A664880ED000A664890ED11
:103F3000000ABDEEC00A10EE100A704710B56348C3
:103F4000006800287ED14FF4004061490860614854
:103F5000007808B9012000E000205E4908705E4842
:103F6000007801280BD15D480078401CC0B25B4945
:103F700008700A2803D10020087057490870584873
:103F800001680068401C564A1060B1F5967F4FD911
:103F90005048007820B90120FFF70BFE002010BD2B
:103FA000504890ED000AF7EE000AB4EE600AF1EE18
:103FB00010FA0DD10220FEF77CFE4B4908604B48F9
:103FC000016849480068FFF759FF494908601CE04B
:103FD00048480078401CC0B246490870022814DDE9
:103FE000012008700220FEF73FFE3F4908600846A6
:103FF0000068002801DA002008603F4801683A485C
:104000000068FFF7D4FE3A4908600420FEF72CFE52
:1040100040423A4908603A480068401C3849086004
:10402000142805DD0020086034480068FFF7D0FD43
:10403000FEF70CFD3349086033480068401C3249E4
:10404000086000E02DE0314800682E490968084406
:104050002E4908602C48006864280BD10846006887
:10406000642190FBF1F02A4908600020274908608C
:10407000254908600120FFF79CFD6420FEF770FFD2
:10408000FFF726FDFFF713FD21480068214991ED58
:10409000000AFFF7E9FC20B9154801680020FFF786
:1040A000C0FC00207BE70000D0000020D8000020EA
:1040B0000050C3470050C3C7240000202000002048
:1040C000DC00002028000020D40000203C82404278
:1040D000143C0140A8000020020000200100002044
:1040E000AC00002048000020080000201000002044
:1040F0001800002098000020140000200C00002070
:10410000BC000020B0000020B4000020B800002057
:104110001C0000205000002030B503461C788C5451
:104120005D78541C0D559D78941C0D55DD78D41C7C
:104130000D5530BD11B52DED020B04460A2C00DCE7
:1041400004B91EBD0B2C43D2DFE804F042060C126A
:10415000181E242A30363C00012244496846FFF7E5
:10416000DBFF35E0052241496846FFF7D5FF2FE028
:1041700009223E496846FFF7CFFF29E00D223B495F
:104180006846FFF7C9FF23E0112238496846FFF768
:10419000C3FF1DE0152235496846FFF7BDFF17E054
:1041A000192232496846FFF7B7FF11E01D222F4957
:1041B0006846FFF7B1FF0BE021222C496846FFF764
:1041C000ABFF05E0252229496846FFF7A5FF00BFA0
:1041D00000BF00BFB5E701460A2900DC09B900208D
:1041E00070472420214A10700B293CD2DFE801F0EF
:1041F0003B060B10151A1F24292F350005201B4ADA
:1042000050710620ECE70920184A50720A20E7E7AF
:104210000D20164A50730E20E2E71120134A507405
:104220001220DDE71520114A50751620D8E7192015
:104230000E4A50761A20D3E71D200C4A50771E20D4
:10424000CEE72120094A82F821002220C8E7252054
:10425000064A82F825002620C2E72920034A82F870
:1042600029002A20BCE70020BAE700004C05002006
:1042700038B5FE4890ED000AF7EE000AB4EE600A89
:10428000F1EE10FA7ED1FAA200210846FFF771F88C
:10429000FB48007828B9FBA20A210020FFF769F843
:1042A00004E0FBA20A210020FFF763F8FBA214211F
:1042B0000020FFF75EF80C2003230090F84890EDF3
:1042C000000ABCEEC00A10EE102A14210846FFF7BF
:1042D00006F8F4A214212520FFF74BF8F04890EDE2
:1042E000000AF2EE040A20EE200ABDEEC00A10EE2B
:1042F000100A0A2190FBF1F201FB12040C200123A9
:104300002246142100902920FEF7E9FFE6A214219D
:104310004B20FFF72EF80C2002230090E34890ED8D
:10432000000ABCEEC00A10EE102A14215C20FEF731
:10433000D6FFDCA214216820FFF71BF8DB4890EDC4
:10434000000AF2EE040A20EE200ABDEEC00A10EECA
:10435000100A0A2190FBF1F201FB12040C20012348
:104360002246142100906F20FEF7B9FFD0A21E2133
:104370000020FEF7FEFF0C2003230090CD4890EDB7
:10438000000A00E039E1BCEEC00A10EE102A1E213E
:104390001420FEF7A4FFC3A21E212520FEF7E9FF8B
:1043A000C44890ED000AF2EE040A20EE200ABDEEA9
:1043B000C00A10EE100A0A2190FBF1F201FB120470
:1043C0000C20012322461E2100902920FEF787FFA2
:1043D000B5A21E214B20FEF7CCFF0C20022300903B
:1043E000B54890ED000ABCEEC00A10EE102A1E215E
:1043F0005C20FEF774FFABA21E216820FEF7B9FF18
:10440000AD4890ED000AF2EE040A20EE200ABDEE5F
:10441000C00A10EE100A0A2190FBF1F201FB12040F
:104420000C20012322461E2100906F20FEF757FF2B
:10443000A2A228210020FEF79CFF0C20032300905D
:104440009F4890ED000ABCEEC00A10EE102A282109
:104450001420FEF744FF93A228212520FEF789FFB0
:10446000974890ED000AF2EE040A20EE200ABDEE15
:10447000C00A10EE100A0A2190FBF1F201FB1204AF
:104480000C2001232246282100902920FEF727FF37
:1044900085A228214B20FEF76CFF0C200223009000
:1044A000884890ED000ABCEEC00A10EE102A2821C0
:1044B0005C20FEF714FF7BA228216820FEF759FF3D
:1044C000804890ED000AF2EE040A20EE200ABDEECC
:1044D000C00A10EE100A0A2190FBF1F201FB12044F
:1044E0000C2001232246282100906F20FEF7F7FEC2
:1044F000754890ED000AF7EE000AB4EE600AF1EE9E
:1045000010FA18D101200C235922142100903C20CC
:10451000FEF78BFE01200C234E221E2100903C2032
:10452000FEF783FE01200C234E22282100903C2020
:10453000FEF77BFE44E0644890ED000AF0EE000ACE
:10454000B4EE600AF1EE10FA18D101200C234E22CD
:10455000142100903C20FEF768FE01200C23592214
:104560001E2100903C20FEF760FE01200C234E220D
:10457000282100903C20FEF758FE21E0524890EDA3
:10458000000AF0EE080AB4EE600AF1EE10FA17D154
:1045900001200C234E22142100903C20FEF745FE02
:1045A00001200C234E221E2100903C20FEF73DFEF0
:1045B00001200C235922282100903C20FEF735FED3
:1045C00042A232210020FEF7D4FE0C2005230090E9
:1045D0003F48322102680F20FEF781FE3DA23221C2
:1045E0005020FEF7C6FE0C20052300903A483221E9
:1045F00002685F20FEF773FE70E138A200210846D2
:10460000FEF7B7FE1E48007828B91EA20A21002036
:10461000FEF7AFFE04E01EA20A210020FEF7A9FE6D
:104620001EA214210020FEF7A4FE0C2003230090FC
:104630002E4890ED000ABCEEC00A10EE102A14219C
:104640000846FEF74CFE17A214212520FEF791FE26
:10465000264890ED000AF2EE040A20EE200ABDEE94
:10466000C00A10EE100A0A2142E0000048000020B3
:10467000504F534954494F4E204D4F444500000080
:10468000000000204D4F544F5220535441525400CB
:104690004D4F544F5220434C4F5345004B503A001E
:1046A000200000202E000000413A000034000020CD
:1046B0004B493A0024000020380000204B443A00C7
:1046C000280000203C0000204C000020543A00004C
:1046D00010000020503A00000800002056454C4FC2
:1046E00043495459204D4F44450000002C00002000
:1046F00090FBF1F201FB12040C200123224614214D
:1047000000902920FEF7EBFDAFF264021421552042
:10471000FEF72FFE0C2001230090AA4890ED000A1E
:10472000BCEEC00A10EE102A14216220FEF7D7FD5D
:10473000AFF2900214216820FEF71BFEA14890ED15
:10474000000AF2EE040A20EE200ABDEEC00A10EEC6
:10475000100A0A2190FBF1F201FB12040C20012344
:104760002246142100906F20FEF7B9FDAFF2C0027F
:104770001E210020FEF7FDFD0C200323009092482F
:1047800090ED000ABCEEC00A10EE102A1E21142083
:10479000FEF7A5FDAFF2F4021E212520FEF7E9FD8C
:1047A000894890ED000AF2EE040A20EE200ABDEEE0
:1047B000C00A10EE100A0A2190FBF1F201FB12046C
:1047C0000C20012322461E2100902920FEF787FDA0
:1047D000AFF22C121E215520FEF7CBFD0C20012339
:1047E00000907A4890ED000ABCEEC00A10EE102A44
:1047F0001E216220FEF773FDAFF258121E216820C1
:10480000FEF7B7FD714890ED000AF2EE040A20EEC3
:10481000200ABDEEC00A10EE100A0A2190FBF1F248
:1048200001FB12040C20012322461E2100906F2060
:10483000FEF755FD664890ED000AF7EE000AB4EE6B
:10484000600AF1EE10FA10D101200C235922142134
:1048500000903C20FEF7E9FC01200C234E221E2193
:1048600000903C20FEF7E1FC19E0594890ED000A69
:10487000F0EE000AB4EE600AF1EE10FA0FD101205A
:104880000C234E22142100903C20FEF7CEFC012088
:104890000C2359221E2100903C20FEF7C6FCAFF2EB
:1048A000D41232210020FEF764FD0C200523009075
:1048B0004848322102680F20FEF711FDAFF2EC12DA
:1048C00032215020FEF755FD0C2000904248008810
:1048D00082B2052332215F20FEF701FDFEF71FFCA7
:1048E00038BD08B53DA200210846FEF742FD40A2B2
:1048F00014210846FEF73DFD40A21E210846FEF7A2
:1049000038FD41A228211420FEF733FD41A23221B7
:104910001E20FEF72EFD42A20A210020FEF729FDEF
:104920000C2000904148026805230A214620FEF72A
:10493000D6FCFEF7F4FB08BD10B50120264991ED29
:10494000000AB8EEC00AFFF7F5FB394890ED000AFF
:10495000F7EE000AB4EE600AF1EE10FA08D1022078
:10496000344991ED000AB8EEC00AFFF7E3FB07E017
:104970000220184991ED000AB8EEC00AFFF7DAFBF1
:104980000220FFF728FC2C49087000202B490870F2
:1049900011E000BF2A48008800F040000028F9D04C
:1049A000284826490978405C2549888023480078B2
:1049B000401C22490870214800781F490978884224
:1049C000E7DB10BD40000020300000204400002044
:1049D0004C00002014000020080000205475726E66
:1049E00020526967687420576865656C0000000094
:1049F000466F727761726420546F0000506F736964
:104A000074696F6E000000004261636B77617264CD
:104A100020546F0056656C6F636974790000000064
:104A2000456E636F6465723A000000002408004020
:104A30004800002010000020E1000020E0000020DD
:104A4000001001404C050020014691F90020002A89
:104A500001DD00201EE091F90020002A01DA042087
:104A600018E091F90120002A01DD012012E091F9FE
:104A70000120002A01DA05200CE091F90220002A29
:104A800001DD022006E091F90220002A01DA062069
:104A900000E00720704770B505462846FFF7D4FFB1
:104AA0000446E81CFFF7D0FF44EAC00084B2A81D0A
:104AB000FFF7CAFF44EA801084B2204670BD10B5EB
:104AC00088B002A905A802F0E4F80446072C42D1F8
:104AD00001A801F033FB9DED050AB8EEC00ADDED3B
:104AE000010A20EE200ABDEEC00A8DED050A9DEDFB
:104AF000060AB8EEC00ADDED010A20EE200ABDEE7E
:104B0000C00A8DED060A9DED070AB8EEC00ADDED7C
:104B1000010A20EE200ABDEEC00A8DED070A05A8A5
:104B200002F0C7FB684601F02EFBBDF800100298AA
:104B300048430290BDF80010039848430390BDF825
:104B4000001004984843049002A802F045FCFDA020
:104B500003F002FA00BF08B010BD2DE9F04304468F
:104B60000D46DDE907670021012041E0DFF8F8C3C9
:104B70003CF81080A0F1010CDFF8EC9329F81C80C0
:104B800009F1160C3CF81090A0F1010CDFF8D88365
:104B900008F1160828F81C9008F1160C3CF8109043
:104BA000A0F1010C08F1160828F81C9008F1160C69
:104BB0003CF81090A0F1010C08F1160828F81C90A0
:104BC00008F1160C3CF81090A0F1010C08F1160841
:104BD00028F81C9008F1160C3CF81090A0F1010C7C
:104BE00008F1160828F81C9000F1010C0CF0FF00E9
:104BF0000A28BBDBDFF870C3ACF81240ACF82850D1
:104C0000ACF83E20ACF85430ACF86A60ACF8807078
:104C10000021002008E0DFF850C33CF910C06144D7
:104C200000F1010C0CF0FF000A28F4DB4FF00A0C35
:104C300091FBFCFC0FFA8CFCDFF82C83A8F814C065
:104C4000002100200AE0DFF820C30CF1160C3CF92B
:104C500010C0614400F1010C0CF0FF000A28F2DBE7
:104C60004FF00A0C91FBFCFC0FFA8CF8DFF8F8C24D
:104C7000ACF82A80002100200AE0DFF8ECC20CF139
:104C80002C0C3CF910C0614400F1010C0CF0FF0049
:104C90000A28F2DB4FF00A0C91FBFCFC0FFA8CF8AF
:104CA000DFF8C4C2ACF84080002100200AE0DFF841
:104CB000B8C20CF1420C3CF910C0614400F1010C87
:104CC0000CF0FF000A28F2DB4FF00A0C91FBFCFC11
:104CD0000FFA8CF8DFF890C2ACF856800021002063
:104CE0000AE0DFF884C20CF1580C3CF910C06144B2
:104CF00000F1010C0CF0FF000A28F2DB4FF00A0C67
:104D000091FBFCFC0FFA8CF8DFF85CC2ACF86C800D
:104D1000002100200AE0DFF850C20CF16E0C3CF9D3
:104D200010C0614400F1010C0CF0FF000A28F2DB16
:104D30004FF00A0C91FBFCFC0FFA8CF8DFF828C24C
:104D4000ACF88280BDE8F08338B504460323022224
:104D50006B21D0200094FEF708FE38BD38B504461C
:104D6000022304221B21D0200094FEF7FEFD38BD53
:104D700038B50446022304221C21D0200094FEF7FB
:104D8000F4FD38BD10B50446234606226B21D02021
:104D9000FEF720FE10BD10B5744B01227521D02006
:104DA000FEF772FD7148007810BD10B5FFF7F3FFF4
:104DB000682801D1012010BD0020FCE710B5044691
:104DC000234605226A21D020FEF704FE10BD10B54F
:104DD0000446234601223721D020FEF7FBFD10BDFB
:104DE00010B50220FFF7B0FF0320FFF7B7FF002048
:104DF000FFF7BEFF0020FFF7C5FF0020FFF7DEFF33
:104E00000020FFF7E4FF10BD38B5002000906B468E
:104E1000012275216820FEF7D9FC55A003F09CF80B
:104E20009DF80000682810D000BFBFF34F8F59488D
:104E3000006800F4E06058490843001D55490860C7
:104E4000BFF34F8F00BF00BFFEE700F086FE0028D3
:104E50003CD1782000F0E9FA10B945A003F07CF8C5
:104E6000782000F0C9FC10B94CA003F075F8C820F8
:104E700000F0A3FD10B953A003F06EF802F07EF924
:104E800010B95AA003F068F86548FFF704FE04461D
:104E900002F07EF910B963A003F05EF840F27310DF
:104EA00002F0C7FD10B969A003F056F8C82002F05F
:104EB00029FB10B96FA003F04FF8FFF700FE0120A7
:104EC00001F0A2FE10B974A003F046F838BD00B599
:104ED0002DED088B89B007A8784908AB03AACDE966
:104EE00000107749774802F003FF7448008800F407
:104EF0008070002825D09DED030AB8EEC00ADFEDD2
:104F0000720A80EE201A714880ED001A9DED040AA5
:104F1000B8EEC00ADFED6C0A80EE201A6C4880ED16
:104F2000001A9DED050AB8EEC00ADFED670A80EEB3
:104F3000201A684880ED001A9DED060AB8EEC00AF6
:104F4000CAE063E173657474696E672062696173B6
:104F50002073756363657366756C6C79202E2E2ED5
:104F60002E2E2E0D0A00000084050020760500205C
:104F70006D70755F7365745F73656E736F722063B8
:104F80006F6D706C657465202E2E2E2E2E2E0D0AE0
:104F9000000000000CED00E00000FA056D70755F88
:104FA000636F6E6669677572655F6669666F2063B9
:104FB0006F6D706C657465202E2E2E2E2E2E0D0AB0
:104FC000000000006D70755F7365745F73616D70D4
:104FD0006C655F7261746520636F6D706C6574657C
:104FE000202E2E2E2E2E2E0D0A000000646D705FD6
:104FF0006C6F61645F6D6F74696F6E5F6472697608
:1050000065725F6669726D7761726520636F6D703E
:105010006C657465202E2E2E2E2E2E0D0A0000009B
:1050200010010020646D705F7365745F6F72696555
:105030006E746174696F6E20636F6D706C657465FA
:10504000202E2E2E2E2E2E0D0A000000646D705F75
:10505000656E61626C655F6665617475726520631B
:105060006F6D706C657465202E2E2E2E2E2E0D0AFF
:1050700000000000646D705F7365745F6669666F41
:105080005F7261746520636F6D706C657465202E4E
:105090002E2E2E2E2E0D0A006D70755F7365745FB7
:1050A000646D705F737461746520636F6D706C659F
:1050B0007465202E2E2E2E2E2E0D0A00F4000020B8
:1050C000EE000020E80000200000804E00010020DB
:1050D00004010020080100205FED050A80EE201A7F
:1050E000674880ED001A674890ED000AF8EE000A64
:1050F00020EE200A6248D0ED000A20EE200A624825
:10510000D0ED000AB0EE001A60EE810A5F4890ED23
:10511000001A00EE810A10EE101A084604F0A8FBEF
:1051200041EC1A0BB0EE4A0AF0EE6A0A03F068F995
:10513000B0EE409AF0EE609A9FED550B53EC102BB9
:1051400051EC190B04F0D4F841EC180B03F05CFEA1
:10515000514908604B4890ED000AF8EE000A20EE35
:10516000200AD0ED000A20EE200A4848D0ED000ABF
:10517000B0EE001A60EE810A90ED001A00EEC10A4E
:10518000F7EE000A30EE200A10EE101A084604F07E
:105190006FFB41EC1A0B3D4890ED000AF0EE000A5F
:1051A00020EE200A3648D0ED000A20EE200A3648CC
:1051B000D0ED000AB0EE001A60EE810A314890EDA1
:1051C000001A00EE810A10EE101A084604F050FB97
:1051D00041EC1B0BB0EE4A1AF0EE6A1AB0EE4B0A25
:1051E000F0EE6B0A03F034FCB0EE409AF0EE609AF9
:1051F0009FED270B53EC102B51EC190B04F078F8B2
:1052000041EC180B03F000FE2449086009B0BDEC26
:10521000088B00BD10B52DED028B4221D020FEF78A
:1052200010FB04464121D020FEF70BFB04EB0020CD
:1052300000EE100AB8EEC00AB0EE408A9FED180AE0
:10524000B4EEC08AF1EE10FA05DD9FED160A38EED5
:10525000400AB0EE408ADFED140A88EE200ADFED46
:10526000130A30EE200AF2EE040A20EE200AB0EE15
:10527000408ABDEEC80A10EE100ABDEC028B10BDCC
:105280000C01002004010020000100200801002082
:105290006666666666A64C40F8000020FC000020AA
:1052A00000000047000080470000AA43B81E1242D9
:1052B00038B50446FB4890F82400C0B114B1022070
:1052C000009001E000200090F64A1268D17BF54A78
:1052D000526810786B460122FEF719FA10B14FF0B0
:1052E000FF3038BD9DF80010EE48417423E0ED48D2
:1052F000807A10B94FF0FF30F3E724B1E948407CE1
:1053000008B10020EDE714B10120009001E0002079
:105310000090E44A1268D17BE24A526810786B46EA
:105320000122FEF7F4F910B14FF0FF30D9E79DF8F4
:105330000010DC4841740020D3E738B5002419E0A0
:10534000D8480068C07AA04204D0D6480068407DA2
:10535000A04200D10CE0D349496808786B4601228D
:105360002146FEF733FA10B14FF0FF3038BD00BFD1
:10537000601CC4B2CB4840680079A042E0DC002049
:10538000F4E770B504460D46C6480068C07AA042EE
:1053900004D0C4480068407DA04202D14FF0FF30E5
:1053A00070BDC04840680079A04202DC4FF0FF3079
:1053B000F6E7BC49496808782B4601222146FEF7EA
:1053C00005FAEDE738B50446B64890F82300A04248
:1053D00001D1002038BD14B13020009001E0002040
:1053E0000090B048807C20B19DF8000040F00200A1
:1053F0000090AC4890F8220020B19DF8000040F0E9
:1054000080000090A74A1268117DA64A5268107861
:105410006B460122FEF77BF910B14FF0FF30D9E760
:10542000A04880F823400020D4E738B5044604F0B3
:10543000700010B10120009005E014B10020009030
:1054400001E040200090974A1268917C954A52688A
:1054500010786B460122FEF75AF920B100219148DD
:105460008172481E38BD9DF8000020F040018D4833
:1054700001730020009004F0400020B99DF8000066
:1054800040F00400009004F0200020B99DF80000D6
:1054900040F00200009004F0100020B99DF80000D8
:1054A00040F00100009004F0080020B99DF80000D1
:1054B00040F0380000907B4A1268D17C794A5268EB
:1054C00010786B460122FEF722F920B100217548C1
:1054D0008172481EC6E724B1082C02D00020FFF7D5
:1054E00071FF70488472002101753220FDF7E8F9E0
:1054F0000020B7E738B504466A48807CA04201D155
:10550000002038BD002C46D0664A12681179654AE1
:10551000526810786B460122FEF758F910B14FF02F
:10552000FF30EEE79DF8000020F0200000905D4A7B
:10553000126811795B4A526810786B460122FEF7B7
:10554000E6F810B14FF0FF30DBE70320FDF7B8F9C4
:1055500002200090534890F8220020B19DF80000EE
:1055600040F0800000904F4890F8230020B19DF853
:10557000000040F0300000904A4A1268117D494A0C
:10558000526810786B460122FEF7C1F8002851D00E
:105590004FF0FF30B5E7434A12681179414A52682B
:1055A00010786B460122FEF711F910B14FF0FF3071
:1055B000A7E73C48807A00F0010028B19DF8000080
:1055C00040F02000009004E09DF8000020F0200052
:1055D0000090344A12681179324A526810786B464A
:1055E0000122FEF794F810B14FF0FF3089E7032055
:1055F000FDF766F92B4890F8220010B1802000904A
:1056000001E000200090274890F8230020B19DF889
:10561000000040F030000090224A1268117D214ABB
:10562000526810786B460122FEF771F810B14FF006
:10563000FF3066E71B488474002062E708B519480C
:10564000807A10B94FF0FF3008BD00200090154A55
:105650001268D17B134A526810786B460122FEF71C
:1056600056F810B14FF0FF30EEE70E4A126851794C
:105670000C4A526810786B460122FEF748F810B1C8
:105680004FF0FF30E0E7074A12681179054A526887
:1056900010786B460122FEF73AF828B14FF0FF3040
:1056A000D2E7000020010020F74890F824000028ED
:1056B00050D00C200090F44A12681179F24A5268D6
:1056C00010786B460122FEF722F810B14FF0FF3040
:1056D000BAE7C0200090EC48807A00F0010020B1C9
:1056E0009DF8000040F020000090E74A1268117910
:1056F000E54A526810786B460122FEF708F810B1AF
:105700004FF0FF30A0E7E048407C10B1022000904D
:1057100001E000200090DC4A1268D17BDA4A52682E
:1057200010786B460122FDF7F2FF10B14FF0FF3009
:105730008AE700200090D44A12685179D24A526810
:1057400010786B460122FDF7E2FF002852D04FF09F
:10575000FF3079E704200090CB4A12681179CA4AD9
:10576000526810786B460122FDF7D1FF10B14FF05F
:10577000FF3069E7C448807C20B9C348807A00F0D4
:10578000010010B94020009001E060200090BE4A66
:1057900012681179BC4A526810786B460122FDF7F5
:1057A000B6FF10B14FF0FF304EE7B748407C10B164
:1057B0000120009001E000200090B34A1268D17BE4
:1057C000B14A526810786B460122FDF7A0FF10B174
:1057D0004FF0FF3038E7AC4A12685179AA4A526854
:1057E0001078A94B10330122FDF791FF10B14FF053
:1057F000FF3029E7002027E770B50446002624F093
:105800000104A14890F8240008B1002070BD9E4812
:10581000807A10B94FF0FF30F8E79B48057C807A1A
:105820002040994908740846007CA04202D04FF0FD
:10583000FF3600E0002614B99348007D18B101201E
:10584000FFF736FD02E00020FFF732FD3CB1FFF725
:10585000F5FE20B18C4805744FF0FF30D6E7304696
:10586000D4E738B504468848807A10B94FF0FF3045
:1058700038BDBC2C02DB0120009015E0622C02DB5D
:105880000220009010E02A2C02DB032000900BE0A5
:10589000142C02DB0420009006E00A2C02DB052019
:1058A000009001E0062000907748C07A9DF8001033
:1058B000884201D10020DBE7734A12689178724A6E
:1058C000526810786B460122FDF721FF10B14FF0AE
:1058D000FF30CDE79DF800106B48C1720020C7E78C
:1058E00038B50446282C02DD4FF0FF3038BDDCB956
:1058F0000020FFF767FD00208DF8000007208DF8DD
:105900000100614A1268917C5F4A526810786B46C8
:105910000222FDF7FCFE10B14FF0FF30E6E7002158
:10592000594801750020E1E70120FFF74BFD2020D9
:105930008DF80000012C06D100208DF80100052013
:10594000FFF78FFF17E0052C06DC01208DF8010022
:105950000520FFF786FF0EE0142C06DC02208DF8F0
:1059600001000A20FFF77DFF05E003208DF801000C
:105970001420FFF776FF9DF80100072101EB80104E
:10598000C0B28DF80100404A1268917C3E4A5268CC
:1059900010786B460222FDF7BAFE10B14FF0FF30CF
:1059A000A4E70821384881720021017301210175A3
:1059B0000020FFF721FF002098E738B50446324861
:1059C000807A10B94FF0FF3038BD2F4890F824008E
:1059D00010B14FF0FF30F7E72B48007D50B134B1E4
:1059E000282C04DCE0B2FFF77BFF0020ECE700206E
:1059F000FFF776FF042C01DA042404E0B4F57A7F83
:105A000001DD4FF47A744FF47A7090FBF4F0401E8D
:105A1000C0B200901C4A126851781B4A5268107834
:105A20006B460122FDF773FE10B14FF0FF30CBE75C
:105A30009DF80000401C4FF47A7191FBF0F081B2A8
:105A40001148C1810146C9894810FFF70AFF0020AB
:105A5000BAE738B504460C48807A10B94FF0FF30E9
:105A600038BD022C06D0042C07D0082C08D0102CEE
:105A70000FD10BE0002000900EE0082000900BE01A
:105A80001020009008E00000200100201820009065
:105A900002E04FF0FF30E3E700BFF748407A9DF89F
:105AA0000010B0EBE10F01D10020D9E7F24A1268F3
:105AB000D179F14A526810786B460122FDF727FE32
:105AC00010B14FF0FF30CBE79DF80000C110EA485D
:105AD00041720020C4E738B50446E748807A10B91F
