:020000040800F2
:1000000098150020F5040008F9020008FB0200081A
:10001000FF020008030300080703000800000000B7
:100020000000000000000000000000000B030008BA
:100030000D030008000000000F0300081103000872
:100040000F0500080F0500080F0500080F05000840
:100050000F0500080F0500080F0500080F05000830
:100060000F0500080F0500080F0500080F05000820
:100070000F0500080F0500080F0500080F05000810
:100080000F0500080F0500080F0500080F05000800
:10009000254B00080F0500080F0500080F05000894
:1000A0000F0500080F0500080F0500080F050008E0
:1000B0007D380008E1320008653800080F050008A7
:1000C0000F0500080F0500080F0500080F050008C0
:1000D0000F0500080F0500083F4200080F05000843
:1000E000BB5200080F0500080F0500080F050008A7
:1000F000953500080F0500086F3400080F0500084B
:100100000F0500080F0500080F0500080F0500087F
:100110000F0500080F0500080F0500080F0500086F
:100120000F0500080F0500080F0500080F0500085F
:1001300000F002F800F05FF80AA090E8000C82449A
:100140008344AAF10107DA4501D100F054F8AFF277
:10015000090EBAE80F0013F0010F18BFFB1A43F0A5
:1001600001031847D4D60000F4D600000A444FF02B
:10017000000C10F8013B13F0070408BF10F8014B06
:100180001D1108BF10F8015B641E05D010F8016B4B
:10019000641E01F8016BF9D113F0080F1EBF10F8AF
:1001A000014BAD1C0C1B09D16D1E58BF01F801CBD2
:1001B000FAD505E014F8016B01F8016B6D1EF9D555
:1001C0009142D6D37047000000230024002500266A
:1001D000103A28BF78C1FBD8520728BF30C148BFAA
:1001E0000B607047642909F04F82002070471FB5EB
:1001F0001FBD10B510BD09F015FC1146FFF7F7FF44
:1002000000F00EF809F033FC03B4FFF7F2FF03BC73
:1002100002F078FA30BF72B662B680F30888704791
:1002200008B502F005FA4FF4FA3002F089FA02201C
:1002300002F0BCFB012002F0B9FB02F025FC02F049
:1002400055FC022002F0C8FA002141F61F4003F0DD
:10025000F4F94FF4165003F0A5FF03F047FA03F04A
:1002600092FA02F013FF4FF4FA7002F01EFA03F054
:1002700019FB08F030FC08F042FC02F064FE472154
:100280004FF6FF7002F0A6FF47214FF6FF7003F014
:1002900084F800200623032202210090012004F0AC
:1002A000EBF903F093FD1DE00F480078012804D11D
:1002B00003F027FF00200C4908700C48007820B993
:1002C00008F077FF08F060FE01E009F00EF8012069
:1002D0000749087000200749087000BF04480078EB
:1002E0000028FBD1E0E700003C00002007000020D0
:1002F0003900002038000020704700BFFEE700BF33
:10030000FEE700BFFEE700BFFEE77047704770479B
:10031000704700000CB50020019000906C48006808
:1003200040F480306A49086000BF6948006800F402
:10033000003000900198401C0190009818B9019875
:10034000B0F5A06FF1D16248006800F4003010B140
:100350000120009001E0002000900098012843D186
:100360005C48006840F010005A4908600846006880
:1003700020F0030008600846006840F002000860B2
:1003800053484068524948600846406848600846FB
:10039000406840F4806048600846406820F47C1063
:1003A00048600846406840F4E81048600846006825
:1003B00040F08070086000BF4548006800F00070A1
:1003C0000028F9D04248406820F0030040494860C6
:1003D0000846406840F00200486000BF3C48406862
:1003E00000F00C000828F9D10CBD10B5FFF792FF02
:1003F00010BD10B53648006840F00100344908606F
:100400000846406834490840314948600846006859
:10041000324908402E4908600846006820F48020D0
:1004200008600846406820F4FE0048604FF41F0052
:100430008860FFF7DAFF4FF000602949086010BDBF
:1004400010B5002100200022214B5B6803F00C0155
:1004500021B1042906D0082928D107E0214B224CDC
:10046000236027E01F4B204C236023E0184B5B6880
:1004700003F47010164B5B6803F48032022303EB25
:10048000904022B9194B4343174C23600DE0104BA9
:100490005B6803F4003323B1144B4343124C2360D5
:1004A00003E0104B4343104C236003E00D4B0E4C14
:1004B000236000BF00BF064B5B68C3F303130C4C03
:1004C000E15C094B1B68CB40074C236010BD00006A
:1004D00000100240002002400000FFF8FFFFF6FE7F
:1004E00008ED00E000127A006C00002000093D00D9
:1004F000700000200948804709480047FEE7FEE7F2
:10050000FEE7FEE7FEE7FEE7FEE7FEE7FEE7FEE7C3
:1005100004480549054A064B70470000F3030008EC
:1005200031010008980F0020981500209811002034
:100530009811002031490143314A1160704770B56C
:10054000002100230F22C47804B32D4C246804F446
:10055000E064C4F5E064210AC1F10403CA404478B0
:1005600004FA03F18478144021430901254C0678EC
:10057000A155047804F01F050124AC4005786D11E5
:10058000AD0005F1E025C5F8004109E0047804F06C
:100590001F050124AC401C4D0678761145F8264015
:1005A00070BD1A4A0A400243154B1B1F1A60704760
:1005B00039B1134A121D12680243114B1B1D1A60F8
:1005C00006E00F4A121D126882430D4B1B1D1A6074
:1005D0007047042808D14FF0E021096941F0040177
:1005E0004FF0E022116107E04FF0E021096921F0AE
:1005F00004014FF0E0221161704700000000FA058D
:100600000CED00E000E400E080E100E080FFFF1F6F
:1006100010B50446FA48844208D10121401500F083
:10062000ABFE0021601500F0A7FE17E0F5488442FC
:1006300008D10121001500F09FFE0021201500F0D7
:100640009BFE0BE0F048844208D10121C80300F072
:1006500093FE00214FF4004000F08EFE10BD30B537
:100660000246002000235068E84C20400D790C68B9
:1006700044EA0524204350609068E54C2040D1E9CD
:1006800002542C434D7944EA450420439060D06ADB
:1006900020F470000C7C641EE4B2234340EA035053
:1006A000D06230BD00210160017141718160C16083
:1006B00001210174704721B1826842F00102826019
:1006C00003E0826822F001028260704721B18268F3
:1006D00042F48072826003E0826822F48072826059
:1006E000704710B50023CBB21AB144681C43446074
:1006F00002E044689C43446010BD816841F00801F9
:1007000081607047014600208A6802F008020AB141
:10071000012000E000207047816841F00401816001
:100720007047014600208A6802F004020AB10120E5
:1007300000E00020704721B1826842F4A00282608C
:1007400003E0826822F4A002826070470146002024
:100750008A6802F480020AB1012000E0002070479C
:1007600010B50A4600210023416821F46041531E60
:1007700041EA4331416010BD21B1426842F4006258
:10078000426003E0426822F4006242607047F0B5C4
:1007900004460D4600200021092D11DDE068A5F179
:1007A0000A0606EB4607072606FA07F18843A5F175
:1007B0000A0606EB460603FA06F10843E0600CE081
:1007C000206905EB4507072606FA07F1884305EB84
:1007D000450603FA06F108432061072A0FDA606B29
:1007E000561E06EB86071F2606FA07F18843561E9B
:1007F00006EB860605FA06F10843606322E00D2A3F
:100800000FDA206BD61F06EB86071F2606FA07F1C4
:100810008843D61F06EB860605FA06F108432063D7
:1008200010E0E06AA2F10D0606EB86071F2606FA25
:1008300007F18843A2F10D0606EB860605FA06F1DC
:100840000843E062F0BD21B1826842F48012826008
:1008500003E0826822F48012826070470146C86C0F
:1008600080B2704766484C300068704721B14268DA
:1008700042F48062426003E0426822F48062426097
:10088000704721B1426842F48052426003E04268FE
:1008900022F48052426070470A460021816821F4A8
:1008A000E04111438160704721B1826842F4004207
:1008B000826003E0826822F400428260704721B1C6
:1008C000826842F40212826003E0826822F402121B
:1008D00082607047014600208A6802F400120AB163
:1008E000012000E000207047F0B5044615460020C6
:1008F00000220026092911DDE068A1F10A0707EBB3
:10090000470C072707FA0CF29043A1F10A0707EBFF
:10091000470703FA07F21043E0600CE0206901EB9F
:10092000410C072707FA0CF2904301EB410703FA49
:1009300007F210432061A06BC0F30156EF1C06F1D3
:10094000010CA7EB0C0707EB870C1F2707FA0CF22B
:100950009043EF1C06F1010CA7EB0C0707EB870790
:1009600001FA07F21043A063F0BD10B50A4600215A
:100970000023816B21F44011531E41EA035181632E
:1009800010BD08B5002300930090009B0B4400931A
:10099000009B1A6008BD08B5024600200090009236
:1009A00001F12800009B184400900098006880B274
:1009B00008BD0A4600214168164B194011434160A9
:1009C00070474162826270470A460021416821F007
:1009D0001F0111434160704740B10949083109685E
:1009E00041F40001064A0832116007E00449083169
:1009F000096821F40001024A0832116070470000C2
:100A00000024014000280140003C0140FFFEF0FFAF
:100A1000FDF7F1FFFFFD3FFF0246002013680B408A
:100A20000BB1012000E000207047CA43026070470C
:100A300070B502460020002300240B125568CEB288
:100A400005EA060415681D4015B10CB1012000E04F
:100A5000002070BD00220A12D343036070470000DB
:100A600010B5012000F0A2FC002000F09FFC10BD9A
:100A70002A49086070472949091F086070472749BB
:100A800084310860704701460020254A10884FF6DF
:100A90007F4210400843224A1080704701460020E0
:100AA0001F4A10884FF68072104008431C4A10807D
:100AB000704708B500220092194A2C3A0092009A19
:100AC00002440092009A116008BD08B5014600205A
:100AD000009013482C38009000980844009000982B
:100AE000008808BD0D489C300068C0B270470C48B3
:100AF0000830008840F0010009490831088070473B
:100B00000648A0300068C0B2704705480830008829
:100B100040F00200024908310880704704860D4207
:100B20002C6C0040002044490860091D0860091D24
:100B30000860091D086041483F491431086070474A
:100B400000213D498279002A3AD00A46126803689A
:100B50009A430B461A600A1D126803689A430B1DDC
:100B60001A60027911440A6803681A430A60324A1B
:100B70000832126803689A432F4B08331A601A1D13
:100B8000126803689A432C4B0C331A604279102A7E
:100B90000ED11A1F126803681A43274B08331A60D4
:100BA0001A1D126803681A43234B0C331A600DE0B8
:100BB0002149427911440A6803681A430A6005E032
:100BC000027911440A6803689A430A607047002159
:100BD000016001710C21417100218171704716493A
:100BE000103109680143144A103211607047014600
:100BF0000020114A143212680A400AB1012000E0B4
:100C0000002070470C4914310860704701460020ED
:100C10000022094B1B6803EA0102074B14331B68CF
:100C20000B4013B10AB1012000E0002070470249D7
:100C3000143108607047000000040140FFFF0F00FE
:100C400010B50446CC48844208D10121042000F0AC
:100C500093FB0021042000F08FFB46E0C74884424C
:100C600008D10121082000F087FB0021082000F0B6
:100C700083FB3AE0C248844208D10121102000F0F1
:100C80007BFB0021102000F077FB2EE0BD48844262
:100C900008D10121202000F06FFB0021202000F06E
:100CA0006BFB22E0B848844208D10121402000F0CB
:100CB00063FB0021402000F05FFB16E0B348844254
:100CC00008D10121802000F057FB0021802000F096
:100CD00053FB0AE0AE48844207D10121801500F0A1
:100CE0004BFB0021A01500F047FB10BD10B5012102
:100CF000084600F041FB0021012000F03DFB10BD43
:100D00002DE9F041024600250026002000230024A2
:100D1000002791F803C00CF00F0591F803C00CF008
:100D2000100CBCF1000F03D091F802C04CEA05058D
:100D300091F800C0BCF1000F31D0146800202BE006
:100D40004FF0010C0CFA00F3B1F800C00CEA0306F6
:100D50009E4220D183004FF00F0C0CFA03F7BC43E6
:100D600005FA03FC4CEA040491F803C0BCF1280F17
:100D700006D14FF0010C0CFA00FCC2F814C00AE0D6
:100D800091F803C0BCF1480F05D14FF0010C0CFAEB
:100D900000FCC2F810C0401C0828D1D31460B1F880
:100DA00000C0BCF1FF0F34DD546800202EE000F1DC
:100DB000080C4FF0010808FA0CF3B1F800C00CEA77
:100DC00003069E4221D183004FF00F0C0CFA03F76B
:100DD000BC4305FA03FC4CEA040491F803C0BCF1DF
:100DE000280F05D100F1080C08FA0CF8C2F814809D
:100DF00091F803C0BCF1480F07D100F1080C4FF087
:100E0000010808FA0CF8C2F81080401C0828CED35C
:100E10005460BDE8F0814FF6FF71018002218170BE
:100E20000421C17070470246002093680B400BB14B
:100E3000012000E0002070470146886880B27047BA
:100E400002460020D3680B400BB1012000E00020D7
:100E500070470146C86880B27047016170474161C0
:100E600070470AB1016100E041617047C16070479D
:100E70004FF480320A4382618161826182698269B2
:100E8000704702460020434B18684FF680731840A5
:100E900040EA021008433F4B186070473E49C86162
:100EA0007047F0B50A46002300240021002500F019
:100EB0000046B6F1004F02D1364EF16901E0354EE1
:100EC0007168C0F3034583B200F44016B6F5401FC5
:100ED00008D121F070612F4E766826F070662D4F94
:100EE0007E6012E000F48016B6F5801F06D103265E
:100EF00006FA05F4A14341F0706106E0460D3601A3
:100F000003FA06F6B14341F0706122B1460D360195
:100F100003FA06F6314300F00046B6F1004F02D165
:100F20001C4EF16101E01B4E7160F0BD30B5002236
:100F30008B071C0F0F2303FA04F2164B08338C1097
:100F400053F824309343134C08348D1044F8253063
:100F500023468C1053F824308C07240F00FA04F435
:100F600023430C4C08348D1044F8253030BD0A4919
:100F7000DC3108607047000000080140000C0140AF
:100F8000001001400014014000180140001C014005
:100F900000200140000001400000204210B5012166
:100FA000080700F0F6F900214FF0805000F0F1F949
:100FB00010BD2A49086270472849086170470146F8
:100FC0000020274A106820F0E000084310607047B6
:100FD0002249A0310860704710B502460020204B1E
:100FE000186820F00300104318601E4B1B6843F084
:100FF00004031C4C2360012901D130BF00E020BF55
:10100000184B1B6823F00403164C236010BD1448D2
:10101000006840F00400124908600846006840F08B
:10102000020008600F48006840F004000D490860A5
:1010300000BF00BF30BF704701460020084A526819
:101040000A400AB1012000E0002070470449096805
:1010500041EA8001024A11607047000000000E4220
:101060000070004010ED00E0DF48006840F0010033
:10107000DD49086008464068DC490840DA494860B4
:1010800008460068DA490840D74908600846006801
:1010900020F4802008600846406820F4FE00486084
:1010A0004FF41F0088607047CF49096821F48031F0
:1010B000CD4A11601146096821F480211160B0F514
:1010C000803F03D0B0F5802F0ED106E0C6490968F5
:1010D00041F48031C44A116007E0C349096841F412
:1010E000A021C14A116000E000BF00BF704710B5E9
:1010F00001460022002300204A11012A02D1BA4CE5
:10110000236806E0022A02D1B74C236A01E0B64CFC
:10111000636A01F01F02012494401C400CB10120BD
:1011200000E0002010BD38B500200090002400250C
:1011300000BF3120FFF7DBFF05460098401C009000
:101140000098B0F5A06F01D0002DF2D03120FFF74C
:10115000CEFF08B1012400E00024204638BD01463E
:101160000020A14A106820F0F80040EAC100106099
:101170007047A04908607047024600209A4B5868A3
:1011800020F47C1042EA01031843974B58607047E3
:1011900098490866704701460020934A506820F03D
:1011A00003000843506070478F48406800F00C000F
:1011B0007047014600208C4A506820F0F000084338
:1011C0005060704701460020874A506820F4E06074
:1011D00008435060704701460020834A506820F45D
:1011E000605040EAC1005060704729B17E4A527A8F
:1011F00002437D4B5A7204E07B4A527A82437A4B17
:101200005A7270477B49D831086070470146002008
:10121000754A506820F440400843506070470021F0
:10122000714A20321170704A82F82010012802D0D1
:1012300004280AD104E001216B4A2032117005E034
:101240000521694A2032117000E000BF00BF7047DD
:101250006949086070476449096A0143624A11623A
:101260007047654944390860704730B50021002255
:10127000002400235C4D6D6805F00C0121B10429A8
:1012800005D0082923D105E05C4D056022E05B4DC7
:1012900005601FE0544D6D6805F47012524D6D6885
:1012A00005F48034022505EB92421CB9544D554398
:1012B00005600BE04C4D6D6805F400351DB1504DD7
:1012C0005543056002E04D4D5543056002E04B4D2E
:1012D000056000BF00BF444D6D6805F0F0010909CD
:1012E000484D6B5C0568DD4045603F4D6D6805F419
:1012F000E061090A434D6B5C4568DD4085603A4D0D
:101300006D6805F46051C90A3E4D6B5C4568DD406F
:10131000C560354D6D6805F44041890B3A4D6B5CF5
:10132000C568B5FBF3F5056130BD29B12E4A526998
:1013300002432D4B5A6104E02B4A526982432A4BE7
:101340005A61704729B1284A92690243264B9A6133
:1013500004E0254A92698243234B9A61704729B180
:10136000214AD2690243204BDA6104E01E4AD26965
:1013700082431D4BDA61704729B11B4AD268024390
:10138000194BDA6004E0184AD2688243164BDA60DF
:10139000704729B1144A12690243134B1A6104E0E1
:1013A000114A12698243104B1A6170471249403941
:1013B000086070470F49C86470470B49C87170478F
:1013C0000948406A40F0807007494862704701460A
:1013D0000020054A92680A400AB1012000E000207E
:1013E0007047014988727047001002400000FFF802
:1013F000FFFFF6FE000042428004424200127A00E3
:1014000000093D00800000209000002010B5044637
:10141000FE48844208D10121C014FFF7ADFF00212E
:10142000E014FFF7A9FFC4E0B4F1804F08D1012117
:101430000846FFF7AEFF00210120FFF7AAFFB8E042
:10144000F348844208D101210220FFF7A2FF0021C6
:101450000220FFF79EFFACE0EE48844208D1012154
:101460000420FFF796FF00210420FFF792FFA0E081
:10147000E948844208D101210820FFF78AFF0021B2
:101480000820FFF786FF94E0E448844208D1012158
:101490001020FFF77EFF00211020FFF77AFF88E081
:1014A000DF48844208D101212020FFF772FF00218C
:1014B0002020FFF76EFF7CE0DA48844208D101214A
:1014C0004014FFF759FF00216014FFF755FF70E04B
:1014D000D548844209D10121C804FFF74DFF0021FE
:1014E0004FF40020FFF748FF63E0D048844209D161
:1014F00001210805FFF740FF00214FF48010FFF79E
:101500003BFF56E0CA48844209D101214805FFF754
:1015100033FF00214FF40010FFF72EFF49E0C548CC
:10152000844208D101214020FFF733FF00214020F1
:10153000FFF72FFF3DE0C048844208D10121802001
:10154000FFF727FF00218020FFF723FF31E0BB4892
:10155000844208D101218015FFF71BFF0021A0154F
:10156000FFF717FF25E0B648844209D1012108049E
:10157000FFF702FF00214FF48030FFF7FDFE18E077
:10158000B048844209D101214804FFF7F5FE00214B
:101590004FF40030FFF7F0FE0BE0AB48844208D177
:1015A00001218804FFF7E8FE00214FF48020FFF7B7
:1015B000E3FE10BD00220288944B98420ED0994B56
:1015C00098420BD0B0F1804F08D0914B984205D093
:1015D000904B984202D0904B984204D14FF68F73B3
:1015E0001A404B881A438D4B984207D08C4B984237
:1015F00004D04FF6FF431A40CB881A4302808B88F1
:1016000083850B880385814B98420BD0854B98428C
:1016100008D08B4B984205D08A4B984202D08A4B17
:10162000984201D10B7A038601238382704770B5FB
:10163000002400220023058C4FF6FE7635400584F9
:10164000028C8388048B4FF68F752C40B51E2C407E
:101650000D882C43751E2A400D892A434D882A4344
:101660006A4DA8420BD06F4DA84208D0744DA842D5
:1016700005D0744DA84202D0734DA84213D14FF645
:10168000F7752A404D892A434FF6FB752A408D880D
:101690002A434FF6FF652B404FF6FF552B408D89AF
:1016A0002B43CD892B4383800483CD888586028498
:1016B00070BD70B5002400220023058C4FF6EF7634
:1016C00035400584028C8388048B48F6FF752C40D6
:1016D0004FF6FF452C400D884FF6FF7606EA0525AC
:1016E0002C434FF6DF752A400D8906EA05152A437B
:1016F0004D8806EA05152A43444DA84202D0494DBB
:10170000A8421DD14FF67F752A404D894FF6FF76CE
:1017100006EA05152A434FF6BF752A408D8806EA6A
:1017200005152A434FF6FF352B404FF2FF752B402E
:101730008D8906EA85052B43CD8906EA85052B436D
:1017400083800483CD880587028470BD70B5002432
:1017500000220023058C4FF6FF6635400584028C7D
:101760008388848B4FF68F752C404FF6FC752C4088
:101770000D882C434FF6FF552A400D894FF6FF7612
:1017800006EA05252A434D8806EA05252A431F4D0A
:10179000A84202D0234DA8421DD14FF2FF752A4026
:1017A0004D894FF6FF7606EA05252A434FF6FF35A9
:1017B0002A408D8806EA05252A434EF6FF752B4000
:1017C0004DF6FF752B408D8906EA05152B43CD8913
:1017D00006EA05152B4383808483CD8885870284A0
:1017E00070BD70B5002200230024058C4EF6FF76F4
:1017F00035400584038C8488828B48F6FF752A4027
:101800004FF6FF452A400D8820E00000002C0140E3
:101810000004004000080040000C004000100040A0
:101820000014004000340140004C014000500140D1
:101830000054014000180040001C004000200040FF
:101840000040014000440140004801404FF6FF764F
:1018500006EA05252A434DF6FF752B400D8906EA59
:1018600005352B434D8806EA05352B43FA4DA84232
:1018700002D0FA4DA84208D14BF6FF752C408D8955
:101880004FF6FF7606EA85152C4384808283CD8847
:10189000A0F84050038470BD828B4FF2FF331A4092
:1018A0008283828B4FF6FF7303EA01231A438283FC
:1018B0007047F0B50C461546002200210026078C23
:1018C0004EF6FF7C07EA0C070784828B018C4FF6EB
:1018D000FF7707EA043640F6FF473A404FF6FF77B6
:1018E00007EA05273A434FF6FF7707EA03373A43FB
:1018F000D94FB8420ED0D94FB8420BD0B0F1804F7B
:1019000008D0D74FB84205D0D64FB84202D0D64FF4
:10191000B84206D14DF6FF77394046F48057394337
:1019200005E047F6FF57394044F480573943828336
:101930000184F0BD828B4FF6F3731A408283828B51
:101940000A4382837047F0B50C46154600220021F9
:101950000026078C4FF6FF6C07EA0C070784828B82
:10196000018C4FF6FF7707EA04264FF60C773A40D2
:101970004FF6FF7707EA03172F433A43B64FB842B3
:101980000ED0B64FB8420BD0B0F1804F08D0B44F54
:10199000B84205D0B34FB84202D0B34FB84206D1D7
:1019A0004FF6FF57394046F48077394305E04FF250
:1019B000FF57394044F48077394382830184F0BD76
:1019C000028B4FF2FF331A400283028B4FF6FF73F4
:1019D00003EA01231A4302837047F0B50C4615460B
:1019E000002200210026078C4FF6EF7C07EA0C0747
:1019F0000784028B018C4FF6FF7707EA041640F646
:101A0000FF473A404FF6FF7707EA03373A434FF66E
:101A1000FF7707EA05273A438F4FB8420ED08F4F22
:101A2000B8420BD0B0F1804F08D08D4FB84205D0EE
:101A30008C4FB84202D08C4FB84206D14FF6DF77B8
:101A4000394046F01007394305E04FF65F773940DB
:101A500044F01007394302830184F0BD028B4FF636
:101A6000F3731A400283028B0A4302837047F0B576
:101A70000C46154600220021068C4FF6FE773E40AC
:101A80000684028B018C4FF60C7632407E1C06EAEF
:101A900003162E433243704EB0420ED06F4EB0420A
:101AA0000BD0B0F1804F08D06D4EB04205D06D4ED6
:101AB000B04202D06C4EB04206D14FF6FD763140B6
:101AC00044F00106314305E04FF6F576314044F02D
:101AD0000106314302830184F0BD70B505460C4612
:101AE0005D4885420ED05D4885420BD0B5F1804FF0
:101AF00008D05B48854205D05A48854202D05A48F2
:101B0000854200D100E000BF208850B92389A28817
:101B100061882846FFF7ABFFE1882846FFF79EFF64
:101B200025E0208804280AD12389A28861882846D4
:101B3000FFF753FFE1882846FFF742FF17E02088B0
:101B400008280AD12389A28861882846FFF7FBFE6E
:101B5000E1882846FFF7EEFE09E02389A288618824
:101B60002846FFF7A6FEE1882846FFF795FE70BDE0
:101B70002DE9F04105460C4600260127608808B98A
:101B8000022600E00026A088012801D1022700E0FB
:101B900001272088A0B92389A28861882846FFF7F9
:101BA00066FFE1882846FFF759FF23893A46314608
:101BB0002846FFF712FFE1882846FFF701FF13E0F0
:101BC0002389A28861882846FFF707FFE188284615
:101BD000FFF7F6FE23893A4631462846FFF747FFCE
:101BE000E1882846FFF73AFFBDE8F0810A884B8874
:101BF0001A438B881A43CB881A430B891A434B89A3
:101C00001A438B891A43A0F8442070474FF6FF719E
:101C1000818000210180C1804180017270470021D4
:101C2000018041808180C180018141818181C181A8
:101C30007047002101804180012181800021C18005
:101C4000018170470021018041808180C180018134
:101C50004181818170470000002C01400034014027
:101C60000004004000080040000C004021B1028840
:101C700042F00102028004E002884FF6FE731A402F
:101C80000280704731B1B0F8442042F40042A0F81D
:101C9000442005E0B0F84420C2F30E02A0F844202E
:101CA00070471AB183890B43838102E083898B4398
:101CB000838170478182704741EA0203A0F848306F
:101CC00070471AB183890B43838102E083898B4378
:101CD0008381704701894FF6F87211400181704786
:101CE0000A46002101894FF68F7319401143018183
:101CF000704730B504460D4629462046FFF7F0FFF1
:101D0000208940F00700208130BD2DE9F0410446D4
:101D10000D4616461F46602D06D13B460122314630
:101D20002046FFF75AFE05E03B4601223146204699
:101D3000FFF79DFE29462046FFF7D2FF208940F09D
:101D400007002081BDE8F08130B50C4600210189F3
:101D5000C9B24FF6FF7505EA03251543254329430C
:101D6000018130BD2DE9F04105460E4617469846E3
:101D7000002443463A4631462846FFF7E5FF2C89C2
:101D80004FF6F870044044F007044FF68F7004409B
:101D900044F070042C81BDE8F081F0B504460D4696
:101DA00016461F463B46324629462046FFF7CCFFE3
:101DB000208940F480402081F0BD018582827047F7
:101DC0000A46002101884FF68F73194011430180A4
:101DD0007047F0B50C4615461E4600210022002330
:101DE0000189028B038C4FF6F877394021434FF677
:101DF000FC473A4040F201173A434FF6DD773B404B
:101E00004FF6FF7707EA06172F433B430181028312
:101E10000384F0BD0A460021018B4FF68F731940F1
:101E20001143018370470A460021018B48F6FF7376
:101E300019404FF6FF7303EA0223194301837047E9
:101E40000A460021818B4FF68F731940114381831D
:101E500070470A460021818B48F6FF7319404FF600
:101E6000FF7303EA022319438183704721B102887B
:101E700042F08002028004E002884FF67F731A402D
:101E80000280704721B1828842F00402828004E01F
:101E900082884FF6FB731A408280704721B1828896
:101EA00042F00802828004E082884FF6F7731A40FD
:101EB0008280704721B1828842F00102828004E072
:101EC00082884FF6FE731A40828070470A460021CE
:101ED000018B4FF6F77319401143018370470A468F
:101EE0000021018B4FF2FF7319404FF6FF7303EA95
:101EF00002231943018370470A460021818B4FF664
:101F0000F77319401143818370470A460021818B82
:101F10004FF2FF7319404FF6FF7303EA0223194390
:101F2000818370470A460021018B4FF6FB731940ED
:101F30001143018370470A460021018B4FF6FF339E
:101F400019404FF6FF7303EA0223194301837047D8
:101F50000A460021818B4FF6FB73194011438183A0
:101F600070470A460021818B4FF6FF3319404FF628
:101F7000FF7303EA02231943818370470A46002155
:101F8000018B4FF67F7319401143018370470A4656
:101F90000021018BC1F30E014FF6FF7303EA022308
:101FA0001943018370470A460021818B4FF67F73E6
:101FB00019401143818370470A460021818BC1F388
:101FC0000E014FF6FF7303EA022319438183704722
:101FD0000A460021018C4FF6FD731940114301841C
:101FE00070470A460021018C4FF6F77319401143E0
:101FF000018470470A460021018C4FF6DF731940B7
:102000004FF6FF7303EA02131943018470470A462F
:102010000021018C4FF67F7319404FF6FF7303EADE
:1020200002131943018470470A460021018C4FF6C0
:10203000FF5319404FF6FF7303EA0223194301844B
:1020400070470A460021018C4FF2FF7319404FF68A
:10205000FF7303EA02231943018470470A460021F3
:10206000018C4DF6FF7319404FF6FF7303EA0233FC
:1020700019430184704730B5002301248C40A3B27A
:10208000048C9C430484048C02FA01F5ADB22C4309
:10209000048430BD30B5002304248C40A3B2048CEA
:1020A0009C430484048C02FA01F5ADB22C430484F1
:1020B00030BD70B5034600200024184618300125B5
:1020C0008D40ACB21D8CA5431D8409B1082909D1EE
:1020D00000EB6100056825F0700505600568154393
:1020E00005600EE00D1FC5F34E052844056825F474
:1020F000E045056005684FF6FF7606EA022635439F
:10210000056070BD21B1028842F00202028004E045
:1021100002884FF6FD731A400280704721B1028891
:1021200042F00402028004E002884FF6FB731A407A
:102130000280704721B1828842F08002828004E0F0
:1021400082884FF67F731A408280704702884FF66C
:10215000F7731A40028002880A430280704782881F
:102160004FF68F731A40828082880A4382807047BC
:1021700002894FF6F8731A40028102890A430281EC
:10218000704702894FF67F731A40028102890A4321
:1021900002817047818470478185704781867047CE
:1021A0000187704781877047A0F840107047028808
:1021B0004FF6FF431A40028002880A4302807047AC
:1021C0000146888E70470146088F70470146888F08
:1021D00070470146B1F8400070470146888C70474F
:1021E0000146088D704702460020138A0B400BB150
:1021F000012000E000207047CA430282704730B5DA
:102200000246002000230024158A05EA010395896F
:1022100005EA010413B10CB1012000E0002030BD3B
:10222000CA4302827047000010B50446FB4884424E
:1022300009D101218803FFF79FF800214FF4804066
:10224000FFF79AF832E0F648844209D101214804A8
:10225000FFF79FF800214FF40030FFF79AF825E0D0
:10226000F048844209D101218804FFF792F8002147
:102270004FF48020FFF78DF818E0EB48844209D135
:102280000121C804FFF785F800214FF40020FFF773
:1022900080F80BE0E548844208D101210805FFF7EA
:1022A00078F800214FF48010FFF773F810BD2DE986
:1022B000F04786B005460E460024A24600BFA14660
:1022C0000027B08900B100BF2F462C8A4CF6FF7062
:1022D0000440F08804432C82AC894EF6F31004408D
:1022E000B08831890843718908430443AC81AC8AC2
:1022F0004FF6FF400440B0890443AC8201A8FEF7CA
:10230000B4FFC648874202D1DDF810A001E0DDF835
:102310000CA0A88900F4004040B10AEBCA0000EB11
:102320000A1031684900B0FBF1F807E00AEBCA0077
:1023300000EB0A1031688900B0FBF1F86420B8FBAB
:10234000F0F004012009642101FB1089A88900F440
:10235000004040B1322000EBC900B0FBF1F000F0CA
:102360000700044308E0322000EB09106421B0FBB1
:10237000F1F000F00F0004432C8106B0BDE8F087B7
:102380004FF41651016000218180C18001810C2130
:10239000418100218181704710B502460020108ADA
:1023A0004FF2FF0318400B884C8823438C8823434B
:1023B000CC8823431843108210BD00210180418046
:1023C0008180C180704721B1828942F400528281AC
:1023D00004E082894DF6FF731A4082817047F0B5A0
:1023E0000346002400260025002040F66A17B94263
:1023F00000D100BF1846C1F3421401F01F060127A7
:1024000007FA06F5012C01D10C3004E0022C01D1B1
:10241000103000E014301AB107682F43076002E063
:102420000768AF430760F0BD1AB1838A0B4383820C
:1024300002E0838A8B4383827047028A4FF6F073EF
:102440001A400282028A0A430282704782894FF24E
:10245000FF731A40828182890A438281704721B1C9
:10246000828942F00202828104E082894FF6FD7384
:102470001A4082817047028A4FF6DF731A40028247
:10248000028A0A430282704721B1028A42F48042E2
:10249000028204E0028A4BF6FF731A400282704700
:1024A000C1F308028280704701468888C0F30800A3
:1024B0007047818941F0010181817047028BD2B25E
:1024C0000283028B42EA012202837047028B02F4EC
:1024D0007F420283028B0A430283704721B1828AC2
:1024E00042F02002828204E0828A4FF6DF731A40B3
:1024F0008282704721B1828A42F01002828204E017
:10250000828A4FF6EF731A408282704721B1828A25
:1025100042F00802828204E0828A4FF6F7731A4082
:102520008282704721B1828942F40042828103E0B5
:102530008289C2F30E028281704721B1828A42F4FD
:102540000062828204E0828A4FF2FF731A40828224
:102550007047828A4FF6FB731A408282828A0A434E
:102560008282704721B1828A42F00202828204E0B4
:10257000828A4FF6FD731A4082827047024600201D
:10258000B1F5007F00D100BF13880B400BB10120D3
:1025900000E00020704701F40072B2F5007F00D126
:1025A00000BFCA430280704770B502460024002372
:1025B0000025002040F66A16B14200D100BFC1F3E9
:1025C000421501F01F03012606FA03F3012D02D183
:1025D0009689334006E0022D02D1168A334001E08D
:1025E000968A33400C12012606FA04F41688344009
:1025F00013B10CB1012000E0002070BD10B5002225
:10260000002340F66A14A14200D100BF0A1201243F
:102610009440A3B2DC43048010BD000000380140A8
:102620000044004000480040004C00400050004082
:1026300010B56FF00400FDF7CCFF2E4800682E495E
:10264000B0FBF1F02D4908700846007800EB40011E
:10265000C1EBC0104FF6FF7101EAC00028490880A5
:1026600010BD0146254A12784A434FF0E0235A61D3
:1026700000229A611A46126942F001021A6100BFF3
:102680004FF0E022106900F001021AB100F480322C
:10269000002AF5D04FF0E022126922F001024FF03B
:1026A000E0231A6100229A6170470146144A128899
:1026B0004A434FF0E0235A6100229A611A46126998
:1026C00042F001021A6100BF4FF0E022106900F0F1
:1026D00001021AB100F48032002AF5D04FF0E02256
:1026E000126922F001024FF0E0231A6100229A6180
:1026F000704700006C00002000127A009400002057
:1027000096000020014600BF70472C4A12785AB943
:1027100000BF2B4A128802F04002002AF9D0C2B250
:10272000274B1B1D1A800AE000BF264A128802F0C0
:102730004002002AF9D0C2B2224B1B1D1A807047FA
:1027400010B586B00446012144F20400FEF7FAFDFC
:102750004FF40070ADF8140003208DF81600182017
:102760008DF8170005A91848FEF7CAFA4FF48060E3
:10277000ADF8140004208DF8170005A91248FEF7E3
:10278000BFFA01940020ADF80800ADF80A00ADF8DA
:102790000C00ADF810000C20ADF80E0001A909489E
:1027A000FFF785FD002240F225510648FFF717FE8E
:1027B00001210448FFF707FE06B010BD0700002006
:1027C000004400400038014000080140A34A0A408C
:1027D0000243A34B1A6070470146072323EA010214
:1027E00012029F4B1B1D18684FF6FF0318409D4BAC
:1027F000184310439A4B1B1D186070472DE9F04198
:102800000746884614461D462846FFF7E5FFC5F1F2
:10281000040007FA00F60F20284100EA08000643EA
:1028200006F00F06E21704EBD2625211920002F199
:10283000E022D2F800212146E31704EBD3635B11B9
:10284000A4EB431C012303FA0CF31A432046E317BD
:1028500004EBD3635B119B0003F1E023C3F8002179
:102860008148005D40EA06107F490855BDE8F081C7
:1028700070B504460B46CE1701EB9676C6F387007B
:10288000CE1701EB9676B610A1EB8606B606350E8E
:10289000764B9B6943F00103744EB3614FEAB63344
:1028A00053F820300F26AE40B343714E46F8203027
:1028B000334653F8203004FA05F61E436C4B43F8B8
:1028C00020606C4B1B6801268E403343694E336099
:1028D00002F0010343B1674B0C331B6801268E40A5
:1028E0003343644E0C36336002F0020343B1614B54
:1028F00008331E6801238B401E435E4B08331E6065
:1029000070BD00B5002059490861C86014204861B5
:1029100000208861C8610846006840F00100086036
:1029200008464068544908405049486008460068D5
:10293000524908404D4908600846006820F480204C
:1029400008600846406820F4FE0048600020886067
:1029500000214FF00060FFF739FF00BD10B540487F
:102960000830006840F004003D49083108603F48E5
:10297000C06940F080503D49C8614148406840F41A
:1029800080703F4948600846006840F004000860D5
:102990000846006840F002000860FDF73BFC10BDEF
:1029A0003048001D2E49091D086070470146490640
:1029B0002E4A926942F001022C4B9A612C4A083A45
:1029C000526822F0E0622A4B083B5A601A4652686D
:1029D0000A435A60704730B504460025FFF791FF5F
:1029E0002248006840F480302049086000BF1F483A
:1029F0000068400C0028FAD04FF480601B49486002
:102A0000A01EC4B20846406840EA844048600846B8
:102A1000406840F4803048601A48006840F0320056
:102A2000184908601148006840F080700F4908603C
:102A300000BF0E480068400E0028FAD00B484068DE
:102A400040F002000949486005E008484068C0F3CA
:102A5000870505F00305022DF7D130BD80FFFF1F6C
:102A600008ED00E00000FA0500E400E0001002407C
:102A700008000140000401400000FFF8FFFFF6FEDF
:102A8000007000400020024008B501210820FEF738
:102A900059FC4FF40050ADF8000010208DF80300F1
:102AA00003208DF8020069460C48FEF729F908BD9D
:102AB00018B900210A4A11600FE00A490968491C47
:102AC000084A1160814208D105490968C943064A8C
:102AD000C2F8B4110021034A11607047000C014094
:102AE000B48121429C0000200080214208B50121D0
:102AF0000820FEF727FC4FF48040ADF80000482086
:102B00008DF8030069464B48FEF7FAF808BD014608
:102B10004948006828B949480088401C474A108045
:102B200002E00020454A10804348006828B9444824
:102B3000007810B90120424A107042480078B0B9BC
:102B40003F480078012807D13F480078401C3E4AA2
:102B5000107001203B4A10703B480078022806D1D3
:102B60000020394A1070394A1080022070473248DC
:102B70000068012804D10020314A1070314A1070D9
:102B80003148007801281CD130480088401C2F4A69
:102B900010801046008888420ADD28480088884254
:102BA00006DA0020284A1070284A10800120DDE74C
:102BB00022480088884204DD0020234A1070234AFE
:102BC00010800020D2E72248007838B11A48006807
:102BD00020B900201E49087001207047164800687F
:102BE000012801D11A4908700020F6E71948008829
:102BF00040B91148006828B917480088401C164998
:102C0000088002E000201449088013480088C82882
:102C100007DD01200F49088000200F4908800120AE
:102C200070470C480088012802D10020094908801B
:102C30000020F5E7000C014038812142A600002069
:102C4000A0000020A1000020A2000020A40000207D
:102C5000A8000020AC000020AA00002010B50A4601
:102C60001AB10123FE4C236002E00023FC4C2360D8
:102C7000002116E00023FA4C3434236000F0800376
:102C80001BB10123241D236003E00023F44C3834DE
:102C900023600123F24C343423604306180E4B1C8E
:102CA000D9B20829E6DB0123ED4C236010BD30B515
:102CB00000241CE004F1B001C8B20021FFF7CEFFF0
:102CC00000210846FFF7CAFF00211020FFF7C6FFCA
:102CD000002508E0E34901EBC501085D0121FFF78C
:102CE000BDFF681CC5B2802DF4DB601CC4B2082C8B
:102CF000E0DB30BD00B500218D20FFF7AFFF0021E4
:102D00001420FFF7ABFF0021AF20FFF7A7FF00BDA6
:102D100000B500218D20FFF7A1FF00211020FFF753
:102D20009DFF0021AE20FFF799FF00BD30B50024C4
:102D30000CE0002506E00020CA4901EBC50108555A
:102D4000681CC5B2802DF6DB601CC4B2082CF0DB19
:102D5000FFF7ADFF30BDF0B5144600267F2801DC3B
:102D60003F2900DDF0BD0B46CF1701EB5777FF1071
:102D7000C7F10707FAB2CF1701EB5777FF10A1EBA6
:102D8000C707FDB2C5F107070123BB40DEB24CB156
:102D9000B44B03EBC0039B5C3343B24F07EBC0075C
:102DA000BB5408E0AF4B03EBC0039B5CB343AD4F98
:102DB00007EBC007BB5400BFD4E72DE9F04F8046B6
:102DC0000C4615461E46A346A5F12000C5B20027B5
:102DD0003EE00C2E07D105EB4500A34901EB800036
:102DE00010F8079004E0A14800EB051010F80790D8
:102DF0004FF0000A26E009F0800028B12146404645
:102E0000099AFFF7A8FF09E0099808B9012000E036
:102E10000020024621464046FFF79DFF4FEA4960E9
:102E20004FEA1069601CC4B2A4EB0B00B04205D19C
:102E30005C4608F1010000F0FF0806E00AF101001D
:102E400000F0FF0ABAF1080FD5DB00BF781CC7B24B
:102E5000B742BEDBBDE8F08F10B50246012000E0AE
:102E600050430B00A1F10104E1B2F9D110BD2DE9ED
:102E7000FF4F81B0074691461E460E9D4FF0000A57
:102E8000002439E0301B401EC1B20A20FFF7E4FFE6
:102E9000B9FBF0F00A21B0FBF1F201FB1208BAF124
:102EA000000F16D1701EA04213DDB8F1000F0ED135
:102EB0000120AB4605EBDB71491001FB047100906A
:102EC000C8B22B4620220299FFF777FF12E04FF09D
:102ED000010A0120AB4605EBDB71491001FB0471CF
:102EE0000090C8B208F13001CAB22B460299FFF730
:102EF00064FF00BF601CC4B2B442C3DB05B0BDE8D0
:102F0000F08F78B505460E46144618E07A2D03DD9D
:102F1000002506F11000C6B23A2E04DD0020054659
:102F20000646FFF703FF0120009022780C2331466C
:102F30002846FFF742FF05F10800C5B2641C20785F
:102F40000028E3D178BD08B501211020FEF7FAF979
:102F500001210846FEF7F6F94EF20100ADF8000037
:102F600010208DF8030002208DF8020069464048C9
:102F7000FDF7C6FE0120FEF71CF80020FEF74FF912
:102F80000020FDF778FD0020FEF713F800203449FB
:102F90003C3108606420FFF788FB01203549C1F807
:102FA000BC010021AE20FFF759FE0021D520FFF71C
:102FB00055FE00215020FFF751FE0021A820FFF709
:102FC0004DFE00213F20FFF749FE0021D320FFF7EF
:102FD00045FE00210846FFF741FE00214020FFF793
:102FE0003DFE00218D20FFF739FE00211420FFF760
:102FF00035FE00212020FFF731FE00210220FFF7DF
:103000002DFE0021A120FFF729FE0021C020FFF79F
:1030100025FE0021DA20FFF721FE00211220FFF714
:103020001DFE00218120FFF719FE0021EF20FFF790
:1030300015FE0021D920FFF711FE0021F120FFF736
:103040000DFE0021DB20FFF709FE00213020FFF7F5
:1030500005FE0021A420FFF701FE0021A6200BE0C1
:10306000800122421C020020C2BF000836C40008B2
:103070000010014000002242FFF7F0FD0021AF20C8
:10308000FFF7ECFDFFF752FE08BD000000B587B06A
:1030900001214FF40770FEF755F94FF40040FEF799
:1030A000B5F81020ADF8040000208DF8070001A944
:1030B0004048FDF725FE0220ADF8040000208DF801
:1030C000070001A93C48FDF71BFE0820ADF80400ED
:1030D00000208DF8070001A93848FDF711FE384897
:1030E000FDF796FA002002908DF80C008DF80D0087
:1030F0004FF4602004900020059001208DF8180006
:1031000002A92F48FDF7ABFA01212D48FDF7D3FAAC
:103110002B48FDF7F2FA00BF2948FDF7F3FA002823
:10312000FAD12748FDF7F8FA00BF2548FDF7F9FA6C
:103130000028FAD107B000BD10B5044607230122CC
:1031400021461F48FDF723FB01211D48FDF7F3FA37
:1031500000BF02211A48FDF75FFC0028F9D018488B
:10316000FDF77CFB10BD2DE9F04F85B00920FFF77E
:10317000E3FF019007F0A4FF4FF06632114BCDE959
:10318000020107F0EDFF804600220F4B07F0E8FF39
:10319000064600220D4B07F0E3FF044600220C4BCD
:1031A00007F0F0FD824607F045FF0490049805B053
:1031B000BDE8F08F00080140000C01400010014004
:1031C0000024014066660A40000026400000594085
:1031D0000000B04030B585B005460C460121022004
:1031E000FEF7BDF801211820FEF7ACF80120ADF87C
:1031F000100028208DF8130004A9E948FDF780FD90
:103200000420ADF8100010208DF8130002208DF876
:10321000120004A9E348FDF773FDADF80850ADF8BE
:1032200004400020ADF80A00ADF8060001A9DE4810
:10323000FEF7C0F90820DD49088000204880012001
:1032400088800020C8800881D748FEF746FC1D20F2
:103250008DF8000002208DF8010000208DF802009A
:1032600001208DF803006846FDF769F90122092164
:10327000CD48FEF716FD0121CB48FEF7F7FC05B05F
:1032800030BD10B50120CA4908600F20FFF7E9F9E9
:103290000020C849C1F88801C748007800F08000C4
:1032A000E8B1C548007800F03F00C449086008460E
:1032B00000880004086008460068C149098808447D
:1032C000BE49086008460068AA2148434FF47A7155
:1032D000B0FBF1F0B94908600020B749088010BD83
:1032E000B14910310888B449097801F080010029FA
:1032F0004ED100F00101D1B1AF49097801F0400190
:10330000A9B1AD49097801F03F013F290AD1AA4985
:10331000098841F08001A84A11804FF6FF71A84A40
:10332000118004E0A4490988491CA34A118000F0D7
:10333000080169B3A049097801F0400199B19E499B
:10334000098841F080019C4A118097493C310988E5
:103350009B4A118094492031098821F40071924AD6
:103360002032118014E00021934A1180944A118088
:103370009149098841F040018F4A118000218A4A11
:1033800024321180111F098841F40071121F11802D
:103390000021854A10321180704730B589B004464B
:1033A0000D4601214803FDF7CDFF01211020FDF757
:1033B000C9FF01210846FDF7C5FFC020ADF8200078
:1033C00004208DF8230008A97648FDF799FCC02158
:1033D0007448FDF744FD7B48FEF77CFCADF81450C3
:1033E0000020ADF81600ADF81840ADF81A0005A998
:1033F0007448FEF7DFF80020ADF80400ADF80600D1
:103400000120ADF808000020ADF80A00ADF80C006E
:1034100001A96C48FEF761FB0420ADF8040001A986
:103420006848FEF75AFB2E208DF8100001208DF819
:10343000110000208DF8120001208DF8130004A85F
:10344000FDF77DF82C208DF8100004A8FDF777F823
:1034500007215C48FEF7E4FE012207215948FEF7E8
:1034600020FC01215748FEF701FC09B030BD10B522
:103470005548007800F08000002842D102215148D0
:10348000FEF7BDFE00283CD002214E48FEF7C8FEE4
:103490004D48007800F0400020B34A48FEF790FE07
:1034A0004A4908800846008849490988884204DA60
:1034B0004FF6FF704749086002E000204549086068
:1034C0004248008842490988401A4249096808442C
:1034D0004149086000203C49087000213948FEF746
:1034E00077FD0EE03748FEF76BFE39490880364815
:1034F000007840F040003449087002213148FEF75E
:1035000067FD3648007800F08000002841D1042192
:103510002C48FEF774FE60B304212A48FEF780FEB3
:103520002E48007800F0400020B32648FEF74BFEFE
:103530002B490880084600882A490988884204DA0D
:103540004FF6FF702849086002E000202649086015
:103550002348008823490988401A234909680844F8
:103560002249086000201D49087000211548FEF717
:1035700041FD0EE01348FEF726FE1A490880174861
:10358000007840F040001549087002210D48FEF710
:1035900031FD10BD10B501210A48FEF741FE10BDF6
:1035A000000C014000100140000400401C060020F7
:1035B0008801224200002242B00000203400002096
:1035C000B200002000340140B4000020B800002008
:1035D000B6000020CC00002058000020BA000020D7
:1035E000BE000020BC000020D00000205C000020B5
:1035F00008B501210820FDF7A5FE3020ADF8000038
:1036000010208DF8030003208DF80200694634482D
:10361000FDF776FB01210820FDF794FE4FF41040E2
:10362000ADF8000010208DF8030003208DF8020093
:1036300069462C48FDF764FB08BD30B589B00546E6
:103640000C46FFF7D5FF0121C802FDF77BFE0121E3
:103650000420FDF777FE4FF41060ADF8200018202D
:103660008DF8230003208DF8220008A91D48FDF7DE
:1036700047FBADF81850ADF814400020ADF81A0023
:10368000ADF8160005A91848FDF794FF6020ADF8C5
:1036900004000120ADF806000020ADF80A00ADF8E6
:1036A0000C0001A91048FDF7C2FF01A90E48FEF762
:1036B00098F801210C48FEF7E5FA08210A48FEF7C0
:1036C00005FC08210848FEF720FC01210648FEF70A
:1036D000CDFB01210448FEF7C9FA09B030BD000056
:1036E000000C014000080140002C014000B587B0EB
:1036F00001210846FDF733FE01210420FDF722FEDB
:103700000320ADF8000004208DF8030069466148ED
:10371000FDF7F6FA04A8FEF779FA0020ADF81000DC
:103720004FF6FF70ADF814000020ADF81600ADF8AC
:10373000120004A94FF08040FDF73CFF00231A4619
:1037400003214FF08040FEF744FB01A8FEF771FA19
:103750000A20ADF80C0001A94007FEF7BEF90121CF
:103760008807FEF749FD012211469007FEF799FAF6
:1037700000214FF08040FEF70DFD01218807FEF784
:1037800075FA07B000BD00B587B001210420FDF730
:10379000E6FD01210820FDF7D5FDC020ADF80000B1
:1037A00004208DF8030069463B48FDF7A9FA04A8F8
:1037B000FEF72CFA0020ADF810004FF6FF70ADF8C0
:1037C00014000020ADF81600ADF8120004A933482B
:1037D000FDF7F0FE00231A4603213048FEF7F9FA00
:1037E00001A8FEF726FA0A20ADF80C0001A92B4823
:1037F000FEF773F901212948FEF7FEFC012211466C
:103800002648FEF74EFA00212448FEF7C3FC0121AA
:103810002248FEF72BFA07B000BD0146022904D06A
:1038200003290BD0042919D10FE04FF08042928C6C
:1038300010B200224FF080439A8411E0184A128897
:1038400010B20022164B1A800AE0144A2432128861
:1038500010B20022114B24331A8001E0002000BF77
:1038600000BF70470D48103000880C4810300088A9
:1038700020F0010009491031088070474FF0804066
:10388000008A4FF08040008A20F001004FF0804114
:103890000882704700080140000C01400008004009
:1038A0002404004008B501210820FDF74BFD4FF42A
:1038B0004060ADF8000010208DF8030003208DF863
:1038C00002006946F748FDF71BFA08BD10B5F54838
:1038D000001D006820F47040F249091D0860084688
:1038E000006840F4405008600120EF490860EF484C
:1038F000D0F82C0108B9002010BD0120EA49091FA9
:103900000860FEF7AEFE0020E849C1F8AC01E648C9
:103910008038006808B10020EEE70120FEF7A1FE24
:103920000020E149091F08600120E5E710B5DD48E6
:10393000001D006820F47040DA49091D086008463F
:10394000006840F4405008600020D749091F086013
:10395000D649C1F8AC010120FEF783FE0120D2490F
:10396000091F0860D149C1F8AC01FEF77AFE10BD0D
:1039700010B50024CB48001D006820F47040C949F0
:10398000091D08600846006840F4004008600120F6
:10399000C5490860FEF765FE0120C449C1F8A801C9
:1039A000FEF75FFE0AE0601CC4B2322C03DDFFF7B5
:1039B000BDFF002010BD0120FEF753FEBA4880383D
:1039C00000680028EFD1B849091F08600120F1E71D
:1039D00010B50020B449091F0860B248001D0068F6
:1039E00020F47040AF49091D08600846006840F4A3
:1039F000405008600020AD49C1F8AC010120FEF73D
:103A000030FE0120A849091F0860FEF72AFE0020A9
:103A1000A649C1F8A80110BD10B50020A249091F90
:103A20000860A048001D006820F470409D49091DF1
:103A300008600846006840F44050086001209B4937
:103A4000C1F8AC01FEF70DFE01209749091F08607F
:103A5000FEF707FE00209549C1F8A80110BD70B51A
:103A600004469048001D006820F470408D49091DEF
:103A700008600846006840F44050086000208A4909
:103A8000091F0860002516E0E00987490860600604
:103A9000040E0120FEF7E5FD01208449C1F8A801CC
:103AA000FEF7DFFD00208049091F08600120FEF7B6
:103AB000D8FD681CC5B2082DE6DB70BD2DE9F041CC
:103AC00005460E4617469846FFF700FF10B901203D
:103AD000BDE8F0816906080EFFF7C1FFFFF748FF58
:103AE00018B9FFF723FF0120F2E73046FFF7B7FFD1
:103AF000FFF73EFF00240BE018F80400FFF7AFFFCC
:103B0000FFF736FF18B9FFF711FF0020E0E7641C4C
:103B1000BC42F1DBFFF70AFF0020D9E770B505468C
:103B200000246048001D006820F470405D49091DB4
:103B300008600846006840F400400860002617E06E
:103B400000205949091F08600220FEF78AFD012064
:103B50005649C1F8A8016006040E53488038006831
:103B600008B1601CC4B20220FEF77BFD701CC6B217
:103B7000082EE5DB15B1FFF72BFF01E0FFF74CFF47
:103B8000204670BD2DE9F04106460F4614461D46FD
:103B9000FFF79CFE10B90120BDE8F0817106080E08
:103BA000FFF75DFFFFF7E4FE18B9FFF7BFFE012046
:103BB000F2E73846FFF753FFFFF7DAFEFFF786FE1E
:103BC000012101EB4601C8B2FFF749FFFFF7D0FE24
:103BD0000DE0012C04D10020FFF7A0FF287003E0C6
:103BE0000120FFF79BFF28706D1C601EC4B2002CE3
:103BF000EFD1FFF79BFE0020CEE770B505460E46DD
:103C00000024FFF763FE2846FFF729FF641CFFF737
:103C1000AFFE3046FFF723FF641CFFF7A9FEFFF756
:103C200055FE691CC8B2FFF71AFF641CFFF7A0FE1F
:103C30000020FFF773FF0446FFF778FE204670BDB3
:103C40002DE9F0410746884615461E460024FFF739
:103C50003DFE3846FFF703FFFFF78AFE4046FFF7B9
:103C6000FEFEFFF785FEFFF731FE791CC8B2FFF7B5
:103C7000F6FEFFF77DFE00BF0DE0681EA04204D0F7
:103C80000120FFF74BFF305503E00020FFF746FF10
:103C90003055601CC4B2AC42EFDBFFF747FE204654
:103CA000BDE8F081000C0140AC812142008021423E
:103CB0002DE9F04180460D4616461F460024FFF7C9
:103CC00005FE4046FFF7CBFEFFF752FE2846FFF702
:103CD000C6FEFFF74DFE00BF06E0385DFFF7BFFEF2
:103CE000FFF746FE601CC4B2B442F6DBFFF71EFECF
:103CF0000120BDE8F08170B505460E4614463146F8
:103D00002846FFF77AFF2070012070BD37B50446C2
:103D10000D4602AB012229462046FFF7C9FF3EBDF2
:103D20002DE9F8430746884614461D46089E6A4614
:103D300041463846FFF7DFFF28B3601CFF2101FA38
:103D400000F0C4F108012944491EFF220A41104332
:103D500000F0FF09C5F1080006FA00F0C6B2C4F190
:103D6000070006419DF8000000EA090000909DF858
:103D70000000304300909DF8002041463846FFF790
:103D8000C5FFBDE8F8830020FBE7F8B506460F46FF
:103D900014461D466A4639463046FFF7ACFF2DB142
:103DA0000120A0409DF80010084305E00120A0403C
:103DB0009DF8001021EA0000C0B200909DF800209C
:103DC00039463046FFF7A2FFF8BD00001FB50121BC
:103DD0000846FDF7B7FA01210820FDF7B3FA4FF4C2
:103DE0000040ADF80C0048208DF80F0003A91248E0
:103DF000FCF786FF0F210120FDF798F84FF40040F3
:103E0000019000208DF808000C208DF80900012099
:103E10008DF80A0001A8FCF793FE28208DF8000019
:103E200001208DF801008DF802008DF8030068462E
:103E3000FCF785FB1FBD0000000C0140C848C949C4
:103E40004860C94848607047C648006940F0800033
:103E5000C44908617047C348C16801F0010008B156
:103E60000120704701F0040008B10220F9E701F0D9
:103E7000100008B10320F4E70020F2E770B5044613
:103E800000BFFFF7E8FF0546012D00D006E0012046
:103E9000FEF7E7FB601E84B2002CF2D100BF04B92C
:103EA000FF25284670BD70B50546002445F6FF7015
:103EB000FFF7E4FF0446C4B9AA48006940F00200D5
:103EC000A849086108464561006940F04000086162
:103ED00045F6FF70FFF7D2FF0446012C05D0A1483C
:103EE000006920F002009F490861204670BD70B54E
:103EF00005460E46FF20FFF7C1FF044694B99948D6
:103F0000006940F00100974908612E80FF20FFF70B
:103F1000B5FF0446012C05D09248006920F001004D
:103F200090490861204670BD0146088870472DE918
:103F3000F04105460E461746002407E036F81410F7
:103F40002846FFF7D4FFAD1C601C84B2BC42F5DBF1
:103F5000BDE8F08130B503460C461546002207E067
:103F60001846FFF7E1FF24F812009B1C501C82B298
:103F7000AA42F5DB30BD2DE9F05F80468A46174640
:103F8000B8F1006F02D37948804501D3BDE8F09FB6
:103F9000FFF754FFA8F1006B4FEADB25CBF349098B
:103FA000C9F58064A74200DC3C464EE04FF000615A
:103FB00001EBC5204A146E49FFF7CCFF00260BE049
:103FC00009EB06006A4931F810004FF6FF7188428C
:103FD00000D003E0701C86B2A642F1DB00BFA6420F
:103FE0001BDA4FF0006101EBC520FFF75CFF0026F4
:103FF00008E03AF8160006EB09015D4A22F81100C4
:10400000701C86B2A642F4DB4FF0006101EBC520C4
:104010004A145749FFF78BFF04E0224651464046B9
:10402000FFF785FFA74200D110E06D1C4FF000099B
:104030000AEB440A08EB4408381B87B2B7F5806FD7
:1040400002DD4FF4806400E03C46AFE700BFFFF7BD
:10405000FBFE00BF9AE713B50446012201A92046E2
:10406000FFF789FF1CBD10B50A2242494248FFF7FD
:1040700071FF404800884FF6FF71884218D13D48D3
:104080004088884214D13B488088884210D1394802
:10409000C08888420CD139483949086039483A49C2
:1040A00008603A483A4908603A483B49086027E0C6
:1040B0003049088807F048FD0446384907F0FAFB04
:1040C0002F4908602B49488807F03EFD04463349D4
:1040D00007F0F0FB2C4908602649888807F034FD7A
:1040E00004462E4907F0E6FB294908602149C888A3
:1040F00007F02AFD0446294907F0DCFB2649086041
:1041000010BD10B525491E48006807F065FD04463E
:1041100007F0E2FC2249088020491B48006807F0AC
:104120005BFD044607F0D8FC1D4948801B49184830
:10413000006807F051FD044607F0CEFC184988805E
:1041400016491548006807F047FD044607F0C4FC0F
:104150001349C8800A220848FFF70DFF10BD000070
:104160002301674500200240AB89EFCD0000040821
:1041700026060020F401002000E0000800809343A0
:1041800044000020A470BD3F480000203D8ACE427C
:104190004C000020295C0F3F500000200000C84266
:1041A0000802002010B586B0044601210420FDF766
:1041B000C9F801214804FDF7D2F80420ADF8140035
:1041C00003208DF8160018208DF8170005A9F54872
:1041D000FCF796FD0820ADF8140004208DF81700B8
:1041E00005A9F048FCF78CFD26208DF80000002082
:1041F0008DF8010001208DF802008DF8030068465B
:10420000FCF79DF901940020ADF80800ADF80A0014
:10421000ADF80C00ADF810000C20ADF80E0001A9AF
:10422000E148FEF744F8012240F22551DE48FEF74E
:10423000D6F80121DC48FEF7C6F806B010BD2DE91E
:10424000FF5F40F22551D848FEF7AEF900287DD037
:10425000D548FEF729F9D549086008460078D449C1
:104260000870D2480068592802D10220D14908704C
:10427000CE480068582802D10120CE490870CB48AA
:104280000068622807D1CC48007808B9012000E016
:104290000020C9490870C5480068612807D1C7488F
:1042A000007808B9012000E00020C4490870C44823
:1042B000007820B1C1480078401CC1490870BB4853
:1042C00000680A286BDD0020BE490860BE4908600E
:1042D000B64800685A2809D10020BC490870BC497A
:1042E0000870BC490870BC49087058E0AF480068C5
:1042F00041280AD10120B54908700020B44908704E
:10430000B4490870B449087049E0A84800684528D5
:104310000BD10020AD4908700120AD490870002084
:10432000AC490870AC49087039E0A04800684228E0
:1043300007D09E480068432803D09C480068442862
:104340000CD10020A1490870A14900E028E10870C3
:10435000A04908700120A049087020E09348006837
:10436000462807D091480068472803D08F48006846
:1043700048280BD100209549087095490870012004
:104380009449087000209449087008E000208F4983
:1043900008708F4908708F4908708F4908708348EA
:1043A00000680A2867DA00208649086086490860A4
:1043B0007E48006848B90020844908708449087024
:1043C000844908708449087055E0784800680128DD
:1043D00009D17E49087000207D4908707D49087028
:1043E0007D49087047E07148006805280BD100201E
:1043F00076490870012076490870002075490870D8
:104400007549087037E069480068022807D0674896
:104410000068032803D06548006804280AD10020FA
:104420006A4908706A4908706A49087001206A4937
:10443000087020E05D480068062807D05B480068E7
:10444000072803D05948006808280BD100205F498D
:1044500008705F49087001205E49087000205E49BD
:10446000087008E0002059490870594908705949F6
:104470000870594908704E4800787B2802D1012005
:10448000564908704A4800787D2802D102205349D5
:1044900008705248007801280AD1454800785049F0
:1044A000504A127888544F480078401C4D49087093
:1044B0004A480078022873D14A48007807F044FB44
:1044C000494908604648C078502803D1012047492F
:1044D0000870B1E04248C078572803D10120444910
:1044E0000870A9E03E48407823285AD03D4800781B
:1044F0004049087034E03B4909783E4A1278881AEE
:1045000006F0C7FD804642460B4600203A4905F0BA
:1045100035FE04460D4637490978491E304A515C3C
:10452000A1F1300006F0B5FD064622462B4606F006
:1045300017FE82468B463148006807F021F9524643
:104540005B46CDE9000106F061FBCDE9020106F012
:104550002BFB2A49086027480078401E254908702F
:10456000244800780428C6DA1D48407830380928E5
:1045700061D2DFE800F0050D4B535B5C5D5E5F00D0
:104580001F491E48006807F095F91E49086052E06F
:104590001B491A48006807F08DF91B4908604AE07A
:1045A00057E049E00008014000440040E0000020DE
:1045B000DC0000200500002008000020E7000020AB
:1045C0003A000020580000205C000020010000207C
:1045D000020000200300002004000020E40000206E
:1045E000260E0020E5000020300000203B000020C7
:1045F0003C000020E600002000002440E8000020ED
:104600000000C8424400002048000020124913481E
:10461000006807F04FF9124908600CE00E490F4896
:10462000006807F047F90F49086004E003E002E082
:1046300001E000E000BF00BF00200B4908700B49FB
:1046400008700B490870054908603221094805F0D7
:1046500089F8BDE8FF9F00000000C842E800002084
:104660004C00002050000020E4000020E500002065
:10467000E6000020260E00202DE9F84304460D46F2
:1046800016461F46DDF820904FF0000814B10DB11A
:1046900006B117B90120BDE8F883601EC4B2681ED8
:1046A000C5B2701EC6B2781E87B201210846FCF75B
:1046B00049FE01210820FCF745FE01214806FCF7D0
:1046C0004EFE01214FF4EA10FCF7EBFB4FF40070B3
:1046D000ADF8000003208DF8020018208DF80300CB
:1046E0006946FE48FCF70CFB4FF48070ADF8000003
:1046F00048208DF803006946F848FCF701FB0020CC
:10470000F74908600846006840F00100086008E0CA
:1047100008F101001FFA80F8B8F1640F01DD0220F2
:10472000B9E7EF48001D006800F001000028EFD055
:10473000EB480068EA4908600846006808600846D7
:10474000006808600846006840F0100008600846ED
:10475000006808600846006808600020E0491C31D5
:1047600008600846006840EA8970086008460068EA
:1047700040EA046008600846006840EA05500860A6
:104780000846006840EA064008600846006838436A
:104790000860D348006820F00100D149086009E0B2
:1047A00008F101001FFA80F84FF6F070804501DD36
:1047B000032070E7CA48001D006800F001000028CF
:1047C000EED1C848006840F00100C6490860C548FD
:1047D0001C30006820F00100C2491C310860C1484B
:1047E0000C30006840F00100BE490C310860BD4843
:1047F000001D0068BB49091D0860BA4814300068F4
:10480000B849143108600020B649403108600021E1
:10481000B44844300160B3481C30006840F00100E7
:10482000B0491C310860AF4800680020AD490860FD
:10483000AB481430006840F00200A9491431086008
:104840000223142200210120FDF7D8FF002022E7D7
:10485000F0B505460E46059CA1480830006800F0FA
:10486000806008B1002111E09D480830006800F028
:10487000006008B1012109E099480830006800F0A3
:10488000805008B1022101E0FF20F0BD00279548CB
:10489000803800EB011007601EB9C5F30A056D05ED
:1048A00002E025F06045ED008E48803800EB0110F5
:1048B000006828438B4F803F07EB01173860894819
:1048C000803800EB0110006840EA86078548803890
:1048D00000EB011007608348803800EB011000688E
:1048E00040EA42077F48803800EB0110076003F080
:1048F0000F037C48803800EB0110406820F00F0760
:104900007848803800EB011047607648803800EB2B
:10491000011040681843734F803F07EB0117786020
:10492000E0790006A77940EA0740677940EA07275F
:10493000207907436B48803800EB0110C760E078AE
:104940000006A77840EA0740677840EA0720277802
:104950003843644F803F07EB0117B86061488038E7
:1049600000EB0110006840F001075E48803800EB62
:1049700001100760084688E70146002021B101299F
:1049800016D002293CD127E0554A0832126802F0BD
:1049900001021043524A0832126802F00202104328
:1049A0004F4A0832126802F0806240EA126029E041
:1049B0004B4A0832126802F001021043484A08329A
:1049C000126802F002021043454A0832126802F0EF
:1049D000006240EA526015E0414A0832126802F073
:1049E000010210433E4A0832126802F002021043EC
:1049F0003B4A0832126802F0805240EA926001E0BD
:104A0000052000BF00BF7047014629B934480C306B
:104A1000006800F003007047012905D130481030CC
:104A2000006800F00300F6E70020F4E7F0B5DDE9E8
:104A300005542C4E503E06EB0016366806F0040670
:104A4000167016783EB9274E503E06EB00163668B3
:104A5000760D0E6006E0234E503E06EB00163668DB
:104A6000F6080E601F4E503E06EB0016366806F044
:104A700002061E701B4E503E06EB0016766806F0CE
:104A80000F062E70174E503E06EB0016B6682670C5
:104A9000144E503E06EB0016B668360A6670114E8C
:104AA000503E06EB0016B668360CA6700D4E503E12
:104AB00006EB0016B668360EE6700A4E503E06EB60
:104AC0000016F6682671074E503E06EB0016F66893
:104AD000360A6671034E503E06E00000000C0140AD
:104AE000006400400066004006EB0016F668360CD5
:104AF000A671894E06EB0016F668360EE67130B9DF
:104B0000864E366846F02006844F3E6009E0012854
:104B100007D1824E361D366846F020067F4F3F1D76
:104B20003E60F0BD10B588B002A804A905AB06AA86
:104B3000CDE9001007A90020FFF778FF40F221110E
:104B40000798884261D19DF80840002074490860A8
:104B5000744908605A2C08D1734908707349087069
:104B6000734908707349087045E0412C0AD101204F
:104B70006D49087000206D4908706D4908706D49D5
:104B8000087038E0452C0BD10020674908700120DF
:104B900066490870002066490870664908702AE076
:104BA000422C03D0432C01D0442C0AD100205E4972
:104BB00008705E4908705E49087001205D49087000
:104BC00019E0462C03D0472C01D0482C0BD10020F3
:104BD0005549087055490870012055490870002052
:104BE0005449087007E000240020504908705049DB
:104BF000087050490870592C02D102204E490870A3
:104C0000582C02D101204C49087008B010BDF8B5ED
:104C100005460E46002433460022114640F201604C
:104C20000095FFF715FE074601E0601C84B2384688
:104C3000FFF7A2FE072803D040F6FF708442F4DBA2
:104C400040F6FF70844201DB0120F8BD0020FCE744
:104C500010B586B004460020FFF7D6FE10B900203C
:104C600006B010BD02A803AB04AA05A9CDE9000453
:104C70000020FFF7DBFE0598122805D19DF81000F3
:104C800010B99DF80C0008B1002002909DF80800B2
:104C9000E6E7F8B505460E460024334600221146E5
:104CA00040F201700095FFF7D3FD074601E0601C5C
:104CB00084B23846FFF760FE072803D040F6FF7045
:104CC0008442F4DB40F6FF70844201DB0120F8BD32
:104CD0000020FCE7F8B506460D4600240823002214
:104CE000114630460095FFF7B3FD074601E0601C12
:104CF00084B23846FFF740FE072803D040F6FF7025
:104D00008442F4DB40F6FF70844201DB0120F8BDF1
:104D10000020FCE770470000B06500400C640040D4
:104D2000580000205C00002001000020020000204C
:104D30000300002004000020050000200146002997
:104D400001DA484200E00846704700B503460A46CB
:104D5000002B07DD0020FE4908600120FD49C1F855
:104D6000940106E00120FA4908600020F949C1F8E1
:104D700094011846FFF7E2FFF7490880002A07DD93
:104D80000020F64908600120F549C1F8B00106E0AD
:104D90000120F24908600020F149C1F8B001104635
:104DA000FFF7CCFFEC490C39088000BD2DE9F0413C
:104DB00005460E46EB480168EB4806F00DFD074638
:104DC000294606F0D5FF11D3E6480168E74806F00A
:104DD00003FD0746294606F0CBFE07D3E4480078DA
:104DE000012803D040F2564086420DDA012400200B
:104DF000DA49091D0860DA49C1F8BC01D7490860E1
:104E0000D749C1F8B00100E000242046BDE8F08198
:104E100041F6F420D7490978012904D1D649096817
:104E20006431D54A1160D5490978012904D1D449A2
:104E300009686439D24A1160CF49096842429142F7
:104E400002DA4142CC4A1160CB490968814201DD56
:104E5000C9490860CA4909684242914202DA41429E
:104E6000C74A1160C6490968814201DDC44908602A
:104E700070472DE9F05F1446C24FDFF80C83C34939
:104E80000968A1F1640006F047FE06464146204647
:104E900006F0A2FE834686F0004A3946504606F0E8
:104EA0009BFE8146594606F09FFF0546284606F0C0
:104EB000F7FDBDE8F09F2DE9FC5FB5480190B548CE
:104EC0000090B548B5490860B5490968B54A126807
:104ED0001144084606F020FEB3490860B348006854
:104EE00006F04EFC0646B24AB24B06F039F90446CB
:104EF00005F05AFEAD490860AB48006806F040FC7A
:104F00008046AB4AAC4B06F02BF904460D46A74849
:104F1000006806F035FC064622462B4605F076FE74
:104F2000824605F041FEA149086008460168A34891
:104F3000006806F051FCA1490860984801689F4844
:104F4000006806F051FF9D4908609D499B48006834
:104F500006F00EFF02D29A4898490860994997488E
:104F6000006806F005FE02D296489449086093480E
:104F70000099006806F030FE04468C4801990068EC
:104F800006F02AFE0546214606F026FC8E490860FA
:104F90008E4801688E480068FFF708FF012803D09B
:104FA00073480078012802D10020844908608648AF
:104FB000006806F075FDBDE8FC9F2DE9F047054649
:104FC0000C4668480168284606F00EFF8046814876
:104FD0000168204606F000FE814641467E48006892
:104FE00006F0FAFD8246494606F0F6FB074606F053
:104FF00057FD06463046BDE8F08770B53220FDF714
:1050000086FD0546012D07D15948007808B90120D1
:1050100000E0002056490870022D07D16F48007843
:1050200008B9012000E000206C490870FDF7DEFDA2
:105030000446012C07D16A48007808B9012000E035
:1050400000206749087070BD2DE9F04F89B0814696
:1050500003F04DFF63490860B9F1010F1ED103F061
:10506000B5FD6148006880F00040594908605F491B
:10507000B1F90010484206F04FFD5D4908605B49F8
:10508000B1F9040006F048FD5A4908605A49B1F9DF
:10509000040006F041FD594908600BE14421D0208D
:1050A000FEF7ABFD80464321D020FEF7A6FD08EBBE
:1050B0000027384606F030FD04464821D020FEF790
:1050C0009CFD80464721D020FEF797FD08EB002786
:1050D000384606F021FD06463E21D020FEF78DFD24
:1050E00080463D21D020FEF788FD08EB002738469A
:1050F00006F012FD82464021D020FEF77EFD80465C
:105100003F21D020FEF779FD08EB0027384606F056
:1051100003FD05464FF08E41204606F029FE05D2DC
:105120004FF08F41204606F05FFE04464FF08E415F
:10513000304606F01DFE05D24FF08F41304606F096
:1051400053FE06464FF08E41504606F011FE57E0E2
:10515000BC01214200802142402C0140908121422B
:105160000000214254000020000020C20000204224
:105170000600002001000020140000200200002092
:105180001800002000007042CDCC4C3E680000208A
:105190000000A042CDCCCC3E00000CC31C0100207E
:1051A0000C00002010000020140100201801002035
:1051B0009A9999999999E93F9999C93F20010020B5
:1051C00000606A4600606AC61001002020000020CE
:1051D0002400002048000020440000200700002098
:1051E0003A0000201C000020C4010020B001002073
:1051F000280000202C000020B601002040000020E4
:1052000005D24FF08F41504606F0EEFD82464FF03A
:105210008E41284606F0ACFD05D24FF08F4128465E
:1052200006F0E2FD0546F9480460284606F0A8FAB3
:10523000CDE90001504606F0A3FA0746DDE9002358
:1052400004F0DCFE0022F24BCDE9020105F088FFFC
:10525000F04AF14BCDE9040105F094FDCDE90601DA
:1052600005F0A2FC8346204606F08AFA4FF066322B
:10527000EA4BCDE9060105F085FD074605F094FCF3
:105280000446E7480078022804D12146584603F036
:10529000D5F807E0E2480078032803D121465846B4
:1052A00003F0E3F9DF480068DF490860DF48066083
:1052B000DF48056009B0BDE8F08F10B5DD48006833
:1052C000002879D14FF40040DB490860DB480078C2
:1052D00008B9012000E00020D8490870D8480078BB
:1052E00001280BD1D7480078401CC0B2D5490870BE
:1052F0000A2803D100200870D1490870CF480078EF
:10530000012825D1C6480078FFF79EFEFDF72BFF48
:10531000CD490860CD480068401CCC490860CC48A5
:105320000068C94909680844C9490860C748006855
:1053300064280BD108460068642190FBF1F0C54950
:1053400008600020C2490860C0490860002010BD04
:105350000220FEF762FAC04908600420FEF75DFAF9
:10536000BE4908600420FDF7E7FEBD4908600D2036
:10537000FDF7E2FEBB490860B94800680968C7222A
:1053800001FB0200B8490860B5480068B5490968E2
:105390000844B549096891FBF0F0B4490860A04899
:1053A0000078FFF751FEFDF76CFFB148007820B997
:1053B0006420FDF77DFB03E041E00020FDF778FB72
:1053C000FFF71BFE9148016897480068FFF7F5FD5D
:1053D000A8490860A14801689F480068FFF76BFD75
:1053E000A5490860914802689C4801689A4800688D
:1053F000FFF73FFDA14908609E4800689E49096883
:1054000008449E490968401A9D4908609948006807
:105410009949096808449949096808449949086004
:10542000FFF7F6FC8B4801687F480068FFF7BEFC79
:1054300028B99448016892480068FFF786FC00206C
:1054400085E72DE9F04106460F4614461D468E4875
:105450000088E0B92046FFF771FC02462846FFF7B6
:105460006DFC10441E2805DA88480088401C8749D6
:10547000088002E0002085490880844800880A28C6
:1054800005DD0120804908800020804908807E4891
:105490000088012827D17E480088401C80B27C49C2
:1054A0000880C82803DD00200880774908807949F2
:1054B000304606F05DFC16D277480168774806F062
:1054C0008BF98046394606F053FB0CD272480168CE
:1054D000734806F081F98046394606F049FC02D24D
:1054E00002206949088068480088022816D16D4862
:1054F0000088401C80B26B490880642803DD0020CE
:105500000880614908806019FFF718FC872805DDCD
:1055100000205D4908800120BDE8F0810020FBE704
:105520002DE9F04106460C4615465F48007810B953
:105530000020BDE8F0815D480088C0B95648016888
:105540005B4806F049F90746314606F011FB0ED2DA
:1055500051480168574806F03FF90746314606F0C2
:1055600007FC04D21CB915B90120504908804F48E6
:10557000008801281DD150480088401C80B24E4947
:105580000880322803DD002008804849088014F193
:10559000030F0EDA15F1030F0BDA14F13C0F08DDDF
:1055A00015F13C0F05DD00204049088008800120EE
:1055B000BFE70020BDE741480078002824D14048DB
:1055C0000078002820D13F48006840F2726188428C
:1055D00005D93C48006840F6340188420BD339486D
:1055E000006845F29241884274D93648006845F215
:1055F000546188426ED2012033490870002033493B
:105600000870012032490870A1E063E02800002002
:1056100000806640F1D4C853FB21094066663040E3
:105620000000002060010020240000202C00002049
:10563000400000203C81214214040140F800002079
:105640003900002038000020000100200401002063
:1056500008010020200000200C0000201000002085
:1056600060000020640000200C0100206800002081
:105670003A000020EC000020F0000020F4000020A0
:105680001400002018000020240100202601002022
:10569000280100200020CB46540000200000A0C1BB
:1056A0000000A0412A010020060000202C0100205B
:1056B000000020C1000020412E0100200300002036
:1056C00004000020580000200100002002000020FB
:1056D000050000205248006840F24651884204D23A
:1056E0004F480068B0F5617F0BD84D48006845F21F
:1056F000663188420ED24A48006845F2A4118842B9
:1057000008D90020474908700120474908704749D7
:1057100008701CE04248006840F24651884205D9B2
:105720003F48006840F2726188420BD33C480068F1
:1057300045F2663188420AD93948006845F29241FB
:10574000884204D20020374908703749087035482C
:105750000078002862D13448007800285ED13448AF
:10576000006840F27261884205D93148006840F60D
:10577000340188420BD32E48006845F2924188429A
:105780000FD92B48006845F25461884209D20120A4
:105790002849087000202849087001202349087012
:1057A0003CE02348006840F24651884204D2204839
:1057B0000068B0F5617F0BD81D48006845F266317E
:1057C00088420ED21A48006845F2A411884208D9CE
:1057D0000020184908700120174908701349087003
:1057E0001CE01348006840F24651884205D9104831
:1057F000006840F2726188420BD30D48006845F2A0
:10580000663188420AD90A48006845F292418842C6
:1058100004D200200749087007490870704700004B
:105820005800002001000020020000200500002098
:105830005C000020030000200400002038B504466E
:10584000FB4890F82400C0B114B10220009001E0A0
:1058500000200090F64A1268D17BF54A5268107811
:105860006B460122FEF72AF910B14FF0FF3038BD28
:105870009DF80010EE48417423E0ED48807A10B99D
:105880004FF0FF30F3E724B1E948407C08B1002035
:10589000EDE714B10120009001E000200090E44AFF
:1058A0001268D17BE24A526810786B460122FEF7FB
:1058B00005F910B14FF0FF30D9E79DF80010DC4832
:1058C00041740020D3E738B5002419E0D8480068B7
:1058D000C07AA04204D0D6480068407DA04200D1E2
:1058E0000CE0D349496808786B4601222146FEF74F
:1058F00049F910B14FF0FF3038BD00BF601CC4B291
:10590000CB4840680079A042E0DC0020F4E770B5A5
:1059100004460D46C6480068C07AA04204D0C44878
:105920000068407DA04202D14FF0FF3070BDC048FA
:1059300040680079A04202DC4FF0FF30F6E7BC4936
:10594000496808782B4601222146FEF71BF9EDE74E
:1059500038B50446B64890F82300A04201D1002093
:1059600038BD14B13020009001E000200090B04814
:10597000807C20B19DF8000040F002000090AC480F
:1059800090F8220020B19DF8000040F080000090C7
:10599000A74A1268117DA64A526810786B46012208
:1059A000FEF78CF810B14FF0FF30D9E7A04880F82F
:1059B00023400020D4E738B5044604F0700010B14D
:1059C0000120009005E014B10020009001E040208B
:1059D0000090974A1268917C954A526810786B46FD
:1059E0000122FEF76BF820B1002191488172481E18
:1059F00038BD9DF8000020F040018D480173002063
:105A0000009004F0400020B99DF8000040F0040030
:105A1000009004F0200020B99DF8000040F0020042
:105A2000009004F0100020B99DF8000040F0010043
:105A3000009004F0080020B99DF8000040F0380004
:105A400000907B4A1268D17C794A526810786B4684
:105A50000122FEF733F820B1002175488172481EFB
:105A6000C6E724B1082C02D00020FFF771FF704870
:105A70008472002101753220FCF717FE0020B7E781
:105A800038B504466A48807CA04201D1002038BD68
:105A9000002C46D0664A12681179654A526810781F
:105AA0006B460122FEF76EF810B14FF0FF30EEE7C3
:105AB0009DF8000020F0200000905D4A12681179E6
:105AC0005B4A526810786B460122FDF7F7FF10B170
:105AD0004FF0FF30DBE70320FCF7E7FD02200090EA
