:020000040800F2
:1000000028090020D50100085D0700082507000821
:1000100059070008C70500083B0D00080000000054
:10002000000000000000000000000000A10900081E
:10003000CB05000800000000E5070008B50A00082D
:10004000EF010008EF010008EF010008EF010008D0
:10005000EF010008EF010008EF010008EF010008C0
:10006000EF010008EF010008EF010008EF010008B0
:10007000EF010008EF010008EF010008EF010008A0
:10008000EF010008EF010008EF010008EF01000890
:10009000EF010008EF010008EF010008EF01000880
:1000A000EF010008EF010008EF010008EF01000870
:1000B000EF010008EF010008EF010008EF01000860
:1000C000EF010008EF010008EF010008EF01000850
:1000D000EF010008190B0008EF010008EF0100080C
:1000E000EF010008EF010008EF010008EF01000830
:1000F000EF010008EF010008EF010008EF01000820
:10010000EF010008EF010008EF010008EF0100080F
:10011000EF010008EF010008EF010008EF010008FF
:10012000EF010008EF010008EF010008EF010008EF
:1001300000F002F800F03FF80AA090E8000C8244BA
:100140008344AAF10107DA4501D100F034F8AFF297
:10015000090EBAE80F0013F0010F18BFFB1A43F0A5
:1001600001031847E40F000004100000103A24BFF8
:1001700078C878C1FAD8520724BF30C830C144BF0C
:1001800004680C607047000000230024002500264E
:10019000103A28BF78C1FBD8520728BF30C148BFEA
:1001A0000B607047632900F0AE80002070471FB5D8
:1001B0001FBD10B510BD00F0E1F81146FFF7F7FFC5
:1001C00000F002FF00F0FFF803B4FFF7F2FF03BCFA
:1001D00000F0B5FD0948804709480047FEE7FEE703
:1001E000FEE7FEE7FEE7FEE7FEE7FEE7FEE7FEE7E7
:1001F00004480549054A064B70470000B90A000843
:1002000031010008280300202809002028050020CB
:1002100028050020704700000FB4044910B503AA58
:10022000029800F07DF810BC5DF814FB2C00002053
:100230002DE9F0410E460446002020622046E16888
:10024000884730B3252805D0D4E901219047206A9A
:10025000401CF2E7E168204600278847050018D0D7
:10026000A5F14100192802D820354FF40067324625
:10027000294620462760FFF795FF40B1012804D0AA
:10028000F61D26F007060836D8E7361DD6E72846BD
:10029000DAE7206ABDE8F08170B50C460546012A10
:1002A00005D02878800600D5EA69002302E0012302
:1002B00005E05B1C934202D2E05C0028F9D1A869FA
:1002C000E618C01AA861286A184428622846AFF3C5
:1002D000008004E0D5E9012114F8010B9047B442F5
:1002E000F8D32846AFF3008070BD70477047704761
:1002F000704710B5436913B1AFF3008001E0FFF719
:10030000CBFF012010BD127800F124010A700022F9
:100310004A700122EDE711684FF0FF32E9E7000073
:10032000074B70B50D467B4400F011F80446284693
:1003300000F020F810B14FF0FF3070BD204670BDC6
:10034000830C000001694A1C02610878704700B5FF
:100350008FB0CDE901310021059105497944CDE9FE
:10036000031011466846FFF763FF0FB000BD0000A1
:10037000E5FFFFFF007B00F080007047754600F04E
:1003800029F8AE4605006946534620F00700854629
:1003900018B020B5FFF72CFFBDE820404FF0000655
:1003A0004FF000074FF000084FF0000B21F007015D
:1003B000AC46ACE8C009ACE8C009ACE8C009ACE8A0
:1003C000C0098D4670470446AFF300802046FFF712
:1003D000FBFE000000487047C402002021B1826883
:1003E00042F00102826003E0826822F00102826032
:1003F0007047000010B504461248844208D101211C
:10040000401500F00DFA0021601500F009FA17E020
:100410000D48844208D10121001500F001FA0021A5
:10042000201500F0FDF90BE00848844208D10121B5
:10043000C80300F0F5F900214FF4004000F0F0F996
:1004400010BD00000024014000280140003C014094
:10045000014600208A6802F004020AB1012000E08F
:10046000002070470146C86C80B2704702460020E9
:1004700013680B400BB1012000E0002070470146DB
:1004800000208A6802F008020AB1012000E0002082
:100490007047000030B502460020002350680F4C22
:1004A00020400D790C6844EA052420435060906890
:1004B0000B4C2040D1E902542C434D7944EA4504C9
:1004C00020439060D06A20F470000C7C641EE4B27B
:1004D000234340EA0350D06230BD0000FFFEF0FF2E
:1004E000FDF7F1FFF0B504460D4600200021092D6F
:1004F00011DDE068A5F10A0606EB4607072606FAB5
:1005000007F18843A5F10A0606EB460603FA06F151
:100510000843E0600CE0206905EB4507072606FA72
:1005200007F1884305EB450603FA06F1084320610D
:10053000072A0FDA606B561E06EB86071F2606FA9F
:1005400007F18843561E06EB860605FA06F10843B6
:10055000606322E00D2A0FDA206BD61F06EB8607B8
:100560001F2606FA07F18843D61F06EB860605FA12
:1005700006F10843206310E0E06AA2F10D0606EBE5
:1005800086071F2606FA07F18843A2F10D0606EB3F
:10059000860605FA06F10843E062F0BD816841F085
:1005A00008018160704721B1826842F4A002826034
:1005B00003E0826822F4A00282607047816841F003
:1005C00004018160704700BFFEE77047002000E033
:1005D000401C0A28FCDB70472DE9F041024600254B
:1005E0000026002000230024002791F803C00CF00F
:1005F0000F0591F803C00CF0100CBCF1000F03D0F4
:1006000091F802C04CEA050591F800C0BCF1000F5A
:1006100031D0146800202BE04FF0010C0CFA00F3ED
:10062000B1F800C00CEA03069E4220D183004FF0CF
:100630000F0C0CFA03F7BC4305FA03FC4CEA040464
:1006400091F803C0BCF1280F06D14FF0010C0CFA51
:1006500000FCC2F814C00AE091F803C0BCF1480FD6
:1006600005D14FF0010C0CFA00FCC2F810C0401C80
:100670000828D1D31460B1F800C0BCF1FF0F34DDFD
:10068000546800202EE000F1080C4FF0010808FA31
:100690000CF3B1F800C00CEA03069E4221D183009E
:1006A0004FF00F0C0CFA03F7BC4305FA03FC4CEABD
:1006B000040491F803C0BCF1280F05D100F1080C27
:1006C00008FA0CF8C2F8148091F803C0BCF1480F86
:1006D00007D100F1080C4FF0010808FA0CF8C2F835
:1006E0001080401C0828CED35460BDE8F081000083
:1006F00010B504460723012221460948FFF7F2FE00
:1007000001210748FFF74FFF00BF02210448FFF710
:10071000ADFE0028F9D00248FFF7A4FE10BD00008E
:100720000024014000BFFEE701464906084A9269DD
:1007300042F00102064B9A61064A526822F0E062DA
:10074000044B5A601A4652680A435A6070470000C8
:10075000001002400000014000BFFEE770470000AB
:1007600070B5002100230F22C47804B3154C24680F
:1007700004F4E064C4F5E064210AC1F10403CA4052
:10078000447804FA03F184781440214309010E4CA3
:100790000678A155047804F01F050124AC400578C3
:1007A0006D11AD0005F1E025C5F8004109E00478C0
:1007B00004F01F050124AC40044D0678761145F87D
:1007C000264070BD0CED00E000E400E080E100E0B8
:1007D00002490143024A1160704700000000FA0517
:1007E0000CED00E07047000001460020034A50680D
:1007F00020F4404008435060704700000010024061
:1008000029B1064A92690243044B9A6104E0034A03
:1008100092698243014B9A617047000000100240C8
:1008200029B1064AD2680243044BDA6004E0034A65
:10083000D2688243014BDA6070470000001002402A
:1008400030B500210022002400232D4D6D6805F0F5
:100850000C0121B1042905D0082923D105E0294D37
:10086000056022E0274D05601FE0254D6D6805F409
:100870007012234D6D6805F48034022505EB924219
:100880001CB9214D554305600BE01D4D6D6805F405
:1008900000351DB11C4D5543056002E0194D55430F
:1008A000056002E0174D056000BF00BF144D6D6884
:1008B00005F0F0010909154D6B5C0568DD404560E8
:1008C0000F4D6D6805F4E061090A104D6B5C4568D9
:1008D000DD4085600A4D6D6805F46051C90A0B4D15
:1008E0006B5C4568DD40C560054D6D6805F44041B1
:1008F000890B074D6B5CC568B5FBF3F5056130BD31
:100900000010024000127A0000093D00140000208F
:100910002400002070B50024002501201B49086038
:1009200000201B49C1F88C01FFF750FE0120194936
:10093000086000201849C1F88C01FFF747FE01202C
:100940001249086000201249C1F88C01FFF73EFEF1
:1009500000BF17E000200D490860FFF737FEFFF7E2
:1009600035FE0420FFF7C4FE00110C4921F81500E4
:10097000681CC5B201200849C1F88C01FFF726FEAA
:10098000601CC4B2802CE5DB70BD00008C8121426C
:10099000000022428C01224200802142FC00002003
:1009A000704710B500F002F810BD00000CB5002033
:1009B000019000903348006840F48030314908606D
:1009C00000BF3048006800F4003000900198401CDF
:1009D0000190009818B90198B0F5A06FF1D129489D
:1009E000006800F4003010B10120009001E0002008
:1009F00000900098012843D12348006840F010007F
:100A0000214908600846006820F003000860084695
:100A1000006840F0020008601A48406819494860C0
:100A20000846406848600846406840F48060486076
:100A30000846406820F47C1048600846406840F44E
:100A4000E81048600846006840F08070086000BF09
:100A50000C48006800F000700028F9D00948406890
:100A600020F00300074948600846406840F0020053
:100A7000486000BF0348406800F00C000828F9D126
:100A80000CBD00000010024000200240042808D1E4
:100A90004FF0E021096941F004014FF0E0221161BB
:100AA00007E04FF0E021096921F004014FF0E02256
:100AB000116170477047000010B51348006840F09E
:100AC00001001149086008464068104908400E4975
:100AD0004860084600680E4908400B49086008460F
:100AE000006820F4802008600846406820F4FE007A
:100AF00048604FF41F008860FFF753FF4FF000601D
:100B00000449086010BD0000001002400000FFF81A
:100B1000FFFFF6FE08ED00E010B540F225511D483C
:100B200000F04AF810B31B4800F002F9C4B21A48AA
:100B3000008800F40040C8B91748008800F48040DD
:100B400060B10A2C03D000201349088020E012482D
:100B5000008840F400401049088019E00D2C06D1AF
:100B60000D48008840F480400B49088010E00A4896
:100B70000088C0F30D0009490C5407480088401C48
:100B80000549088008460088C72801DD0020088044
:100B900010BD00000038014030000020340000206B
:100BA00021B1828942F40052828104E082894DF6AB
:100BB000FF731A408281704770B5024600240023FB
:100BC0000025002040F66A16B14200D100BFC1F3F3
:100BD000421501F01F03012606FA03F3012D02D18D
:100BE0009689334006E0022D02D1168A334001E097
:100BF000968A33400C12012606FA04F41688344013
:100C000013B10CB1012000E0002070BDF0B5034627
:100C1000002400260025002040F66A17B94200D1C2
:100C200000BF1846C1F3421401F01F06012707FA5E
:100C300006F5012C01D10C3004E0022C01D110305A
:100C400000E014301AB107682F43076002E007681C
:100C5000AF430760F0BD00002DE9F04786B00546C0
:100C60000E460024A24600BFA1460027B08900B16D
:100C700000BF2F462C8A4CF6FF700440F0880443D6
:100C80002C82AC894EF6F3100440B08831890843B9
:100C9000718908430443AC81AC8A4FF6FF4004409D
:100CA000B0890443AC8201A8FFF7CAFD1F48874200
:100CB00002D1DDF810A001E0DDF80CA0A88900F455
:100CC000004040B10AEBCA0000EB0A10316849004D
:100CD000B0FBF1F807E00AEBCA0000EB0A1031683C
:100CE0008900B0FBF1F86420B8FBF0F004012009A2
:100CF000642101FB1089A88900F4004040B1322032
:100D000000EBC900B0FBF1F000F00700044308E07D
:100D1000322000EB09106421B0FBF1F000F00F006D
:100D200004432C8106B0BDE8F08700000038014084
:100D300001468888C0F30800704700BFFEE700BF87
:100D4000704702461009014609B930207047012951
:100D500001D13120FAE7022901D13220F6E7032937
:100D600001D13320F2E7042901D13420EEE705292F
:100D700001D13520EAE7062901D13620E6E7072927
:100D800001D13720E2E7082901D13820DEE709291F
:100D900001D13920DAE70A2901D14120D6E70B2910
:100DA00001D14220D2E70C2901D14320CEE70D2901
:100DB00001D14420CAE70E2901D14520C6E70F29F9
:100DC00001D14620C2E700BFC0E7024602F00F0093
:100DD000014609B930207047012901D13120FAE7D5
:100DE000022901D13220F6E7032901D13320F2E7AD
:100DF000042901D13420EEE7052901D13520EAE7A5
:100E0000062901D13620E6E7072901D13720E2E79C
:100E1000082901D13820DEE7092901D13920DAE794
:100E20000A2901D14120D6E70B2901D14220D2E77E
:100E30000C2901D14320CEE70D2901D14420CAE776
:100E40000E2901D14520C6E70F2901D14620C2E76E
:100E500000BFC0E700B587B001214FF40770FFF76E
:100E6000CFFC4FF40040FFF7BFFC1020ADF80400AA
:100E700000208DF8070001A92448FFF7ADFB2448A6
:100E8000FFF7B8FA10208DF807000820ADF804002D
:100E900003208DF8060001A91E48FFF79DFB1020D6
:100EA0008DF807000820ADF8040003208DF8060037
:100EB00001A91948FFF790FB002002908DF80C0063
:100EC0008DF80D004FF46020049000200590012063
:100ED0008DF8180002A90E48FFF7DCFA01210C4832
:100EE000FFF77CFA0A48FFF759FB00BF0848FFF7F5
:100EF000C6FA0028FAD10648FFF760FB00BF044895
:100F0000FFF7A6FA0028FAD107B000BD000801409B
:100F10000024014000100140000C014010B56FF0AA
:100F20000400FFF7B3FD0A4800680A49B0FBF1F07E
:100F3000094908700846007800EB4001C1EBC01079
:100F40004FF6FF7101EAC0000449088010BD00009F
:100F50000000002000127A00280000202A00002053
:100F60000146114A12884A434FF0E0235A61002299
:100F70009A611A46126942F001021A6100BF4FF0ED
:100F8000E022106900F001021AB100F48032002A58
:100F9000F5D04FF0E022126922F001024FF0E02379
:100FA0001A6100229A6170472A00002000BF054A9A
:100FB000128802F04002002AF9D0C2B2014B1B1D78
:100FC0001A8070470038014000F056F801E000F048
:100FD00001F8FCE770B500F031F812A0FFF71CF93A
:100FE00011A0FFF719F9022412E01049085DFFF77C
:100FF000A8FE054629460EA0FFF70EF90B49085D2D
:10100000FFF7E3FE0546294609A0FFF705F9641C32
:10101000862CEADB07A0FFF7FFF807A0FFF7FCF834
:1010200070BD00002A0000004C440000FC010020BC
:1010300025630000303000002300000010B5FFF7EA
:1010400069FC00200A4908708420487000208870DC
:10105000C87008714871002406E0064810F81410A2
:10106000A01D034A1154641C802CF6DB10BD000047
:10107000FC010020FC00002010B5FFF74FFF4FF4EB
:10108000A060FFF7A5FB0220FFF74EFB0120FFF752
:101090004BFB4FF4FA70FFF763FF4FF4E13000F0C1
:1010A00003F8FFF7D7FE10BD10B586B00446012146
:1010B00044F20400FFF7A4FB4FF40070ADF81400F5
:1010C00003208DF8160018208DF8170005A91C487C
:1010D000FFF782FA4FF48060ADF8140004208DF819
:1010E000170005A91648FFF777FA25208DF80000AC
:1010F00003208DF801008DF8020001208DF8030017
:101100006846FFF72DFB01940020ADF80800ADF80C
:101110000A00ADF80C00ADF810000C20ADF80E0080
:1011200001A90848FFF798FD012240F22551054822
:10113000FFF76CFD01210348FFF732FD06B010BD3B
:10114000000801400038014068110008000000203C
:10115000340000006C0100089C11000834000020DD
:10116000F40800008801000800A24A040000000002
:101170000000000001020304060708090000000047
:101180000102030401020304060708090204060819
:0C11900000000000000000000000000053
:0400000508000131BD
:00000001FF
