:100000006825FF1FE5180000DD19000087180000B3
:100010007D190000A3190000AF19000000000000C6
:10002000000000000000000000000000DF190000D8
:10003000B51B000000000000B71B0000E312000029
:10004000011A0000091A0000111A0000191A000014
:10005000211A0000291A0000311A0000391A000084
:10006000411A0000491A0000511A0000591A0000F4
:10007000611A0000691A0000711A0000791A000064
:10008000811A0000B11B0000B11B0000B11B000071
:10009000B11B0000B11B0000B11B0000B11B000030
:1000A000891A0000911A0000991A0000A11A000094
:1000B000A91A0000B11A0000B11B0000B91A000013
:1000C000C11A0000C91A0000D11A0000D91A000094
:1000D000E11A0000E91A0000F11A0000B11B00004B
:1000E000B11B0000B11B0000B11B0000B11B0000E0
:1000F000B11B0000B11B0000B11B0000B11B0000D0
:10010000B11B0000E1190000B11B0000B11B000091
:10011000B11B0000B11B0000B11B0000B11B0000AF
:10012000B11B0000B11B0000B11B0000B11B00009F
:10013000B11B0000B11B0000B11B0000B11B00008F
:10014000B11B0000F91A0000011B0000091B000090
:10015000B11B0000B11B0000B11B0000B11B00006F
:10016000B11B0000B11B0000111B0000191B000097
:10017000211B0000291B0000311B0000391B00005F
:10018000411B0000491B0000511B0000591B0000CF
:10019000611B0000691B0000711B0000B11B000007
:1001A000B11B0000B11B0000B11B0000791B000057
:1001B000B11B0000B11B0000811B0000891B000067
:1001C000911B0000991B0000A11B0000A91B00004F
:1001D000B11B0000B11B0000B11B0000B11B0000EF
:1001E000B11B0000B11B0000B11B0000B11B0000DF
:1001F000B11B0000B11B0000B11B0000B11B0000CF
:10020000B11B0000B11B0000B11B0000B11B0000BE
:1003F000B11B0000B11B0000B11B0000FFFFFFFF9D
:10040000FFFFFFFFFFFFFFFFFFFFFFFFFEFFFFFFFD
:1004100010B500220121982000F008FF00220121E0
:10042000992000F003FF002201219A2000F0FEFE37
:10043000002201219B2000F0F9FEDFF840432068F4
:1004400040F0807020603220216821F080612160BE
:1004500000F079FF206840F0806020600021AE202D
:1004600000F0A1F80021D52000F09DF800215020D7
:1004700000F099F80021A82000F095F800213F2015
:1004800000F091F80021D32000F08DF80021002029
:1004900000F089F80021402000F085F800218D202F
:1004A00000F081F80021142000F07DF800212020C8
:1004B00000F079F80021022000F075F80021A12059
:1004C00000F071F80021C02000F06DF80021DA2062
:1004D00000F069F80021122000F065F80021812069
:1004E00000F061F80021EF2000F05DF80021D92034
:1004F00000F059F80021F12000F055F80021DB2030
:1005000000F051F80021302000F04DF80021A42027
:1005100000F049F80021A62000F045F80021AF20A6
:1005200000F041F8BDE8104067E0F8B50024944EB3
:10053000924DA4F150000021C0B200F034F8002127
:10054000002000F030F80021102000F02CF80021ED
:10055000C8B216F83020286840F0006028600820F3
:100560002B6823F0807317062B6004D52B6843F0AB
:1005700000732B6003E02F6827F000772F60520094
:100580002B6843F08073401E2B60E9D12868491C1A
:10059000CAB240F00060802A2860D9DB641C761C57
:1005A000082CC6DBF1BD754A21B1116841F000612C
:1005B000116003E0136823F00063136008211368DF
:1005C00023F080735FEA006C136004D5136843F076
:1005D0000073136005E0D2F800C02CF0007CC2F874
:1005E00000C04000136843F08073491E1360E6D1D9
:1005F000106840F000601060704730B46049082017
:1006000000230022D4B2521CD5B201F83430802D20
:10061000F8DB491C401EF4D130BC86E7802800DBA3
:10062000704730B40B46402B15DAC908C1F10701F9
:10063000C9B2C3F10704DB08012504EBC304504B26
:1006400003EBC00005FA04F4435C002A14BF1C430A
:1006500023EA0404445430BC704700002DE9F04FF5
:10066000203A1C0083B08A4639D0D2B2CDF8083087
:1006700002EB420554A40FF2C4570C9E04EB85080C
:1006800007EB021907460D468DF8003001939DF8DF
:1006900000100C290CBF98F800B099F800B008249D
:1006A0005FEA0B6048BF324602D4721E9241D20FFD
:1006B000E9B2F8B2FFF7B2FF6D1CE8B20299A0EB05
:1006C0000A0088424FEA4B0B0AD0641EE8D1019819
:1006D000401E09F1010908F101080190D7D149E054
:1006E00055467F1CF3E72DE9FE4F002600275FEA01
:1006F00003093FD0A9F10105019505460C9C8A46E6
:1007000093469846A8EB0700401E0121C2B22AB1C9
:10071000C0B201EB81035900401EFAD1BBFBF1F2DC
:100720001849A2FB0110C00800EB8003A2EB4302B2
:100730007EB9019887420CDAD0B248B9012360082B
:10074000009378434019234620225146C0B20CE062
:100750000126012000903032600807FB00FCAC4409
:100760002346D2B251465FFA8CF0FFF777FF7F1C29
:100770004F45C7DB03B0BDE8F08F000000F10F402C
:100780003C00FF1FCDCCCCCC7CB504460D461646B4
:1007900015E0E0B27B28A4BF00241035E8B23B2866
:1007A00003DBFFF72AFF00240025012000900C2323
:1007B00016F8012BE9B2E0B2FFF750FF08343078A9
:1007C0000028E6D173BD000000000000000000001A
:1007D00000000000000000003F400000000000009A
:1007E00000003000400030004000000009000BC055
:1007F0003D000BC03D00090018C024407FE02240AE
:1008000031800000180024C01B000D8032400180A0
:1008100003801C4027401C800740004010006000FF
:1008200000000000000000000000000000001F8029
:10083000204040200000402020401F800000000099
:10084000090006001F8006000900000004000400E3
:100850003F80040004000000001000600000000061
:100860000000000004000400040004000400000074
:10087000000000400000000000000000002001C057
:1008800006003800400000001F802040204020402B
:100890001F800000000010403FC00040000000002A
:1008A00018C0214022402440184000001080204001
:1008B000244024401B80000002000D0011003FC0B6
:1008C000014000003C80244024402440238000005C
:1008D0001F8024402440344003800000300020006A
:1008E00027C03800200000001B8024402440244002
:1008F0001B8000001C0022C0224022401F800000FC
:10090000000000000840000000000000000000009F
:100910000460000000000000000004000A00110054
:10092000208040400900090009000900090000007A
:1009300000004040208011000A0004001800200040
:1009400023402400180000001F8020402740294039
:100950001F400000004007C039000F0001C00040E8
:1009600020403FC0244024401B8000001F802040C6
:10097000204020403080000020403FC020402040E8
:100980001F80000020403FC024402E4030C00000A7
:1009900020403FC024402E00300000000F00108097
:1009A000204022403380020020403FC00400040069
:1009B0003FC02040204020403FC020402040000059
:1009C0000060202020203FC02000200020403FC0A9
:1009D00024400B0030C0204020403FC02040004059
:1009E000004000C03FC03C0003C03C003FC00000CE
:1009F00020403FC00C4023003FC020001F8020400B
:100A0000204020401F80000020403FC024402400A0
:100A1000180000001F802140214020E01FA000009E
:100A200020403FC02440260019C0004018C0244088
:100A30002440224031800000300020403FC0204050
:100A40003000000020003F80004000403F80200038
:100A500020003E0001C0070038002000380007C019
:100A60003C0007C038000000204039C0060039C0F3
:100A7000204000002000384007C03840200000001F
:100A8000304021C02640384020C000000000000057
:100A90007FE0402040200000000070000C00038038
:100AA000004000000000402040207FE000000000E7
:100AB0000000200040002000000000000010001096
:100AC00000100010001000100000000040000000A6
:100AD00000000000000002800540054003C0004007
:100AE00020003FC004400440038000000000038059
:100AF00004400440064000000000038004402440FD
:100B00003FC0004000000380054005400340000056
:100B1000000004401FC0244024402000000002E0E8
:100B2000055005500650042020403FC004400400FA
:100B300003C000400000044027C000400000000047
:100B400000100010041027E00000000020403FC00B
:100B50000140070004C00440204020403FC0004046
:100B60000040000007C0040007C0040003C00000EC
:100B7000044007C00440040003C00040000003809C
:100B80000440044003800000041007F004500440B7
:100B900003800000000003800440045007F00010B0
:100BA000044007C0024004000400000000000640AA
:100BB0000540054004C00000000004001F80044000
:100BC00000400000040007800040044007C00040CF
:100BD0000400070004C0018006000400060001C0F4
:100BE000070001C006000000044006C0010006C066
:100BF000044000000410071004E001800600040017
:100C00000000044005C00640044000000000000051
:100C100004007BE040200000000000000000FFF026
:100C200000000000000040207BE004000000000005
:100C30004000800040002000200040000000000034
:100C400000000000000000000000000000000000A4
:100C500000001FCC000C0000000000000000080095
:100C6000300060000800300060000000022003FC3B
:100C70001E20022003FC1E200220000000000E188F
:100C800011043FFF10840C78000000000F00108456
:100C90000F3800C0077818840078000000780F84AF
:100CA00010C411240E9800E40084000808006800B5
:100CB00070000000000000000000000000000000C4
:100CC000000007E018182004400200000000400265
:100CD0002004181807E00000000000000240024055
:100CE00001800FF00180024002400000008000807F
:100CF00000800FF800800080008000000001000DDF
:100D0000000E000000000000000000000000008055
:100D10000080008000800080008000800000000CC7
:100D2000000C0000000000000000000000000006B1
:100D3000001800600180060018002000000007F085
:100D4000080810041004080807F000000000080458
:100D500008041FFC000400040000000000000E0C4A
:100D600010141024104411840E0C000000000C1804
:100D700010041104110412880C700000000000E03F
:100D80000320042408241FFC0024000000001F98F6
:100D9000108411041104108810700000000007F086
:100DA00008881104110418880070000000001C005D
:100DB000100010FC13001C001000000000000E3892
:100DC00011441084108411440E3800000000070004
:100DD000088C10441044088807F000000000000050
:100DE0000000030C030C00000000000000000000E5
:100DF000000101060000000000000000000000806B
:100E00000140022004100808100400000220022003
:100E10000220022002200220022000000000100414
:100E200008080410022001400080000000000E00AD
:100E30001200100C106C10800F00000003E00C1862
:100E400013E4142417C4082807D000000004003C51
:100E500003C41C40074000E4001C000410041FFCF5
:100E60001104110411040E880070000003E00C1836
:100E700010041004100410081C10000010041FFCC3
:100E8000100410041004080807F0000010041FFCF0
:100E90001104110417C410040818000010041FFCEA
:100EA0001104110017C010000800000003E00C1826
:100EB0001004100410441C780040000010041FFCB3
:100EC00010840080008010841FFC100400001004B7
:100ED00010041FFC100410040000000000030001B7
:100EE000100110011FFE10001000000010041FFC74
:100EF000110403801464181C1004000010041FFC6B
:100F00001004000400040004000C000010041FFC86
:100F10001F0000FC1F001FFC1004000010041FFC39
:100F20000C04030000E010181FFC100007F0080874
:100F3000100410041004080807F0000010041FFC3F
:100F400010841080108010800F00000007F0081837
:100F500010241024101C080A07F2000010041FFCC3
:100F60001104110011C011300E0C000400000E1C01
:100F700011041084108410441C3800001800100064
:100F800010041FFC100410001800000010001FF8CF
:100F900010040004000410041FF8100010001E00CC
:100FA00011E0001C007013801C0010001FC0103CDA
:100FB00000E01F0000E0103C1FC000001004180CEF
:100FC000163401C001C01634180C100410001C00A7
:100FD000130400FC13041C00100000000804101C83
:100FE0001064108413041C0410180000000000009A
:100FF00000007FFE4002400240020000000030007E
:101000000C0003800060001C000300000000400290
:10101000400240027FFE00000000000000000000CF
:1010200020004000400040002000000000010001BE
:10103000000100010001000100010001000040006A
:1010400040002000000000000000000000000098A8
:10105000012401440144014400FC000410001FFC71
:101060000088010401040088007000000000007086
:1010700000880104010401040088000000000070E1
:1010800000880104010411081FFC0004000000F89E
:10109000014401440144014400C80000000001046F
:1010A00001040FFC1104110411001800000000D607
:1010B00001290129012901C90106000010041FFCB2
:1010C000008401000100010400FC00040000010490
:1010D000190419FC000400040000000000000003D3
:1010E00000010101190119FE0000000010041FFC9D
:1010F0000024004001B4010C0104000000001004B1
:1011000010041FFC0004000400000000010401FCA6
:101110000104010001FC0104010000FC010401FCC8
:10112000008401000100010400FC0004000000F83C
:10113000010401040104010400F80000010101FFA1
:1011400000850104010400880070000000000070A8
:10115000008801040104010501FF000101040104EC
:1011600001FC00840104010001800000000000CCAB
:101170000124012401240124019800000000010041
:10118000010007F80104010400000000010001F85B
:10119000000400040004010801FC000401000180B7
:1011A0000170000C001001600180010001F0010CD1
:1011B000003001C00030010C01F00100000001040A
:1011C000018C00740170018C010400000101018197
:1011D0000171000E0018016001800100000001840F
:1011E000010C013401440184010C000000000000E6
:1011F0000000000001003EFC400240020000000030
:1012000000000000FFFF000000000000000040029E
:1012100040023EFC010000000000000000006000F1
:101220008000800040004000200020001A4BF0B4F5
:101230001D684FF400764409A64035431D6000F058
:101240001F00164D05EB84035E6956F8203023F429
:10125000E06346F8203056F8203043F4807346F8B7
:10126000203056F820700F4346F8207055F824308F
:1012700001240029596904FA00F014BF0143814395
:101280005961002A19BF196808431A6822EA000048
:101290001860F0BC70470000388004400000FF1F59
:1012A0002C492D4A097811604FF47A7010FB01F136
:1012B00051606420192111769060192051684143D2
:1012C0006FF07F4291420BD82448254A21F07F419C
:1012D000491E41600023F0211170836007210160E5
:1012E00070471D488168027E8A18826070471D48D9
:1012F000194A016890685268B1FBF2F1401A7047D0
:101300001848154900688A6809684FF47A735A4387
:10131000B0FBF1F000230021101A63EB01017047CC
:1013200070B5114E0446706880470023001959417A
:10133000441E61F1000570688047A942FBD301D8C3
:10134000A042F8D370BD084AD3684FF47A7148437D
:10135000184700006405FF1F4005FF1F10E000E074
:1013600023ED00E018E000E02800FF1F80B5002218
:1013700001218220FFF75AFF012201218120FFF77E
:1013800055FFBDE80240544800F0B2B870B5534E66
:10139000306840F0020030600025316821F004011F
:1013A00031608024306840F004003060316821F002
:1013B00002013160306840F002003060316821F095
:1013C00004013160306820F0020030600122042105
:1013D000414800F0A7F842490009EAB221F812009A
:1013E0006D1C306840F00200641E3060EAD170BDB0
:1013F00070B5FFF7CBFF3A4801880A46052300F194
:101400000A042588954228BF2A4665885B1C9542B8
:1014100028BF2A465B1C241D9EB27B2EF1DB0523D0
:1014200000F10A042588A94228BF294665885B1C6B
:101430008D4298BF29465B1C241D9EB27B2EF1DB9A
:101440008A18284902EBD27252100A7005220978D4
:1014500000F10A031D88A9423CBF5E88B1420BD24D
:101460009D88A9423CBFDC888C4205D21D898D42F3
:101470003CBF5C898C4227D3521C9B1C95B2762DB5
:10148000E8DB7622EC3003888B423CBF45888D42F6
:101490000BD283888B423CBFC588A94205D2048900
:1014A000A1423CBF4589A94211D3521E801E93B26E
:1014B000062BE8DA0C4841880088401800EBD07011
:1014C0000A494010087070BD074B1A80D9E70649D9
:1014D0004A80EFE70000000000B00B4000F10F4031
:1014E0003C04FF1F6705FF1F6005FF1F6605FF1F08
:1014F0001A4A1B4990420AD1486A40F0006048628B
:101500000A6822F090020A600868086070478A69D9
:1015100042F000628A61086820F4104008600A689E
:101520000A6070470D4B9200984202F00C0218BFFF
:101530000C4B42F0500201F01F019A60042041F070
:101540004001D860196019680806FCD51869196847
:1015500021F08001196080B27047000000B00340A4
:101560001880044000B00B40F0B43B4B1C6844F4BE
:10157000785405001C603BD0401E0F2838D8DFE8A7
:1015800000F0080B0E1114171A1D2023262C292FEA
:101590003235042100222BE00421022228E004211C
:1015A000042225E00421082222E004210A221FE06F
:1015B00004210C221CE004210E2219E00421102237
:1015C00016E00421122213E00421142210E0042169
:1015D00018220DE004211C220AE004211D2207E04C
:1015E00004211E2204E004211F2201E0032116220F
:1015F0001A481B4F8024047001F007050571194C2F
:101600002568266846F47F062660DF6002F01F0327
:10161000256043F04003437183799C06FCD58379B0
:101620005C06FCD5002303708379C3F38103032B8D
:10163000FAD152B21032322010FB02F202EBD27217
:1016400049B209485210491C92FBF1F1017002782D
:1016500052084270F0BC7047388004400040064099
:101660000000270100F001406405FF1F80B500F075
:1016700021F800BF33A20A210020FFF785F82E4988
:101680000A780C20009003230A215A20FFF72BF838
:101690002FA214210020FFF777F828490A780C20A0
:1016A0000090032314215A20FFF71DF8BDE80140E4
:1016B000FEF73BBFF8B50024214D204E35F8020B54
:1016C00033789842BF41FF0F3A460021E0B2FEF75F
:1016D000A5FF3A460021E0B2FEF7A0FF3A460021FE
:1016E000E0B2FEF79BFF3A460121E0B2FEF796FF1B
:1016F0003A460221E0B2FEF791FF3A460321E0B2FA
:10170000FEF78CFF3A460421E0B2FEF787FF3A4627
:101710000521E0B2FEF782FF3A460621E0B2FEF76D
:101720007DFF3A460721E0B2FEF778FF641CE0B285
:101730008028C3DBF1BD00006605FF1F6705FF1FA2
:101740003C04FF1F5A484F4E47205A48493A000070
:101750005955202020205A48493A000080B50521DB
:10176000012000F029F811480168C1F30220C0F1FE
:101770000701042988BF0421021D072A34BF002065
:10178000C01E012202FA01F1491E01F0010181404F
:1017900002FA00F0401E00F0020008430449054A26
:1017A000000108704FF40030106001BD0CED00E046
:1017B00031E400E004E100E010B40F4A136843F4A0
:1017C000000313600D4A0E4B1468A408A4001460B3
:1017D00003EB00130B4C227851434FF47A704143D2
:1017E0001960D96841F00101D960986840F00300A0
:1017F000986010BC704700003C80044000700340BB
:10180000007103406505FF1F80B50A20FFF7ACFE9D
:101810000B4A0C4813684FF6FF010B40034313605B
:10182000094A13689847FEF7F3FDFFF79FFDFFF79E
:1018300095FFFFF71BFF3220FFF785FDF9E700BF9B
:101840000CED00E00005FA052800FF1F30B400256C
:1018500013E050F8042BD30744BFA9F101039A18F1
:10186000091F042942F8045BFAD213468C0744BFCF
:1018700015809B1CC90748BF1D7050F8041B002928
:10188000E7D130BC7047FEE780B500F007F80849A3
:101890000A884FF6FE7002400A8001BD72B6054804
:1018A0004CF2205101804DF62812028062B670473A
:1018B000002005400E20054030B450F8041B79B1DB
:1018C0000268436802440830DC0744BFA9F1010400
:1018D000E31852F8045B43F8045B091FF9D1ECE705
:1018E00030BC704772B60548054901600A6882F34A
:1018F00008880448804762B60348004708ED00E0C6
:1019000000000000C5190000F519000010B50749D6
:1019100079441831064C7C44163404E00A68081DEA
:10192000114488470146A142F8D110BD2C000000A7
:101930004C0000004EF68851CEF20001086840F4D9
:1019400070000860BFF34F8FBFF36F8F4FF00070D0
:10195000E1EE100A70470000F5FEFFFF2C050000C5
:101960003C00FF1F0000000051FFFFFF3C00000093
:10197000480200000000FF1F00000000FEE700001A
:101980000120C046002801D0FFF7C0FFAFF3008060
:101990000020AFF30080FFF737FF00F000F800F001
:1019A00001B8FEE70746384600F002F8FBE7FEE71D
:1019B00080B5AFF30080024A11001820ABBEFBE7F0
:1019C0002600020080B5FFF75FFF0348016841F47D
:1019D0007001016001BD000088ED00E07047FEE786
:1019E0000348016841F001010160FFF701BD00BF3C
:1019F0001C710340AFF30080FFF79CFFFFF7C0FFAF
:101A000000480047B11B000000480047B11B000020
:101A100000480047B11B000000480047B11B000010
:101A200000480047B11B000000480047B11B000000
:101A300000480047B11B000000480047B11B0000F0
:101A400000480047B11B000000480047B11B0000E0
:101A500000480047B11B000000480047B11B0000D0
:101A600000480047B11B000000480047B11B0000C0
:101A700000480047B11B000000480047B11B0000B0
:101A800000480047B11B000000480047B11B0000A0
:101A900000480047B11B000000480047B11B000090
:101AA00000480047B11B000000480047B11B000080
:101AB00000480047B11B000000480047B11B000070
:101AC00000480047B11B000000480047B11B000060
:101AD00000480047B11B000000480047B11B000050
:101AE00000480047B11B000000480047B11B000040
:101AF00000480047B11B000000480047B11B000030
:101B000000480047B11B000000480047B11B00001F
:101B100000480047B11B000000480047B11B00000F
:101B200000480047B11B000000480047B11B0000FF
:101B300000480047B11B000000480047B11B0000EF
:101B400000480047B11B000000480047B11B0000DF
:101B500000480047B11B000000480047B11B0000CF
:101B600000480047B11B000000480047B11B0000BF
:101B700000480047B11B000000480047B11B0000AF
:101B800000480047B11B000000480047B11B00009F
:101B900000480047B11B000000480047B11B00008F
:101BA00000480047B11B000000480047B11B00007F
:101BB000FFF7FEBFFEE7FEE700F00F4040F00F40EA
:101BC00080F00F40C0F00F4000F10F400090044043
:101BD00000A0044000B0044000C0044000D0044015
:101BE000A112000001130000EF12000021130000F9
:041BF0004713000097
:04000005000019F5E9
:00000001FF
