:020000040800F2
:10000000900D00206D05000841030008430300081F
:10001000470300084B0300084F03000800000000DE
:100020000000000000000000000000005303000872
:10003000550300080000000057030008590300089A
:100040008705000887050008870500088705000860
:100050008705000887050008870500088705000850
:100060008705000887050008870500088705000840
:100070008705000887050008870500088705000830
:100080008705000887050008870500088705000820
:10009000FF5A000887050008870500088705000843
:1000A0008705000887050008870500088705000800
:1000B0002B3D000839530008133D00088705000850
:1000C00087050008870500088705000887050008E0
:1000D00087050008273A0008DF4A0008870500085E
:1000E000EF680008870500088705000887050008F5
:1000F000FD55000887050008D5540008870500084D
:10010000870500088705000887050008870500089F
:10011000870500088705000887050008870500088F
:10012000870500088705000887050008870500087F
:10013000870500088705000887050008870500086F
:10014000870500088705000887050008870500085F
:10015000870500088705000887050008870500084F
:10016000870500088705000887050008870500083F
:10017000870500088705000887050008870500082F
:10018000870500088705000800F002F800F061F814
:100190000AA090E8000C82448344AAF10107DA45E2
:1001A00001D100F056F8AFF2090EBAE80F0013F0D3
:1001B000010F18BFFB1A43F001031847ACE9000018
:1001C000CCE900000A444FF0000C10F8013B13F09A
:1001D000070408BF10F8014B1D1108BF10F8015BA0
:1001E000641E05D010F8016B641E01F8016BF9D193
:1001F00013F0080F1EBF10F8014BAD1C0C1B09D1EA
:100200006D1E58BF01F801CBFAD505E014F8016B5B
:1002100001F8016B6D1EF9D59142D6D370470000ED
:100220000023002400250026103A28BF78C1FBD8FF
:10023000520728BF30C148BF0B60704764290AF0DD
:100240003184002070471FB50CF0CFFF1FBD10B5E3
:1002500010BD0AF0F5FD1146FFF7F5FF00F008F8B4
:100260000AF013FE03B4FFF7F2FF03BC03F080FBB8
:1002700008B5A82003F0FAFA4FF4FA3003F095FB22
:100280004FF4A06000F092F903F060FE03F0A0FDCF
:1002900004F0A5F853214FF6FF7004F0B5FFA72135
:1002A0004FF6FF7005F0A9F803F060FC03F0B6FC10
:1002B0004FF4165004F0C2FB4FF4FA7003F038FB11
:1002C00004F038F907F0EAFA07F0FCFA03F0B4FB9F
:1002D00000200323062207210090012005F0BAF92F
:1002E000012142F2D00003F0A1FE03F033FD1DE036
:1002F0000F480078012804D104F022FF00200C49A7
:1003000008700C48007820B906F075FF06F03AFE38
:1003100001E007F015F8012007490870002007499F
:10032000087000BF044800780028FBD1E0E7000017
:100330003C00002007000020390000203800002089
:10034000704700BFFEE700BFFEE700BFFEE700BF4B
:10035000FEE7704770477047704700000CB50020FB
:10036000019000907648006840F48030744908603D
:1003700000BF7348006800F4003000900198401CF2
:100380000190009818B90198B0F5A04FF1D16C48D0
:10039000006800F4003010B10120009001E000205E
:1003A00000900098012846D165484030006840F030
:1003B00080506349403108606248006840F4404022
:1003C000604908605E48083000685D49083108608F
:1003D0000846006840F4004008600846006840F4A1
:1003E000A05008605848091F0860081F006840F0C6
:1003F0008070091F086000BF5148006800F000705D
:100400000028F9D040F20570504908604C48083087
:10041000006820F003004A49083108600846006877
:1004200040F00200086000BF45480830006800F056
:100430000C000828F8D10CBD10B54548006840F400
:100440007000434908603E48006840F001003C49A4
:10045000086000203A4908310860394800683D4981
:100460000840374908603C48091D0860081F0068BB
:1004700020F48020091F0860002031490C310860F9
:10048000FFF76CFF4FF0006031498039086010BD04
:1004900070B500200022022300240221284D0835D7
:1004A0002D6805F00C0020B1042806D0082834D1AE
:1004B00007E02A4D2A4E356033E02A4D284E35603C
:1004C0002FE01F4D2D1D2D68C5F380541C4D2D1D93
:1004D0002D6805F03F0154B1224DB5FBF1F5184EE2
:1004E000361D3668C6F3881605FB06F209E01B4D7B
:1004F000B5FBF1F5124E361D3668C6F3881605FBBE
:1005000006F20F4D2D1D2D68C5F301456D1C6B00C6
:10051000B2FBF3F5124E356003E0104D104E35601E
:1005200000BF00BF064D08352D68C5F303150E4EFC
:10053000705D0B4D2D68C540094E356070BD0000E3
:10054000003802400070004008544007003C024060
:1005500088ED00E0FFFFF6FE103000240024F400D8
:100560006000002000127A006400002009488047E3
:1005700009480047FEE7FEE7FEE7FEE7FEE7FEE785
:10058000FEE7FEE7FEE7FEE704480549054A064B9D
:100590007047000039040008890100089007002016
:1005A000900D00209009002090090020324901435D
:1005B000324A1160704770B5002100230F22C478C1
:1005C0001CB32E4C246804F4E064C4F5E064C4F366
:1005D0000721C1F10404E3B20A4144789C40E1B22E
:1005E0008478144021430C07210E254C0578615571
:1005F000047804F01F050124AC4005786D11AD00AE
:1006000005F1E025C5F8004109E0047804F01F0574
:100610000124AC401B4D0678761145F8264070BD8C
:10062000194A0A400243154B1B1F1A60704739B123
:10063000124A121D12680243104B1B1D1A6006E07D
:100640000E4A121D126882430C4B1B1D1A60704724
:10065000042808D14FF0E021096941F004014FF06E
:10066000E022116107E04FF0E021096921F0040167
:100670004FF0E022116170470000FA050CED00E038
:1006800000E400E080E100E080FFFF1F10B50121E1
:10069000080201F080FF00214FF4807001F07BFF21
:1006A00010BD30B50246002000235068F84C2040B1
:1006B0000D790C6844EA0524204350609068F54C9D
:1006C0002040D1E903542C438D682C434D7944EAF2
:1006D000450420439060D06A20F470000C7D641EB5
:1006E000E4B2234340EA0350D06230BD00210160F0
:1006F000017141718160C160016101210175704723
:100700000021E54A1168E54A1140D0E900231A4367
:1007100083681A43C3681A431143E14AC2F80413B9
:1007200070470021016041608160C160704721B164
:10073000826842F00102826003E0826822F00102D6
:10074000826070470A4600214168D64B1940114328
:10075000416070474162826270470A4600214168E9
:1007600021F01F0111434160704738B1CA4909683F
:1007700041F40001CA4AC2F8041306E0C6490968F8
:1007800021F40001C64AC2F80413704738B1C249C7
:10079000096841F48001C24AC2F8041306E0BE4968
:1007A000096821F48001BE4AC2F804137047F0B50D
:1007B00004460D4600200021092D11DDE068A5F159
:1007C0000A0606EB4607072606FA07F18843A5F155
:1007D0000A0606EB460603FA06F10843E0600CE061
:1007E000206905EB4507072606FA07F1884305EB64
:1007F000450603FA06F108432061072A0FDA606B09
:10080000561E06EB86071F2606FA07F18843561E7A
:1008100006EB860605FA06F10843606322E00D2A1E
:100820000FDA206BD61F06EB86071F2606FA07F1A4
:100830008843D61F06EB860605FA06F108432063B7
:1008400010E0E06AA2F10D0606EB86071F2606FA05
:1008500007F18843A2F10D0606EB860605FA06F1BC
:100860000843E062F0BD816841F0804181607047DB
:10087000014600208A6802F080420AB1012000E0AF
:100880000020704721B1826842F48062826003E0F8
:10089000826822F480628260704721B1826842F0EF
:1008A0000202826003E0826822F0020282607047E6
:1008B00010B50A4600210023416821F46041531E0F
:1008C00041EA4331416010BD21B1426842F4006207
:1008D000426003E0426822F40062426070470146D1
:1008E000C86C80B270476C48001D0068704721B129
:1008F000826842F48072826003E0826822F480722F
:100900008260704721B1826842F40072826003E025
:10091000826822F400728260704738B15E490968CB
:1009200041F400515E4AC2F8041306E05A490968CE
:1009300021F400515A4AC2F804137047F0B5044636
:100940001546002000220026092911DDE068A1F1EA
:100950000A0707EB470C072707FA0CF29043A1F1AF
:100960000A0707EB470703FA07F21043E0600CE0C1
:10097000206901EB410C072707FA0CF2904301EBC9
:10098000410703FA07F210432061A06BC0F3015640
:10099000EF1C06F1010CA7EB0C0707EB870C1F27D8
:1009A00007FA0CF29043EF1C06F1010CA7EB0C07C1
:1009B00007EB870701FA07F21043A063F0BD10B5FB
:1009C0000A4600210023816B21F44011531E41EAA5
:1009D0000351816310BD08B5002300930090009B74
:1009E0000B440093009B1A6008BD0A4600218168F1
:1009F00021F470211143816070470A46002181680B
:100A000021F44011114381607047816841F48001F5
:100A100081607047014600208A6802F480020AB1B2
:100A2000012000E00020704721B1426842F480625A
:100A3000426003E0426822F480624260704721B164
:100A4000426842F48052426003E0426822F48052DD
:100A50004260704708B5024600200090009201F104
:100A60002800009B184400900098006880B208BDE0
:100A700010B50B460021D9B2012404FA01F11AB1D4
:100A800044680C43446002E044688C43446010BDF9
:100A9000FFFEFFFCFDF7FFC004230140E030FCFF38
:100AA00000200140FFFD3FFF0246002013680B407D
:100AB0000BB1012000E000207047CA43026070477C
:100AC00070B502460020002300240B125568012651
:100AD0008E4005EA060415681D4015B10CB10120D1
:100AE00000E0002070BD00220A12D343036070476B
:100AF00010B50446FE48844209D10121480601F0A0
:100B000039FD00214FF0007001F034FD08E00121B3
:100B1000880601F02FFD00214FF0806001F02AFDD2
:100B200010BD30B5024600200023146824F00204F2
:100B30001460146844F00104146000E05B1C546805
:100B400004F001041CB94FF6FF74A342F6D15468B7
:100B500004F001040CB900206CE08C79012C04D164
:100B6000146844F08004146003E0146824F08004E6
:100B70001460CC79012C04D1146844F04004146052
:100B800003E0146824F0400414600C7A012C04D1B2
:100B9000146844F02004146003E0146824F0200476
:100BA00014604C7A012C04D1146844F010041460D1
:100BB00003E0146824F0100414608C7A012C04D132
:100BC000146844F00804146003E0146824F0080476
:100BD0001460CC7A012C04D1146844F0040414602D
:100BE00003E0146824F0040414608C78A407CD7822
:100BF00044EA05640D7944EA05444D7944EA055414
:100C00000D886D1E2C43D461146824F00104146017
:100C1000002300E05B1C546804F001041CB14FF693
:100C2000FF74A342F6D1546804F001040CB1002013
:100C300000E0012030BD10B50021837A012202FAC4
:100C400003F1AC4A126842F00102AA4B1A60A94AA9
:100C50001C3212688A43A74B1C331A60027BCAB944
:100C6000A44A0C3212688A43A24B0C331A604288A1
:100C7000C38842EA03439F4A4032847A42F83430C0
:100C80000288838842EA03439A4A4032847A02EB1C
:100C9000C4025360027B012A19D1964A0C321268B1
:100CA0000A43944B0C331A604288038842EA034398
:100CB000904A4032847A42F83430C288838842EACB
:100CC00003438C4A4032847A02EBC4025360C27AF6
:100CD0003AB9884A121D12688A43864B1B1D1A6056
:100CE00006E0844A121D12680A43824B1B1D1A60DB
:100CF000028932B97F4A143212688A437D4B143319
:100D00001A600289012A06D17A4A143212680A430B
:100D1000784B14331A60427B012A06D1754A1C3283
:100D200012680A43734B1C331A60724A126822F02D
:100D30000102704B1A6010BD00218171C1710172F6
:100D400041728172C1728170C170032101710221EF
:100D500041710121018070476649096841F0010134
:100D6000644A11601146096843F60E729143614A64
:100D700011601146096841EA0021116011460968B5
:100D800021F001011160704721B1026842F4803204
:100D9000026003E0026822F4803202607047E1B131
:100DA000026842F0800202604FF4C272125842F4AC
:100DB00080734FF4C27213504FF4CA72125842F447
:100DC00080734FF4CA7213504FF4D272125842F427
:100DD00080734FF4D27213501BE0026822F080023D
:100DE00002604FF4C272125822F480734FF4C27240
:100DF00013504FF4CA72125822F480734FF4CA721F
:100E000013504FF4D272125822F480734FF4D272FE
:100E10001350704710B502460020936803F08063BA
:100E2000B3F1806F00D110E0936803F00063B3F179
:100E3000006F01D1012008E0936803F08053B3F103
:100E4000805F01D1022000E00420042879D002F55F
:100E5000C07303EB00131B6803F0010402F5C073B9
:100E600003EB00131C600B7A7BB94B7A0C8843EAC6
:100E7000445302F5C07404EB00142468234302F5C4
:100E8000C07404EB0014236010E00B7A4C6843EA52
:100E9000C4034C7A234302F5C07404EB00142468A5
:100EA000234302F5C07404EB001423608B7A03F033
:100EB0000F038B7202F5C07303EB00135B6823F022
:100EC0000F0402F5C07303EB00135C6002F5C073FE
:100ED00003EB00135B688C7A234302F5C07404EBC8
:100EE000001463608B7B1C064B7B44EA034403E0E5
:100EF00000640040006600400B7B44EA0323CC7A88
:100F0000234302F5C07404EB0014A3608B7C1C0621
:100F10004B7C44EA03440B7C44EA0323CC7B23430D
:100F200002F5C07404EB0014E36002F5C07303EB38
:100F300000131B6843F0010402F5C07303EB0013B8
:100F40001C6010BD10B50246002321B1012907D055
:100F500002290FD109E09068F94C00EA04030BE084
:100F60009068F84C00EA040306E09068F64C00EA4A
:100F7000040301E0002300BF00BFF44C181BA34290
:100F800016D007DC83B16FF08060184470B102287E
:100F900018D111E0B0F5007F10D0ED4C204448B1DD
:100FA000B0F5003F0ED10BE002230DE000230BE073
:100FB000002309E0002307E0012305E0012303E00B
:100FC000012301E0002300BF00BFD8B210BD21B152
:100FD000012907D002290FD109E0826842F080027E
:100FE00082600AE0826842F40042826005E0826822
:100FF00042F40002826000E000BF00BF704710B5FD
:1010000000F5D87303EB01131B6803F0040313729C
:10101000137A53B900F5D87303EB01131B6840F240
:10102000FF7404EA5353136009E000F5D87303EB2F
:1010300001131B686FF0604404EAD303536000F5AA
:10104000D87303EB01131B6803F00203537200F51E
:10105000D87303EB01135B6803F00F03937200F581
:10106000D87303EB01135B681B0AD37400F5D873C4
:1010700003EB01139B68D37200F5D87303EB0113E4
:101080009B681C0A147300F5D87303EB01139B686B
:101090001C0C547300F5D87303EB01139B681B0EF3
:1010A000937300F5D87303EB0113DB68D37300F57A
:1010B000D87303EB0113DB681C0A147400F5D873B2
:1010C00003EB0113DB681C0C547400F5D87303EBBD
:1010D0000113DB681B0E937421B9C36843F020032E
:1010E000C36003E0036943F02003036110BD21B92D
:1010F000C26842F02002C26003E0026942F02002AE
:10110000026170470246002019B9D36803F003005A
:1011100006E0012903D1136903F0030000E0002079
:10112000704710B502460B4600204FF6FF71BBB961
:10113000146824F0020444F00104146000E0491E25
:10114000546804F00304012C01D00029F7D154683D
:1011500004F00304012C01D0002032E0012030E033
:10116000012B13D1146824F00304146000E0491E1D
:10117000546804F003040CB10029F8D1546804F059
:1011800003040CB100201CE001201AE0022B17D14F
:10119000146824F0010444F00204146000E0491EC5
:1011A000546804F00304022C01D00029F7D15468DC
:1011B00004F00304022C01D0002002E0012000E032
:1011C000002010BD014600200A6822F0010242F012
:1011D00002020A604A6802F00302022A00D10120DA
:1011E000704701464FF6FF7200200B6823F00203A0
:1011F0000B6000E0521E4B6803F00203022B01D18A
:10120000002AF7D14B6803F00203022B00D0012023
:101210007047014600208A6902F07000704701465D
:1012200000208A69100E7047014600208A69C2F3C7
:10123000074070471AB143690B43436102E04369B9
:101240008B434361704710B50246002001F47003E0
:1012500043B19369C1F3130423400BB101202DE086
:1012600000202BE001F0807343B15368C1F31304F5
:1012700023400BB1012021E000201FE001F00063BA
:1012800043B19368C1F3130423400BB1012015E06F
:10129000002013E001F0007343B1D368C1F31304DD
:1012A00023400BB1012009E0002007E01369C1F3DE
:1012B000130423400BB1012000E0002010BD0022E8
:1012C000244B994202D10023836111E0C1F3130240
:1012D00001F000730BB1C2600AE001F080630BB152
:1012E000026105E001F000630BB1826000E0426042
:1012F00070470246002002EA01030BB1012000E022
:101300000020704770B504460D46002660692840ED
:10131000002872D0B5F5807F69D01DDC082D42D041
:1013200006DC012D2DD0022D31D0042D7FD134E0EB
:10133000102D3ED0202D42D0402D78D145E0000028
:10134000030000040003000800000310000100086F
:101350000001FFF77000F030B5F5004F61D009DCF7
:10136000B5F5007F4AD0B5F5806F4DD0B5F5006F6B
:101370005DD150E0B5F5803F2DD0B5F5003F56D199
:101380002FE0A0685549FFF7B4FF064651E0E0683A
:101390000321FFF7AEFF06464BE0E0680821FFF7A8
:1013A000A8FF064645E0E0681021FFF7A2FF0646C9
:1013B0003FE020690321FFF79CFF064639E02069E2
:1013C0000821FFF796FF064633E020691021FFF75A
:1013D00090FF06462DE060680821FFF78AFF064669
:1013E00027E060681021FFF784FF064621E0A0692E
:1013F0000121FFF77EFF06461BE01BE0A0690221EA
:10140000FFF777FF064614E0A0690421FFF771FF9C
:1014100006460EE00BE0A0697021FFF76AFF064662
:1014200007E060680421FFF764FF064601E000263C
:1014300000BF00E00026304670BDB1F5007F3AD015
:101440000FDC202928D006DC01291CD004291DD05E
:10145000082940D11DE0402921D0B1F5807F3AD143
:1014600026E0B1F5004F31D006DCB1F5806F25D014
:10147000B1F5006F2FD124E0B1F5803F12D0B1F566
:10148000003F28D111E0154A826025E00822C260A1
:1014900022E01022C2601FE0082202611CE010223C
:1014A000026119E00822426016E01022426013E057
:1014B0000422426010E0042242600DE004224260F7
:1014C0000AE0002282610422426005E0002282617B
:1014D0000422426000E000BF00BF7047010101002C
:1014E000002041490860091D0860091D0860091DA8
:1014F00008603E483C4914310860704700213A4971
:101500008279002A3AD00A46126803689A430B4649
:101510001A600A1D126803689A430B1D1A6002794B
:1015200011440A6803681A430A602F4A0832126895
:1015300003689A432C4B08331A601A1D126803681B
:101540009A43294B0C331A604279102A0ED11A1F84
:10155000126803681A43244B08331A601A1D126874
:1015600003681A43204B0C331A600DE01E49427980
:1015700011440A6803681A430A6005E002791144BD
:101580000A6803689A430A6070470021016001718C
:101590000C21417100218171704713491031096894
:1015A0000143114A103211607047014600200E4A73
:1015B000143212680A400AB1012000E0002070478E
:1015C000094914310860704701460020064A143268
:1015D00012680A400AB1012000E000207047024969
:1015E0001431086070470000003C0140FFFF7F009D
:1015F000FE4A1070704730B1FC49096841F48071AF
:10160000FA4A116005E0F949096821F48071F74A46
:101610001160704730B1F549096841F40071F34A2F
:10162000116005E0F149096821F40071EF4A116089
:10163000704730B1ED49096841F48061EB4A1160AF
:1016400005E0EA49096821F48061E84A11607047C1
:10165000E648006840F40060E44908607047E348E9
:10166000006840F48050E14908607047DF4810305E
:10167000006800F0004028B1DD48DC49091D086021
:10168000DC4808607047D9481030006840F00040DE
:10169000D6491031086070470920D4490C310968D7
:1016A00001F48031B1F5803F01D1012020E0CF4924
:1016B0000C31096801F0100109B1062018E0CB498E
:1016C0000C31096801F4807109B1022010E0C749AA
:1016D0000C31096801F0EF0109B1072008E0C349A6
:1016E0000C31096801F0020109B1082000E009206D
:1016F000704708B509200090FFF7CEFF009002E088
:10170000FFF7CAFF00909DF800000128F8D09DF86F
:10171000000008BD70B504460A460026092502B936
:1017200009E0012A01D1160205E0022A01D11602C0
:1017300001E04FF44076FFF7DCFF0546092D2DD17F
:10174000AA481030006820F44070A84910310860A1
:1017500008460068304308600846006820F0F8003A
:1017600008600846006844F0020108439F491031B0
:1017700008600846006840F480300860FFF7B9FF51
:1017800005469A481030006820F002009749103151
:1017900008600846006820F0F8000860284670BD20
:1017A00030B5024600250924FFF7A3FF044602B91D
:1017B00009E0012A01D1150205E0022A01D1150232
:1017C00001E04FF44075092C20D1884810300068A2
:1017D00020F44070854910310860084600682843AD
:1017E00008600846006840F0040008600846006889
:1017F00040F480300860FFF77CFF04467B481030DF
:10180000006820F00400794910310860204630BD9E
:1018100030B5024600250924FFF76BFF044602B9E4
:1018200009E0012A01D1150205E0022A01D11502C1
:1018300001E04FF44075092C20D16C48103000684D
:1018400020F4407069491031086008460068284358
:1018500008600846006840F0040008600846006818
:1018600040F480300860FFF744FF04465F481030C2
:10187000006820F004005D4910310860204630BD4A
:1018800030B5024600250924FFF733FF044602B9AC
:1018900009E0012A01D1150205E0022A01D1150251
:1018A00001E04FF44075092C20D1504810300068F9
:1018B00020F440704D491031086008460068284304
:1018C00008600846006840F4004008600846006868
:1018D00040F480300860FFF70CFF044643481030A6
:1018E000006820F40040414910310860204630BDB6
:1018F00070B5064614461D460922FFF7FAFE024659
:10190000092A1ED139481030006820F44070374948
:10191000103108600846006840F4407008600846CE
:10192000006840F00100086034607560FFF7E1FE78
:1019300002462E481030006820F001002B4910317B
:101940000860104670BD30B502460C460925FFF709
:10195000D0FE0546092D1DD124481030006820F422
:1019600040702249103108600846006840F4007059
:1019700008600846006840F0010008601460FFF746
:10198000B8FE054619481030006820F001001749DC
:1019900010310860284630BD30B502460C46092596
:1019A000FFF7A7FE0546092D1DD11048103000682D
:1019B00020F440700D49103108600846006840F47A
:1019C000807008600846006840F0010008601480DC
:1019D000FFF78FFE054605481030006820F0010033
:1019E000024910310860284630BD0000003C02402A
:1019F00023016745AB89EFCD30B502460C4609257A
:101A0000FFF777FE0546092D17D19B48006820F4A3
:101A100040709949086008460068086008460068F8
:101A200040F0010008601470FFF763FE054692481D
:101A3000006820F0010090490860284630BD8E48BB
:101A4000001D006800F0010028B18C488A4908395F
:101A500008608B48086070478748001D006840F0A8
:101A600001008549091D0860704730B502460C46E3
:101A70000925FFF73EFE0546092D10D13CB17E48F1
:101A8000801D008890437C49891D088007E07A48C2
:101A9000801D008891B208437749891D088030BDB8
:101AA00030B502460C460925FFF723FE0546092DF1
:101AB00010D13CB170480A30008890436E490A3119
:101AC000088007E06C480A30008891B208436A49F0
:101AD0000A31088030BDFF21674AD21D127802F01A
:101AE0007F0140EA0102644BDB1D1A70704730B57C
:101AF00002460C460925FFF7FCFD0546092D10D1CD
:101B000044B15D48801D008891B208435A49891D3F
:101B1000088006E05848801D008890435649891D7A
:101B2000088030BD30B502460C460925FFF7E1FDBF
:101B30000546092D10D144B14F480A30008891B2B2
:101B400008434D490A31088006E04B480A300088B6
:101B5000904349490A31088030BD10B50246092436
:101B6000FFF7C7FD0446092C02D14348401D02700F
:101B700010BDF0B504460D46FF260927FFF7B9FD55
:101B80000746092F0BD13C48001D007800F00F06D6
:101B900045EA0600104320433749091D0870F0BD8F
:101BA0003549091D097821F01001334A121D1170C1
:101BB000114609780143117070472F49091D0978B2
:101BC00021F00C012C4A121D1170114609780143B5
:101BD0001170704700B509222748001D007840F0B9
:101BE00002002549091D0870FFF783FD02461046D3
:101BF00000BD2148001D0068C0F3471070471E4813
:101C0000801D008870471C480A30008870471A48B9
:101C1000801D0088704718480A30008870470020EF
:101C20001549491D0978AA2901D0012000E00020AA
:101C300070471148001D007800F00C00704729B172
:101C40000D4A126802430C4B1A6004E00A4A1268FB
:101C50008243094B1A60704701460020064A121F52
:101C600012680A400AB1012000E0002070470249D2
:101C7000091F086070470000103C02403B2A190809
:101C80007F6E5D4C10B504469848844208D101210E
:101C9000084600F03CFC0021012000F038FC76E012
:101CA0009348844208D10121022000F030FC002139
:101CB000022000F02CFC6AE08E48844208D1012109
:101CC000042000F024FC0021042000F020FC5EE051
:101CD0008948844208D10121082000F018FC002125
:101CE000082000F014FC52E08448844208D101210D
:101CF000102000F00CFC0021102000F008FC46E051
:101D00007F48844208D10121202000F000FC0021FE
:101D1000202000F0FCFB3AE07A48844208D10121FF
:101D2000402000F0F4FB0021402000F0F0FB2EE00A
:101D30007548844208D10121802000F0E8FB002191
:101D4000802000F0E4FB22E07048844208D10121A9
:101D5000801500F0DCFB0021A01500F0D8FB16E098
:101D60006B48844208D10121401500F0D0FB0021CE
:101D7000601500F0CCFB0AE06648844207D10121DF
:101D8000001500F0C4FB0021201500F0C0FB10BDC1
:101D9000F0B50A4600210023002400BF3DE00125E4
:101DA00005FA01F3156805EA03049C4234D105687D
:101DB0004F000326BE40B543056015794E00B5407F
:101DC0000668354305601579012D02D01579022D7D
:101DD00016D185684F000326BE40B543856055790E
:101DE0004E00B540866835438560456801268E40C3
:101DF000B5434560456896798E40B6B23543456037
:101E0000C5684F000326BE40B543C560D5794E0076
:101E1000B540C6683543C560491C1029BFD3F0BD25
:101E20004FF6FF7101600021017141718171C17133
:101E3000704708B54FF480320092009A0A4300922E
:101E4000009AC261C161009AC261C2690092C2690E
:101E5000009208BD0246002013690B400BB101201F
:101E600000E0002070470146086980B270470246D2
:101E7000002053690B400BB1012000E000207047A7
:101E80000146486980B270470183704741837047BB
:101E90000AB1018300E041837047416170474269A4
:101EA0004A4042617047F0B5002300244D07ED0E13
:101EB00002FA05F3CE1000F1200555F826504E0722
:101EC000F70E0F26BE40B543CF1000F1200646F8AE
:101ED0002750CE1000F1200555F8265045EA03049E
:101EE000CE1000F1200545F82640F0BD000002406C
:101EF0000004024000080240000C024000100240B2
:101F00000014024000180240001C02400020024061
:101F1000002402400028024010B50121080700F00B
:101F200029FB00214FF0805000F024FB10BD5249E6
:101F30000862704701460020504A106820F0E00017
:101F40000843106070474C49086170474A49A03106
:101F5000086070474849A431086070470146002076
:101F6000464A106820F440400843106070474249D8
:101F70000864704740494864704730B13F49096878
:101F800041F440213D4A116005E03C49096821F4D3
:101F900040213A4A1160704718B10121364AD16296
:101FA00002E00021344AD162704718B10121324A5F
:101FB000916202E00021304A916270472E494862E6
:101FC000704710B5024600202C4B186840F60343BA
:101FD00098431043294B1860294B1B6843F00403B6
:101FE000274C2360012901D130BF00E020BF244BE2
:101FF0001B6823F00403224C236010BD10B5024679
:1020000000201E4B186840F60343984310431B4BB7
:1020100018601B4B1B6843F00403194C2360012913
:1020200001D130BF00E020BF154B1B6823F0040333
:10203000134C236010BD1148006840F002000F49A6
:1020400008600F48006840F004000D49086000BFB8
:1020500000BF30BF704701460020084A52680A405E
:102060000AB1012000E0002070470449096841EAF4
:102070008001024A1160704700000E42007000406B
:1020800010ED00E0F948006840F00100F7490860F1
:102090000020F64908310860F4480068F449084017
:1020A000F2490860F348091D0860F348EF4984319C
:1020B0000860F0481038091D0860EC48006820F4FA
:1020C0008020EA4908600020E8490C310860E749AF
:1020D0008C31086070470021E44A921C117011464F
:1020E0000870704710B501460022002300204A11F5
:1020F000012A02D1DD4C236808E0022A03D1DB4C1F
:102100007034236802E0D94C7434236801F01F0254
:10211000012494401C400CB1012000E0002010BDBF
:1021200038B5002000900024002500BF3120FFF7C3
:10213000D9FF05460098401C00900098B0F5A04FCC
:1021400001D0002DF2D03120FFF7CCFF08B10124DF
:1021500000E00024204638BD01460020C34A106834
:1021600020F0F80040EAC10010607047C3490860E1
:1021700070470021BD4A703211701170012802D0E1
:1021800004280AD104E00121B84A7032117005E038
:102190000521B64A7032117000E000BF00BF7047E1
:1021A000B7490860704770B5049C41EA8215012662
:1021B000C6EB530645EA0645054345EA0465AB4EC2
:1021C000361D356070BDAD4908667047820142EA30
:1021D0000172A64B84331A607047A849886670471D
:1021E00010B5830143EA016343EA02739F4C8834CC
:1021F000236010BDA14908677047A049C8647047B3
:1022000002460020994B0833186820F0EC6042EA3F
:1022100001031843954B08331860704702460020AD
:10222000924B0833186820F0784042EA01031843C3
:102230008E4B083318607047014600208B4A0832E5
:10224000106820F00300084310607047874808308A
:10225000006800F00C00704701460020834A0832F5
:10226000106820F0F000084310607047014600201D
:102270007E4A0832106820F4E0500843106070472E
:1022800001460020794A0832106820F4604040EA94
:10229000C10010607047F0B5002100220024022523
:1022A00000260223714F08373F6807F00C0121B167
:1022B000042905D0082937D105E0724F076036E0C0
:1022C000714F076033E0694F3F1D3F68C7F3805689
:1022D000664F3F1D3F6807F03F036EB16A4FB7FB83
:1022E000F3F7DFF888C10CF1040CDCF800C0CCF384
:1022F000881C07FB0CF40CE0624FB7FBF3F7DFF828
:102300006CC10CF1040CDCF800C0CCF3881C07FB9A
:102310000CF4564F3F1D3F68C7F301477F1C7D00FB
:10232000B4FBF5F7076002E0564F076000BF00BF3F
:102330004E4F08373F6807F0F0010909534F7A5CA8
:102340000768D7404760494F08373F6807F4E051B6
:10235000890A4E4F7A5C4768D7408760434F0837F9
:102360003F6807F46041490B484F7A5C4768D740A3
:10237000C760F0BD002100F44072B2F5407F0AD181
:102380003A4A0832116821F4F811414A02401143D7
:10239000364A08321160354A70321268C0F30B03B6
:1023A0001A43324B70331A6070473549443908601C
:1023B00070473349403908607047364908607047B4
:1023C00001460020294A8C32106820F01F004A1E66
:1023D0001043264A8C321060704701460020234A81
:1023E0008C32106820F4F8504A1E40EA02201F4A3E
:1023F0008C3210607047014600201C4A8C321068F5
:1024000020F4401008431060704701460020174A2E
:102410008C32106820F44000084310607047014679
:102420000020124A8C32106820F4403008431060BB
:10243000704719490860704739B10C4A3032126848
:1024400002430A4B30331A6006E0084A3032126801
:102450008243064B30331A607047F9B1034A343275
:1024600012680243014B34331A601CE0003802400A
:10247000FFFFF6EA10300024003000200000474241
:10248000800E47420024F40000127A0074000020FD
:10249000FFFCFF0F5C014742E01147428F4A126880
:1024A00082438E4B1A60704739B18C4A121D1268F4
:1024B00002438A4B1B1D1A6006E0884A121D1268EF
:1024C0008243864B1B1D1A60704739B1834A0C3218
:1024D00012680243814B0C331A6006E07F4A0C32CB
:1024E000126882437D4B0C331A60704739B17B4AC6
:1024F000103212680243794B10331A6006E0774AB3
:10250000103212688243754B10331A60704739B12C
:10251000724A243A12680243704B243B1A6006E068
:102520006E4A243A126882436C4B243B1A6070470F
:1025300039B16A4A203A12680243684B203B1A605C
:1025400006E0664A203A12688243644B203B1A60D8
:10255000704739B1614A1C3A126802435F4B1C3B19
:102560001A6006E05D4A1C3A126882435B4B1C3BD2
:102570001A60704739B1594A143A12680243574BEE
:10258000143B1A6006E0554A143A12688243534BD2
:10259000143B1A60704739B1504A103A126802432E
:1025A0004E4B103B1A6006E04C4A103A12688243C8
:1025B0004A4B103B1A60704739B1484A1C321268C6
:1025C0000243464B1C331A6006E0444A1C32126830
:1025D0008243424B1C331A60704739B13F4A203264
:1025E000126802433D4B20331A6006E03B4A20321A
:1025F00012688243394B20331A60704739B1374A29
:10260000243212680243354B24331A6006E0334A01
:10261000243212688243314B24331A60704739B137
:102620002E4A2C32126802432C4B2C331A6006E0DF
:102630002A4A2C3212688243284B2C331A60704786
:1026400039B1264A303212680243244B30331A60C3
:1026500006E0224A303212688243204B30331A603F
:102660007047012808D11D493C31096841F0080133
:102670001A4A3C32116007E018493C31096821F0E0
:102680000801164A3C321160704739B1134A273AA3
:1026900012780243114B273B1A7006E00F4A273A83
:1026A000127882430D4B273B1A7070470B4840301D
:1026B000006840F080700949403108607047014669
:1026C0000020064A283A12680A400AB1012000E0B8
:1026D000002070470149263908707047343802409D
:1026E00010B501218803FFF756FF00214FF4804009
:1026F000FFF751FF10BD1C49086070471B49086275
:10270000704730B500228B071C0F0F2303FA04F229
:10271000154B08338C1053F824309343124C083473
:102720008D1044F8253023468C1053F824308C0744
:10273000240F00FA04F423430B4C08348D1044F8A2
:10274000253030BD0949DC31086070470849086010
:102750007047002004492031096801F4807109B1F3
:10276000012000E0002070470038014000002742AF
:102770000004274210B50446FE48844208D10121D6
:102780000846FFF708FF00210120FFF704FF9DE046
:10279000B4F1804F08D101210846FFF7EBFE00217C
:1027A0000120FFF7E7FE91E0F348844208D10121C0
:1027B0000220FFF7DFFE00210220FFF7DBFE85E0AD
:1027C000EE48844208D101210420FFF7D3FE002106
:1027D0000420FFF7CFFE79E0E948844208D10121C7
:1027E0000820FFF7C7FE00210820FFF7C3FE6DE0B9
:1027F000E448844208D101211020FFF7BBFE0021EC
:102800001020FFF7B7FE61E0DF48844208D10121C4
:102810002020FFF7AFFE00212020FFF7ABFE55E0A0
:10282000DA48844208D101210220FFF7B4FE0021DA
:102830000220FFF7B0FE49E0D548844209D10121CA
:102840000804FFF7A8FE00214FF48030FFF7A3FE35
:102850003CE0D048844209D101214804FFF79BFEA7
:1028600000214FF40030FFF796FE2FE0CA48844263
:1028700009D101218804FFF78EFE00214FF480204A
:10288000FFF789FE22E0C548844208D1012140209B
:10289000FFF770FE00214020FFF76CFE16E0C048F5
:1028A000844208D101218020FFF764FE00218020AE
:1028B000FFF760FE0AE0BB48844207D10121801582
:1028C000FFF758FE0021A015FFF754FE10BD0022AF
:1028D0000288A84B98420ED0AC4B98420BD0B0F176
:1028E000804F08D0A44B984205D0A44B984202D008
:1028F000A34B984204D14FF68F731A404B881A436A
:10290000A04B984207D0A04B984204D04FF6FF430B
:102910001A400B891A4302804B68C3620B880385F7
:10292000944B984202D0994B984201D18B7A0386FE
:102930000123838270474FF0FF3141600021018005
:1029400001814180817270470185828270470A4609
:10295000002101884FF68F731940114301807047A1
:1029600041627047C16270470146486A704701463C
:10297000088D704721B1028842F00202028004E013
:1029800002884FF6FD731A400280704721B1028819
:1029900042F00402028004E002884FF6FB731A4002
:1029A0000280704721B1028842F08002028004E078
:1029B00002884FF67F731A400280704702884FF6F4
:1029C000F7731A40028002880A4302807047028827
:1029D0004FF6FF431A40028002880A430280704784
:1029E00021B1028842F00102028004E002884FF621
:1029F000FE731A400280704770B500240022002345
:102A0000058C4FF6FE7635400584028C8388048B56
:102A10004FF68F752C40B51E2C400D882C43751E2B
:102A20002A408D892A434D882A43524DA84202D01C
:102A3000564DA84213D14FF6F7752A40CD892A4347
:102A40004FF6FB752A408D882A434FF6FF652B40D1
:102A50004FF6FF552B400D8A2B434D8A2B43838025
:102A600004838D684563028470BD70B50024002224
:102A70000023058C4FF6EF7635400584028C838861
:102A8000048B48F6FF752C404FF6FF452C400D880F
:102A90004FF6FF7606EA05252C434FF6DF752A40F0
:102AA0008D8906EA05152A434D8806EA05152A434D
:102AB000304DA84202D0354DA8421DD14FF67F754A
:102AC0002A40CD894FF6FF7606EA05152A434FF6D0
:102AD000BF752A408D8806EA05152A434FF6FF3553
:102AE0002B404FF2FF752B400D8A06EA85052B43DC
:102AF0004D8A06EA85052B43838004838D688563B0
:102B0000028470BD70B5002400220023058C4FF6AE
:102B1000FF6635400584028C8388848B4FF68F7561
:102B20002C404FF6FC752C400D882C434FF6FF557A
:102B30002A408D894FF6FF7606EA05252A434D88FF
:102B400006EA05252A430B4DA84202D00F4DA842A4
:102B500038D14FF2FF752A40CD894FF6FF7606EA4D
:102B600005252A434FF6FF352A408D8806EA0525BC
:102B70002A4319E000000140000400400008004022
:102B8000000C004000100040001400400004014010
:102B9000004001400044014000480140001800404E
:102BA000001C0040002000404EF6FF752B404DF603
:102BB000FF752B400D8A06EA05152B434D8A06EA60
:102BC00005152B43838084838D68C563028470BDA3
:102BD00070B5002200230024058C4EF6FF763540A8
:102BE0000584038C8488828B48F6FF752A404FF653
:102BF000FF452A400D884FF6FF7606EA05252A4351
:102C00004DF6FF752B408D8906EA05352B434D881F
:102C100006EA05352B43FE4DA84202D0FD4DA842E1
:102C200008D14BF6FF752C400D8A4FF6FF7606EA69
:102C300085152C43848082838D680564038470BD70
:102C4000002101804180818081608181C181018278
:102C50004182704770B503460020002418461830A2
:102C600001258D40ACB21D8CA5431D8409B10829F6
:102C70000AD100EB610005684FF68F76354005609C
:102C80000568154305600FE00D1FC5F34E05284488
:102C9000056848F6FF763540056005684FF6FF7613
:102CA00006EA02263543056070BD416370478163C3
:102CB0007047C1637047016470470A460021018B69
:102CC0004FF68F7319401143018370470A46002164
:102CD000018B48F6FF7319404FF6FF7303EA022396
:102CE0001943018370470A460021818B4FF68F7389
:102CF00019401143818370470A460021818B48F6B1
:102D0000FF7319404FF6FF7303EA022319438183CF
:102D100070470A460021018B4FF6F77319401143A3
:102D2000018370470A460021018B4FF2FF7319405F
:102D30004FF6FF7303EA02231943018370470A46E3
:102D40000021818B4FF6F77319401143818370473F
:102D50000A460021818B4FF2FF7319404FF6FF7333
:102D600003EA02231943818370470A460021018B3D
:102D70004FF6FB7319401143018370470A46002147
:102D8000018B4FF6FF3319404FF6FF7303EA02231E
:102D90001943018370470A460021818B4FF6FB736C
:102DA00019401143818370470A460021818B4FF6F9
:102DB000FF3319404FF6FF7303EA0223194381835F
:102DC00070470A460021018B4FF67F73194011436B
:102DD000018370470A460021018BC1F30E014FF6B3
:102DE000FF7303EA02231943018370470A46002157
:102DF000818B4FF67F7319401143818370470A46D8
:102E00000021818BC1F30E014FF6FF7303EA022309
:102E10001943818370470A460021018C4FF6FD73E8
:102E200019401143018470470A460021018C4FF676
:102E3000F77319401143018470470A460021018C41
:102E40004FF6DF7319404FF6FF7303EA021319437D
:102E5000018470470A460021018C4FF67F731940A8
:102E60004FF6FF7303EA02131943018470470A46C1
:102E70000021018C4FF6FF5319404FF6FF7303EA10
:102E800002231943018470470A460021018C4FF246
:102E9000FF7319404FF6FF7303EA022319430184BD
:102EA00070470A460021018C4DF6FF7319404FF61A
:102EB000FF7303EA023319430184704730B50023DE
:102EC00001248C40A3B2048C9C430484048C02FA39
:102ED00001F5ADB22C43048430BD30B50023042489
:102EE0008C40A3B2048C9C430484048C02FA01F548
:102EF000ADB22C43048430BD828B4FF2FF331A40B5
:102F00008283828B4FF6FF7303EA01231A43828385
:102F10007047F0B50C461546002100220026078CAC
:102F20004EF6FF7C07EA0C070784818B028C4FF674
:102F3000FF7707EA043640F6FF4739404FF6FF7740
:102F400007EA052739434FF6FF7707EA0337394386
:102F500045F6FF773A4046F480573A43818302842E
:102F6000F0BD828B4FF6F3731A408283828B0A4343
:102F700082837047F0B50C461546002100220026DA
:102F8000078C4FF6FF6C07EA0C070784818B028CD5
:102F90004FF6FF7707EA04264FF60C7739404FF6D5
:102FA000FF7707EA03172F4339434FF2FF573A40A1
:102FB00046F480773A4381830284F0BD028B4FF25E
:102FC000FF331A400283028B4FF6FF7303EA01239B
:102FD0001A4302837047F0B50C46154600210022C3
:102FE0000026078C4FF6EF7C07EA0C070784018B5D
:102FF000028C4FF6FF7707EA041640F6FF47394088
:103000004FF6FF7707EA033739434FF6FF7703E0C0
:10301000000001400004014007EA052739434FF64C
:103020005F773A4046F010073A4301830284F0BDCF
:10303000028B4FF6F3731A400283028B0A4302831A
:103040007047F0B50C46154600210022068C4FF65D
:10305000FE773E400684018B028C4FF60C763140A1
:103060007E1C06EA03162E4331434FF6F5763240B6
:1030700044F00106324301830284F0BD70B5054679
:103080000C46208850B92389A28861882846FFF71A
:10309000D8FFE1882846FFF7CBFF25E020880428E9
:1030A0000AD12389A28861882846FFF794FFE18826
:1030B0002846FFF783FF17E0208808280AD12389D4
:1030C000A28861882846FFF755FFE1882846FFF768
:1030D00048FF09E02389A28861882846FFF719FF85
:1030E000E1882846FFF708FF70BD0021018041807C
:1030F000012181800021C180018170472DE9F041CB
:1031000005460C4600260127608808B9022600E023
:103110000026A088012801D1022700E0012720888D
:10312000A0B92389A28861882846FFF78AFFE18831
:103130002846FFF77DFF23893A4631462846FFF7A8
:103140004AFFE1882846FFF739FF13E02389A28868
:1031500061882846FFF73FFFE1882846FFF72EFFEA
:1031600023893A4631462846FFF76BFFE188284617
:10317000FFF75EFFBDE8F0810146486B70470146EE
:10318000886B70470146C86B70470146086C7047F2
:103190000A884B881A438B881A43CB881A430B89B9
:1031A0001A434B891A438B891A43A0F8442070476D
:1031B0000021018041808180C18001814181818124
:1031C000704731B1B0F8442042F40042A0F84420E6
:1031D00005E0B0F84420C2F30E02A0F84420704786
:1031E00021B1828842F00402828004E082884FF696
:1031F000FB731A408280704721B1828842F001023D
:10320000828004E082884FF6FE731A408280704705
:103210001AB183890B43838102E083898B438381C5
:1032200070478182704702460020138A0B400BB121
:10323000012000E000207047CA430282704730B589
:103240000246002000230024158A05EA010395891F
:1032500005EA010413B10CB1012000E0002030BDEB
:10326000CA430282704741EA0203A0F8483070471F
:103270001AB183890B43838102E083898B43838165
:10328000704721B1828842F00802828004E082887F
:103290004FF6F7731A408280704701894FF6F87233
:1032A0001140018170470A46002101894FF68F7352
:1032B000194011430181704730B504460D46294637
:1032C0002046FFF7F0FF208940F00700208130BD45
:1032D0002DE9F04104460D4616461F46602D06D1E5
:1032E0003B46012231462046FFF775FE05E03B468E
:1032F000012231462046FFF7A4FE29462046FFF76B
:10330000D2FF208940F007002081BDE8F08130B570
:103310000C4600210189C9B24FF6FF7505EA032565
:10332000154325432943018130BD2DE9F041054670
:103330000E4617469846002443463A4631462846EC
:10334000FFF7E5FF2C894FF6F870044044F00704BE
:103350004FF68F70044044F070042C81BDE8F0817A
:10336000F0B504460D4616461F463B4632462946F2
:103370002046FFF7CCFF208940F480402081F0BD3B
:1033800082884FF68F731A40828082880A43828037
:10339000704702894FF6F8731A40028102890A4386
:1033A0000281704702894FF67F731A4002810289B9
:1033B0000A4302817047F0B50C4615461E460021AF
:1033C000002200230189028B038C4FF6F8773940E5
:1033D00021434FF6FC473A4040F201173A434FF67B
:1033E000DD773B404FF6FF7707EA06172F433B4355
:1033F000018102830384F0BD21B1828842F0800202
:10340000828004E082884FF67F731A408280704782
:10341000A0F850107047000010B50446FA488442E6
:1034200008D101211020FFF7B6F800211020FFF786
:10343000B2F857E0F548844209D101214804FFF76A
:1034400099F800214FF40030FFF794F84AE0F04873
:10345000844209D101218804FFF78CF800214FF440
:103460008020FFF787F83DE0EA48844209D1012136
:10347000C804FFF77FF800214FF40020FFF77AF827
:1034800030E0E548844209D101210805FFF772F8D0
:1034900000214FF48010FFF76DF823E0DF488442ED
:1034A00008D101212020FFF776F800212020FFF726
:1034B00072F817E0DA48844209D101218807FFF742
:1034C00059F800214FF08040FFF754F80AE0D54842
:1034D000844207D101214005FFF74CF80021600527
:1034E000FFF748F810BD2DE9FF4705460E460024BA
:1034F000A14600BFA046B08900B100BF2C8A24F4C9
:103500004054F08804432C82AC8941F20C6084431F
:10351000B08831890843718908430443AC81AC8A7F
:1035200024F44074B0890443AC826846FEF7B3FECD
:10353000B548854202D0B948854202D1DDF80C90E9
:1035400001E0DDF80890A88900F4004040B109EBE3
:10355000C90000EB091031684900B0FBF1F707E042
:1035600009EBC90000EB091031688900B0FBF1F7E5
:103570006420B7FBF0F004012009642101FB1078FE
:10358000A88900F4004040B1322000EBC800B0FB35
:10359000F1F000F00700044308E0322000EB0810CF
:1035A0006421B0FBF1F000F00F0004432C81BDE872
:1035B000FF874FF41651016000218180C180018195
:1035C0000C21418100218181704710B50246002005
:1035D000108A20F470600B884C8823438C88234326
:1035E000CC8823431843108210BD00210180418004
:1035F0008180C180704721B1828942F4005282816A
:1036000004E082894DF6FF731A4082817047028B75
:1036100002F47F420283028B0A430283704721B186
:10362000828942F40042828103E08289C2F30E0261
:103630008281704721B1828A42F40062828204E072
:10364000828A4FF2FF731A4082827047C1F30802E8
:103650008280704701468888C0F308007047028A5C
:103660004FF6F0731A400282028A0A4302827047C0
:1036700021B1828942F00202828104E082894FF600
:10368000FD731A408281704782894FF2FF731A409E
:10369000828182890A4382817047028A4FF6DF73F2
:1036A0001A400282028A0A430282704721B1028ACA
:1036B00042F48042028204E0028A4BF6FF731A4011
:1036C00002827047818941F001018181704721B1F7
:1036D000828A42F00802828204E0828A4FF6F773FF
:1036E0001A4082827047028BD2B20283028B42EA76
:1036F00001220283704721B1828A42F02002828235
:1037000004E0828A4FF6DF731A408282704721B14B
:10371000828A42F01002828204E0828A4FF6EF73BE
:103720001A4082827047828A4FF6FB731A40828267
:10373000828A0A438282704721B1828A42F0020261
:10374000828204E0828A4FF6FD731A4082827047BB
:103750001AB1838A0B43838202E0838A8B4383827C
:103760007047F0B50346002400260025002040F6EF
:103770006A17B94200D100BF1846C1F3421401F0E4
:103780001F06012707FA06F5012C01D10C3004E0D1
:10379000022C01D1103000E014301AB107682F4319
:1037A000076002E00768AF430760F0BD02460020F3
:1037B000B1F5007F00D100BF13880B400BB1012091
:1037C00000E00020704701F40072B2F5007F00D1E4
:1037D00000BFCA430280704770B502460024002330
:1037E0000025002040F66A16B14200D100BFC1F3A7
:1037F000421501F01F03012606FA03F3012D13D130
:103800009689334017E0000000100140004400405A
:1038100000480040004C00400050004000140140AF
:1038200000780040007C0040022D02D1168A33400F
:1038300001E0968A33400C12012606FA04F4168839
:10384000344013B10CB1012000E0002070BD10B570
:103850000022002340F66A14A14200D100BF0A12E0
:1038600001249440A3B2DC43048010BD10B504468B
:103870006FF00400FCF7ECFEE11704EB5171C1F3AB
:10388000C701394A11701046007800EB4001C1EBC6
:10389000C0104FF6FF7101EAC0003449088010BD26
:1038A0000146314A12784A434FF0E0235A61002220
:1038B0009A611A46126942F001021A6100BF4FF084
:1038C000E022106900F001021AB100F48032002AEF
:1038D000F5D04FF0E022126922F001024FF0E02310
:1038E0001A6100229A6170470146204A12884A43B1
:1038F0004FF0E0235A6100229A611A46126942F0A1
:1039000001021A6100BF4FF0E022106900F00102CD
:103910001AB100F48032002AF5D04FF0E02212698B
:1039200022F001024FF0E0231A6100229A617047F1
:1039300070B504464FF4077094FBF0F0C6B24FF434
:10394000077094FBF0F100FB114085B205E04FF4E5
:103950000770FFF7C9FF701EC6B2002EF7D115B170
:103960002846FFF7C1FF70BD8400002086000020BC
:10397000014600BF70472C4A12785AB900BF2B4A43
:10398000128802F04002002AF9D0C2B2274B1B1D58
:103990001A8009E000BF264A128802F04002002A7D
:1039A000F9D0C2B2224B9A80704710B586B0044657
:1039B00001210846FEF740FD01211020FEF796FD8B
:1039C000072209211B48FEF76EFA07220A2119482F
:1039D000FEF769FA4FF4C060049002208DF81400DD
:1039E0008DF8150000208DF8160001208DF81700C5
:1039F00004A91048FEF7CCF900940020ADF80400AB
:103A0000ADF80600ADF80800ADF80C000C20ADF8DC
:103A10000A0069460648FFF766FD01210448FFF7E2
:103A2000EAFD06B010BD70470700002000440040CA
:103A3000001001400000024000B58DB001210220BD
:103A4000FEF7FAFC01210802FEF750FD02200B9060
:103A500003208DF8300000208DF833000BA9394881
:103A6000FEF796F901210802FEF795FD00214FF4BB
:103A70008070FEF790FD002007900A9009904FF4A7
:103A80008030089007A8FCF73BFE002001908DF8DD
:103A900008008DF809000390059001208DF81800AA
:103AA00001A92948FCF7FDFD01212748FCF73FFE4D
:103AB0000DB000BD10B5044607230122214622485F
:103AC000FCF775FE2048FCF7CEFE00BF02211E4821
:103AD000FCF7EAFF0028F9D01B48FCF700FF10BDF7
:103AE00070B52DED0A8B0920FFF7E4FF054608F0BD
:103AF000C5FF41EC1C0B9FED150B53EC102B09F08F
:103B00000DF841EC1B0B9FED130B53EC102B09F040
:103B100005F841EC1A0B9FED110B53EC102B08F03C
:103B2000FDFF41EC190B9FED0F0B53EC102B08F030
:103B3000D9FD41EC180B08F02DFF04462046BDECE2
:103B40000A8B70BD00040240002001406666666674
:103B500066660A40000000000000264000000000E9
:103B600000005940000000000000B04000B589B0DE
:103B700001210846FEF7A9FC01210846FEF75CFC7E
:103B8000032001908DF8090002208DF80800012023
:103B90008DF80A008DF80B0001A96A48FEF7F8F8C5
:103BA000012200216748FEF77EF90122114665488F
:103BB000FEF779F906A8FEF7BEFE0020ADF8180062
:103BC0004FF6FF7007900020ADF82000ADF81A0006
:103BD00006A94FF08040FEF77AFE00231A46032123
:103BE0004FF08040FFF7E7FB03A8FFF77EFA0020C5
:103BF000ADF8140003A94FF08040FFF73FFA012110
:103C00008807FFF719FB012211469007FFF700FB19
:103C100001218807FEF7E4FE09B000BD00B589B0B8
:103C200001210420FEF751FC01210220FEF704FCD3
:103C3000C020019003208DF8090002208DF80800B3
:103C400001208DF80A008DF80B0001A93E48FEF70F
:103C50009FF8022206213C48FEF725F9022207219F
:103C60003948FEF720F906A8FEF765FE0020ADF8FA
:103C700018004FF6FF7007900020ADF82000ADF857
:103C80001A0006A93148FEF722FE00231A46032136
:103C90002E48FFF790FB03A8FFF727FA0020ADF8A6
:103CA000140003A92948FFF7E9F901212748FFF784
:103CB000C3FA012211462548FFF7AAFA0121234839
:103CC000FEF78EFE09B000BD0146022904D003298B
:103CD0000BD0042919D10FE04FF08042526A10B284
:103CE00000224FF080435A6211E0194A126810B264
:103CF0000022174B1A600AE0144A2432126810B2EC
:103D00000022124B24331A6001E0002000BF00BFE4
:103D100070470E48103000880C481030008820F0A2
:103D200001000A491031088070474FF08040008A36
:103D30004FF08040008A20F001004FF0804108825F
:103D400070470000000002400004024000080040EC
:103D50002404004000B585B001210220FEF76CFB71
:103D60004FF40040009000208DF8040003208DF8EF
:103D7000050001208DF8070069461448FEF708F891
:103D800001218803FEF7B2FB0F210120FEF7B9FCE9
:103D90004FF40040029000208DF80C000C208DF8AC
:103DA0000D0001208DF80E0002A8FDF7A7FB2820CA
:103DB0008DF8100001208DF811008DF812008DF89B
:103DC000130004A8FCF7F7FB05B000BD0004024097
:103DD0001CB501210220FEF72FFB4FF4804000901C
:103DE00000208DF8040003208DF8050001208DF8D7
:103DF000070069464B48FDF7CBFF1CBD01464A480A
:103E0000006828B949480088401C484A108002E0F0
:103E10000020464A10804448006828B94448007889
:103E200010B90120424A107042480078B0B94048A9
:103E30000078012807D140480078401C3E4A1070A5
:103E400001203C4A10703C480078022806D100202E
:103E5000394A1070394A1080022070473248006891
:103E6000012804D10020324A1070324A10703248C2
:103E7000007801281CD131480088401C2F4A10804E
:103E80001046008888420ADD28480088884206DA01
:103E90000020294A1070294A10800120DDE72348BC
:103EA0000088884204DD0020234A1070234A1080D5
:103EB0000020D2E72248007838B11B48006820B9BA
:103EC00000201F490870012070471748006801282A
:103ED00001D11B4908700020F6E71A48008840B954
:103EE0001148006828B918480088401C1649088005
:103EF00002E000201449088013480088C82807DD24
:103F000001201049088000200F49088001207047D7
:103F10000C480088012802D100200A4908800020AE
:103F2000F5E7000000040240388240429200002081
:103F30008C0000208D0000208E00002090000020CA
:103F40009400002098000020960000201CB501215C
:103F50000220FEF771FA4FF40050009001208DF816
:103F6000040000208DF8060003208DF805000120D4
:103F70008DF8070069460F48FDF70AFF4FF400511E
:103F80000C48FDF781FF1CBD18B900210A4A1160D9
:103F90000FE00A490968491C084A1160814208D1AA
:103FA00005490968C943064AC2F8B4120021034A08
:103FB0001160704700040240B48240429C0000201F
:103FC000008040421CB501210320FEF735FA302065
:103FD000009001208DF8040000208DF806000320D9
:103FE0008DF8050001208DF8070069463E48FDF771
:103FF000CFFE30213C48FDF747FF4FF410400090C2
:1040000001208DF8040000208DF8060003208DF8B3
:10401000050001208DF8070069463448FDF7B8FE19
:104020004FF410413148FDF72FFF1CBD30B58BB068
:1040300004460D4601210846FEF758FA01210846BC
:10404000FEF7FAF9012208212848FDF72CFF01228A
:104050000B212648FDF727FF4FF41060099002203E
:104060008DF8280003208DF8290000208DF82A0003
:1040700001208DF82B0009A91C48FDF789FEADF839
:1040800018500020ADF81A000794ADF8200006A9DA
:104090001748FEF71CFC7020ADF804000120ADF8B5
:1040A00006000220ADF8100001A91148FEF7A4FC9B
:1040B00001A90F48FEF78CFD01210D48FFF781F89B
:1040C00008210B48FEF725FE08210948FEF740FEAF
:1040D00001210748FEF766FC01210548FEF780FC38
:1040E000FFF770FF0BB030BD00040240000002403B
:1040F0000000014010B50A461AB10123FE4C2360AE
:1041000002E00023FC4C2360002116E00023FA4C5F
:104110003434236000F080031BB10123241D23608D
:1041200003E00023F44C383423600123F24C343490
:1041300023604306180E4B1CD9B20829E6DB012385
:10414000ED4C236010BD30B500241CE004F1B0013B
:10415000C8B20021FFF7CEFF00210846FFF7CAFFD3
:1041600000211020FFF7C6FF002508E0E34901EB1E
:10417000C501085D0121FFF7BDFF681CC5B2802D98
:10418000F4DB601CC4B2082CE0DB30BD00B50021BC
:104190008D20FFF7AFFF00211420FFF7ABFF0021B8
:1041A000AF20FFF7A7FF00BD00B500218D20FFF76E
:1041B000A1FF00211020FFF79DFF0021AE20FFF797
:1041C00099FF00BD30B500240CE0002506E000207A
:1041D000CA4901EBC5010855681CC5B2802DF6DB44
:1041E000601CC4B2082CF0DBFFF7ADFF30BDF0B5AA
:1041F000144600267F2801DC3F2900DDF0BD0B4678
:10420000CF1701EB5777FF10C7F10707FAB2CF17A7
:1042100001EB5777FF10A1EBC707FDB2C5F1070708
:104220000123BB40DEB24CB1B44B03EBC0039B5C3B
:104230003343B24F07EBC007BB5408E0AF4B03EB6F
:10424000C0039B5CB343AD4F07EBC007BB5400BF3B
:10425000D4E72DE9F04F80460C4615461E46A3468E
:10426000A5F12000C5B200273EE00C2E07D105EBDA
:104270004500A34901EB800010F8079004E0A14835
:1042800000EB051010F807904FF0000A26E009F047
:10429000800028B121464046099AFFF7A8FF09E0AF
:1042A000099808B9012000E0002002462146404656
:1042B000FFF79DFF4FEA49604FEA1069601CC4B2E6
:1042C000A4EB0B00B04205D15C4608F1010000F000
:1042D000FF0806E00AF1010000F0FF0ABAF1080F3A
:1042E000D5DB00BF781CC7B2B742BEDBBDE8F08F9C
:1042F00010B50246012000E050430B00A1F101047B
:10430000E1B2F9D110BD2DE9FF4F81B007469146CA
:104310001E460E9D4FF0000A002439E0301B401E5F
:10432000C1B20A20FFF7E4FFB9FBF0F00A21B0FBAD
:10433000F1F201FB1208BAF1000F16D1701EA04273
:1043400013DDB8F1000F0ED10120AB4605EBDB7198
:10435000491001FB04710090C8B22B46202202993B
:10436000FFF777FF12E04FF0010A0120AB4605EBA3
:10437000DB71491001FB04710090C8B208F13001F3
:10438000CAB22B460299FFF764FF00BF601CC4B29B
:10439000B442C3DB05B0BDE8F08F78B505460E46E4
:1043A000144618E07A2D03DD002506F11000C6B290
:1043B0003A2E04DD002005460646FFF703FF0120E4
:1043C000009022780C2331462846FFF742FF05F182
:1043D0000800C5B2641C20780028E3D178BD1CB564
:1043E00001210420FEF728F801210807FEF76DF8E7
:1043F0000120FDF79CFD0020FDF7BBFE4EF2010001
:10440000009001208DF8040000208DF806008DF842
:1044100005008DF8070069463B48FDF7B9FC01200F
:1044200039491A3108804003088040000880400064
:104430000880002030493C3108606420FFF778FA9A
:1044400001203249C1F8BC020021AE20FFF752FE24
:104450000021D520FFF74EFE00215020FFF74AFE35
:104460000021A820FFF746FE00213F20FFF742FE73
:104470000021D320FFF73EFE00210846FFF73AFE59
:1044800000214020FFF736FE00218D20FFF732FE8D
:1044900000211420FFF72EFE00212020FFF72AFE26
:1044A00000210220FFF726FE0021A120FFF722FEB7
:1044B0000021C020FFF71EFE0021DA20FFF71AFEC0
:1044C00000211220FFF716FE00218120FFF712FEC7
:1044D0000021EF20FFF70EFE0021D920FFF70AFE92
:1044E0000021F120FFF706FE0021DB20FFF702FE8E
:1044F000002130200CE00000800241422002002018
:10450000EED2000862D700080008024000004142D5
:10451000FFF7F0FD0021A420FFF7ECFD0021A6200D
:10452000FFF7E8FD0021AF20FFF7E4FDFFF74AFEAB
:104530001CBD00001CB501210220FDF77DFF4FF4DA
:104540004060009001208DF8040000208DF80600E6
:1045500003208DF8050001208DF807006946F84812
:10456000FDF716FC0120F7490860F749C1F8AC02D5
:104570001CBD10B5F248006820F44000F049086006
:104580000846006840F4800008600120ED49091DDC
:104590000860ED48D0F82C0208B9002010BD0120B9
:1045A000E8490860FFF77CF90020E749C1F8AC0250
:1045B000E4487C38006808B10020EFE70120FFF7ED
:1045C0006FF90020DF4908600120E7E710B5DC48FB
:1045D000006820F44000DA4908600846006840F4AA
:1045E000800008600020D7490860D749C1F8AC02B4
:1045F0000120FFF755F90120D2490860D249C1F8DE
:10460000AC02FFF74DF910BD10B50024CC4800688E
:1046100020F44000CA49086008460068086001208C
:10462000C849091D0860FFF73BF90120C649C1F8D8
:10463000A802FFF735F90AE0601CC4B2322C03DD92
:10464000FFF7C4FF002010BD0120FFF729F9BD4886
:104650007C3800680028EFD1BA4908600120F2E7F1
:1046600010B50020B7490860B548006820F4400044
:10467000B34908600846006840F4800008600020E4
:10468000B149C1F8AC020120FFF70AF90120AD4998
:104690000860FFF705F90020AB49C1F8A80210BD7A
:1046A00010B50020A7490860A548006820F4400024
:1046B000A34908600846006840F4800008600120B3
:1046C000A149C1F8AC02FFF7EBF801209D49086051
:1046D000FFF7E6F800209C49C1F8A80210BD70B5AC
:1046E00004469748006820F4400095490860084651
:1046F000006840F4800008600020924908600025AE
:1047000016E0E0098F49091D08606006040E0120CB
:10471000FFF7C6F801208C49C1F8A802FFF7C0F8DE
:104720000020884908600120FFF7BAF8681CC5B26C
:10473000082DE6DB70BD2DE9F04105460E46174613
:104740009846FFF716FF10B90120BDE8F081690611
:10475000080EFFF7C4FFFFF757FF18B9FFF736FF42
:104760000120F2E73046FFF7BAFFFFF74DFF0024C4
:104770000BE018F80400FFF7B2FFFFF745FF18B988
:10478000FFF724FF0020E0E7641CBC42F1DBFFF7E9
:104790001DFF0020D9E770B5054600246848006871
:1047A00020F440006649086008460068086000265A
:1047B00016E00020634908600220FFF771F801202D
:1047C0006149C1F8A8026006040E5E487C380068A2
:1047D00008B1601CC4B20220FFF762F8701CC6B2B8
:1047E000082EE6DB15B1FFF73BFF01E0FFF758FFAE
:1047F000204670BD2DE9F04106460F4614461D4681
:10480000FFF7B7FE10B90120BDE8F0817106080E70
:10481000FFF765FFFFF7F8FE18B9FFF7D7FE012095
:10482000F2E73846FFF75BFFFFF7EEFEFFF7A1FE6A
:10483000012101EB4601C8B2FFF751FFFFF7E4FE8B
:104840000DE0012C04D10020FFF7A5FF287003E044
:104850000120FFF7A0FF28706D1C601EC4B2002C61
:10486000EFD1FFF7B3FE0020CEE770B505460E4648
:104870000024FFF77EFE2846FFF731FF641CFFF798
:10488000C3FE3046FFF72BFF641CFFF7BDFEFFF7AA
:1048900070FE691CC8B2FFF722FF641CFFF7B4FE6C
:1048A0000020FFF778FF0446FFF790FE204670BD1A
:1048B0002DE9F0410746884615461E460024FFF7BD
:1048C00058FE3846FFF70BFFFFF79EFE4046FFF706
:1048D00006FFFFF799FEFFF74CFE791CC8B2FFF701
:1048E000FEFEFFF791FE00BF0DE0681EA04204D05F
:1048F0000120FFF750FF305503E00020FFF74BFF8A
:104900003055601CC4B2AC42EFDBFFF75FFE2046BF
:10491000BDE8F0812DE9F04180460D4616461F4660
:104920000024FFF726FE4046FFF7D9FEFFF76CFE96
:104930002846FFF7D4FEFFF767FE00BF0DE000003A
:1049400000040240A882404200804042385DFFF7E8
:10495000C6FEFFF759FE601CC4B2B442F6DBFFF797
:1049600035FE0120BDE8F08170B505460E461446BF
:1049700031462846FFF779FF2070012070BD37B51A
:1049800004460D4602AB012229462046FFF7C2FF2E
:104990003EBD2DE9F8430746884614461D46089E4D
:1049A0006A4641463846FFF7DFFF28B3601CFF2107
:1049B00001FA00F0C4F108012944491EFF220A410E
:1049C000104300F0FF09C5F1080006FA00F0C6B276
:1049D000C4F1070006419DF8000000EA09000090BC
:1049E0009DF80000304300909DF800204146384675
:1049F000FFF7C5FFBDE8F8830020FBE7F8B50646E2
:104A00000F4614461D466A4639463046FFF7ACFF4E
:104A10002DB10120A0409DF80010084305E00120C1
:104A2000A0409DF8001021EA0000C0B200909DF85F
:104A3000002039463046FFF7A2FFF8BD10B588B018
:104A4000044601210846FDF7F7FC01214804FDF763
:104A50003CFD07220221FE48FDF725FA072203212B
:104A6000FB48FDF720FA0C20069002208DF81C0070
:104A70008DF81D0000208DF81E0001208DF81F000C
:104A800006A9F348FDF784F902940020ADF80C0064
:104A9000ADF80E00ADF81000ADF814000C20ADF824
:104AA000120002A9EB48FEF71EFD0121E948FEF7BE
:104AB000A2FD012240F22551E648FEF752FE2620D3
:104AC0008DF8040000208DF8050001208DF8060007
:104AD0008DF8070001A8FBF76EFD08B010BD10B5FA
:104AE0002DED0C8B40F22551DA48FEF775FE0028BB
:104AF0007ED0D848FEF7AEFDD7490860084600785A
:104B0000D6490870D4480068592802D10220D449F7
:104B10000870D1480068582802D10120D049087097
:104B2000CD480068622807D1CE48007808B9012036
:104B300000E00020CB490870C7480068612807D111
:104B4000C948007808B9012000E00020C649087073
:104B5000C648007820B1C4480078401CC34908709A
:104B6000BD4800680A286BDD0020C1490860C149C2
:104B70000860B94800685A2809D10020BE49087069
:104B8000BE490870BE490870BE49087058E0B24876
:104B9000006841280AD10120B74908700020B749B0
:104BA0000870B7490870B749087049E0AA4800681A
:104BB00045280BD10020B04908700120AF4908708A
:104BC0000020AF490870AF49087039E0A24800687A
:104BD000422807D0A0480068432803D09E480068B8
:104BE00044280CD10020A4490870A449087000E0B2
:104BF0002BE1A34908700120A249087020E09648E3
:104C00000068462807D094480068472803D0924897
:104C1000006848280BD10020974908709749087010
:104C200001209749087000209649087008E000208C
:104C3000914908709149087091490870914908702C
:104C4000854800680A2867DA002089490860894990
:104C500008608148006848B9002087490870874982
:104C60000870874908708749087055E07A480068DD
:104C7000012809D1804908700020804908708049C6
:104C800008708049087047E07348006805280BD118
:104C9000002079490870012078490870002078497F
:104CA00008707849087037E06B480068022807D020
:104CB00069480068032803D06748006804280AD1BF
:104CC00000206D4908706D4908706D490870012019
:104CD0006C49087020E060480068062807D05E48EC
:104CE0000068072803D05C48006808280BD1002022
:104CF000614908706149087001206149087000200D
:104D00006049087008E000205B4908705B49087042
:104D10005B4908705B490870504800787B2802D1D5
:104D20000120594908704D4800787D2802D10220A1
:104D3000554908705448007801280AD1474800783E
:104D40005249534A1278885451480078401C5049BF
:104D500008704D480078022877D14D48007800EE61
:104D6000100AB8EE400A4B4880ED000A4748C07868
:104D7000502803D1012048490870C4E04348C07856
:104D8000572803D1012045490870BCE03F484078CE
:104D900023285BD03E480078414908703AE03C49FE
:104DA00009783F4A1278881A07F051FE41EC1D0B32
:104DB000B0EE4D1AF0EE6D1A9FED3A0B06F0A4FC22
:104DC000B0EE40BAF0EE60BA35490978491E2F4A74
:104DD000515CA1F1300007F03AFE41EC1C0B53ECA2
:104DE0001B2B07F09BFE41EC190B3048006808F0C4
:104DF0008BF941EC1A0B53EC192B07F0B7FB41EC84
:104E0000180B07F081FB2949086025480078401EEF
:104E100023490870224800780428C0DA1B484078EB
:104E2000303809286ED2DFE800F00547525D686926
:104E30006A6B6C001D4890ED000ADFED1D0A80EEE4
:104E4000201A1C4880ED001A5CE06CE05BE000007A
:104E50000000024000440040A4000020A000002008
:104E60000500002008000020AB0000203A000020D0
:104E7000580000205C0000200100002002000020FB
:104E80000300002004000020A800002020060020CD
:104E9000A9000020300000203B0000203C00002042
:104EA000AA0000200000000000002440AC00002008
:104EB0000000C842440000201C4890ED000A5FED4D
:104EC000040A80EE201A1A4880ED001A1AE01748EA
:104ED00090ED000A5FED0A0A80EE201A154880ED79
:104EE000001A0FE0114890ED000A5FED0F0A80EE06
:104EF000201A114880ED001A04E003E002E001E00E
:104F000000E000BF00BF00200C4908700C49087089
:104F10000C4908709FED0C0A044880ED000A32210C
:104F20000A4805F02DFEBDEC0C8B10BDAC00002036
:104F3000480000204C00002050000020A800002065
:104F4000A9000020AA000020000000002006002088
:104F500001460868704701469548814201D2002009
:104F600070479448814201D20820F9E79248814273
:104F700001D21020F4E79148814201D21820EFE7D6
:104F80008F48814201D22020EAE78E48814201D237
:104F90002820E5E78C48814201D23020E0E78B48A9
:104FA000814201D23820DBE78948814201D240208A
:104FB000D6E78848814201D24820D1E7864881421D
:104FC00001D25020CCE75820CAE72DE9F04704462B
:104FD0000E4617464FF009080025A946B4F1006FA8
:104FE00002D304F0030008B1BDE8F087FCF73EFBF4
:104FF0000020FCF71EFB254604EB87097748854215
:1050000015D211E02846FFF7A3FF401C58B12846EF
:10501000FFF7A1FF82460221FCF77CFB8046B8F136
:10502000090F01D002E02D1D4D45EBD300BFB8F1B3
:10503000090F0CD108E020463168FCF784FC0928F0
:1050400000D003E0241D361D4C45F4D300BF0120E1
:10505000FCF7EFFAFCF717FB00BFC5E730B50346D6
:105060000C461546002206E01846FFF771FF44F88B
:1050700022001B1D521CAA42F6D330BD00B50A22E5
:1050800057494F48FFF7EAFF554800884FF6FF7130
:10509000884220D15248408888421CD1504880889C
:1050A000884218D14E48C088884214D19FED4D0ADD
:1050B0004D4880ED000AB7EE000A4C4880ED000A2A
:1050C0009FED4B0A4B4880ED000A9FED4B0A4B4881
:1050D00080ED000A33E04248008800EE100AB8EE86
:1050E000400ADFED470A80EE201A3F4880ED001AA3
:1050F0003B48408800EE100AB8EE400ADFED400A57
:1051000080EE201A394880ED001A3548808800EE7C
:10511000100AB8EE400ADFED3A0A80EE201A354850
:1051200080ED001A2E48C08800EE100AB8EE400A42
:10513000DFED330A80EE201A304880ED001A00BD02
:1051400010B5294890ED000ADFED2D0A20EE200A67
:10515000BCEEC00A10EE100A2A490880234890EDE0
:10516000000ADFED270A20EE200ABCEEC00A10EE8E
:10517000100A48801F4890ED000ADFED210A20EE5A
:10518000200ABCEEC00A10EE100A88801B4890ED81
:10519000000ADFED1B0A20EE200ABCEEC00A10EE6A
:1051A000100AC8800A220648FFF70FFF10BD000052
:1051B000004000080080000800C00008000001084E
:1051C00000000208000004080000060800000808AB
:1051D00000000A0800000C0800000E080000FF1F75
:1051E000F801002000009643440000204800002001
:1051F0000000A0424C000020CDCCCC3E500000204E
:105200000000C8420C02002030B589B004460D46AB
:1052100001210220FDF759F901210620FDF70CF9C3
:105220000120049002208DF8140003208DF8150051
:1052300002208DF8170004A9F348FCF7A9FD04200B
:10524000049001208DF8140000208DF81600032032
:105250008DF8150001208DF8170004A9EB48FCF724
:1052600097FD02220021E848FCF71DFEADF804502E
:105270000020ADF806000294ADF80C0001A9E44846
:10528000FDF725FB0820ADF818000020ADF81A0046
:105290000120ADF81C000020ADF81E00ADF8200084
:1052A00006A9DB48FDF7EAFE01220921D848FDF7EF
:1052B000AFFF0121D648FDF793FB1D208DF80000BC
:1052C00002208DF801008DF8020001208DF8030006
:1052D0006846FBF770F909B030BD10B50120CD4923
:1052E00008600F20FEF7DCFA0020CB49C1F88802E5
:1052F000CA48007800F08000E8B1C848007800F0A3
:105300003F00C74908600846008800040860084656
:105310000068C44909880844C14908600846006813
:10532000AA2148434FF47A71B0FBF1F0BC49086000
:105330000020BA49088010BD10B5B848007800F0C8
:105340008000002854D10121B148FDF778FFD0B189
:10535000B248007800F04000A8B1B048007800F0F2
:105360003F003F280AD1AD48008840F08000AB499B
:1053700008804FF6FF70AB49088004E0A74800881A
:10538000401CA64908800821A148FDF758FF78B3C2
:10539000A248007800F0400078B1A048008840F0B2
:1053A00080009E4908809A48FDF7ECFE9D490880E0
:1053B00000219748FDF75BFD1AE00020974908801F
:1053C000984908809548008840F04000934908803B
:1053D00000218F48FDF704FB00218D48FDF7C0FA3E
:1053E00002218B48FDF743FD01218948FDF7F8FABA
:1053F00009218748FDF734FF10BD30B589B0044658
:105400000D4601210220FDF771F801210420FDF76E
:1054100013F8C020049002208DF8140003208DF8AA
:10542000150002208DF8170004A97848FCF7B0FC9D
:10543000032206217548FCF736FD03220721734835
:10544000FCF731FDADF804500020ADF806000294E1
:10545000ADF80C0001A97448FDF739FA0020ADF849
:105460001800ADF81A000120ADF81C000020ADF8BE
:105470001E00ADF8200006A96B48FDF7FFFD0420D3
:10548000ADF8180006A96848FDF7F8FD2E208DF844
:10549000000001208DF8010000208DF8020001209D
:1054A0008DF803006846FBF786F82C208DF8000085
:1054B0006846FBF780F807215B48FDF7D1FE012223
:1054C00007215948FDF7A4FE01215748FDF788FA46
:1054D00009B030BD10B55548007800F080000028B4
:1054E00042D102215048FDF7AAFE00283CD00221FB
:1054F0004D48FDF7B5FE4D48007800F0400020B360
:105500004948FDF739FE4A4908800846008849495C
:105510000988884204DA4FF6FF704749086002E0C4
:105520000020454908604248008842490988401ADD
:105530004149096808444149086000203B49087016
:1055400000213948FDF767FC0EE03748FDF714FEEF
:10555000384908803548007840F0400033490870E9
:1055600002213148FDF757FC3548007800F08000F3
:10557000002842D104212C48FDF761FE00283CD0D0
:1055800004212948FDF76CFE2D48007800F040000A
:1055900020B32548FDF7F3FD2A4908800846008816
:1055A00029490988884204DA4FF6FF7027490860C4
:1055B00002E0002025490860224800882249098825
:1055C000401A2249096808442149086000201C4902
:1055D000087000211448FDF730FC0EE01248FDF77A
:1055E000CEFD194908801648007840F04000144963
:1055F000087002210C48FDF720FC10BD10B50121F8
:105600000948FDF72DFE10BD0004024000080240CD
:10561000000400408802414200004142B0000020E6
:1056200034000020B200002000040140B40000203B
:10563000B8000020B6000020CC0000205800002058
:10564000BA000020BE000020BC000020D0000020D6
:105650005C0000202DE9FE4304460D4616461F4619
:10566000DDF828904FF0000814B10DB106B117B95C
:105670000120BDE8FE83601EC4B2681EC5B2701E64
:10568000C6B2781E87B201210220FCF7D5FE0121A7
:105690004806FCF71AFF4FF44070019002208DF885
:1056A000080000208DF80A0003208DF80900012071
:1056B0008DF80B0001A9FE48FCF76AFB09220821BE
:1056C000FB48FCF7F0FB09221146F948FCF7EBFB1D
:1056D0000020F84908600846006840F001000860B2
:1056E00008E008F101001FFA80F8B8F1640F01DD4D
:1056F0000220BEE7EF48001D006800F0010000280E
:10570000EFD0EC480068EB49086008460068086084
:105710000846006808600846006840F0100008600D
:105720000846006808600846006808600020E149F3
:105730001C3108600846006840EA89700860084625
:10574000006840EA046008600846006840EA0550C6
:1057500008600846006840EA06400860084600689D
:1057600038430860D348006820F00100D149086040
:1057700009E008F101001FFA80F84FF6F07080454B
:1057800001DD032075E7CB48001D006800F0010033
:105790000028EED1C848006840F00100C649086002
:1057A000C5481C30006820F00100C3491C31086066
:1057B000C1480C30006840F00100BF490C3108605E
:1057C000BD48001D0068BC49091D0860BA48143076
:1057D0000068B949143108600020B74940310860B9
:1057E0000021B54844300160B3481C30006840F0E7
:1057F0000100B1491C310860AF4800680020AE4983
:10580000086001220221AB48FBF714FD14208DF83B
:10581000000001208DF8010000208DF80200012019
:105820008DF803006846FAF7C6FE002021E7F0B5C0
:1058300005460E46059C9F480830006800F08060D1
:1058400008B1002111E09B480830006800F00060BA
:1058500008B1012109E097480830006800F0805045
:1058600008B1022101E0FF20F0BD002792488038F6
:1058700000EB011007601EB9C5F30A056D0502E0D3
:1058800025F06045ED008C48803800EB0110006881
:105890002843894F803F07EB0117386086488038DE
:1058A00000EB0110006840EA86078348803800EB6F
:1058B000011007608048803800EB0110006840EA62
:1058C00042077D48803800EB0110076003F00F03AA
:1058D0007948803800EB0110406820F00F077648C7
:1058E000803800EB011047607348803800EB0110EE
:1058F00040681843704F803F07EB01177860E079EC
:105900000006A77940EA0740677940EA072720792F
:1059100007436948803800EB0110C760E078000653
:10592000A77840EA0740677840EA0720277838439D
:10593000614F803F07EB0117B8605F48803800EB8C
:105940000110006840F001075B48803800EB01104F
:105950000760084688E70146002021B1012916D0DA
:1059600002293CD127E0534A0832126802F00102B2
:105970001043504A0832126802F0020210434D4AA6
:105980000832126802F0806240EA126029E0494A57
:105990000832126802F001021043464A08321268C7
:1059A00002F002021043434A0832126802F0006219
:1059B00040EA526015E03F4A0832126802F00102E4
:1059C00010433C4A0832126802F002021043394A7E
:1059D0000832126802F0805240EA926001E005202D
:1059E00000BF00BF7047014629B932480C3000683B
:1059F00000F003007047012905D12E4810300068DF
:105A000000F00300F6E70020F4E7F0B5DDE9055407
:105A1000294E503E06EB0016366806F00406167056
:105A200016783EB9244E503E06EB00163668760DC9
:105A30000E6006E0204E503E06EB00163668F60873
:105A40000E601D4E503E06EB0016366806F002064C
:105A50001E70194E503E06EB0016766806F00F06D3
:105A60002E70154E503E06EB0016B6682670124E8C
:105A7000503E06EB0016B668360A66700E4E503E73
:105A800006EB0016B668360CA6700B4E503E06EBC1
:105A90000016B668360EE670074E503E06EB00164E
:105AA000F6682671044E503E06EB0016F66805E0D7
:105AB000000402400064004000660040360A66713F
:105AC0008B4E06EB0016F668360CA671884E06EB78
:105AD0000016F668360EE67130B9864E366846F026
